:100000000C94791C0C940DEB0C9438EB0C9463EB72
:100010000C948EEB0C94B9EB0C94E4EB0C940FEC79
:100020000C943AEC0C94AA1C0C94AA1C0C94AA1CD8
:100030000C94AA1C0C94AA1C0C94AA1C0C94AA1C28
:100040000C94AA1C0C9493910C94AA1C0C94AA1CBA
:100050000C94AA1C0C94AA1C0C94F29F0C9465ECB2
:100060000C94AA1C0C94AC1C0C94AA1C0C94AA1CF6
:100070000C94AA1C0C94AA1C0C94AA1C0C94AA1CE8
:100080000C94AA1C0C94AA1C0C94AA1C0C94AA1CD8
:100090000C94AA1C0C94AA1C0C94AA1C0C94AA1CC8
:1000A0000C94AA1C0C94AA1C0C94AA1C0C94AA1CB8
:1000B0000C94AA1C0C94AA1C0C94AA1C0C94AA1CA8
:1000C0000C94AA1C0C94AA1C0C94AA1C0C94AA1C98
:1000D0000C94AA1C0C94AA1C0C94AA1C0C94AA1C88
:1000E0000C94AA1C65A86EA877A880A889A8A4A8C3
:1000F000B1A8BAA892A89BA8E7EAB1EAB9EAC5EA0A
:10010000D2EAF3EA00EB9AED9FEDA4EDAEEDB8ED87
:1001100031EEC2EDCAEDD2EDDCEDE6EDF0EDFFED36
:1001200009EE31EE13EE1DEE27EE52EE55EE44EEE3
:1001300048EE4EEE8CEE59EE5DEE63EE67EE6BEE42
:1001400071EE75EE79EE8CEE7FEE83EE87EE084A67
:10015000D73B3BCE016E84BCBFFDC12F3D6C7431DB
:100160009ABD56833DDA3D00C77F11BED9E4BB4C32
:100170003E916BAAAABE000000803F05A84CCDB2FC
:10018000D44EB93836A9020C50B9918688083CA6DD
:10019000AAAA2ABE000000803F00446F6E6520734B
:1001A0006176696E672066696C652E0A004D32398A
:1001B000002020506C616E6E6572427566666572D5
:1001C00042797465733A20002046726565204D655A
:1001D0006D6F72793A2000436F6D70696C65643A97
:1001E000204E6F7620203920323031370A00207CB3
:1001F00020417574686F723A2028414E5943554228
:10020000494320466F75724D61782C2056312E304F
:10021000290A00323031372D30392D323220313237
:100220003A303000204C61737420557064617465FD
:10023000643A2000312E312E350A004D61726C690E
:100240006E0020536F667477617265205265736526
:10025000740A00205761746368646F672052657385
:1002600065740A002042726F776E206F7574205299
:10027000657365740A002045787465726E616C2040
:1002800052657365740A00506F77657255700A0085
:1002900073746172740A005072696E7465722068BA
:1002A000616C7465642E206B696C6C282920636115
:1002B0006C6C6564210A004B494C4C45442E20006F
:1002C0004B494C4C206361757365642062792074DE
:1002D0006F6F206D75636820696E61637469766500
:1002E0002074696D65202D2063757272656E7420AF
:1002F000636F6D6D616E643A20004D3630300020C2
:10030000746F6F206C6F6E67206578747275736997
:100310006F6E2070726576656E7465640A00206386
:100320006F6C6420657874727573696F6E2070727B
:100330006576656E7465640A006F6B00526573655F
:100340006E643A20004E6F2063617365206C6967AC
:1003500068740A004F666673657473206170706C10
:10036000696564004572723A20546F6F206661724D
:100370002100546F6F206661722066726F6D20726B
:1003800065666572656E636520706F696E740A00DC
:1003900043290A0061626C656420286D696E2074CF
:1003A000656D702000436F6C6420657874727564AD
:1003B000657320617265200020643A0020693A006C
:1003C00020703A00205A00205900580020204D612A
:1003D000783A2000205A00205900580020204D690A
:1003E0006E3A2000B52000B32000536F667420657C
:1003F0006E6473746F70733A200053657474696E21
:10040000672054726176656C20416363656C657228
:100410006174696F6E3A200053657474696E672069
:100420005265747261637420416363656C657261C7
:1004300074696F6E3A200053657474696E6720505A
:1004400072696E7420416363656C65726174696F73
:100450006E3A200053657474696E67205072696E3D
:100460007420616E642054726176656C2041636310
:10047000656C65726174696F6E3A20004D31343578
:1004800020533C696E6465783E206F7574206F66FA
:100490002072616E67652028302D31290A002F2FC8
:1004A00020004361703A454D455247454E43595FE0
:1004B0005041525345523A300A004361703A434129
:1004C00053455F4C494748545F4252494748544E50
:1004D0004553533A300A004361703A544F47474CF2
:1004E000455F4C49474854533A300A004361703ADB
:1004F000534F4654574152455F504F5745523A303B
:100500000A004361703A4C4556454C494E475F449A
:100510004154413A300A004361703A5A5F50524F99
:1005200042453A300A004361703A4155544F4C45B8
:1005300056454C3A300A004361703A5052494E5485
:100540005F4A4F423A310A004361703A50524F4776
:10055000524553533A300A004361703A4155544F63
:100560005245504F52545F54454D503A310A004362
:1005700061703A454550524F4D3A310A0046495252
:100580004D574152455F4E414D453A4D61726C6940
:100590006E20312E312E3520284769746875622906
:1005A00020534F555243455F434F44455F55524C8E
:1005B0003A68747470733A2F2F6769746875622E85
:1005C000636F6D2F4D61726C696E4669726D7761F4
:1005D00072652F4D61726C696E2050524F544F43BB
:1005E0004F4C5F56455253494F4E3A312E30204DB5
:1005F000414348494E455F545950453A344D61781E
:100600002045585452554445525F434F554E543A35
:100610003120555549443A63656465326132662D2F
:10062000343161322D343734382D396231322D6313
:1006300035356336326633363766660A00344D61C7
:100640007820B5202E004D36303020486F74656E0E
:100650006420746F6F20636F6C6420746F20636814
:10066000616E67652066696C616D656E740A004233
:10067000656420646F6E652E0020573A0042656401
:100680002048656174696E672E0048656174696E03
:100690006720646F6E652E0020573A004E6F7A7A9D
:1006A0006C6520257300A4A5A6A7006F6B004D31D3
:1006B00031332053004B494C4C45442E20004543D8
:1006C000484F00494E464F004552524F5253004446
:1006D000525952554E00434F4D4D554E494341548A
:1006E000494F4E006F666600BE06C306C806CF06B9
:1006F000D60644454255473A004E6F7A7A6C6520DB
:10070000257300A4A5A6A700000136372603FF3CE9
:100710003D380EFF2E303E12FFFF0C0809FFFF0789
:100720001A1C18FFFF08440AFF43FFFFFFFFFFFFEB
:1007300050726F7465637465642050696E0A002599
:1007400069730025696D2025697300256968202576
:10075000696D202569730025696420256968202555
:10076000696D202569730025697920256964202534
:1007700069682025696D20256973005072696E745F
:100780002074696D653A20004D31323500456E6444
:100790002066696C65206C6973740A00426567693C
:1007A0006E2066696C65206C6973740A004E6F2058
:1007B0006D6F76652E00A4A5A6A700526573756DB2
:1007C000696E67207072696E740057616974206683
:1007D0006F7220757365722E2E2E00536C656570D6
:1007E0002E2E2E0047322F47332062616420706125
:1007F00072616D65746572730A0041637469766530
:100800002045787472756465723A200020453A007C
:10081000205A3A0020593A00583A002042403A0003
:1008200020403A00202F005761726E696E673A20AF
:10083000486F6D696E672042756D702044697669F6
:10084000736F72203C20310A0002020462757379D2
:100850003A2070617573656420666F7220696E70EE
:1008600075740A00627573793A20706175736564F6
:1008700020666F7220757365720A00627573793A2B
:100880002070726F63657373696E670A0020496E2A
:1008900076616C6964206578747275646572200095
:1008A00053442072656164206572726F720A00445D
:1008B0006F6E65207072696E74696E672066696C10
:1008C000650A004B494C4C45442E200053544F5070
:1008D0005045442E20005072696E74657220737406
:1008E0006F707065642064756520746F2065727226
:1008F0006F72732E20466978207468652065727265
:100900006F7220616E6420757365204D393939200E
:10091000746F20726573746172742E202854656D33
:100920007065726174757265206973207265736594
:10093000742E20536574206974206166746572207A
:1009400072657374617274696E67290A004E6F2054
:100950004C696E65204E756D6265722077697468AA
:1009600020636865636B73756D2C204C6173742014
:100970004C696E653A20004E6F20436865636B7367
:10098000756D2077697468206C696E65206E756D71
:100990006265722C204C617374204C696E653A203C
:1009A00000636865636B73756D206D69736D617449
:1009B00063682C204C617374204C696E653A20008A
:1009C0004C696E65204E756D626572206973206E8C
:1009D0006F74204C617374204C696E65204E756D88
:1009E0006265722B312C204C617374204C696E65EA
:1009F0003A20004D31313000656E7175657565695D
:100A00006E67202200FFFFFF0000A0400000A04012
:100A10000000004000005D4300005C43000096437E
:100A2000000080C0000000000000000000005943EA
:100A300000005C4300009643000080C000000000FE
:100A40000000000000004842000048420000204131
:100A5000000000007C3C3E5E2B3D3F2F5B5D3B2C4D
:100A60002A225C004D3331004D3834205820592063
:100A70005A20450043616E6E6F7420656E74657216
:100A8000207375626469723A20006175746F25691C
:100A90002E67006572726F722077726974696E6773
:100AA00020746F2066696C650A004E6F7420534491
:100AB000207072696E74696E670A00534420707208
:100AC000696E74696E672062797465200044656C94
:100AD0006574696F6E206661696C65642C20466977
:100AE0006C653A200046696C652064656C657465C8
:100AF000643A006F70656E206661696C65642C20D5
:100B000046696C653A200057726974696E67207493
:100B10006F2066696C653A20006F70656E206661B3
:100B2000696C65642C2046696C653A20006F7065BD
:100B30006E206661696C65642C2046696C653A209C
:100B40000046696C652073656C65637465640A00B2
:100B50002053697A653A200046696C65206F70659C
:100B60006E65643A20006F70656E206661696C6521
:100B7000642C2046696C653A20002066696C653AF1
:100B800020004E6F7720002220706F7300222070AB
:100B90006172656E743A2200535542524F55544962
:100BA0004E452043414C4C207461726765743A2273
:100BB000004B494C4C45442E2000747279696E6795
:100BC00020746F2063616C6C207375622D67636F96
:100BD00064652066696C6573207769746820746F3A
:100BE0006F206D616E79206C6576656C732E204D7B
:100BF0004158206C6576656C2069733A004D32343B
:100C0000004D323320257300534420636172642009
:100C10006F6B0A006F70656E526F6F74206661694A
:100C20006C65640A00766F6C756D652E696E69740B
:100C3000206661696C65640A00534420696E6974BA
:100C4000206661696C0A0043616E6E6F74206F707C
:100C5000656E207375626469722000486172646316
:100C60006F6465642044656661756C7420536574B7
:100C700074696E6773204C6F616465640A00DC05FB
:100C80000000DC05000064000000102700000000E8
:100C9000964300009643000020410000C841000038
:100CA000A0420000A0420000C8433333B9422028CC
:100CB00063616C63756C6174656429210A0020218D
:100CC0003D2000454550524F4D20435243206D6911
:100CD000736D61746368202D202873746F7265646E
:100CE000292000290A002062797465733B20637211
:100CF0006320002073746F72656420736574746977
:100D00006E67732072657472696576656420280069
:100D1000204D61726C696E3D563430290A002845B9
:100D20004550524F4D3D00454550524F4D20766540
:100D30007273696F6E206D69736D617463682000F2
:100D4000290A002062797465733B20637263200076
:100D500053657474696E67732053746F7265642091
:100D600028004572726F722077726974696E67200D
:100D7000746F20454550524F4D210A004572726FE5
:100D8000722077726974696E6720746F20454550D0
:100D9000524F4D210A0066696C616D656E743A2090
:100DA000007A5F6D696E3A2000795F6D696E3A2056
:100DB00000785F6D696E3A20005265706F727469D9
:100DC0006E6720656E6473746F70207374617475E0
:100DD000730A00456E6473746F7073202563202559
:100DE0006320256320256300205A3A0020593A00E9
:100DF00020583A00656E6473746F7073206869746C
:100E00003A2000556E6B6E6F776E20636F6D6D616B
:100E10006E643A20220020746F6F206C6F6E672022
:100E2000657874727573696F6E2070726576656E21
:100E30007465640A0020636F6C6420657874727551
:100E400073696F6E2070726576656E7465640A00F2
:100E50006563686F3A004572726F723A00205A3AC1
:100E60000020593A0020436F756E7420583A004DA7
:100E7000383420582059205A20450024F4D43050CA
:100E8000C38E20C2A24017828B7011127A910D81FD
:100E90006CD90AA861E108C7586607615143061E6C
:100EA0004B5D05C145A7041A411104093D98037122
:100EB0003931034036DB0265339102D4305402806D
:100EC0002E1D02632CEE01752AC501B028A0011069
:100ED0002781018F2564012B244B01E0223401ACD2
:100EE000211F018D200D01801FFC00841EED009745
:100EF0001DDF00B81CD200E61BC600201BBC00642E
:100F00001AB200B219A8000A19A0006A189900D1F3
:100F100017910040178B00B516840031167E00B380
:100F20001579003A157300C7146F0058146A00EE63
:100F30001366008813630025135E00C7125B006C04
:100F400012570015125400C111510070114F0021A9
:100F5000114B00D61049008D104700461044000286
:100F6000104200C00F4000800F3E00420F3C0006C0
:100F70000F3B00CB0E3800930E37005C0E35002778
:100F80000E3400F30D3200C10D3100900D300060C1
:100F90000D2E00320D2D00050D2C00D90C2B00AEAE
:100FA0000C2900850C29005C0C2700350C27000E4D
:100FB0000C2600E80B2400C40B2400A00B23007DAA
:100FC0000B23005A0B2100390B2100180B2000F8CD
:100FD0000A1F00D90A1E00BB0A1E009D0A1D0080C0
:100FE0000A1D00630A1C00470A1B002C0A1B001183
:100FF0000A1A00F7091A00DD091900C4091900AB23
:10100000091900920917007B091800630917004CA1
:1010100009160036091600200916000A091500F500
:10102000081500E0081400CC081400B8081400A447
:10103000081400900813007D0812006B0813005874
:10104000081200460812003408110023081100128B
:1010500008110001081100F0071000E0071000D08F
:10106000071000C0071000B0070F00A10710009183
:10107000070E0083070F0074070F0065070E005767
:10108000070E0049070E003B070D002E070E00203B
:10109000070D0013070D0006070D00F9060C00ED03
:1010A000060D00E0060C00D4060C00C8060C00BCBF
:1010B000060C00B0060C00A4060B0099060C008D6F
:1010C000060B0082060B0077060B006C060B006116
:1010D000060A0057060B004C060A0042060A0038B2
:1010E000060A002E060A0024060A001A060A001044
:1010F00006090007060A00FD050900F4050900EBD2
:10110000050900E2050900D9050900D0050900C755
:10111000050900BE050900B5050800AD050800A5D4
:101120000509009C050800940508008C050800844A
:101130000508007C050800740508006C05070065BB
:101140000508005D050700560508004E0507004725
:101150000507004005080038050700310507002A8B
:10116000050700230507001C050600160507000FEC
:101170000507000805060002050700FB040600F548
:10118000040700EE040600E8040600E2040700DBA2
:10119000040600D5040600CF040600C9040600C3F7
:1011A000040600BD040600B7040600B1040500AC47
:1011B000040600A6040600A00405009B0406009592
:1011C000040500900406008A0405008504050080DB
:1011D0000406007A04050075040500700405006B20
:1011E00004050066040500610405005C0405005761
:1011F000040500520405004D0405004804050043A1
:101200000405003E0404003A0405003504050030DE
:101210000404002C04050027040400230405001E18
:101220000404001A04040016040500110404000D4F
:10123000040400090405000404040000040400FC84
:10124000030400F8030400F4030400F0030400ECBA
:10125000030400E8030400E4030400E0030400DCEA
:10126000030400D8030400D4030400D0030400CC1A
:10127000030400C8030300C503030024F404D920B9
:101280001BC40C5C0E9804C4095F0265077101F46D
:1012900005F900FB04B30048048700C10369005846
:1012A00003550003034500BE023A00840231005397
:1012B000022A002902250004022000E4011C00C8C3
:1012C000011900AF01170098011400840113007187
:1012D0000110006101100051010E0043010D0036A4
:1012E000010B002B010B0020010B00150109000C64
:1012F00001090003010800FB000800F3000800EBEF
:10130000000700E4000600DE000600D8000600D258
:10131000000600CC000500C7000500C2000500BDA6
:10132000000400B9000400B5000400B1000400ADE1
:10133000000400A9000400A5000300A20003009F10
:101340000004009B00030098000300950002009336
:10135000000300900003008D0002008B0003008852
:101360000002008600020084000300810002007F6A
:101370000002007D0002007B00020079000200777D
:10138000000100760002007400020072000100718A
:101390000002006F0002006D0001006C0002006A94
:1013A000000100690002006700010066000100659D
:1013B00000010064000200620001006100010060A1
:1013C0000001005F0002005D0001005C0001005BA5
:1013D0000001005A000100590001005800010057A7
:1013E00000010056000100550001005400010053A7
:1013F00000000053000100520001005100010050A4
:101400000001004F0001004E0000004E0001004DA1
:101410000001004C0001004B0000004B0001004A9D
:101420000001004900010048000000480001004799
:101430000001004600000046000100450000004594
:10144000000100440001004300000043000100428D
:101450000000004200010041000000410001004086
:101460000001003F0000003F0001003E0000003E80
:101470000001003D0000003D0001003C0000003C78
:101480000000003C0001003B0000003B0001003A6E
:101490000000003A00010039000000390001003866
:1014A000000000380000003800010037000000375D
:1014B0000001003600000036000000360001003553
:1014C0000000003500000035000100340000003449
:1014D000000000340001003300000033000000333E
:1014E0000001003200000032000000320001003133
:1014F0000000003100000031000100300000003029
:10150000000000300001002F0000002F0000002F1D
:101510000000002F0001002E0000002E0000002E11
:101520000001002D0000002D0000002D0000002D06
:101530000001002C0000002C0000002C0000002CFA
:101540000001002B0000002B0000002B0000002BEE
:101550000001002A0000002A0000002A0000002AE2
:1015600000010029000000290000002900000029D6
:1015700000000029000100280000002800000028C9
:1015800000000028000000280001002700000027BC
:1015900000000027000000270000002700010026AF
:1015A00000000026000000260000002600000026A3
:1015B0000001002500000025000000250000002596
:1015C0000000002500000025000100240000002488
:1015D000000000240000002400000024000100237B
:1015E000000000230000002300000023000000236F
:1015F0000000002300000023000100220000002260
:101600000000002200000022000000220000002252
:101610000001002100000021000000210000002145
:101620000000002100000021000000210001002036
:10163000000000200000002000000020000000202A
:101640000000002000000020000000200001001F1A
:101650000000001F0000001F0000001F0000001F0E
:101660000000001F0000001F0001001E0000001EFF
:101670000000001E0000001E000000546865726D2E
:10168000616C2052756E6177617900544845524D06
:10169000414C2052554E41574159004B494C4C4505
:1016A000442E2000202D20496E76616C69642065EF
:1016B00078747275646572206E756D626572202132
:1016C0000A0048656174696E67206661696C6564CB
:1016D0000048656174696E67206661696C656400C5
:1016E0004D494E54454D5020747269676765726567
:1016F00064004572723A204D494E54454D50204287
:101700004544004572723A204D494E54454D5000B3
:101710004D415854454D5020747269676765726534
:1017200064004572723A204D415854454D50204254
:101730004544004572723A204D415854454D500081
:101740006265640A002C2073797374656D2073746C
:101750006F7070656421204865617465725F4944EB
:101760003A200023646566696E6520204445464141
:10177000554C545F4B64200023646566696E652098
:101780002044454641554C545F4B69200023646515
:1017900066696E65202044454641554C545F4B7048
:1017A0002000504944204175746F74756E65206641
:1017B000696E69736865642120507574207468656A
:1017C000206C617374204B702C204B6920616E6417
:1017D000204B6420636F6E7374616E747320667245
:1017E0006F6D2062656C6F7720696E746F20436F38
:1017F0006E66696775726174696F6E2E680A005053
:101800004944204175746F74756E65206661696C1A
:101810006564212074696D656F75740A00504944D0
:10182000204175746F74756E65206661696C6564BE
:10183000212054656D706572617475726520746FD6
:101840006F20686967680A00204B643A2000204BCB
:10185000693A2000204B703A20000A20436C6173E3
:1018600073696320504944200A002054753A2000CF
:10187000204B753A2000206D61783A2000206D6978
:101880006E3A200020643A200020626961733A2099
:101890000070012C0190012701B0012201C0011D3F
:1018A00001F00118011002130130020E016002095B
:1018B0000190020401C002FF000003FA004003F59A
:1018C000008003F000D003EB002004E6007004E188
:1018D00000E004DC004005D700C005D2004006CD82
:1018E00000D006C8008007C3003008BE00F008B969
:1018F00000C009B400B00AAF00B00BAA00D00CA51C
:1019000000000EA000500F9B00C0109600501291D6
:101910000000148C00C0158700B0178200B0197D3C
:1019200000D01B7800001E730040206E00902269DA
:1019300000F024640040275F0090295A00E02B55F6
:1019400000102E500020304B0010324600E0334192
:101950000090353C001037370070383200A0392D28
:1019600000B03A2800A03B2300603C1E00103D1947
:1019700000903D1400103E0F00703E0A00C03E056E
:1019800000003F0000403FFBFF803FF6FFC03FF1FB
:10199000FFA8A9ACAD00A8A9AAAB00E7E8CAF388E4
:1019A000888888888800FCFD888888005052494EC5
:1019B00054205041555345440020204E6F7A7A6C94
:1019C000653A20002000E0E1CCAD888888888888CE
:1019D00000FCFD888888005052494E5420504155E3
:1019E0005345440020204E6F7A7A6C653A2000E01F
:1019F000E1B7AB8888888888888800FCFD8888885B
:101A0000005052494E542050415553454400202027
:101A10004E6F7A7A6C653A20002000AAABE0E1882C
:101A20008888888888005052494E54205041555328
:101A300045440020204E6F7A7A6C653A20002000E1
:101A4000507265737320627574746F6E20746F00CA
:101A50005052494E54205041555345440020204E89
:101A60006F7A7A6C653A20002000506C656173656E
:101A700020776169742E2E2E0048656174696E6747
:101A8000206E6F7A7A6C65005052494E5420504156
:101A9000555345440020204E6F7A7A6C653A2000F9
:101AA0002000E0E1CDAD88888888888800FCFD882A
:101AB0008888005052494E542050415553454400A7
:101AC00020204E6F7A7A6C653A20002000E0E1EA2F
:101AD000EB88888888888800FCFD888888005052B8
:101AE000494E542050415553454400F4F5CCAD00C7
:101AF000E7E8CAF300524553554D45204F5054492D
:101B00004F4E533A0020204E6F7A7A6C653A20008F
:101B100020004261636B004D696E696D756D2054E4
:101B2000656D70206973203137302E00486561740F
:101B3000696E67206661696C656400022E2E00AED6
:101B4000AFB00046696C2E204469612E0046696C76
:101B50002E204469612E004520696E206D6D330092
:101B6000B52000B32000D8D90053746570732F6D71
:101B70006D004A65726B00416363656C65726174E8
:101B8000696F6E0056656C6F6369747900D8D9000F
:101B90004573746570732F6D6D0045737465707354
:101BA0002F6D6D005A73746570732F6D6D005A73CD
:101BB000746570732F6D6D005973746570732F6D3C
:101BC0006D005973746570732F6D6D005873746573
:101BD00070732F6D6D005873746570732F6D6D0089
:101BE000DFB20056652D6A65726B0056652D6A6519
:101BF000726B0056652D6A65726B00567A2D6A65A8
:101C0000726B00567A2D6A65726B0056792D6A6583
:101C1000726B0056792D6A65726B0056792D6A6574
:101C2000726B0056782D6A65726B0056782D6A6566
:101C3000726B0056782D6A65726B00DFB200416DE1
:101C40006178204500416D6178204500416D6178E3
:101C5000205A00416D6178205A00416D6178205909
:101C600000416D6178205900416D61782058004134
:101C70006D6178205800412D74726176656C004169
:101C80002D74726176656C00412D726574726163AA
:101C90007400412D72657472616374004163636501
:101CA0006C00416363656C00DFB20056547261766C
:101CB000206D696E005654726176206D696E005613
:101CC00054726176206D696E00566D696E00566DB6
:101CD000696E00566D696E00566D6178204500563C
:101CE0006D6178204500566D6178204500566D6124
:101CF00078205A00566D6178205A00566D61782020
:101D00005A00566D6178205900566D61782059004F
:101D1000566D6178205900566D6178205800566DD7
:101D20006178205800566D6178205800DFB200536A
:101D3000746F7265206D656D6F727900C4C700C4E1
:101D4000C700C4C700D3D400D3D400D3D400D5D6A1
:101D5000D1D200D5D6D1D200D5D6D1D200C9D200A9
:101D6000C3C42041425320BEBF00C3C420504C41D5
:101D700020BEBF005049442D44005049442D44002A
:101D80005049442D49005049442D49005049442DA3
:101D900050005049442D50000820DDDE000820DDB1
:101DA000DE000820DADC000820DADC000820DADCBB
:101DB000000820DADB000820DADB000820DADB008C
:101DC000B1B2D8C900B52000B32000D5D6D1D20019
:101DD000D5D6D1D200D5D6D1D200C4C700C4C70051
:101DE000D3D400D3D400D8D900496E697469616C2A
:101DF000697A6520454550524F4D004D3530320AC5
:101E00004D35303000526573746F726520666169BC
:101E10006C73616665004C6F6164206D656D6F72F7
:101E2000790053746F7265206D656D6F727900462D
:101E3000696C616D656E7400DFB200C9D200AEAF2F
:101E4000B000CCADBA00C1B2205A00C1B2205900D6
:101E5000C1B2205800A4A500C1B220302E316D6D52
:101E600000C1B220316D6D00C1B22031306D6D0006
:101E7000C1B2CE00CCADBA00C1B2205A00C1B2206E
:101E80005900C1B2205800CCADBA00C1B2205A00EE
:101E9000C1B2205900C1B2205800C3C420414253EE
:101EA00000C3C420504C4100C8C9004368616E673C
:101EB000652066696C616D656E7400B5B6B7B8B9BA
:101EC000BA004D383400BBBCBD0047323800C1B247
:101ED000CE00AEAFB000C3C42041425320BEC60006
:101EE000C3C42041425320456E6400C3C420414214
:101EF0005300A4A500C3C420504C4120C4C700C354
:101F0000C420504C4120456E6400C3C420504C4155
:101F100000A4A5004368616E67652066696C616D09
:101F2000656E7400CCADD1D200CCADD1D200CCADB9
:101F3000D1D200D5D6D1D200D5D6D1D200D5D6D1E6
:101F4000D200C4C700C4C700D3D400D3D400D1D2B8
:101F500000D1D200D1D200AEAFB0004D363030202B
:101F6000423000AEAFB000F9A800100E0F00AEAFC7
:101F7000B000F9A800F7E6F8A800F2F6CAF300F4FA
:101F8000F5CAF300F1F2CAF3000A0B0C0D00D8D920
:101F900000A4A500CFF000ECEDEEEF005072696EEA
:101FA000742061626F72746564004D323400507247
:101FB000696E7420706175736564004D313235004F
:101FC0000025753A2530327500253032753A2530B6
:101FD00032750025756420253032753A253032750A
:101FE000000920005A0059005800506C6561736563
:101FF000207265736574005052494E544552204812
:10200000414C54454400001211FEFC000000000049
:102010000A11000AFF00000B0B160C01FF9060D79D
:1020200080BA009200FFE0B240BA40D6409240FC35
:102030004004400B0B160C01FF0800FFC0884088CD
:1020400040FFC088408840FFC0882008200FC00C97
:102050000B160C00FF20804FE09080EFF042904D77
:10206000A0F2800FF031C0C2200C100C0B160C0037
:10207000FF200027F0F840204020403840E040207A
:102080004020402040E3C00C0B160C00FF67E0141A
:10209000200C20F83020002FE02420224021804610
:1020A000C018300C0B160C00FF06007FE04020002B
:1020B000007FF00200120013E032005A0087F000A7
:1020C0000C0B00FE070192032120FFFF0AFF07FF10
:1020D00000000006000A01070706020080808080D9
:1020E000800080030202060105A0A0050707060084
:1020F000005050F850F850500507070600002078AF
:10210000A07028F020050707060000C0C810204076
:1021100098180507070600006090A040A890680284
:102120000303060104C040800307070601002040A6
:102130008080804020030707060100804020202087
:10214000408005050506000120A870A820050505AA
:102150000600012020F820200203030602FFC040F1
:1021600080050101060003F8020202060200C0C059
:102170000505050600010810204080050707060038
:1021800000708898A8C8887003070706010040C03F
:1021900040404040E0050707060000708808708056
:1021A00080F8050707060000F81020100808F00561
:1021B000070706000010305090F8101005070706BA
:1021C0000000F880F0080888700507070600007016
:1021D0008080F0888870050707060000F808102046
:1021E0002020200507070600007088887088887006
:1021F0000507070600007088887808087002050542
:10220000060200C0C000C0C00206060602FFC0C031
:1022100000C04080040707060000102040804020D6
:1022200010050303060002F800F804070706000083
:1022300080402010204080050707060000708808B5
:102240001020002005070706000070880868A8A86D
:1022500070050707060000708888F88888880507D9
:1022600007060000F08888F08888F0050707060058
:102270000070888080808870050707060000F0885D
:1022800088888888F0050707060000F88080F080BD
:1022900080F8050707060000F88080F08080800540
:1022A0000707060000708880B88888700507070651
:1022B0000000888888F8888888010707060200805F
:1022C000808080808080050707060000381010108D
:1022D0001090600507070600008890A0C0A09088B5
:1022E000050707060000808080808080F8050707CA
:1022F00006000088D8A88888888805070706000097
:102300008888C8A89888880507070600007088880C
:1023100088888870050707060000F08888F08080AC
:102320008005070706000070888888A89068050760
:1023300007060000F08888F0A090880507070600CF
:1023400000788080700808F0050707060000F82074
:10235000202020202005070706000088888888881C
:10236000887005070706000088888888885020053F
:1023700007070600008888888888A8500507070690
:1023800000008888502050888805070706000088CC
:10239000888850202020050707060000F808102034
:1023A0004080F8030707060000E08080808080E01E
:1023B00005050506000180402010080307070600F8
:1023C00000E02020202020E0050303060004205028
:1023D00088050101060000F802020206020580409D
:1023E00005050506000070087888780507070600CF
:1023F000008080B0C88888F0050505060000708060
:1024000080887005070706000008086898888878A3
:102410000505050600007088F880700507070600AE
:10242000003048E0404040400506060600FF708846
:10243000887808700507070600008080B0C8888883
:1024400088010707060200800080808080800308E2
:10245000080601FF200020202020A04004070706D6
:102460000100808090A0C0A090030707060100C073
:102470004040404040E0050505060000D0A8A8A85F
:10248000A8050505060000B0C8888888050505066A
:10249000000070888888700506060600FFF08888AE
:1024A000F080800506060600FF7888887808080511
:1024B0000505060000B0C8808080050505060000FF
:1024C00070807008F00407070600004040E04040BC
:1024D00040300505050600008888889868050505D0
:1024E00006000088888850200505050600008888B9
:1024F000A8A850050505060000885020508805064C
:10250000060600FF88888878087005050506000023
:10251000F8102040F80307070601002040408040E3
:1025200040200107070602008080808080808003B1
:102530000707060100804040204040800502020657
:102540000003689000000006000A0000000C000A6A
:102550000000000C000A0000000C000A0000000C43
:10256000000A0000000C000A0000000C000A000035
:10257000000C000A0000000C000A0000000C000A19
:102580000000000C000A0000000C000A0000000C13
:10259000000A0000000C000A0000000C000A000005
:1025A000000C000A0000000C000A0000000C000AE9
:1025B0000000000C000A0000000C000A0000000CE3
:1025C000000A0000000C000A0000000C000A0000D5
:1025D000000C000A0000000C000A0000000C000AB9
:1025E0000000000C000A0000000C000A0000000CB3
:1025F000000A0000000C000A0B0B160C00FFFFE0A5
:102600000200020004000D0014802440C4200400D5
:10261000040004000B0B160C00FFF9008A00ABE06D
:10262000AC40AA40AA40AA40AA80210052808C60F7
:102630000B0B160C00FF240024003F804400840094
:102640000400FFE00A0011002080C0600B0B160C94
:1026500000FF240024003FC044000400FFE0090004
:1026600009001120212040E00B0B160C00FF200078
:102670003DE0512091201120FF201120292025E04C
:10268000452080000B0B160C00FF20807FC0084007
:10269000FFE0110020805F4080203F8000007FC06D
:1026A0000B0B160C00FF224047E09480E4802FE0E3
:1026B0004480F48007E03480C48007E00B0B160CE4
:1026C00000FF04808FE0490019002FC009000900B5
:1026D0002FC0490089000FE00B0B160C00FF100003
:1026E0003F8051000E003180C0603F8024803F80D9
:1026F00024803F800B0B160C00FF2280FA4007E07D
:10270000FA808A808A80FA802280B280AAA064E05F
:102710000B0B160C00FF222047409280EFE02200B6
:1027200047C0EC4007C03440C7C004400B0B160C38
:1027300000FF08000FC008000800FFE008000E00BE
:1027400009800840080008000A0B160C00FFFF80F3
:102750000080008080808080FF808000800080403A
:1027600080407FC00B0B160C00FF47C04100EFE01C
:10277000410045006960C9204D6049204FE0C820F4
:102780000B0B160C00FF0800040004000A000A00EE
:102790000A00110011002080404080200B0B160C15
:1027A00000FF22402200F7E0220023E03520E52050
:1027B00025402880294072200B0A140C0000444058
:1027C000444044407FC004000400842084208420CE
:1027D000FFE00B0B160C00FF040000007FC004009C
:1027E000040004007FC0040004000400FFE00B0BA1
:1027F000160C00FFFFE0110001C0FE00488025001C
:102800000400FFE015002480C4600B0B160C00FFD1
:1028100011007FC044407FC044407FC00400FFE0FF
:10282000040004000400090B160C00FF1000FF80D8
:1028300080808080FF8080808080FF80808080809A
:10284000FF800B0B160C00FF7100010003E0F92064
:102850002120412051208920FA20022004C00B0BA6
:10286000160C00FF7FC01100110011001100FFE0E5
:10287000110011002100210041000B0B160C00FF7C
:1028800021002200F44057E0502057C094405440AB
:10289000244057C094400B0B160C00FF11000A0097
:1028A0007FC004000400FFE004000A001100208043
:1028B000C0600A0B160C00FF5FC0004084408440DB
:1028C000BF4084408C409440A4408C4081C00B0B9E
:1028D000160C00FF240027C024002400FFE00000A5
:1028E0001440248047000C0070000B0B160C00FFF6
:1028F000248004800FC0E48024803FE02480248072
:10290000288050008FE00B0B160C00FF0800080019
:10291000FF8088808880FF8088808880FFA0882052
:1029200007E00B0B160C00FF27802480F480248026
:1029300074806C80A480248024A028A030600A0BBE
:10294000160C00FFFFC0804080409E4092409240A5
:102950009E4080408040FFC080400B0B160C00FF63
:102960007FC044005FC050405FC050405FC0420025
:102970004A805240A6200B0B160C00FF040007E013
:1029800004007FC04040404040407FC000005240B3
:1029900089200B0B160C00FF4780248004800480E4
:1029A000E86020002FC024402280310026C00B0B9D
:1029B000160C00FF7FC04A407FC00400FFE0040007
:1029C0003F80208024802480FFE00B0B160C00FF4A
:1029D00022004FE048204FE0C8004FE04AA05AA034
:1029E0006FE04AA048600B0B160C00FFF3C02440B8
:1029F0002A80F100228065E07220A540208023001B
:102A00002C000B0B160C00FF0400FFE080200000E0
:102A1000FFE00400240027C0240054008FE00B0BCB
:102A2000160C00FF73E01080510023E0FA202AA06A
:102A300022A022A02080214062200B0B160C00FF58
:102A40002200F78022803680E2A025A02460682042
:102A50000000524089200B0B160C00FF73C042008F
:102A600042007BE04A404A407A404A40424044406B
:102A700088400B0B160C00FF0800FFE008001FC089
:102A800030405FC090401FC01040104010C00B0B82
:102A9000160C00FF02007FE0420042005FC04200CF
:102AA00047004A805240622082000B0B160C00FF48
:102AB000F3C096409180A660A10097C09100950058
:102AC000E7E0810081000B0B160C00FF0F8088806F
:102AD0004F8008808F8040001FC035405540954092
:102AE0003FE00B0B160C00FF27E02080F8802080D1
:102AF00020803880E08020802080208061800B0B47
:102B0000160C00FF1FE0910057C0144017C09440FE
:102B100057C011005540992023000B0B160C00FFE5
:102B2000208027E0F240218022403420E2402240F1
:102B30002240224064400B0B160C00FF4100410074
:102B40004FE0E920492049206FE0C9204920492071
:102B5000CFE00B0B160C00FF2100F1004FE0A92085
:102B6000F9202FE03920E92029202FE028200B0B25
:102B7000160C00FF8FE049200920CBA049204FE030
:102B800048204BA04AA06BA050E00B0B160C00FF96
:102B90007FC004004440244024800400FFE004007F
:102BA0000400040004000B0B160C00FF820042001E
:102BB0001FE0C2005FC052405FC047004A805240E1
:102BC000BFE00B0B160C00FF04007FE048807FE0A5
:102BD00048804F8040005FC04840478098600B0BA2
:102BE000160C00FF0100EFE0A100A440AFE0A440FC
:102BF000AFE0A920E92002800C600B0B160C00FF4F
:102C000014C0F6A0BC60A780A880BFE0A920EFE0B8
:102C100009200FE009200B0B160C00FF7F8040807D
:102C20004280628054804880488054A062A0406006
:102C300080200B0B160C00FF04007FE040207FE09B
:102C400040007DE054204CA0546064A08D600B0BCC
:102C5000160C00FF82005FE0040008409FE0402067
:102C60000A800A804AA092A022600B0B160C00FF7B
:102C700041004FE0E820428044406820C7C0410046
:102C800041004100CFE00B0B160C00FF50207D20CF
:102C90009120FF2011207D205520552054205C20BC
:102CA00010E00B0B160C00FF3F8020803F8020803F
:102CB000FFE048007BC0494079404880FB600B0B37
:102CC000160C00FF0400040004002480244044404B
:102CD00044208420040004001C000B0B160C00FF91
:102CE000040004000400FFE004000A000A001100D0
:102CF00011002080C060090A140A00008880490081
:102D00000800FF80008000807F8000800080FF80BE
:102D10000B0B160C00FF21001200FFE00000788072
:102D20004A807A804A807A80488059800B0B160C42
:102D300000FF27C000000000EFE021002200244037
:102D40002FE0202050008FE00B0B160C00FF20809E
:102D50002700F90021C077002100F9E02700712049
:102D6000A92020E00B0B160C00FF10401040FDE0E6
:102D7000104038C03540524094401040104010C0C0
:102D80000B0B160C00FF0040F8400BE00840884099
:102D90005240514021405040484089C00A0B160C17
:102DA00000FF840084408480F50086008400840055
:102DB0009400A440C44083C00B0B160C00FF1120EC
:102DC0007D001100FFE02900FD4049407C8008A003
:102DD000FD600A200B0B160C00FF17C02440244096
:102DE00067C0A1002FE02100238025402920210079
:102DF0000B0B160C00FF0800FFE0100027C020801E
:102E00006100AFE021002100210023000B0B160C14
:102E100000FF24002FE0B400A480A4A0AAC02A8050
:102E200028802940324024200B0B160C00FF7FE045
:102E300080003FC020403FC010001FC010402880CD
:102E4000470038E00B0B160C00FF7FE0400040000D
:102E50004000400040004000400040004000800032
:102E60000B0B160C00FFFFE004007FC044407FC046
:102E700044407FC0440024001800E7E00B0B160C10
:102E800000FF11E0FD00450029E0FD4011407D40BC
:102E900011405540924034400B0B160C00FF2100AE
:102EA0005FE04000CFC040004FC040004FC04840EE
:102EB0004FC048400B0B160C00FF04007FC0404081
:102EC0007FC040407FC040407FC004405220BFA030
:102ED0000B0B160C00FF7FC044407FC044407FC0F6
:102EE00004001B00E0E01100110061000B0B160C48
:102EF00000FFFFE0040008007FE049204F20492048
:102F00004F20492049207FE00B0B160C00FFFDE00D
:102F100056407940388055409220FFE0040027C099
:102F20002400FFE00B0B160C00FFFB8052007BE03F
:102F30001240FA4014403F8020803F8020803F8034
:102F40000B0B160C00FF1FE0200027C06440A7C039
:102F500020002FE0282027C0210023000B0B160C97
:102F600000FFF3E082208220FA20822082208A2043
:102F7000B220C2E0020002000B0B160C00FF2480FE
:102F800046A095C0E48027E04480F5C006A03480C8
:102F9000C48007E00B0B160C00FF27C0410087E040
:102FA000E02022804580F2800FE03080C140022086
:102FB0000B0B160C00FF02000200220023C02200AF
:102FC00022002200220022002200FFE0090B160C42
:102FD00000FF08000800FF80888088808880FF80CC
:102FE000888088808880FF800B0B160C00FF2100F2
:102FF00053A04100F7E0510053C0564053C05A401F
:1030000053C042400B0B160C00FF7FC004000400AD
:103010000400FFE00A000A0012002220422081E0A2
:103020000B0B160C00FF110021002FE06100A380A4
:103030002380254025402920210021000B0B160C60
:1030400000FFF7E09420F42097E09480F48097E06C
:103050009480F4A0966004200B0B160C00FF7BE01C
:10306000948004007FC00400FFE00100FFE0210025
:10307000110007000B0B160C00FF210047C0910048
:103080002FE06080AFE02080248022802080238099
:103090000B0B160C00FF27C02440F7C02EE02AA01F
:1030A0003EE0E1002FE02380254069200B0B160C49
:1030B00000FF140027E02A006200A3C022002200C3
:1030C00023E022002200220000060900FE0000008A
:1030D000000001090008FE00000508080600004085
:1030E000F0C88888987810050808060000C0F8889D
:1030F00088888888F80505050600012030F830200A
:103100000508080600002070F820202020E00509AE
:10311000090600FF2070A8A8B88888702005090952
:103120000600FFE080C0B0A828302828050909065D
:1031300000FFF8A88888888888A8F8050A0A060089
:10314000FE205050505088A8A88870030303060042
:103150000340A0400000000000000000000000004C
:103160007FFFE00000000000000000000000007091
:1031700000E000000000000000000000000061F816
:103180006000000000000000000000000041F82086
:1031900000000000000000000000000040F02000DF
:1031A000000000000000000000000040602000005F
:1031B000000000000000000000005801A07F800017
:1031C0000000000000004104005C63A0FFC000009C
:1031D00000000000002082005EF7A0FFC000000099
:1031E000000000002082005EF7A0FFC00000000089
:1031F0000000004104005C63A07F8000000000002C
:1032000000008208005801A07F800000000000003C
:1032100001041000406020FFC00000000000000119
:1032200004100040F020FFC00000000000000082F9
:10323000080041F820FFC000000000000000410429
:103240000061F8603F000000000000000000000086
:103250007000E01E0000000000000001FFFF807F02
:10326000FFE00C0000000000000001FFFF800000F4
:10327000000000000000000000000000007FFFE0F0
:103280000000000000000000000000007000E000EE
:103290000000000000000000000000630C6000005F
:1032A00000000000000000000000470E20000000A9
:1032B0000000000000000000004F0F200000000090
:1032C00000000000000000005F0FA00000000000F0
:1032D000000000000000005E07A07F8000000000EA
:1032E000000000410400406020FFC000000000001A
:1032F000000020820040F020FFC00000000000001D
:103300000020820040F020FFC0000000000000000C
:103310004104004060207F80000000000000008227
:1033200008005E07A07F800000000000000104107C
:10333000005F0FA0FFC000000000000001041000AB
:103340004F0F20FFC000000000000000820800476F
:103350000E20FFC000000000000000410400630CCC
:10336000603F00000000000000000000007000E06E
:103370001E0000000000000001FFFF807FFFE00C46
:103380000000000000000001FFFF800000000000BE
:10339000000000000000000000000000000000002D
:1033A000000000000000000000000000000000001D
:1033B000000000000000000000000000000000000D
:1033C00000000000000000000000000000000000FD
:1033D00000000000000000000000000000000000ED
:1033E00000000000000000000000000000000000DD
:1033F00000000000000000000000000000000000CD
:1034000000000000000000000000000000000000BC
:1034100000000000000000000000000000000000AC
:10342000000000000000000000000000000000009C
:10343000000000000000000000000000000000008C
:10344000000000000000000000000000000000007C
:10345000000000000000000000000000000000006C
:10346000000000000000000000000000000000005C
:10347000000000000000000000000000000000004C
:10348000000000000000000000000000000000003C
:10349000000000000000000000000000000000002C
:1034A000000000000000000000000000000000001C
:1034B000000000000000000000000000000000000C
:1034C00000000000000000000000000000000000FC
:1034D00000000000000000000000000000000000EC
:1034E00000000000000000000000000000000000DC
:1034F00000000000000000000000000000000000CC
:1035000000000000000000000000000000000000BB
:1035100000000000000000000000000000000000AB
:10352000000000000000000000000000000000009B
:103530000808E00F1E6670E09807076600000000AC
:103540000818E00E0EE771E0980F07E70100000091
:103550001C78E01C87E773E0981F87E703000000F2
:103560001CF8E09CC78371E0181CC78301000000B1
:1035700038E0E1C8E30170E0181CE701000000003A
:1035800078C0E3C0E10070E0181CE7000000000014
:103590007388E7E0E00070E0981FE700000000801B
:1035A000F318FFE0E00070E0980FE70000000080F3
:1035B000E338FE60E00070E09807E700000000C01C
:1035C000F339FC60E00070E01818E700000000C06C
:1035D000F939F860C081E070181CC781000000E074
:1035E000F93BF060C0E7E379981FC7E7030000E00C
:1035F000803BC06080E7C339980F87E70300006015
:10360000803F806000E78019980707E7000000000E
:10361000000000000020000000000020000000006A
:10362000000000000000000000000000000000009A
:10363000000000000000000000000000000000008A
:10364000000000000000000000000000000000007A
:10365000000000000000000000000000000000006A
:10366000000000000000000000000000000000005A
:10367000000000000000000000000000000000004A
:10368000000000000000000000000000000000003A
:10369000000000000000000000000000000000002A
:1036A000000000000000000000000000000000001A
:1036B000000000000000000000000000000000000A
:1036C00000000000000000000000000000000000FA
:1036D00000000000000000000000000000000000EA
:1036E00000000000000000000000000000000000DA
:1036F00000000000000000000000000000000000CA
:1037000000000000000000000000000000000000B9
:1037100000000000000000000000000000000000A9
:103720000000000000000000000000000000000099
:103730000000000000000000000000000000000089
:103740000000000000000000000000000000000079
:103750000000000000000000000000000000000069
:103760000000000000000000000000000000000059
:103770000000000000000000000000000000000049
:103780000000000000000000000000000000000039
:103790000A0B02090C0D0E080703040100000000CB
:1037A0000000000000000000000000000000000019
:1037B00000000000000000000000121110000000D6
:1037C00000000000000000000000000000000000F9
:1037D00000000000010210202008081020401020E6
:1037E00040800201020108040201010204081020C5
:1037F00040808040201008040201800402018040C3
:10380000201008040201080402010102040810202B
:1038100040800102040810204080050505050705C9
:1038200008080808020202020A0A0808040404043C
:103830000101010101010101030303030303030368
:10384000040707070C0C0C0C0C0C0C0C02020202F7
:1038500006060606060606060B0B0B0B0B0B0B0BE0
:10386000000020002300260029002C002F00320039
:1038700000010000030106010901000022002500EB
:1038800028002B002E003100340002010000050149
:1038900008010B0100002100240027002A002D0050
:1038A0003000330001010000040107010A014E410C
:1038B0004E494E495459494E46CDCCCC3D0AD723AA
:1038C0003C17B7D13877CC2B329595E6241FB14FF2
:1038D0000A000020410000C84200401C4620BCBE37
:1038E0004CCA1B0E5AAEC59D74001E4EE98983DF7B
:1038F0003C4E11241FBECFEFD1E2DEBFCDBF00E0B2
:103900000CBF13E0A0E0B2E0EAEDF6EF01E00BBF80
:1039100002C007900D92AA3AB107D9F724E1AAEAAA
:10392000B3E001C01D92A132B207E1F718E3C0EF86
:10393000D8E300E006C022970109FE010BBF0E94F8
:10394000DEF3CA3ED10780E00807A9F70E9453EFD3
:103950000C945CFB0C9400001F920F920FB60F9218
:1039600011240BB60F922F933F938F939F93EF9356
:10397000FF932091C6009FB7F894E0912A0481E05C
:103980008E0F8F7730912B04831731F0F0E0E655DE
:10399000FC4F208380932A049FBFFF91EF919F915A
:1039A0008F913F912F910F900BBE0F900FBE0F90F4
:1039B0001F9018959B01AC01211581EE3807410538
:1039C000510549F182E08093C00060E079E08DE329
:1039D00090E00E9497F32150310941095109CA0131
:1039E000B90122E030E040E050E00E9497F33093CC
:1039F000C5002093C4008091C10080618093C10004
:103A00008091C10088608093C1008091C10080686E
:103A10008093C10008951092C00020E130E0E7CF0C
:103A20003FB7F89420912B0480912A04821759F013
:103A3000E22FF0E0E655FC4F808190E02F5F2F777A
:103A400020932B0402C08FEF9FEF3FBF08952FB745
:103A5000F89480912A0490912B042FBF891B8F77B3
:103A600008958FB7F89490912B0490932A048FBFF8
:103A700008959091C00095FFFCCF8093C6000895F3
:103A8000AF92BF92CF92DF92EF92FF920F931F936C
:103A9000CF93DF93CDB7DEB7A0970FB6F894DEBF14
:103AA0000FBECDBF6115710581059105A9F1B12C3E
:103AB000C42ED12CE12CF12CAA24A394AB0C01E050
:103AC00010E00C0F1D1F0B0D111DB7FC1A95A7015F
:103AD00096010E9475F3F8016083B901CA0161156E
:103AE00071058105910511F41B2D11C0BA2CE4CF8D
:103AF000E1E0F0E0EC0FFD1FE10FF11D17FDFA957D
:103B000080818A3038F490E3890FB3DF11501F3F72
:103B100079F714C097E3F8CF80E3A0960FB6F89436
:103B2000DEBF0FBECDBFDF91CF911F910F91FF90F0
:103B3000EF90DF90CF90BF90AF909BCFA0960FB645
:103B4000F894DEBF0FBECDBFDF91CF911F910F91D3
:103B5000FF90EF90DF90CF90BF90AF900895411508
:103B6000510511F4862F85CF8BCFAB01682F70E004
:103B700080E090E0F4CFAB01BC0180E090E0EFCFBB
:103B8000CF92DF92EF92FF926B017C0197FF0AC008
:103B90008DE26FDFF094E094D094C094C11CD11CEE
:103BA000E11CF11C4AE0C701B601FF90EF90DF90E5
:103BB000CF9066CF4115510511F4862F5ACF4A3068
:103BC000510509F4DDCF5CCFAB01BC01882777FD3F
:103BD0008095982FEFCF8DE04CDF8AE04ACFAB0184
:103BE000BC0180E090E0BBDFF6CF8F929F92AF9256
:103BF000BF92CF92DF92EF92FF92CF936B017C0145
:103C0000B42E20E030E0A9010E943BF087FF06C0FF
:103C10008DE22FDFF7FAF094F7F8F094C0E060E05F
:103C200070E080E09FE3CB1541F02DEC3CEC4CECD8
:103C30005DE30E9479F2CF5FF6CF9B01AC01C70133
:103C4000B6010E9462EF6B017C010E94AFF04B0154
:103C50005C014AE015DFCC2381F1C501B4010E946B
:103C6000DBF09B01AC01C701B6010E9461EF6B0163
:103C70007C018EE2FEDE20E030E040E251E4C7014C
:103C8000B6010E9479F26B017C010E94AAF04B01FF
:103C9000AA2497FCA094BA2CC501B40171DFC50118
:103CA000B4010E94DDF09B01AC01C701B6010E9486
:103CB00061EF6B017C01C150F1F6CF91FF90EF9065
:103CC000DF90CF90BF90AF909F908F9008958DCF51
:103CD000809103078130B9F40E9413985F9A109283
:103CE000DA068A9A1092DB069FB7F8948091080151
:103CF0008160809308019FBF1092DC06129A0E9497
:103D00004169109203070895CF92DF92EF92FF92DC
:103D10000F931F93CF93DF93EC010E94AFEC0E81C2
:103D20001F8128853985011511052105310559F5B2
:103D30003C853323A9F12A8531503C8731E0320F8D
:103D40003A874D85341301C01A86FE0134E0239F63
:103D5000E00DF11D112406851785208931890A831C
:103D60001B832C833D836B017C01C00ED11EE11CA3
:103D7000F11CCE82DF82E886F9868C819D81892BB9
:103D800079F0409A0DC06B017C01C01AD10AE20A99
:103D9000F30AF7FC05C040981E821F821886198618
:103DA000DF91CF911F910F91FF90EF90DF90CF9017
:103DB00008950E94AFEC6093FF0470930005809318
:103DC0000105909302050895CF92DF92EF92FF9242
:103DD0000F931F93CF93DF93EB01FC0160817181FF
:103DE000828193812CE3C22ED12CE12CF12CA701EE
:103DF00096010E9475F3162F072FCA01B901A7017A
:103E000096010E9475F3F62EE72ECA01B90128E14A
:103E100030E040E050E00E9475F3FB01C9016DE61F
:103E200071E00E944EF39B014F2D5E2D211531054F
:103E3000D9F00F931F93EF92FF92FF93EF939F930D
:103E40008F933F932F9387E697E09F938F93DF9312
:103E5000CF930E9449F88DB79EB70E960FB6F8948F
:103E60009EBF0FBE8DBF5BC00097C9F00F931F931D
:103E7000EF92FF92FF93EF939F938F9387E597E0E5
:103E80009F938F93DF93CF930E9449F8EDB7FEB7CE
:103E90003C960FB6F894FEBF0FBEEDBF40C0309702
:103EA000B9F00F931F93EF92FF92FF93EF938BE480
:103EB00097E09F938F93DF93CF930E9449F88DB73C
:103EC0009EB70A960FB6F8949EBF0FBE8DBF27C04F
:103ED000452BA9F00F931F93EF92FF9283E497E095
:103EE0009F938F93DF93CF930E9449F8EDB7FEB76E
:103EF00038960FB6F894FEBF0FBEEDBF10C00F93FB
:103F00001F938FE397E09F938F93DF93CF930E944C
:103F100049F80F900F900F900F900F900F90DF9136
:103F2000CF911F910F91FF90EF90DF90CF90089568
:103F300081548A3148F5482F50E0FA0133E0F59575
:103F4000E7953A95E1F7EA52F44F208130E0877027
:103F500002C0359527958A95E2F720FF15C0FA0132
:103F6000E454F44F2081222339F08091E10B9091A9
:103F7000E20B820F911D02C080E090E09093DE0B77
:103F80008093DD0B81E0089580E00895D1DF8823E0
:103F900039F081E02091DD0B3091DE0B232B09F409
:103FA00080E008951F93CF93DF938091DD0B909174
:103FB000DE0B009701F1FC01EF011191212F2F7D04
:103FC00099F0153411F01536B9F7188260E070E0F9
:103FD0008091DD0B9091DE0B0E94E2F31883562F47
:103FE000472F382F292F0BC060E070E0DF91CF9171
:103FF0001F910C94E2F350E040E030E020E0652FA8
:10400000742F832F922FDF91CF911F91089580916C
:10401000DD0B9091DE0B009731F04AE050E060E05C
:1040200070E00C944AF560E070E0CB010895809157
:10403000DD0B9091DE0B009731F04AE050E060E03C
:1040400070E00C947BF660E070E0CB010895DFDF58
:1040500097FD0CC0DCDF6F3F71058105910509F00C
:1040600014F4D5DF01C06FEF862F089580E0089526
:104070008091DD0B9091DE0B892B39F0E8DF91E028
:10408000811101C090E0892F089581E00895EF9299
:10409000FF920F931F93CF93DF93EC017B018A0173
:1040A0006C854D8564130AC0E881F9810190F08127
:1040B000E02DCE0119950E94669DF2CFF701208177
:1040C0003181F801808191815B85FE0174E0579F09
:1040D000E00DF11D11243E9631832083938382836A
:1040E0006F5F6C8781E0850F841711F08B8701C0AB
:1040F0001B86DF91CF911F910F91FF90EF90089554
:10410000AF92BF92CF92DF92FF920F931F93CF9304
:10411000DF9300D01F92CDB7DEB7F82E662351F0A3
:1041200010923A0410923604109237041092380418
:10413000109239040E94AFEC0091360410913704BC
:1041400020913804309139045B016C01A01AB10A46
:10415000C20AD30AD7FC40C0F7FE05C004EC19E040
:1041600020E030E015C0E0913A042F2D332727FDE1
:1041700030952C5F3F4F4E2F552747FD5095241704
:10418000350754F1EF1554F300E911E020E030E079
:10419000DC01CB01800F911FA21FB31F8093360457
:1041A00090933704A0933804B093390480ED97E0DE
:1041B0009A8389838CE291E09C838B83AE014F5F6D
:1041C0005F4FBE016D5F7F4F8FEC94E060DF8091A9
:1041D0003A048F5F80933A040F900F900F900F90E6
:1041E000DF91CF911F910F91FF90DF90CF90BF9003
:1041F000AF900895EAE0F1E08081806280839FB70C
:10420000F894EBE0F1E080818F7D80839FBF08957B
:1042100020E030E042E852E460911A1270911B12E3
:1042200080911C1290911D120E943EF29FB71816A9
:104230002CF4F89480910B01806204C0F894809172
:104240000B018F7D80930B019FBF08952CEF36E00B
:1042500048EF56E064EF76E080EF96E00C94148827
:10426000AF92BF92CF92DF92EF92FF920F931F9384
:10427000CF93DF9300D01F92CDB7DEB779015C01F9
:10428000AA0CBB1CAA0CBB1CC5018051994F6C0128
:10429000FC01108211821282138249835A836B833C
:1042A0007C83D4DF49815A816B817C81F601408314
:1042B000518362837383C090070520E030E0A90139
:1042C000B801C7010E943BF0811108C0F501EC5B09
:1042D000F54FE590F5900591149104C0C801D70100
:1042E0007C018D012CEF36E048EF56E064EF76E07C
:1042F00080EF96E00E94297D0E9428921092B70BD1
:104300000F900F900F900F90DF91CF911F910F9111
:10431000FF90EF90DF90CF90BF90AF900895809185
:10432000CF068093D0061092D10608959091CF06C3
:10433000E92FF0E0E554FB4F80839F5F943018F441
:104340009093CF0602C01092CF068091D1068F5F66
:104350008093D1060895CF93FC01C62F80818B33C3
:1043600099F08091D106843078F42091CF0630E620
:10437000239FC0011124BF01815B9A4F0E9425F841
:104380008C2FD4DF81E001C080E0CF9108950F939E
:104390001F93CF93DF93EC01DEDF8823B1F0E0E5DC
:1043A000FEE084918F010F5F1F4F882319F061DBBE
:1043B000F801F7CFBE0188EF99E00E94ED8982E213
:1043C00058DB8AE056DB81E001C080E0DF91CF91CD
:1043D0001F910F910895DF92EF92FF920F931F9319
:1043E000CF93DF93CDB7DEB76E970FB6F894DEBFED
:1043F0000FBECDBF60914D0570914E0561157105E1
:1044000059F14DE150E08E010F5F1F4FC8010E942E
:10441000B4F71E8EF8017F01E01AF10AD190DD2079
:1044200019F08AE0D812F7CFF801EE0DFF1D1082C7
:1044300060E0C801ACDF882379F0DD20B1F08FEFB8
:10444000E81AF80A80914D0590914E058E0D9F1D3A
:1044500090934E0580934D0581E020914D0530915C
:104460004E05232B29F480E003C080E090E0F0CFDC
:104470006E960FB6F894DEBF0FBECDBFDF91CF9121
:104480001F910F91FF90EF90DF90089590934E054C
:1044900080934D05A0CF60E08FE40E948DEE61E037
:1044A0008AE30E948DEE8C98089552985A9A089546
:1044B0008F929F92AF92BF92CF92DF92EF92FF9234
:1044C0000F931F93CF93DF93CDB7DEB728970FB627
:1044D000F894DEBF0FBECDBF80910607882309F494
:1044E00082C18091D106811102C010923C049924AE
:1044F000939440918209509183096091840970914D
:10450000850980917E0990917F09A0918009B091E1
:104510008109481759076A077B0708F4912C00E0C6
:1045200010E0BB24B394F0E6AF2E9091D1068091B9
:104530000107943008F0AEC09110ACC090913C04DB
:104540009111A8C08111A6C08091D9089091DA0874
:10455000A091DB08B091DC088093820990938309D5
:10456000A0938409B093850981ED98E00E94F552EB
:10457000882E99249394C0908209D0908309E0906A
:104580008409F090850940917E0950917F096091DE
:10459000800970918109C416D506E606F706C0F4B5
:1045A000912C8F3F2FEF920749F14AE0841709F4CD
:1045B00042C0ADE08A1709F43EC0B3E28B1719F090
:1045C0002AE382134DC020913B04211149C02EC023
:1045D000EFEAF8E084917F014FEFE41AF40A8823B0
:1045E00019F047DAF701F6CF84E097E00E943868C7
:1045F00061E084E097E00E94A96318C0E6E5FEE070
:1046000084917F019FEFE91AF90A882319F031DAC2
:10461000F701F6CFE0EAF8E084917F01AFEFEA1A04
:10462000FA0A882319F025DAF701F6CFB3E28B12E4
:1046300002C0B0923C0410923B040115110509F42C
:1046400074CF8091CF06F801A89EE00DF11D1124D2
:10465000E15BFA4F108280E069DE00E010E065CF98
:104660000F35110508F061CF2BE3821202C0B09222
:104670003B0420913B04211158CF9091CF06F801C3
:10468000A99EE00DF11D1124E15BFA4F80830F5FBD
:104690001F4F4BCF882309F4A6C0EFE4F5E02FEAC3
:1046A00035E08FE096E06FE676E01192D9011D9239
:1046B0009D01DC011D92CD01DB011D92BD01B5E024
:1046C000EF3AFB0791F7C090070560911B027091CC
:1046D0001C02882777FD8095982F0E94DDF01982B3
:1046E0001A821B821C8200E010E020E830EC0D836F
:1046F0001E832F8338877B018C0123EA3BE047EA46
:104700005BE0BE016F5F7F4FCE0105960E94297D61
:1047100063EA7BE083E090E00E94D0888091AF0B59
:104720009091B00BA091B10BB091B20B8093E006C9
:104730009093E106A093E206B093E3068091AB0B61
:104740009091AC0BA091AD0BB091AE0B8093E406B1
:104750009093E506A093E606B093E7062AE939E9C7
:1047600049E95EE36091F8067091F9068091FA06D6
:104770009091FB060E943EF21816BCF42DEC3CEC26
:104780004CEC5DE36091A70B7091A80B8091A90B95
:104790009091AA0B0E9461EF6093F8067093F9065E
:1047A0008093FA069093FB0610C08091A70B90911E
:1047B000A80BA091A90BB091AA0B8093F806909337
:1047C000F906A093FA06B093FB0685E595E5A5E00A
:1047D000B2E480931D0290931E02A0931F02B09337
:1047E00020021092010728960FB6F894DEBF0FBE84
:1047F000CDBFDF91CF911F910F91FF90EF90DF9090
:10480000CF90BF90AF909F908F900895FF920F939D
:104810001F93CF93DF93EC0184E5B8DB882321F16C
:1048200016DCF82E1816ECF4E0E5FEE084918F011A
:104830000F5F1F4F882319F01CD9F801F7CF8DE4C3
:1048400018D96AE070E0CE0196D96F2D772767FD01
:1048500070958DE898E00E94158A8AE00AD981E077
:1048600008C08093CE0404C0809107058093CE04D5
:1048700080E0DF91CF911F910F91FF900895AF924B
:10488000BF92CF92DF92EF92FF920F931F93CF933D
:10489000DF93EC018C01000F111F000F111FF801B5
:1048A000EE5DFA4F20E030E0A901608171818281E4
:1048B00093810E9462EFF801E25DFA4F208131811D
:1048C000428153810E9462EF6B017C01F801EA5E34
:1048D000FA4F6083718382839383085C154FF801DC
:1048E00065917591859194918E01000F111F000FB4
:1048F000111F9801265F3A4F5901A70196010E94A6
:1049000062EFF5016083718382839383045D154FA9
:10491000F8016591759185919491CC0FDD1FCC0FB5
:10492000DD1FC45FDD4FA70196010E9462EF68831F
:1049300079838A839B83DF91CF911F910F91FF90A1
:10494000EF90DF90CF90BF90AF9008954F925F921D
:104950006F927F92AF92BF92CF92DF92EF92FF92CF
:104960000F931F93CF93DF93EC01FC01EB5FF54FA7
:104970006491FC01EE0FFF1FEE0FFF1FEC5EF54F81
:104980004590559065907490772767FD7095872FB7
:10499000972F0E94DDF06B017C0120E030E040ECBD
:1049A0005FE3C301B2010E9479F2A70196010E9460
:1049B00079F2AB01BC0100E010E09801CE0150DCBF
:1049C000FE01EE0FFF1FEE0FFF1FE85FF54F259171
:1049D000359145915491C701B6010E9479F26B015E
:1049E0007C0120E030E0A9010E943BF05E01AA0CAE
:1049F000BB1CAA0CBB1C882309F445C000E010E0D6
:104A00009801B701A6017058CE012ADCFE01E75BD0
:104A1000F74F6491611117C0E0E5FEE084918F01CA
:104A20000F5F1F4F882319F024D8F801F7CFE7E272
:104A3000F8E084918F010F5F1F4F882319F019D878
:104A4000F801F7CF6AE0F501EC5BF54F4590559022
:104A50006590749070E080E090E00E94DDF09B0132
:104A6000AC01C301B2010E9442F02B013C01A7013D
:104A70009601C701B6010E9462EFAB01BC01930130
:104A80008201CE01EDDBFE01E352F94F81E080832C
:104A9000FE01E652F94F8083F501E25DFA4F108284
:104AA000118212821382CE01EADEF501E05EF54F3B
:104AB0006591759185919491CC0FDD1FCC0FDD1F11
:104AC0008E010051194FFE01EA5EFA4F20813181BB
:104AD000428153810E9462EFF80160837183828377
:104AE0009383B4DBC052D94FF80180819181A281B8
:104AF000B38188839983AA83BB83DF91CF911F9170
:104B00000F91FF90EF90DF90CF90BF90AF907F908C
:104B10006F905F904F900895CF92EF92FF920F9316
:104B20001F93E0901D02F0901E0200911F02109151
:104B30002002C09007052CEF36E048EF56E064EF06
:104B400076E080EF96E00E94297D1F910F91FF9003
:104B5000EF90CF900895CF92EF92FF920F931F9313
:104B6000C09007057B018C012CEE36E048EE56E044
:104B700064EE76E080EE96E00E94297D1F910F9111
:104B8000FF90EF90CF90089580E1E0EEF6E0A0EF87
:104B9000B6E001900D928A95E1F7089580E1E0EF8B
:104BA000F6E0A0EEB6E001900D928A95E1F7089547
:104BB0004F925F926F927F928F929F92AF92BF922D
:104BC000CF92DF92EF92FF920F931F93CF93DF93D9
:104BD0006C017B018A01E90180901D0290901E0208
:104BE000A0901F02B0902002FA0120813181428101
:104BF00053816091F8067091F9068091FA069091C0
:104C0000FB060E943BF087FF2CC0488059806A80D9
:104C10007B8020E030E0A901B201C3010E943BF09B
:104C2000811107C0ECE4FAE085919591A591B491CA
:104C300002C0C201D30180931D0290931E02A09373
:104C40001F02B0932002F80180819181A281B3817B
:104C50008093F8069093F906A093FA06B093FB06AA
:104C60005BDF488059806A807B8020E030E0A901CA
:104C7000B201C3010E943BF0811105C055E545E535
:104C800035E023E404C0542D452D362D272D852FE6
:104C9000942FA32FB22F80931D0290931E02A093F6
:104CA0001F02B0932002F60180819181A281B3811D
:104CB0008093F0069093F106A093F206B093F3066A
:104CC000F70180819181A281B3818093F406909352
:104CD000F506A093F606B093F7061EDFF8012081D3
:104CE0003181428153816091F8067091F90680917B
:104CF000FA069091FB060E943EF2181684F5D880C1
:104D0000E980FA80CB8120E030E0A9016D2D7E2D75
:104D10008F2D9C2F0E943BF0811107C0ECE4FAE03C
:104D200085919591A591B49104C08D2D9E2DAF2DA7
:104D3000BC2F80931D0290931E02A0931F02B0937C
:104D40002002F80180819181A281B3818093F806CD
:104D50009093F906A093FA06B093FB06DDDE0E945D
:104D6000289280921D0290921E02A0921F02B09281
:104D70002002DF91CF911F910F91FF90EF90DF9074
:104D8000CF90BF90AF909F908F907F906F905F90EB
:104D90004F9008959B01AC0164EF76E080EF96E0C0
:104DA00007CF9A0148EF56E003CFCF92DF92EF9200
:104DB000FF920F931F93CF93DF9337E0E32E33E0FF
:104DC000F32E00EE16E0C0EFD6E043E4C42E45E03B
:104DD000D42EF70181917F01ABD88823C9F0E2D8A6
:104DE000F6012081211104C020910605222329F01B
:104DF000288139814A815B8103C020E030E0A9012C
:104E00000E9462EFF801608371838283938309C0FB
:104E100088819981AA81BB81F80180839183A283D3
:104E2000B3830C5F1F4F2496FFEFCF1ADF0A8BE08E
:104E3000E81683E0F80669F686E4A8D88823B9F076
:104E4000B1D820E030E0A9010E943EF218167CF4AF
:104E5000A9D820E030E040E752E40E9442F060939D
:104E60001D0270931E0280931F0290932002DF9117
:104E7000CF911F910F91FF90EF90DF90CF90089509
:104E8000CF92DF92EF92FF92CF93DF930E94AFEC2D
:104E90006B017C0180910602882309F468C020918F
:104EA000B9043091BA042115310509F460C080912C
:104EB000B5049091B604A091B704B091B804B701BD
:104EC000A601481B590B6A0B7B0B77FD63C023308F
:104ED000310519F13CF4213031050CF448C0E0E50E
:104EE000FEE007C02430310509F041C0E0E5FEE0F6
:104EF0002AC08491EF012196882321F00E94391D58
:104F0000FE01F7CFEBE7F8E08491EF0121968823CB
:104F100071F10E94391DFE01F7CFE0E5FEE08491BA
:104F2000EF012196882321F00E94391DFE01F7CF61
:104F3000E4E6F8E08491EF0121968823C1F00E9415
:104F4000391DFE01F7CF8491EF012196882321F0CE
:104F50000E94391DFE01F7CFECE4F8E08491EF01E7
:104F60002196882321F00E94391DFE01F7CF209160
:104F7000060230E0A8EEB3E00E94B9F36C0D7D1D8F
:104F80008E1D9F1D6093B5047093B6048093B70483
:104F90009093B804DF91CF91FF90EF90DF90CF9086
:104FA00008958C9A809109148823D9F10E94D169BF
:104FB00080919F0B9091A00BA091A10BB091A20B9F
:104FC00085369105A105B1055CF00597A109B109E8
:104FD00080939F0B9093A00BA093A10BB093A20B77
:104FE00040919F0B5091A00B6091A10B7091A20B6F
:104FF00040938209509383096093840970938509D3
:1050000081ED98E00E94C25381E080930107809374
:105010000207109209148FEF90E090930905809396
:105020000805669B0BC081E08093030741E050E0D8
:1050300068E67EE1809122020C949CEA08950F9329
:105040001F93CF93DF93CDB7DEB769970FB6F89470
:10505000DEBF0FBECDBF8DEE94E00E94C4936E8B79
:105060007F8B888F998FBE016F5F7F4FCE014696F1
:105070000E94E41E60E0CE0101960E945EDAE0E547
:10508000FEE084918F010F5F1F4F882321F00E9463
:10509000391DF801F6CFBE016F5F7F4F8BE797E0B8
:1050A0000E94ED898AE00E94391D69960FB6F89436
:1050B000DEBF0FBECDBFDF91CF911F910F9108953D
:1050C0001F93CF93DF938091060781110E9428924E
:1050D000C091DF0BD091E00B80E50E94981F8823E0
:1050E00021F00E943820182F01C010E0809107079E
:1050F000882349F1212F41E0BE0184E097E00E941E
:10510000FD6483E50E94C61F882381F00E9407206A
:10511000AB01BC01409382095093830960938409D9
:105120007093850981ED98E00E94C25384E097E076
:105130000E949861111107C08DEE94E0DF91CF912C
:105140001F910C94F193DF91CF911F9108950F93CC
:105150001F93CF93DF9383E50E94C61F882309F432
:1051600045C00E942720082F80E50E94C61F882383
:1051700031F00E94072077FD39C0EB0102C0CDE07D
:10518000D0E08C2FE8E0F7E09491891731F0319668
:1051900097E0E033F907C1F716C0E6E5FEE0849139
:1051A000EF012196882321F00E94391DFE01F7CFDF
:1051B000E0E3F7E08491EF0121968823B9F00E94A3
:1051C000391DFE01F7CF61E08C2F0E948DEE602F1C
:1051D0008C2F0E94C6EE10E0B8018C2F0E9477ED54
:1051E000299721F41093090500930805DF91CF91C9
:1051F0001F910F91089588E690E008DB811147C068
:105200008091000783FD43C083E50E94C61F882369
:10521000E1F10E94D21F0E94AAF0709313126093D2
:10522000121280E00E94C9970E94D21F20E030E055
:105230004AEA52E40E943BF018164CF08DEE94E0DE
:105240000E948E9360E083E097E00E946EDA0E94F5
:10525000D21F20911A1230911B1240911C125091B2
:105260001D120E943EF2181684F488ED92E09F937E
:105270008F9389EF96E09F938F931F920E9483DC18
:105280000F900F900F900F900F900C94B989089584
:10529000EF92FF920F931F93CF93DF931F92CDB79F
:1052A000DEB78C017B0180E249830E94391D498170
:1052B0004F3F11F482E401C084E50E94391D8AE366
:1052C0000E94391DF801608171818281938142E0E1
:1052D00050E00E94671EF701408151816281738115
:1052E00084E298E00F90DF91CF911F910F91FF9092
:1052F000EF900C944C8A0F931F93CF93DF93CDB70D
:10530000DEB728970FB6F894DEBF0FBECDBF609111
:10531000121270911312882777FD8095982F0E94A2
:10532000DDF069837A838B839C8380911A1290913C
:105330001B12A0911C12B0911D128D839E83AF830E
:10534000B8874EEFBE016F5F7F4FCE010596A0DF9D
:1053500060910E1270910F12882777FD8095982F1B
:105360000E94DDF069837A838B839C83809116127F
:1053700090911712A0911812B09119128D839E83EB
:10538000AF83B8874FEFBE016F5F7F4FCE010596A9
:105390007FDFE0E2F8E084918F010F5F1F4F8823E9
:1053A00021F00E94391DF801F6CF8091CE0490E0E3
:1053B0000E94C8946AE070E00E94E41DEBE1F8E00E
:1053C00084918F010F5F1F4F882321F00E94391DA8
:1053D000F801F6CF8FEF9FEF0E94C8946AE070E06B
:1053E0000E94E41D28960FB6F894DEBF0FBECDBF15
:1053F000DF91CF911F910F910895CF92DF92EF929D
:10540000FF928091A204882379F10E94AFECC090B2
:105410009E04D0909F04E090A004F090A1046C1929
:105420007D098E099F0997FD1FC00E94AFEC6B019B
:105430007C012091A20430E0A8EEB3E00E94B9F311
:10544000C60ED71EE81EF91EC0929E04D0929F047D
:10545000E092A004F092A1044EDF8AE0FF90EF906A
:10546000DF90CF900C94391DFF90EF90DF90CF909C
:105470000895DF92EF92FF920F931F93CF93DF93E4
:1054800083E50E94C61F882319F00E94272001C0CF
:1054900080E080930007E0E5FEE08491EF01219633
:1054A000882321F00E94391DFE01F7CFE2EFF6E0DC
:1054B0008491EF012196882321F00E94391DFE017D
:1054C000F7CF80910007882381F108EE16E0C0E055
:1054D000D0E020E08091000790E00C2E02C095956E
:1054E00087950A94E2F780FF17C0DD24D394D20E8B
:1054F000222319F08CE20E94391DF8012591349184
:10550000F90184917901FFEFEF1AFF0A882329F04E
:105510000E94391D9701F4CFD22E21960E5F1F4FA6
:10552000C530D10569F02D2DD5CFE4EEF6E084919C
:10553000EF012196882321F00E94391DFE01F7CF4B
:105540008AE0DF91CF911F910F91FF90EF90DF9054
:105550000C94391DCF93DF9383E50E94C61F8823E7
:1055600051F00E9427208D3308F08CE380930602CF
:10557000DF91CF910895E0E5FEE08491EF0121965F
:10558000882321F00E94391DFE01F7CF40910602C9
:1055900050E060E070E08EEA96E00E94888A8AE03F
:1055A000DF91CF910C94391DCF93DF9383E50E9457
:1055B000C61F882319F00E94072002C060E070E037
:1055C000EB01DD27C230D105B8F0E6E5FEE08491BD
:1055D000EF012196882321F00E94391DFE01F7CFAB
:1055E000ECE7F4E08491EF012196882309F44EC0A2
:1055F0000E94391DFE01F6CF88E40E94C61F882351
:10560000A9F00E9407206A3A71053CF0653081E0FC
:1056100078072CF064E071E002C06AEA70E0FE01F5
:10562000EE0FFF1FEB5FFB4E7183608386E40E94E9
:10563000C61F882399F00E9407206F3F710519F05B
:1056400014F06FEF70E0FE01EE0FFF1FE350FC4E11
:1056500077FF02C060E070E07183608382E40E94A3
:10566000C61F882399F00E9407206530710534F029
:10567000683871052CF067E870E002C065E070E002
:10568000CC0FDD1FCF5FDB4E79836883DF91CF9135
:1056900008957F928F929F92AF92BF92CF92DF92A6
:1056A000EF92FF920F931F93CF93DF9307E013E0E6
:1056B000C1E7DCE0712CF80181918F010E94981FF5
:1056C000882309F46CC0F3E07F1263C00E94D21FEC
:1056D0006B017C0120E030E040EA51E40E943BF0A5
:1056E00087FF4EC0A701960160917D0C70917E0CE2
:1056F00080917F0C9091800C0E9442F04B015C01E4
:105700009B01AC016091290C70912A0C80912B0CAB
:1057100090912C0C0E9479F26093290C70932A0CC2
:1057200080932B0C90932C0CA501940160918D0C0F
:1057300070918E0C80918F0C9091900C0E9479F258
:1057400060938D0C70938E0C80938F0C9093900CC3
:1057500060915D0C70915E0C80915F0C9091600C7B
:105760000E94DBF0A50194010E9479F20E94AFF043
:1057700060935D0C70935E0C80935F0C9093600C53
:10578000C0927D0CD0927E0CE0927F0CF092800C47
:1057900006C00E94D21F688379838A839B83739497
:1057A000249684E0781287CFDF91CF911F910F91DB
:1057B000FF90EF90DF90CF90BF90AF909F908F9031
:1057C0007F900C949589CF93DF93E8E1F8E0849182
:1057D000EF012196882321F00E94391DFE01F7CFA9
:1057E0006091F0067091F1068091F2069091F306B7
:1057F00042E050E00E94671EE4E1F8E08491EF018E
:105800002196882321F00E94391DFE01F7CF609177
:10581000F4067091F5068091F6069091F70642E045
:1058200050E00E94671EE0E1F8E08491EF012196CC
:10583000882321F00E94391DFE01F7CF6091F80600
:105840007091F9068091FA069091FB0642E050E0D3
:105850000E94671EECE0F8E08491EF012196882316
:1058600021F00E94391DFE01F7CF6091FC06709176
:10587000FD068091FE069091FF0642E050E00E94F6
:10588000671EDF91CF910C940D93EF92FF920F93CF
:105890001F93CF93DF9300D01F921F92CDB7DEB737
:1058A0008D830E94289240911D0250911E026091AA
:1058B0001F02709120024093490550934A0560935E
:1058C0004B0570934C0520911B0230911C023093C4
:1058D00048052093470524E630E030931C022093CE
:1058E0001B020E94D91E91E09093B90B8D8181110A
:1058F00018C088E50E94981FF82E89E50E94981F1D
:10590000182F8AE50E94981FF11007C0111110C0CE
:10591000E12C882391F001E018C0082F112389F0B1
:1059200001C001E0102FEE24E394FF24F3940DC096
:10593000082FE12CFF24F39407C0F12C00E011E0C4
:1059400004C0EE24E394F12C10E028D9111105C015
:10595000E11003C0FF2009F43EC020E030E0A901BF
:1059600060911E0570911F05809120059091210581
:105970000E9462EF6093E8067093E9068093EA065E
:105980009093EB062091F8063091F9064091FA06C3
:105990005091FB060E943EF2181654F419821A82A6
:1059A0001B821C82BE016F5F7F4F88EE96E0F2D9AA
:1059B000111105C0E11003C0F11007C00CC080E058
:1059C00090E00E94A6241123B9F381E090E00E94A8
:1059D000A624111102C0002321F082E090E00E9471
:1059E000A6240E9426218091B80B8093B90B809148
:1059F000490590914A05A0914B05B0914C058093C3
:105A00001D0290931E02A0931F02B093200280916A
:105A100047059091480590931C0280931B020E94B9
:105A2000D91E83E080934602CEDE0F900F900F9038
:105A30000F900F90DF91CF911F910F91FF90EF90FA
:105A400008958F929F92AF92BF92CF92DF92EF9282
:105A5000FF920F931F93CF93DF9300D01F92CDB788
:105A6000DEB785E40E94C61FB82E811102C00E94D5
:105A7000289217E0C12E13E0D12E0EE2E02E05E0B1
:105A8000F02E00EF16E0812C912CA12CF6018191D3
:105A90006F010E94C61F882361F1F80120813181C6
:105AA0004281538129833A834B835C830E94D21FB6
:105AB000F801608371838283938329813A814B81CA
:105AC0005C81F3E08F16A9F00E9461EF9B01AC01AD
:105AD000F70160817181828193810E9462EFF701F9
