:100000000C94F01A0C94C7E90C94F2E90C941DEAD4
:100010000C9448EA0C9473EA0C949EEA0C94C9EA96
:100020000C94F4EA0C94211B0C94211B0C94211BBE
:100030000C94211B0C94211B0C94211B0C94211B50
:100040000C94211B0C940A900C94211B0C94211BE2
:100050000C94211B0C94211B0C94699E0C941FEB97
:100060000C94211B0C94231B0C94211B0C94211B1E
:100070000C94211B0C94211B0C94211B0C94211B10
:100080000C94211B0C94211B0C94211B0C94211B00
:100090000C94211B0C94211B0C94211B0C94211BF0
:1000A0000C94211B0C94211B0C94211B0C94211BE0
:1000B0000C94211B0C94211B0C94211B0C94211BD0
:1000C0000C94211B0C94211B0C94211B0C94211BC0
:1000D0000C94211B0C94211B0C94211B0C94211BB0
:1000E0000C94211B01A70AA713A71CA725A740A7AB
:1000F0004DA756A72EA737A7A1E96BE973E97FE9BA
:100100008CE9ADE9BAE954EC59EC5EEC68EC72ECC0
:10011000EBEC7CEC84EC8CEC96ECA0ECAAECB9EC6F
:10012000C3ECEBECCDECD7ECE1EC0CED0FEDFEEC21
:1001300002ED08ED46ED13ED17ED1DED21ED25ED7A
:100140002BED2FED33ED46ED39ED3DED41ED084A58
:10015000D73B3BCE016E84BCBFFDC12F3D6C7431DB
:100160009ABD56833DDA3D00C77F11BED9E4BB4C32
:100170003E916BAAAABE000000803F05A84CCDB2FC
:10018000D44EB93836A9020C50B9918688083CA6DD
:10019000AAAA2ABE000000803F00446F6E6520734B
:1001A0006176696E672066696C652E0A004D32398A
:1001B000002020506C616E6E6572427566666572D5
:1001C00042797465733A20002046726565204D655A
:1001D0006D6F72793A2000436F6D70696C65643A97
:1001E000204E6F7620203920323031370A00207CB3
:1001F00020417574686F723A2028414E5943554228
:10020000494320466F75724D61782C2056312E304F
:10021000290A00323031372D30392D323220313237
:100220003A303000204C61737420557064617465FD
:10023000643A2000312E312E350A004D61726C690E
:100240006E0020536F667477617265205265736526
:10025000740A00205761746368646F672052657385
:1002600065740A002042726F776E206F7574205299
:10027000657365740A002045787465726E616C2040
:1002800052657365740A00506F77657255700A0085
:1002900073746172740A005072696E7465722068BA
:1002A000616C7465642E206B696C6C282920636115
:1002B0006C6C6564210A004D4F52542E004B494C22
:1002C0004C2063617573656420627920746F6F20C0
:1002D0006D75636820696E61637469766520746901
:1002E0006D65202D2063757272656E7420636F6D6D
:1002F0006D616E643A20004D3630300020746F6FAF
:10030000206C6F6E6720657874727573696F6E20EC
:1003100070726576656E7465640A0020636F6C6444
:1003200020657874727573696F6E2070726576657A
:100330006E7465640A006F6B00526573656E643A93
:1003400020004E6F2063617365206C696768740AD2
:100350000044C3A963616C61676573206170706C50
:10036000697175C3A973004572723A20546F6F208A
:100370006661722100546F6F206661722066726F31
:100380006D207265666572656E636520706F696E5B
:10039000740A0043290A0061626C656420286D6953
:1003A0006E2074656D702000436F6C6420657874F6
:1003B000727564657320617265200020643A0020C4
:1003C000693A0020703A00205A0020590058002055
:1003D000204D61783A2000205A0020590058002012
:1003E000204D696E3A2000417272C3AA74004D61BB
:1003F000726368652000536F667420656E64737461
:100400006F70733A200053657474696E672054727C
:100410006176656C20416363656C65726174696FB8
:100420006E3A200053657474696E67205265747269
:1004300061637420416363656C65726174696F6E9A
:100440003A200053657474696E67205072696E7447
:1004500020416363656C65726174696F6E3A200058
:1004600053657474696E67205072696E7420616E92
:10047000642054726176656C20416363656C6572BB
:100480006174696F6E3A20004D31343520533C69F8
:100490006E6465783E206F7574206F662072616EA1
:1004A00067652028302D31290A002F2F2000436155
:1004B000703A454D455247454E43595F504152535E
:1004C00045523A300A004361703A434153455F4C0C
:1004D000494748545F4252494748544E4553533A5E
:1004E000300A004361703A544F47474C455F4C49CE
:1004F000474854533A300A004361703A534F4654C8
:10050000574152455F504F5745523A300A004361B8
:10051000703A4C4556454C494E475F444154413A28
:10052000300A004361703A5A5F50524F42453A30A8
:100530000A004361703A4155544F4C4556454C3A78
:10054000300A004361703A5052494E545F4A4F425C
:100550003A310A004361703A50524F475245535363
:100560003A300A004361703A4155544F5245504F5A
:1005700052545F54454D503A310A004361703A4538
:100580004550524F4D3A310A004649524D5741525B
:10059000455F4E414D453A4D61726C696E20312E7A
:1005A000312E3520284769746875622920534F55CC
:1005B0005243455F434F44455F55524C3A6874740B
:1005C00070733A2F2F6769746875622E636F6D2F91
:1005D0004D61726C696E4669726D776172652F4DFF
:1005E00061726C696E2050524F544F434F4C5F56AE
:1005F000455253494F4E3A312E30204D41434849E0
:100600004E455F545950453A344D61782045585411
:1006100052554445525F434F554E543A312055553B
:1006200049443A63656465326132662D3431613222
:100630002D343734382D396231322D6335356336F8
:10064000326633363766660A00344D61782041726F
:1006500072C3AA742E004D36303020486F74656E18
:100660006420746F6F20636F6C6420746F20636804
:10067000616E67652066696C616D656E740A004322
:10068000686175666665206C6974207465726D6951
:100690006EC3A9650020573A004C697420656E202E
:1006A000636861756666652E2E00436861756666CF
:1006B00065207465726D696EC3A9650020573A00A4
:1006C0004E6F7A7A6C6520257300344D6178207006
:1006D00072C3AA74652E006F6B004D313133205305
:1006E000004D4F52542E004543484F00494E464F4F
:1006F000004552524F52530044525952554E0043F6
:100700004F4D4D554E49434154494F4E006F66661B
:1007100000E706EC06F106F806FF06444542554799
:100720003A004E6F7A7A6C6520257300344D6178FB
:10073000207072C3AA74652E00000136372603FFAD
:100740003C3D380EFF2E303E12FFFF0C0809FFFF24
:10075000071A1C18FFFF08440AFF43FFFFFFFFFFB3
:10076000FF50726F7465637465642050696E0A008F
:100770002569730025696D20256973002569682046
:1007800025696D2025697300256964202569682025
:1007900025696D2025697300256979202569642004
:1007A0002569682025696D20256973005072696E7E
:1007B000742074696D653A20004D31323500456E04
:1007C000642066696C65206C6973740A0042656711
:1007D000696E2066696C65206C6973740A004D6FE0
:1007E000746575727320626C6F7175C3A9732E0086
:1007F000344D6178207072C3AA74652E0052657002
:1008000072692E206465206C27696D70722E00411C
:100810007474656E2E206465206C277574696C2E67
:10082000005265706F732E2E2E0047322F473320F3
:1008300062616420706172616D65746572730A0033
:100840004163746976652045787472756465723A9F
:10085000200020453A00205A3A0020593A00583AE0
:10086000002042403A0020403A00202F0057617299
:100870006E696E673A20486F6D696E672042756DCC
:10088000702044697669736F72203C20310A00023F
:100890000204627573793A2070617573656420662D
:1008A0006F7220696E7075740A00627573793A20F0
:1008B00070617573656420666F7220757365720A66
:1008C00000627573793A2070726F63657373696E35
:1008D000670A0020496E76616C69642065787472DD
:1008E00075646572200053442072656164206572EE
:1008F000726F720A00446F6E65207072696E74695F
:100900006E672066696C650A004D4F52542E005385
:10091000544F5050C3892E005072696E7465722016
:1009200073746F707065642064756520746F2065E2
:1009300072726F72732E2046697820746865206524
:1009400072726F7220616E6420757365204D393943
:100950003920746F20726573746172742E2028546C
:10096000656D70657261747572652069732072655A
:100970007365742E205365742069742061667465F4
:10098000722072657374617274696E67290A004E11
:100990006F204C696E65204E756D626572207769B7
:1009A000746820636865636B73756D2C204C61738C
:1009B00074204C696E653A20004E6F204368656371
:1009C0006B73756D2077697468206C696E65206E35
:1009D000756D6265722C204C617374204C696E6574
:1009E0003A2000636865636B73756D206D69736D84
:1009F000617463682C204C617374204C696E653A95
:100A000020004C696E65204E756D626572206973B9
:100A1000206E6F74204C617374204C696E65204E9B
:100A2000756D6265722B312C204C617374204C699A
:100A30006E653A20004D31313000656E7175657517
:100A400065696E67202200FFFFFF0000A0400000E4
:100A5000A0400000004000005D4300005C43000037
:100A60009643000080C0000000000000000000006D
:100A7000594300005C4300009643000080C0000022
:100A80000000000000000000484200004842000052
:100A90002041000000007C3C3E5E2B3D3F2F5B5D13
:100AA0003B2C2A225C004D3331004D383420582035
:100AB00059205A20450043616E6E6F7420656E7434
:100AC0006572207375626469723A20006175746F93
:100AD00025692E67006572726F722077726974697A
:100AE0006E6720746F2066696C650A004E6F742013
:100AF0005344207072696E74696E670A0053442013
:100B00007072696E74696E67206279746520004442
:100B1000656C6574696F6E206661696C65642C2014
:100B200046696C653A200046696C652064656C65B1
:100B30007465643A006F70656E206661696C656407
:100B40002C2046696C653A200057726974696E679B
:100B500020746F2066696C653A20006F70656E20A6
:100B60006661696C65642C2046696C653A20006F8B
:100B700070656E206661696C65642C2046696C65E1
:100B80003A200046696C652073656C656374656422
:100B90000A002053697A653A200046696C65206F27
:100BA00070656E65643A20006F70656E20666169DD
:100BB0006C65642C2046696C653A20002066696C7F
:100BC000653A20004E6F7720002220706F7300225C
:100BD00020706172656E743A2200535542524F552F
:100BE00054494E452043414C4C20746172676574F2
:100BF0003A22004D4F52542E00747279696E67206C
:100C0000746F2063616C6C207375622D67636F6411
:100C1000652066696C6573207769746820746F6FEE
:100C2000206D616E79206C6576656C732E204D4168
:100C300058206C6576656C2069733A004D3234003B
:100C40004D32332025730053442063617264206F5A
:100C50006B0A006F70656E526F6F74206661696C0D
:100C600065640A00766F6C756D652E696E69742017
:100C70006661696C65640A00534420696E6974207A
:100C80006661696C0A0043616E6E6F74206F7065F7
:100C90006E20737562646972200048617264636FCC
:100CA0006465642044656661756C74205365747472
:100CB000696E6773204C6F616465640A00DC05002F
:100CC00000DC050000640000001027000000009612
:100CD0004300009643000020410000C8410000A0EE
:100CE000420000A0420000C8433333B942202863C9
:100CF000616C63756C6174656429210A0020213D73
:100D00002000454550524F4D20435243206D69739A
:100D10006D61746368202D202873746F7265642977
:100D20002000290A002062797465733B2063726396
:100D300020002073746F7265642073657474696E2B
:100D40006773207265747269657665642028002077
:100D50004D61726C696E3D563430290A0028454554
:100D600050524F4D3D00454550524F4D20766572D3
:100D700073696F6E206D69736D61746368200029FB
:100D80000A002062797465733B206372632000530C
:100D9000657474696E67732053746F72656420287C
:100DA000004572726F722077726974696E67207481
:100DB0006F20454550524F4D210A004572726F72A7
:100DC0002077726974696E6720746F2045455052B0
:100DD0004F4D210A0066696C616D656E743A2000A2
:100DE0007A5F6D696E3A2000795F6D696E3A200016
:100DF000785F6D696E3A20005265706F7274696E2B
:100E00006720656E6473746F70207374617475739A
:100E10000A00427574C3A9657320256320256320E9
:100E2000256320256300205A3A0020593A002058B3
:100E30003A00656E6473746F7073206869743A2049
:100E400000556E6B6E6F776E20636F6D6D616E64B3
:100E50003A20220020746F6F206C6F6E67206578D7
:100E600074727573696F6E2070726576656E7465E5
:100E7000640A0020636F6C6420657874727573690E
:100E80006F6E2070726576656E7465640A006563C6
:100E9000686F3A004572726F723A00205A3A002029
:100EA000593A0020436F756E7420583A004D38341B
:100EB00020582059205A20450024F4D43050C38EA5
:100EC00020C2A24017828B7011127A910D816CD9C9
:100ED0000AA861E108C7586607615143061E4B5DC9
:100EE00005C145A7041A411104093D980371393120
:100EF000034036DB0265339102D4305402802E1D4C
:100F000002632CEE01752AC501B028A001102781CB
:100F1000018F2564012B244B01E0223401AC211FF9
:100F2000018D200D01801FFC00841EED00971DDF48
:100F300000B81CD200E61BC600201BBC00641AB21D
:100F400000B219A8000A19A0006A189900D11791D7
:100F50000040178B00B516840031167E00B315795A
:100F6000003A157300C7146F0058146A00EE136638
:100F7000008813630025135E00C7125B006C1257D4
:100F80000015125400C111510070114F0021114B76
:100F900000D61049008D1047004610440002104250
:100FA00000C00F4000800F3E00420F3C00060F3B88
:100FB00000CB0E3800930E37005C0E3500270E3440
:100FC00000F30D3200C10D3100900D3000600D2E88
:100FD00000320D2D00050D2C00D90C2B00AE0C2974
:100FE00000850C29005C0C2700350C27000E0C2610
:100FF00000E80B2400C40B2400A00B23007D0B236E
:10100000005A0B2100390B2100180B2000F80A1F91
:1010100000D90A1E00BB0A1E009D0A1D00800A1D81
:1010200000630A1C00470A1B002C0A1B00110A1A45
:1010300000F7091A00DD091900C4091900AB0919E4
:1010400000920917007B091800630917004C091664
:101050000036091600200916000A091500F50815C2
:1010600000E0081400CC081400B8081400A4081408
:1010700000900813007D0812006B08130058081236
:10108000004608120034081100230811001208114C
:101090000001081100F0071000E0071000D0071051
:1010A00000C0071000B0070F00A107100091070E45
:1010B0000083070F0074070F0065070E0057070E27
:1010C0000049070E003B070D002E070E0020070DFC
:1010D0000013070D0006070D00F9060C00ED060DC4
:1010E00000E0060C00D4060C00C8060C00BC060C80
:1010F00000B0060C00A4060B0099060C008D060B30
:101100000082060B0077060B006C060B0061060AD6
:101110000057060B004C060A0042060A0038060A71
:10112000002E060A0024060A001A060A0010060904
:101130000007060A00FD050900F4050900EB050992
:1011400000E2050900D9050900D0050900C7050915
:1011500000BE050900B5050800AD050800A5050994
:10116000009C050800940508008C0508008405080B
:10117000007C050800740508006C0507006505087B
:10118000005D050700560508004E050700470507E6
:10119000004005080038050700310507002A05074B
:1011A00000230507001C050600160507000F0507AC
:1011B000000805060002050700FB040600F5040709
:1011C00000EE040600E8040600E2040700DB040663
:1011D00000D5040600CF040600C9040600C30406B7
:1011E00000BD040600B7040600B1040500AC040607
:1011F00000A6040600A00405009B04060095040553
:1012000000900406008A0405008504050080040699
:10121000007A04050075040500700405006B0405E0
:101220000066040500610405005C04050057040520
:1012300000520405004D0405004804050043040560
:10124000003E0404003A040500350405003004049F
:10125000002C04050027040400230405001E0404D8
:10126000001A04040016040500110404000D04040F
:1012700000090405000404040000040400FC030445
:1012800000F8030400F4030400F0030400EC03047A
:1012900000E8030400E4030400E0030400DC0304AA
:1012A00000D8030400D4030400D0030400CC0304DA
:1012B00000C8030300C503030024F404D9201BC4A1
:1012C0000C5C0E9804C4095F0265077101F405F90E
:1012D00000FB04B30048048700C1036900580355AC
:1012E0000003034500BE023A008402310053022A83
:1012F000002902250004022000E4011C00C8011995
:1013000000AF01170098011400840113007101104F
:10131000006101100051010E0043010D0036010B68
:10132000002B010B0020010B00150109000C010925
:101330000003010800FB000800F3000800EB0007B1
:1013400000E4000600DE000600D8000600D2000619
:1013500000CC000500C7000500C2000500BD000468
:1013600000B9000400B5000400B1000400AD0004A1
:1013700000A9000400A5000300A20003009F0004D0
:10138000009B0003009800030095000200930003F7
:1013900000900003008D0002008B00030088000213
:1013A000008600020084000300810002007F00022A
:1013B000007D0002007B000200790002007700013E
:1013C0000076000200740002007200010071000249
:1013D000006F0002006D0001006C0002006A000155
:1013E000006900020067000100660001006500015D
:1013F0000064000200620001006100010060000161
:10140000005F0002005D0001005C0001005B000164
:10141000005A000100590001005800010057000166
:101420000056000100550001005400010053000067
:101430000053000100520001005100010050000162
:10144000004F0001004E0000004E0001004D000161
:10145000004C0001004B0000004B0001004A00015D
:101460000049000100480000004800010047000159
:101470000046000000460001004500000045000154
:10148000004400010043000000430001004200004E
:101490000042000100410000004100010040000145
:1014A000003F0000003F0001003E0000003E000140
:1014B000003D0000003D0001003C0000003C000039
:1014C000003C0001003B0000003B0001003A00002E
:1014D000003A000100390000003900010038000026
:1014E000003800000038000100370000003700011C
:1014F0000036000000360000003600010035000014
:101500000035000000350001003400000034000008
:1015100000340001003300000033000000330001FC
:1015200000320000003200000032000100310000F3
:1015300000310000003100010030000000300000E8
:1015400000300001002F0000002F0000002F0000DD
:10155000002F0001002E0000002E0000002E0001D0
:10156000002D0000002D0000002D0000002D0001C6
:10157000002C0000002C0000002C0000002C0001BA
:10158000002B0000002B0000002B0000002B0001AE
:10159000002A0000002A0000002A0000002A0001A2
:1015A0000029000000290000002900000029000097
:1015B0000029000100280000002800000028000089
:1015C000002800000028000100270000002700007C
:1015D000002700000027000000270001002600006F
:1015E0000026000000260000002600000026000162
:1015F0000025000000250000002500000025000057
:101600000025000000250001002400000024000047
:10161000002400000024000000240001002300003A
:10162000002300000023000000230000002300002E
:10163000002300000023000100220000002200001F
:101640000022000000220000002200000022000111
:101650000021000000210000002100000021000006
:1016600000210000002100000021000100200000F6
:1016700000200000002000000020000000200000EA
:10168000002000000020000000200001001F0000DA
:10169000001F0000001F0000001F0000001F0000CE
:1016A000001F0000001F0001001E0000001E0000BF
:1016B000001E0000001E000000546865726D616C21
:1016C0002052756E6177617900454D42414C4C4521
:1016D0004D454E5420544845524D2E004D4F5254C6
:1016E0002E00202D20496E76616C69642065787427
:1016F0007275646572206E756D62657220210A00D4
:1017000048656174696E67206661696C656400454F
:1017100072726575722064652063686175666665BE
:10172000004D494E54454D5020747269676765728B
:101730006564004572723A2054454D502E204D4943
:101740004E204C4954004572723A2054454D502E5B
:10175000204D494E004D415854454D5020747269FA
:10176000676765726564004572723A2054454D5052
:101770002E204D4158204C4954004572723A205455
:10178000454D502E204D4158006265640A002C20C2
:1017900073797374656D2073746F70706564212044
:1017A0004865617465725F49443A20002364656648
:1017B000696E65202044454641554C545F4B64207A
:1017C0000023646566696E65202044454641554C9A
:1017D000545F4B69200023646566696E6520204470
:1017E000454641554C545F4B7020005049442041C0
:1017F00075746F74756E652066696E69736865646B
:10180000212050757420746865206C617374204BBE
:10181000702C204B6920616E64204B6420636F6ED6
:101820007374616E74732066726F6D2062656C6F85
:101830007720696E746F20436F6E66696775726199
:1018400074696F6E2E680A00504944204175746FA8
:1018500074756E65206661696C6564212074696DBC
:10186000656F75740A00504944204175746F747532
:101870006E65206661696C6564212054656D7065D4
:1018800072617475726520746F6F20686967680A89
:1018900000204B643A2000204B693A2000204B7016
:1018A0003A20000A20436C617373696320504944F5
:1018B000200A002054753A2000204B753A20002061
:1018C0006D61783A2000206D696E3A200020643AFC
:1018D000200020626961733A200070012C019001A0
:1018E0002701B0012201C0011D01F0011801100201
:1018F000130130020E016002090190020401C002CE
:10190000FF000003FA004003F5008003F000D0035D
:10191000EB002004E6007004E100E004DC00400578
:10192000D700C005D2004006CD00D006C800800711
:10193000C3003008BE00F008B900C009B400B00A06
:10194000AF00B00BAA00D00CA500000EA000500FF5
:101950009B00C01096005012910000148C00C0151E
:101960008700B0178200B0197D00D01B7800001EE0
:10197000730040206E0090226900F024640040272C
:101980005F0090295A00E02B5500102E50002030A7
:101990004B0010324600E033410090353C001037D8
:1019A000370070383200A0392D00B03A2800A03B33
:1019B0002300603C1E00103D1900903D1400103EB5
:1019C0000F00703E0A00C03E0500003F0000403F8F
:1019D000FBFF803FF6FFC03FF1FF4361727465205B
:1019E0007265746972C3A965004361727465206988
:1019F0006E73C3A972C3A96500706F75722072659A
:101A00007072656E64726500617474656E746520D1
:101A1000696D7072657373696F6E005052494E54F0
:101A200020504155534544002020427573653A20AB
:101A3000002000657874727573696F6E2066696C3A
:101A4000616D656E7400617474656E7465206465A3
:101A5000005052494E5420504155534544002020D7
:101A6000427573653A20006368617267656D656EE3
:101A7000742066696C616D656E7400617474656E66
:101A80007465206465005052494E542050415553AE
:101A90004544002020427573653A2000706F7572CE
:101AA00020636F6E74696E7565722E2E2E006574DC
:101AB000206170702E20626F75746F6E00696E7396
:101AC000C3A97265722066696C616D656E740050A1
:101AD00052494E54205041555345440020204275F0
:101AE00073653A2000200050722063686175666655
:101AF0006572206C61206275736500507265737346
:101B00006572206C6520626F75746F6E2E2E2E00CC
:101B10005052494E542050415553454400202042D4
:101B20007573653A2000200050617469656E7465B4
:101B30007A205356502E2E2E004275736520656E06
:101B40002063686175666665005052494E542050A6
:101B50004155534544002020427573653A200020CA
:101B60000064C3A9636861726765722066696C610D
:101B70006D656E7400617474656E746520646500D3
:101B80005052494E54205041555345440020204264
:101B90007573653A20006368616E676572006475ED
:101BA0002066696C616D656E7400417474656E7455
:101BB000652044C3A96D6172726167650050524926
:101BC0004E5420504155534544002B206578747283
:101BD0007573696F6E0052657072656E6472652010
:101BE000696D70722E00524553554D45204F50542B
:101BF000494F4E533A002020427573653A20002029
:101C0000005265746F7572004C612074656D702EA2
:101C1000206D696E696D756D206573742031373084
:101C20002E00457272657572206465206368617567
:101C300066666500022E2E004D656E752070726915
:101C40006E636970616C004469616D2E2046696C39
:101C50002E004469616D2E2046696C2E004520657A
:101C60006E206D6D3300417272C3AA74004D6172B3
:101C70006368652000436F6E7472C3B46C65720054
:101C80005061732F6D6D004A65726B00416363C3D1
:101C9000A96CC3A9726174696F6E0056C3A96C6F99
:101CA000636974C3A900436F6E7472C3B46C6572C8
:101CB00000457061732F6D6D00457061732F6D6D00
:101CC000005A7061732F6D6D005A7061732F6D6DC6
:101CD00000597061732F6D6D00597061732F6D6DB8
:101CE00000587061732F6D6D00587061732F6D6DAA
:101CF000004D6F7576656D656E740056652D6A656D
:101D0000726B0056652D6A65726B0056652D6A65AB
:101D1000726B00567A2D6A65726B00567A2D6A6571
:101D2000726B0056792D6A65726B0056792D6A6563
:101D3000726B0056792D6A65726B0056782D6A6554
:101D4000726B0056782D6A65726B0056782D6A6545
:101D5000726B004D6F7576656D656E7400416D61D7
:101D600078204500416D6178204500416D61782003
:101D70005A00416D6178205A00416D617820590008
:101D8000416D6178205900416D6178205800416DA6
:101D90006178205800412D44C3A9706C2E00412D5C
:101DA00044C3A9706C2E00412D7265747261637416
:101DB00000412D7265747261637400416363C3A94D
:101DC0006CC3A9726174696F6E00416363C3A96CCF
:101DD000C3A9726174696F6E004D6F7576656D652C
:101DE0006E7400566465706C206D696E0056646593
:101DF000706C206D696E00566465706C206D696E44
:101E000000566D696E00566D696E00566D696E0004
:101E1000566D61784500566D61784500566D617864
:101E20004500566D61785A00566D61785A00566DBE
:101E300061785A00566D61785900566D6178590085
:101E4000566D61785900566D61785800566D61780D
:101E50005800566D617858004D6F7576656D656EEA
:101E6000740053617576657220636F6E66696700F2
:101E70004C6974004C6974004C6974004275736558
:101E80000042757365004275736500566974657329
:101E900073652076656E74696C2E0056697465737F
:101EA00073652076656E74696C2E0056697465736F
:101EB00073652076656E74696C2E0054656D70C311
:101EC000A9726174757265005265676C2E2070721C
:101ED0006563682E20414253005265676C2E207066
:101EE000726563682E20504C41005049442D4400D7
:101EF0005049442D44005049442D49005049442D37
:101F000049005049442D50005049442D50000820AC
:101F10004661637465757200082046616374657577
:101F2000720008204D61780008204D61780008207B
:101F30004D61780008204D696E0008204D696E00E3
:101F400008204D696E0054656D702E204175746FC8
:101F50002E00417272C3AA74004D617263686520DD
:101F600000566974657373652076656E74696C2EAE
:101F700000566974657373652076656E74696C2E9E
:101F800000566974657373652076656E74696C2E8E
:101F9000004C6974004C69740042757365004275A9
:101FA000736500436F6E7472C3B46C657200496EE2
:101FB000697469616C6973657220454550524F4D73
:101FC000004D3530320A4D35303000526573746142
:101FD000757265722064C3A96661757473004C697B
:101FE000726520636F6E666967005361757665720E
:101FF00020636F6E6669670046696C616D656E741B
:10200000004D6F7576656D656E740054656D70C3B7
:10201000A9726174757265004D656E752070726984
:102020006E636970616C00457874727564657200E6
:1020300044C3A9706C2E205A0044C3A9706C2E2092
:10204000590044C3A9706C2E2058005072C3A97067
:10205000617265720044C3A9706C2E20302E316D00
:102060006D0044C3A9706C2E20316D6D0044C3A96E
:10207000706C2E2031306D6D0044C3A9706C6163AB
:10208000657220756E20617865004578747275649C
:1020900065720044C3A9706C2E205A0044C3A97015
:1020A0006C2E20590044C3A9706C2E20580045782E
:1020B0007472756465720044C3A9706C2E205A0056
:1020C00044C3A9706C2E20590044C3A9706C2E2003
:1020D00058005072C3A963686175666661676520C0
:1020E000414253005072C3A96368617566666167B7
:1020F0006520504C4100526566726F6964697200D8
:102100004368616E6765722066696C616D656E74A7
:1021100000417272C3AA746572206D6F7465757226
:1021200073004D3834004F726967696E65206175C0
:10213000746F2E004732380044C3A9706C61636528
:102140007220756E20617865004D656E7520707225
:10215000696E636970616C005072C3A963682E2058
:10216000414253206C6974005072C3A96368617561
:102170006666616765204142532066696E6900505A
:1021800072C3A963686175666661676520414253E1
:10219000005072C3A97061726572005072C3A96366
:1021A000682E20504C41206C6974005072C3A963A2
:1021B000686175666661676520504C412066696E8E
:1021C00069005072C3A963686175666661676520BE
:1021D000504C41005072C3A970617265720043682F
:1021E000616E6765722066696C616D656E7400462C
:1021F0006C757800466C757800466C757800566989
:1022000074657373652076656E74696C2E0056690B
:1022100074657373652076656E74696C2E005669FB
:1022200074657373652076656E74696C2E004C69F5
:1022300074004C69740042757365004275736500E3
:1022400020566974657373650020566974657373ED
:1022500065002056697465737365004D656E752061
:102260007072696E636970616C004D363030204267
:1022700030004D656E75207072696E636970616CB7
:10228000005061732064652063617274650053655A
:102290007474696E67004D656E75207072696E6347
:1022A0006970616C005061732064652063617274B1
:1022B0006500496D70722E206465707569732053D6
:1022C0004400417272C3AA74657220696D70722EE7
:1022D0000052657072656E64726520696D70722E51
:1022E00000496E746572726F6D70726520696D70F1
:1022F000722E00526573756D652066726F6D206F6A
:10230000757461676500436F6E7472C3B46C6572F7
:10231000005072C3A970617265720052C3A9676CE4
:102320006572005375727665696C6C657200496DF3
:1023300070722E20416E6E756CC3A965004D3234EB
:1023400000496D70722E20656E2070617573650096
:102350004D313235000025753A2530327500253073
:1023600032753A2530327500257564202530327576
:102370003A25303275000920005A005900580052A1
:10238000615A2E2053565000494D50522E2053541E
:102390004F5050C389450000060900FE0701920313
:1023A0002120FFFF08FF07FF0000000600000107D3
:1023B0000706020080808080800080030202060100
:1023C00005A0A00507070600005050F850F850502F
:1023D0000507070600002078A07028F020050707F1
:1023E000060000C0C8102040981805070706000026
:1023F0006090A040A89068020303060104C04080DA
:102400000307070601002040808080402003070763
:1024100006010080402020204080050505060001BF
:1024200020A870A8200505050600012020F820201E
:102430000203030602FFC04080050101060003F805
:10244000020202060200C0C00505050600010810D0
:1024500020408005070706000070888888888870FB
:1024600003070706010040C040404040E005070761
:10247000060000708808708080F8050707060000D5
:10248000F81020100808F00507070600001030506B
:1024900090F81010050707060000F880F00808887B
:1024A00070050707060000708080F08888700507B7
:1024B00007060000F8081020202020050707060066
:1024C000007088887088887005070706000070888B
:1024D0008878080870020505060200C0C000C0C068
:1024E0000206060602FFC0C000C0408004070706BF
:1024F000000010204080402010050303060002F871
:1025000000F80407070601008040201020408005E5
:10251000070706000070880810200020050707063E
:10252000000070880868A8A87005070706000070FA
:102530008888F8888888050707060000F08888F0F2
:102540008888F00507070600007088808080887002
:10255000050707060000F08888888888F0050707C7
:10256000060000F88080F08080F80507070600006C
:10257000F88080F080808005070706000070888062
:10258000B8888870050707060000888888F888885A
:102590008801070706020080808080808080050710
:1025A000070600003810101010906005070706009D
:1025B000008890A0C0A090880507070600008080D2
:1025C00080808080F805070706000088D8A88888E2
:1025D00088880507070600008888C8A898888805A5
:1025E0000707060000708888888888700507070636
:1025F0000000F08888F080808005070706000070E2
:10260000888888A89068050707060000F08888F089
:10261000A09088050707060000788080700808F001
:10262000050707060000F8202020202020050707C6
:1026300006000088888888888870050707060000DB
:1026400088888888885020050707060000888888C1
:102650008888A85005070706000088885020508801
:102660008805070706000088888850202020050775
:1026700007060000F80810204080F803070706014D
:1026800000E08080808080E0050505060001804034
:10269000201008030707060100E02020202020E08A
:1026A000050303060004205088050101060000F818
:1026B00002020206020580400505050600007008BA
:1026C0007888780507070600008080B0C88888F001
:1026D0000505050600007080808870050707060064
:1026E0000008086898888878050505060000708845
:1026F000F880700507070600003048E04040404081
:102700000506060600FF708888780870050707062A
:1027100000008080B0C88888880107070602008012
:102720000080808080800308080601FF20002020B0
:102730002020A040040707060000808090A0C0A0D1
:1027400090030707060100C04040404040E00505F7
:1027500005060000D0A8A8A8A8050505060000B039
:10276000C888888805050506000070888888700577
:1027700006060600FFF08888F08080050606060041
:10278000FF788888780808050505060000B0C8802D
:10279000808005050506000070807008F0040707BA
:1027A0000600004040E040404030050505060000BE
:1027B0008888889868050505060000888888502064
:1027C0000505050600008888A8A85005050506002F
:1027D0000088502050880506060600FF8888887803
:1027E0000870050505060000F8102040F8030707EB
:1027F00006010020404080404020010707060200FB
:102800008080808080808003070706010080404030
:102810002040408005020206000268900000000689
:10282000000000000006000000000006000000009C
:102830000006000000000006000000000006000086
:102840000000000600000000000600000000000676
:10285000000000000006000000000006000000006C
:102860000006000000000006000000000006000056
:102870000000000600000000000600000000000646
:10288000000000000006000000000006000000003C
:102890000006000000000006000000000006000026
:1028A0000000000600000000000600000000000616
:1028B000000000000006000000000006000000000C
:1028C00000060000000000060000000000060000F6
:1028D00000000006000000000006000000000006E6
:1028E000000000000006000001070706020080004B
:1028F00080808080800507070600002070A8A0A8BF
:102900007020050707060000304040E04050A80551
:10291000050506000088705070880507070600004E
:10292000885020F820F820010707060200808080E8
:1029300000808080050808060000304820505020A4
:102940009060030101060107A0050707060000F8D3
:1029500088B8B8B888F805070706000170087888B5
:102960007800F80505050600012850A05028050349
:1029700003060001F808080202020602064080056C
:102980000707060000F888A88898A8F8050101063E
:102990000006F80404040600036090906005070731
:1029A0000600002020F8202000F80405050600039A
:1029B00060902040F0030505060003E020E020E0E1
:1029C00002020206020640800508080600FF888809
:1029D000888898E88080050707060000789898782E
:1029E000181818020202060202C0C0020202060201
:1029F000FF408003050506000340C04040E0050796
:102A000007060001708888887000F8050505060033
:102A100001A0502850A00507070600008890A8587C
:102A2000B808080507070600008890B848982038BD
:102A3000050808060000C040C048D8380808050747
:102A40000706000020002040808870050808060066
:102A5000004020007088F8888805080806000010EB
:102A600020007088F88888050808060000205000BB
:102A70007088F8888805080806000068900070884B
:102A8000F888880508080600005000708888F888D3
:102A9000880508080600002050207088F8888805FE
:102AA00007070600003860A0B8E0A0B805080806CF
:102AB00000FF70888080887020600508080600008C
:102AC000402000F880F080F8050808060000081093
:102AD00000F880F080F8050808060000205000F893
:102AE00080F080F80507070600005000F880F080AD
:102AF000F8030808060100804000E0404040E00381
:102B00000808060100204000E0404040E0030808BB
:102B100006010040A000E0404040E0030707060136
:102B200000A000E0404040E00507070600007048B4
:102B300048E848487005080806000068900088C802
:102B4000A8988805080806000040207088888888B2
:102B500070050808060000102070888888887005B5
:102B60000808060000205000708888887005080852
:102B700006000068900070888888700508080600C4
:102B80000050007088888888700505050600018857
:102B9000502050880508080600FF1070A8A8A8A8B3
:102BA00070400508080600004020888888888870E2
:102BB00005080806000010208888888888700508A5
:102BC00008060000205000888888887005080806DC
:102BD0000000500088888888887005080806000072
:102BE00010208850202020200509090600FFC04041
:102BF000704848704040E00408080601FF6090906B
:102C0000A09090E0800508080600004020007008B1
:102C10007888780508080600001020007008788879
:102C200078050808060000205000700878887805AC
:102C30000808060000689000700878887805070783
:102C40000600005000700878887805080806000023
:102C50002050207008788878050606060000D028E5
:102C600078A0A8500506060600FF708088702060D6
:102C70000508080600004020007088F880700508EC
:102C8000080600001020007088F88070050808060B
:102C900000002050007088F88070050707060000CB
:102CA00050007088F880700308080601008040001A
:102CB00040C04040E003080806010020400040C03A
:102CC0004040E003080806010040A00040C040402A
:102CD000E0030707060100A00040C04040E00507F0
:102CE00007060000A040A0107888700508080600BC
:102CF00000689000B0C88888880508080600004071
:102D000020007088888870050808060000102000E0
:102D100070888888700508080600002050007088B8
:102D20008888700508080600006890007088888808
:102D30007005070706000050007088888870050538
:102D4000050600012000F800200507070600FF1017
:102D500070A8A8A870400508080600004020008858
:102D60008888986805080806000010200088888870
:102D70009868050808060000205000888888986830
:102D8000050707060000500088888898680509092B
:102D90000600FF102000888888F8087004070706DE
:102DA00001FFC04060506040E00508080600FF5089
:102DB0000088888878087000060900FE000000007E
:102DC0000001090008FE000005080806000040F0A8
:102DD000C88888987810050808060000C0F8888818
:102DE000888888F80505050600012030F8302005A0
:102DF00008080600002070F820202020E0050909BE
:102E00000600FF2070A8A8B8888870200509090668
:102E100000FFE080C0B0A828302828050909060076
:102E2000FFF8A88888888888A8F8050A0A0600FE9E
:102E3000205050505088A8A8887003030306000350
:102E400040A0400000000000000000000000007FE3
:102E5000FFE0000000000000000000000000700023
:102E6000E000000000000000000000000061F860C9
:102E700000000000000000000000000041F82000F9
:102E8000000000000000000000000040F0200000F2
:102E90000000000000000000000040602000000072
:102EA0000000000000000000005801A07F8000002A
:102EB00000000000004104005C63A0FFC0000000AF
:102EC000000000002082005EF7A0FFC000000000AC
:102ED0000000002082005EF7A0FFC000000000009C
:102EE00000004104005C63A07F800000000000003F
:102EF000008208005801A07F80000000000000014F
:102F0000041000406020FFC0000000000000010429
:102F1000100040F020FFC000000000000000820808
:102F20000041F820FFC00000000000000041040044
:102F300061F8603F00000000000000000000007029
:102F400000E01E0000000000000001FFFF807FFF86
:102F5000E00C0000000000000001FFFF8000000006
:102F60000000000000000000000000007FFFE00003
:102F700000000000000000000000007000E0000001
:102F800000000000000000000000630C6000000072
:102F9000000000000000000000470E2000000000BC
:102FA00000000000000000004F0F200000000000A3
:102FB000000000000000005F0FA000000000000003
:102FC0000000000000005E07A07F800000000000FD
:102FD0000000410400406020FFC00000000000002D
:102FE0000020820040F020FFC00000000000000030
:102FF00020820040F020FFC00000000000000041DF
:1030000004004060207F8000000000000000820873
:10301000005E07A07F800000000000000104100097
:103020005F0FA0FFC0000000000000010410004F6F
:103030000F20FFC000000000000000820800470EC3
:1030400020FFC000000000000000410400630C608D
:103050003F00000000000000000000007000E01EC3
:103060000000000000000001FFFF807FFFE00C0077
:1030700000000000000001FFFF80000000000000D1
:103080000000000000000000000000000000000040
:103090000000000000000000000000000000000030
:1030A0000000000000000000000000000000000020
:1030B0000000000000000000000000000000000010
:1030C0000000000000000000000000000000000000
:1030D00000000000000000000000000000000000F0
:1030E00000000000000000000000000000000000E0
:1030F00000000000000000000000000000000000D0
:1031000000000000000000000000000000000000BF
:1031100000000000000000000000000000000000AF
:10312000000000000000000000000000000000009F
:10313000000000000000000000000000000000008F
:10314000000000000000000000000000000000007F
:10315000000000000000000000000000000000006F
:10316000000000000000000000000000000000005F
:10317000000000000000000000000000000000004F
:10318000000000000000000000000000000000003F
:10319000000000000000000000000000000000002F
:1031A000000000000000000000000000000000001F
:1031B000000000000000000000000000000000000F
:1031C00000000000000000000000000000000000FF
:1031D00000000000000000000000000000000000EF
:1031E00000000000000000000000000000000000DF
:1031F00000000000000000000000000000000000CF
:1032000000000000000000000000000000000000BE
:1032100000000000000000000000000000000008A6
:1032200008E00F1E6670E0980707660000000008BF
:1032300018E00E0EE771E0980F07E7010000001C90
:1032400078E01C87E773E0981F87E7030000001C05
:10325000F8E09CC78371E0181CC7830100000038A8
:10326000E0E1C8E30170E0181CE70100000000780D
:10327000C0E3C0E10070E0181CE70000000000732C
:1032800088E7E0E00070E0981FE70000000080F3AE
:1032900018FFE0E00070E0980FE70000000080E316
:1032A00038FE60E00070E09807E700000000C0F31F
:1032B00039FC60E00070E01818E700000000C0F979
:1032C00039F860C081E070181CC781000000E0F987
:1032D0003BF060C0E7E379981FC7E7030000E08098
:1032E0003BC06080E7C339980F87E7030000608028
:1032F0003F806000E78019980707E70000000000A2
:10330000000000002000000000002000000000007D
:1033100000000000000000000000000000000000AD
:10332000000000000000000000000000000000009D
:10333000000000000000000000000000000000008D
:10334000000000000000000000000000000000007D
:10335000000000000000000000000000000000006D
:10336000000000000000000000000000000000005D
:10337000000000000000000000000000000000004D
:10338000000000000000000000000000000000003D
:10339000000000000000000000000000000000002D
:1033A000000000000000000000000000000000001D
:1033B000000000000000000000000000000000000D
:1033C00000000000000000000000000000000000FD
:1033D00000000000000000000000000000000000ED
:1033E00000000000000000000000000000000000DD
:1033F00000000000000000000000000000000000CD
:1034000000000000000000000000000000000000BC
:1034100000000000000000000000000000000000AC
:10342000000000000000000000000000000000009C
:10343000000000000000000000000000000000008C
:10344000000000000000000000000000000000007C
:10345000000000000000000000000000000000006C
:10346000000000000000000000000000000000005C
:103470000000000000000000000000000000000A42
:103480000B02090C0D0E08070304010000000000E8
:10349000000000000000000000000000000000002C
:1034A00000000000000000000012111000000000E9
:1034B000000000000000000000000000000000000C
:1034C00000000001021020200808102040102040B9
:1034D00080020102010804020101020408102040D8
:1034E00080804020100804020180040201804020F6
:1034F000100804020108040201010204081020401F
:103500008001020408102040800505050507050814
:10351000080808020202020A0A0808040404040156
:103520000101010101010103030303030303030478
:103530000707070C0C0C0C0C0C0C0C020202020608
:10354000060606060606060B0B0B0B0B0B0B0B00F9
:103550000020002300260029002C002F003200004C
:1035600001000003010601090100002200250028D6
:10357000002B002E0031003400020100000501087C
:10358000010B0100002100240027002A002D00303B
:1035900000330001010000040107010A014E414E01
:1035A000494E495459494E46CDCCCC3D0AD7233CCF
:1035B00017B7D13877CC2B329595E6241FB14F0A37
:1035C000000020410000C84200401C4620BCBE4C08
:1035D000CA1B0E5AAEC59D74954C60883DDEB34C37
:1035E00011241FBECFEFD1E2DEBFCDBF00E00CBF84
:1035F00013E0A0E0B2E0EEE4F4EF01E00BBF02C0A4
:1036000007900D92AE3AB107D9F724E1AEEAB3E0E4
:1036100001C01D92A732B207E1F715E3CEEDD5E365
:1036200000E006C022970109FE010BBF0E9498F23C
:10363000C83DD10780E00807A9F70E940DEE0C9461
:1036400016FA0C9400001F920F920FB60F921124DD
:103650000BB60F922F933F938F939F93EF93FF930C
:103660002091C6009FB7F894E0912E0481E08E0F60
:103670008F7730912F04831731F0F0E0E255FC4F43
:10368000208380932E049FBFFF91EF919F918F9194
:103690003F912F910F900BBE0F900FBE0F901F9078
:1036A00018959B01AC01211581EE380741055105A4
:1036B00049F182E08093C00060E079E08DE390E022
:1036C0000E9451F22150310941095109CA01B90141
:1036D00022E030E040E050E00E9451F23093C5001B
:1036E0002093C4008091C10080618093C1008091CB
:1036F000C10088608093C1008091C1008068809380
:10370000C10008951092C00020E130E0E7CF3FB73C
:10371000F89420912F0480912E04821759F0E22F03
:10372000F0E0E255FC4F808190E02F5F2F772093EF
:103730002F0402C08FEF9FEF3FBF08952FB7F8947B
:1037400080912E0490912F042FBF891B8F770895AD
:103750008FB7F89490912F0490932E048FBF089503
:103760009091C00095FFFCCF8093C6000895AF9262
:10377000BF92CF92DF92EF92FF920F931F93CF935E
:10378000DF93CDB7DEB7A0970FB6F894DEBF0FBEBC
:10379000CDBF6115710581059105A9F1B12CC42E2C
:1037A000D12CE12CF12CAA24A394AB0C01E010E065
:1037B0000C0F1D1F0B0D111DB7FC1A95A7019601CB
:1037C0000E942FF2F8016083B901CA0161157105E9
:1037D0008105910511F41B2D11C0BA2CE4CFE1E055
:1037E000F0E0EC0FFD1FE10FF11D17FDFA95808150
:1037F0008A3038F490E3890FB3DF11501F3F79F717
:1038000014C097E3F8CF80E3A0960FB6F894DEBF1C
:103810000FBECDBFDF91CF911F910F91FF90EF9021
:10382000DF90CF90BF90AF909BCFA0960FB6F8944B
:10383000DEBF0FBECDBFDF91CF911F910F91FF90E3
:10384000EF90DF90CF90BF90AF9008954115510554
:1038500011F4862F85CF8BCFAB01682F70E080E00D
:1038600090E0F4CFAB01BC0180E090E0EFCFCF92CD
:10387000DF92EF92FF926B017C0197FF0AC08DE20D
:103880006FDFF094E094D094C094C11CD11CE11C73
:10389000F11C4AE0C701B601FF90EF90DF90CF9096
:1038A00066CF4115510511F4862F5ACF4A30510584
:1038B00009F4DDCF5CCFAB01BC01882777FD809593
:1038C000982FEFCF8DE04CDF8AE04ACFAB01BC01EF
:1038D00080E090E0BBDFF6CF8F929F92AF92BF92D5
:1038E000CF92DF92EF92FF92CF936B017C01B42EC7
:1038F00020E030E0A9010E94F5EE87FF06C08DE2CE
:103900002FDFF7FAF094F7F8F094C0E060E070E091
:1039100080E09FE3CB1541F02DEC3CEC4CEC5DE3FB
:103920000E9433F1CF5FF6CF9B01AC01C701B60116
:103930000E941CEE6B017C010E9469EF4B015C014F
:103940004AE015DFCC2381F1C501B4010E9495EF57
:103950009B01AC01C701B6010E941BEE6B017C010B
:103960008EE2FEDE20E030E040E251E4C701B60125
:103970000E9433F16B017C010E9464EF4B01AA2489
:1039800097FCA094BA2CC501B40171DFC501B40144
:103990000E9497EF9B01AC01C701B6010E941BEE8C
:1039A0006B017C01C150F1F6CF91FF90EF90DF9059
:1039B000CF90BF90AF909F908F9008958DCF8091C2
:1039C00007078130B9F40E948A965F9A1092DE064A
:1039D0008A9A1092DF069FB7F8948091080181605F
:1039E000809308019FBF1092E006129A0E94B86768
:1039F000109207070895CF92DF92EF92FF920F93F4
:103A00001F93CF93DF93EC010E9469EB0E811F811E
:103A100028853985011511052105310559F53C85A4
:103A20003323A9F12A8531503C8731E0320F3A87A0
:103A30004D85341301C01A86FE0134E0239FE00D4A
:103A4000F11D112406851785208931890A831B837E
:103A50002C833D836B017C01C00ED11EE11CF11C47
:103A6000CE82DF82E886F9868C819D81892B79F070
:103A7000409A0DC06B017C01C01AD10AE20AF30A18
:103A8000F7FC05C040981E821F8218861986DF91B8
:103A9000CF911F910F91FF90EF90DF90CF900895FD
:103AA0000E9469EB609303057093040580930505FC
:103AB000909306050895CF92DF92EF92FF920F93B5
:103AC0001F93CF93DF93EB01FC01608171818281B1
:103AD00093812CE3C22ED12CE12CF12CA70196016D
:103AE0000E942FF2162F072FCA01B901A7019601D4
:103AF0000E942FF2F62EE72ECA01B90128E130E02C
:103B000040E050E00E942FF2FB01C9016DE671E038
:103B10000E9408F29B014F2D5E2D21153105D9F031
:103B20000F931F93EF92FF92FF93EF939F938F93C7
:103B30003F932F9388E997E09F938F93DF93CF93E1
:103B40000E9403F78DB79EB70E960FB6F8949EBFEE
:103B50000FBE8DBF5BC00097C9F00F931F93EF920C
:103B6000FF92FF93EF939F938F9388E897E09F9343
:103B70008F93DF93CF930E9403F7EDB7FEB73C9688
:103B80000FB6F894FEBF0FBEEDBF40C03097B9F03E
:103B90000F931F93EF92FF92FF93EF938CE797E0C1
:103BA0009F938F93DF93CF930E9403F78DB79EB7B8
:103BB0000A960FB6F8949EBF0FBE8DBF27C0452B47
:103BC000A9F00F931F93EF92FF9284E797E09F93E2
:103BD0008F93DF93CF930E9403F7EDB7FEB738962C
:103BE0000FB6F894FEBF0FBEEDBF10C00F931F932A
:103BF00080E797E09F938F93DF93CF930E9403F723
:103C00000F900F900F900F900F900F90DF91CF912A
:103C10001F910F91FF90EF90DF90CF900895815406
:103C20008A3148F5482F50E0FA0133E0F595E795E1
:103C30003A95E1F7E652F44F208130E0877002C0F8
:103C4000359527958A95E2F720FF15C0FA01E054D3
:103C5000F44F2081222339F08091E50B9091E60BFF
:103C6000820F911D02C080E090E09093E20B809360
:103C7000E10B81E0089580E00895D1DF882339F0D9
:103C800081E02091E10B3091E20B232B09F480E0DD
:103C900008951F93CF93DF938091E10B9091E20BF6
:103CA000009701F1FC01EF011191212F2F7D99F077
:103CB000153411F01536B9F7188260E070E0809184
:103CC000E10B9091E20B0E949CF21883562F472F34
:103CD000382F292F0BC060E070E0DF91CF911F914A
:103CE0000C949CF250E040E030E020E0652F742F0F
:103CF000832F922FDF91CF911F9108958091E10B37
:103D00009091E20B009731F04AE050E060E070E003
:103D10000C9404F460E070E0CB0108958091E10B15
:103D20009091E20B009731F04AE050E060E070E0E3
:103D30000C9435F560E070E0CB010895DFDF97FD6E
:103D40000CC0DCDF6F3F71058105910509F014F4AB
:103D5000D5DF01C06FEF862F089580E00895809130
:103D6000E10B9091E20B892B39F0E8DF91E08111B2
:103D700001C090E0892F089581E00895EF92FF92AD
:103D80000F931F93CF93DF93EC017B018A016C8526
:103D90004D8564130AC0E881F9810190F081E02D1E
:103DA000CE0119950E94DD9BF2CFF7012081318170
:103DB000F801808191815B85FE0174E0579FE00DE1
:103DC000F11D11243E9631832083938382836F5F9C
:103DD0006C8781E0850F841711F08B8701C01B86EB
:103DE000DF91CF911F910F91FF90EF900895AF92C7
:103DF000BF92CF92DF92FF920F931F93CF93DF93E7
:103E000000D01F92CDB7DEB7F82E662351F0109286
:103E10003E0410923A0410923B0410923C0410921B
:103E20003D040E9469EB00913A0410913B042091FB
:103E30003C0430913D045B016C01A01AB10AC20A36
:103E4000D30AD7FC40C0F7FE05C004EC19E020E01F
:103E500030E015C0E0913E042F2D332727FD30952B
:103E60002C5F3F4F4E2F552747FD509524173507A0
:103E700054F1EF1554F300E911E020E030E0DC01EB
:103E8000CB01800F911FA21FB31F80933A04909320
:103E90003B04A0933C04B0933D0480ED97E09A83EB
:103EA00089838CE291E09C838B83AE014F5F5F4FEF
:103EB000BE016D5F7F4F83ED94E060DF80913E0433
:103EC0008F5F80933E040F900F900F900F90DF91C3
:103ED000CF911F910F91FF90DF90CF90BF90AF9047
:103EE0000895EAE0F1E08081806280839FB7F894D2
:103EF000EBE0F1E080818F7D80839FBF089520E01B
:103F000030E042E852E460911E1270911F128091DD
:103F10002012909121120E94F8F09FB718162CF4ED
:103F2000F89480910B01806204C0F89480910B0199
:103F30008F7D80930B019FBF089520E037E04CEF09
:103F400056E068EF76E084EF96E00C948B86AF92B3
:103F5000BF92CF92DF92EF92FF920F931F93CF9376
:103F6000DF9300D01F92CDB7DEB779015C01AA0CB8
:103F7000BB1CAA0CBB1CC5018C50994F6C01FC01E9
:103F8000108211821282138249835A836B837C834D
:103F9000D4DF49815A816B817C81F6014083518352
:103FA00062837383C0900B0520E030E0A901B80163
:103FB000C7010E94F5EE811108C0F501EA57F54FDF
:103FC000E590F5900591149104C0C801D7017C01DA
:103FD0008D0120E037E04CEF56E068EF76E084EFAB
:103FE00096E00E94A07B0E949F901092BB0B0F90C6
:103FF0000F900F900F90DF91CF911F910F91FF9035
:10400000EF90DF90CF90BF90AF9008958091D3064E
:104010008093D4061092D50608959091D306E92F87
:10402000F0E0E154FB4F80839F5F943018F490934D
:10403000D30602C01092D3068091D5068F5F80937D
:10404000D5060895CF93FC01C62F80818B3399F05C
:104050008091D506843078F42091D30630E6239FF2
:10406000C0011124BF018D5A9A4F0E94DFF68C2F98
:10407000D4DF81E001C080E0CF9108950F931F93BA
:10408000CF93DF93EC01DEDF8823B1F0EEE8FEE0B2
:1040900084918F010F5F1F4F882319F061DBF801B6
:1040A000F7CFBE018AE39AE00E94648882E258DB7F
:1040B0008AE056DB81E001C080E0DF91CF911F9163
:1040C0000F910895DF92EF92FF920F931F93CF937A
:1040D000DF93CDB7DEB76E970FB6F894DEBF0FBE95
:1040E000CDBF60915105709152056115710559F16F
:1040F0004DE150E08E010F5F1F4FC8010E946EF628
:104100001E8EF8017F01E01AF10AD190DD2019F02E
:104110008AE0D812F7CFF801EE0DFF1D108260E0A3
:10412000C801ACDF882379F0DD20B1F08FEFE81A09
:10413000F80A80915105909152058E0D9F1D909324
:1041400052058093510581E020915105309152052F
:10415000232B29F480E003C080E090E0F0CF6E963E
:104160000FB6F894DEBF0FBECDBFDF91CF911F9188
:104170000F91FF90EF90DF900895909352058093F8
:104180005105A0CF60E08FE40E9447ED61E08AE333
:104190000E9447ED8C98089552985A9A08958F92EC
:1041A0009F92AF92BF92CF92DF92EF92FF920F93C6
:1041B0001F93CF93DF93CDB7DEB728970FB6F89450
:1041C000DEBF0FBECDBF80910A07882309F482C1EC
:1041D0008091D506811102C01092400499249394D5
:1041E00040918609509187096091880970918909E9
:1041F0008091820990918309A0918409B0918509E9
:10420000481759076A077B0708F4912C00E010E073
:10421000BB24B394F0E6AF2E9091D50680910507AC
:10422000943008F0AEC09110ACC090914004911150
:10423000A8C08111A6C08091DD089091DE08A091F0
:10424000DF08B091E0088093860990938709A093D6
:104250008809B093890985ED98E00E946C51882EF9
:1042600099249394C0908609D0908709E09088099A
:10427000F0908909409182095091830960918409E5
:1042800070918509C416D506E606F706C0F4912C90
:104290008F3F2FEF920749F14AE0841709F442C09B
:1042A000ADE08A1709F43EC0B3E28B1719F02AE398
:1042B00082134DC020913F04211149C02EC0E5EF6B
:1042C000F8E084917F014FEFE41AF40A882319F093
:1042D00047DAF701F6CF88E097E00E94AF6661E029
:1042E00088E097E00E94206218C0E4E9FEE0849133
:1042F0007F019FEFE91AF90A882319F031DAF701F3
:10430000F6CFE6EEF8E084917F01AFEFEA1AFA0A01
:10431000882319F025DAF701F6CFB3E28B1202C039
:10432000B092400410923F040115110509F474CFB6
:104330008091D306F801A89EE00DF11D1124ED5ADD
:10434000FA4F108280E069DE00E010E065CF0F35A3
:10435000110508F061CF2BE3821202C0B0923F0436
:1043600020913F04211158CF9091D306F801A99EC6
:10437000E00DF11D1124ED5AFA4F80830F5F1F4F9E
:104380004BCF882309F4A6C0E3E5F5E023EB35E045
:1043900083E196E063E776E01192D9011D929D01D9
:1043A000DC011D92CD01DB011D92BD01B5E0E33BB7
:1043B000FB0791F7C0900B0560911B0270911C02E6
:1043C000882777FD8095982F0E9497EF19821A828F
:1043D0001B821C8200E010E020E830EC0D831E837D
:1043E0002F8338877B018C0127EA3BE04BEA5BE0B7
:1043F000BE016F5F7F4FCE0105960E94A07B67EAEA
:104400007BE083E090E00E9447878091B30B90911E
:10441000B40BA091B50BB091B60B8093E4069093CA
:10442000E506A093E606B093E7068091AF0B909166
:10443000B00BA091B10BB091B20B8093E8069093B2
:10444000E906A093EA06B093EB062AE939E949E9BF
:104450005EE36091FC067091FD068091FE069091EE
:10446000FF060E94F8F01816BCF42DEC3CEC4CEC66
:104470005DE36091AB0B7091AC0B8091AD0B9091B3
:10448000AE0B0E941BEE6093FC067093FD068093BA
:10449000FE069093FF0610C08091AB0B9091AC0B81
:1044A000A091AD0BB091AE0B8093FC069093FD06EE
:1044B000A093FE06B093FF0685E595E5A5E0B2E47E
:1044C00080931D0290931E02A0931F02B0932002BE
:1044D0001092050728960FB6F894DEBF0FBECDBF29
:1044E000DF91CF911F910F91FF90EF90DF90CF90D0
:1044F000BF90AF909F908F900895FF920F931F935E
:10450000CF93DF93EC0184E5B8DB882321F116DC3F
:10451000F82E1816ECF4EEE8FEE084918F010F5FA0
:104520001F4F882319F01CD9F801F7CF8DE418D953
:104530006AE070E0CE0196D96F2D772767FD709500
:1045400083ED98E00E948C888AE00AD981E008C057
:104550008093D20404C080910B058093D20480E044
:10456000DF91CF911F910F91FF900895AF92BF926D
:10457000CF92DF92EF92FF920F931F93CF93DF932F
:10458000EC018C01000F111F000F111FF801EA5DF3
:10459000FA4F20E030E0A90160817181828193812E
:1045A0000E941CEEF801EE5CFA4F208131814281BD
:1045B00053810E941CEE6B017C01F801E65EFA4F0C
:1045C00060837183828393830658154FF801659148
:1045D0007591859194918E01000F111F000F111F8D
:1045E0009801225F3A4F5901A70196010E941CEEE3
:1045F000F50160837183828393830259154FF8011B
:104600006591759185919491CC0FDD1FCC0FDD1FC5
:10461000C45FDD4FA70196010E941CEE6883798379
:104620008A839B83DF91CF911F910F91FF90EF9031
:10463000DF90CF90BF90AF9008954F925F926F92AE
:104640007F92AF92BF92CF92DF92EF92FF920F9341
:104650001F93CF93DF93EC01FC01E95BF54F64916D
:10466000FC01EE0FFF1FEE0FFF1FEA5AF54F4590BA
:10467000559065907490772767FD7095872F972FD9
:104680000E9497EF6B017C0120E030E040EC5FE39B
:10469000C301B2010E9433F1A70196010E9433F1D8
:1046A000AB01BC0100E010E09801CE0150DCFE013E
:1046B000EE0FFF1FEE0FFF1FE65BF54F25913591C3
:1046C00045915491C701B6010E9433F16B017C0101
:1046D00020E030E0A9010E94F5EE5E01AA0CBB1CAF
:1046E000AA0CBB1C882309F445C000E010E0980127
:1046F000B701A6017058CE012ADCFE01E157F74F41
:104700006491611117C0EEE8FEE084918F010F5FA4
:104710001F4F882319F024D8F801F7CFEDE6F8E011
:1047200084918F010F5F1F4F882319F019D8F8016A
:10473000F7CF6AE0F501EA57F54F4590559065903F
:10474000749070E080E090E00E9497EF9B01AC01D4
:10475000C301B2010E94FCEE2B013C01A7019601AE
:10476000C701B6010E941CEEAB01BC01930182019E
:10477000CE01EDDBFE01EF51F94F81E08083FE01B8
:10478000E252F94F8083F501EE5CFA4F10821182FC
:1047900012821382CE01EADEF501EE59F54F6591E2
:1047A000759185919491CC0FDD1FCC0FDD1F8E018B
:1047B0000C50194FFE01E65EFA4F20813181428193
:1047C00053810E941CEEF80160837183828393837E
:1047D000B4DBCC51D94FF80180819181A281B381A2
:1047E00088839983AA83BB83DF91CF911F910F9117
:1047F000FF90EF90DF90CF90BF90AF907F906F9041
:104800005F904F900895CF92EF92FF920F931F9376
:10481000E0901D02F0901E0200911F0210912002F4
:10482000C0900B0520E037E04CEF56E068EF76E0F3
:1048300084EF96E00E94A07B1F910F91FF90EF9074
:10484000CF900895CF92EF92FF920F931F93C09055
:104850000B057B018C0120EF36E04CEE56E068EE54
:1048600076E084EE96E00E94A07B1F910F91FF906E
:10487000EF90CF90089580E1E4EEF6E0A4EFB6E08B
:1048800001900D928A95E1F7089580E1E4EFF6E05A
:10489000A4EEB6E001900D928A95E1F708954F924B
:1048A0005F926F927F928F929F92AF92BF92CF92C0
:1048B000DF92EF92FF920F931F93CF93DF936C01E0
:1048C0007B018A01E90180901D0290901E02A09058
:1048D0001F02B0902002FA01208131814281538170
:1048E0006091FC067091FD068091FE069091FF0696
:1048F0000E94F5EE87FF2CC0488059806A807B803B
:1049000020E030E0A901B201C3010E94F5EE81115F
:1049100007C0EEE8FAE085919591A591B49102C0A7
:10492000C201D30180931D0290931E02A0931F0227
:10493000B0932002F80180819181A281B38180939C
:10494000FC069093FD06A093FE06B093FF065BDF86
:10495000488059806A807B8020E030E0A901B20164
:10496000C3010E94F5EE811105C055E545E535E02E
:1049700023E404C0542D452D362D272D852F942F4B
:10498000A32FB22F80931D0290931E02A0931F02AB
:10499000B0932002F60180819181A281B38180933E
:1049A000F4069093F506A093F606B093F706F70188
:1049B00080819181A281B3818093F8069093F9065A
:1049C000A093FA06B093FB061EDFF8012081318127
:1049D000428153816091FC067091FD068091FE0634
:1049E0009091FF060E94F8F0181684F5D880E980AF
:1049F000FA80CB8120E030E0A9016D2D7E2D8F2D36
:104A00009C2F0E94F5EE811107C0EEE8FAE0859137
:104A10009591A591B49104C08D2D9E2DAF2DBC2FE5
:104A200080931D0290931E02A0931F02B093200258
:104A3000F80180819181A281B3818093FC069093DB
:104A4000FD06A093FE06B093FF06DDDE0E949F9058
:104A500080921D0290921E02A0921F02B09220022C
:104A6000DF91CF911F910F91FF90EF90DF90CF904A
:104A7000BF90AF909F908F907F906F905F904F907E
:104A800008959B01AC0168EF76E084EF96E007CFD4
:104A90009A014CEF56E003CFCF92DF92EF92FF9254
:104AA0000F931F93CF93DF933AE0E32E33E0F32E7F
:104AB00004EE16E0C4EFD6E047E4C42E45E0D42E61
:104AC000F70181917F01ABD88823C9F0E2D8F601C4
:104AD0002081211104C020910A05222329F0288178
:104AE00039814A815B8103C020E030E0A9010E9446
:104AF0001CEEF801608371838283938309C08881EF
:104B00009981AA81BB81F80180839183A283B383B9
:104B10000C5F1F4F2496FFEFCF1ADF0A8EE0E816D6
:104B200083E0F80669F686E4A8D88823B9F0B1D8FE
:104B300020E030E0A9010E94F8F018167CF4A9D812
:104B400020E030E040E752E40E94FCEE60931D025A
:104B500070931E0280931F0290932002DF91CF91E9
:104B60001F910F91FF90EF90DF90CF900895CF921B
:104B7000DF92EF92FF92CF93DF930E9469EB6B017C
:104B80007C0180910602882309F468C02091BD044D
:104B90003091BE042115310509F460C08091B9043B
:104BA0009091BA04A091BB04B091BC04B701A601D6
:104BB000481B590B6A0B7B0B77FD63C02330310513
:104BC00019F13CF4213031050CF448C0EEE8FEE068
:104BD00007C02430310509F041C0EEE8FEE02AC0EC
:104BE0008491EF012196882321F00E94B01BFE01E1
:104BF000F7CFE1ECF8E08491EF012196882371F181
:104C00000E94B01BFE01F7CFEEE8FEE08491EF01B9
:104C10002196882321F00E94B01BFE01F7CFEAEA1B
:104C2000F8E08491EF0121968823C1F00E94B01B27
:104C3000FE01F7CF8491EF012196882321F00E9495
:104C4000B01BFE01F7CFE2E9F8E08491EF01219675
:104C5000882321F00E94B01BFE01F7CF20910602AD
:104C600030E0A8EEB3E00E9473F26C0D7D1D8E1D46
:104C70009F1D6093B9047093BA048093BB04909312
:104C8000BC04DF91CF91FF90EF90DF90CF9008951B
:104C90008C9A80910F148823D9F10E9448688091E2
:104CA000A30B9091A40BA091A50BB091A60B8536F8
:104CB0009105A105B1055CF00597A109B1098093A3
:104CC000A30B9093A40BA093A50BB093A60B4091BC
:104CD000A30B5091A40B6091A50B7091A60B409370
:104CE000860950938709609388097093890985ED37
:104CF00098E00E94395281E080930507809306076F
:104D000010920F148FEF90E090930D0580930C0597
:104D1000669B0BC081E08093070741E050E06FED98
:104D20007CE1809122020C9456E908950F931F9321
:104D3000CF93DF93CDB7DEB769970FB6F894DEBF98
:104D40000FBECDBF81EF94E00E943B926E8B7F8BB4
:104D5000888F998FBE016F5F7F4FCE0146960E946C
:104D60005B1D60E0CE0101960E9418D9EEE8FEE0DE
:104D700084918F010F5F1F4F882321F00E94B01B89
:104D8000F801F6CFBE016F5F7F4F8CEA97E00E947B
:104D900064888AE00E94B01B69960FB6F894DEBF63
:104DA0000FBECDBFDF91CF911F910F9108951F933B
:104DB000CF93DF9380910A0781110E949F90C09149
:104DC000E30BD091E40B80E50E940F1E882321F0B5
:104DD0000E94AF1E182F01C010E080910B0788239E
:104DE00049F1212F41E0BE0188E097E00E94746301
:104DF00083E50E943D1E882381F00E947E1EAB0148
:104E0000BC01409386095093870960938809709389
:104E1000890985ED98E00E94395288E097E00E9468
:104E20000F60111107C081EF94E0DF91CF911F91C6
:104E30000C946892DF91CF911F9108950F931F9367
:104E4000CF93DF9383E50E943D1E882309F445C07C
:104E50000E949E1E082F80E50E943D1E882331F08F
:104E60000E947E1E77FD39C0EB0102C0CDE0D0E08C
:104E70008C2FE9E3F7E09491891731F0319697E0B0
:104E8000E136F907C1F716C0E4E9FEE08491EF01CD
:104E90002196882321F00E94B01BFE01F7CFE1E6A6
:104EA000F7E08491EF0121968823B9F00E94B01BAE
:104EB000FE01F7CF61E08C2F0E9447ED602F8C2F11
:104EC0000E9480ED10E0B8018C2F0E9431EC2997F0
:104ED00021F410930D0500930C05DF91CF911F91E4
:104EE0000F91089588E690E008DB811147C080911A
:104EF000040783FD43C083E50E943D1E8823E1F142
:104F00000E94491E0E9464EF70931712609316125C
:104F100080E00E9440960E94491E20E030E04AEA6C
:104F200052E40E94F5EE18164CF081EF94E00E94D6
:104F3000059260E08CE297E00E9428D90E94491E09
:104F400020911E1230911F12409120125091211277
:104F50000E94F8F0181684F488ED92E09F938F93E6
:104F600082E297E09F938F931F920E943DDB0F9008
:104F70000F900F900F900F900C9430880895EF923F
:104F8000FF920F931F93CF93DF931F92CDB7DEB79E
:104F90008C017B0180E249830E94B01B49814F3F15
:104FA00011F482E401C084E50E94B01B8AE30E94F0
:104FB000B01BF801608171818281938142E050E0F1
:104FC0000E94DE1CF70140815181628173818AE673
:104FD00098E00F90DF91CF911F910F91FF90EF908C
:104FE0000C94C3880F931F93CF93DF93CDB7DEB795
:104FF00028970FB6F894DEBF0FBECDBF6091161292
:1050000070911712882777FD8095982F0E9497EF4F
:1050100069837A838B839C8380911E1290911F12E7
:10502000A0912012B09121128D839E83AF83B88707
:105030004EEFBE016F5F7F4FCE010596A0DF6091FE
:10504000121270911312882777FD8095982F0E9475
:1050500097EF69837A838B839C8380911A12909156
:105060001B12A0911C12B0911D128D839E83AF83E1
:10507000B8874FEFBE016F5F7F4FCE0105967FDF90
:10508000E6E6F8E084918F010F5F1F4F882321F03F
:105090000E94B01BF801F6CF8091D20490E00E94EC
:1050A0003F936AE070E00E945B1CE1E6F8E08491C7
:1050B0008F010F5F1F4F882321F00E94B01BF80162
:1050C000F6CF8FEF9FEF0E943F936AE070E00E945F
:1050D0005B1C28960FB6F894DEBF0FBECDBFDF91E4
:1050E000CF911F910F910895CF92DF92EF92FF928F
:1050F0008091A604882379F10E9469EBC090A204F4
:10510000D090A304E090A404F090A5046C197D094C
:105110008E099F0997FD1FC00E9469EB6B017C01FE
:105120002091A60430E0A8EEB3E00E9473F2C60E10
:10513000D71EE81EF91EC092A204D092A304E092EA
:10514000A404F092A5044EDF8AE0FF90EF90DF9078
:10515000CF900C94B01BFF90EF90DF90CF9008950C
:10516000DF92EF92FF920F931F93CF93DF9383E52C
:105170000E943D1E882319F00E949E1E01C080E0FF
:1051800080930407EEE8FEE08491EF0121968823E6
:1051900021F00E94B01BFE01F7CFEBE1F7E0849114
:1051A000EF012196882321F00E94B01BFE01F7CF6A
:1051B00080910407882381F101E117E0C0E0D0E08D
:1051C00020E08091040790E00C2E02C09595879511
:1051D0000A94E2F780FF17C0DD24D394D20E222375
:1051E00019F08CE20E94B01BF80125913491F9016D
:1051F00084917901FFEFEF1AFF0A882329F00E94BA
:10520000B01B9701F4CFD22E21960E5F1F4FC530F1
:10521000D10569F02D2DD5CFEDE0F7E08491EF01B8
:105220002196882321F00E94B01BFE01F7CF8AE06F
:10523000DF91CF911F910F91FF90EF90DF900C9431
:10524000B01BCF93DF9383E50E943D1E882351F06E
:105250000E949E1E8D3308F08CE380930602DF913E
:10526000CF910895EEE8FEE08491EF012196882326
:1052700021F00E94B01BFE01F7CF4091060250E0E2
:1052800060E070E08AED96E00E94FF888AE0DF919E
:10529000CF910C94B01BCF93DF9383E50E943D1E0A
:1052A000882319F00E947E1E02C060E070E0EB01CE
:1052B000DD27C230D105B8F0E4E9FEE08491EF01CA
:1052C0002196882321F00E94B01BFE01F7CFE8E869
:1052D000F4E08491EF012196882309F44EC00E94E6
:1052E000B01BFE01F6CF88E40E943D1E8823A9F082
:1052F0000E947E1E6A3A71053CF0653081E07807B5
:105300002CF064E071E002C06AEA70E0FE01EE0F8A
:10531000FF1FE55FFB4E7183608386E40E943D1EA4
:10532000882399F00E947E1E6F3F710519F014F0DA
:105330006FEF70E0FE01EE0FFF1FED5FFB4E77FF9A
:1053400002C060E070E07183608382E40E943D1ED1
:10535000882399F00E947E1E6530710534F068380C
:1053600071052CF067E870E002C065E070E0CC0FDA
:10537000DD1FC95FDB4E79836883DF91CF9108958C
:105380007F928F929F92AF92BF92CF92DF92EF92D5
:10539000FF920F931F93CF93DF930AE013E0C5E7CB
:1053A000DCE0712CF80181918F010E940F1E88238F
:1053B00009F46CC0F3E07F1263C00E94491E6B01C8
:1053C0007C0120E030E040EA51E40E94F5EE87FFE6
:1053D0004EC0A70196016091810C7091820C809162
:1053E000830C9091840C0E94FCEE4B015C019B01AC
:1053F000AC0160912D0C70912E0C80912F0C90912E
:10540000300C0E9433F160932D0C70932E0C80931E
:105410002F0C9093300CA50194016091910C709128
:10542000920C8091930C9091940C0E9433F16093B4
:10543000910C7093920C8093930C9093940C6091C8
:10544000610C7091620C8091630C9091640C0E94CD
:1054500095EFA50194010E9433F10E9469EF6093DA
:10546000610C7093620C8093630C9093640CC092F7
:10547000810CD092820CE092830CF092840C06C0D6
:105480000E94491E688379838A839B837394249640
:1054900084E0781287CFDF91CF911F910F91FF9019
:1054A000EF90DF90CF90BF90AF909F908F907F90C4
:1054B0000C940C88CF93DF93EEE5F8E08491EF0134
:1054C0002196882321F00E94B01BFE01F7CF609146
:1054D000F4067091F5068091F6069091F70642E089
:1054E00050E00E94DE1CEAE5F8E08491EF0121968D
:1054F000882321F00E94B01BFE01F7CF6091F806CF
:105500007091F9068091FA069091FB0642E050E016
:105510000E94DE1CE6E5F8E08491EF0121968823E5
:1055200021F00E94B01BFE01F7CF6091FC06709144
:10553000FD068091FE069091FF0642E050E00E9439
:10554000DE1CE2E5F8E08491EF012196882321F04A
:105550000E94B01BFE01F7CF609100077091010718
:10556000809102079091030742E050E00E94DE1C08
:10557000DF91CF910C948491EF92FF920F931F9340
:10558000CF93DF9300D01F921F92CDB7DEB78D83EC
:105590000E949F9040911D0250911E0260911F0237
:1055A0007091200240934D0550934E0560934F0536
:1055B0007093500520911B0230911C0230934C05D2
:1055C00020934B0524E630E030931C0220931B020D
:1055D0000E94501D91E09093BD0B8D81811118C0E8
:1055E00088E50E940F1EF82E89E50E940F1E182FD5
:1055F0008AE50E940F1EF11007C0111110C0E12CA6
:10560000882391F001E018C0082F112389F001C010
:1056100001E0102FEE24E394FF24F3940DC0082F33
:10562000E12CFF24F39407C0F12C00E011E004C04A
:10563000EE24E394F12C10E028D9111105C0E110FB
:1056400003C0FF2009F43EC020E030E0A9016091D2
:1056500022057091230580912405909125050E94D3
:105660001CEE6093EC067093ED068093EE0690932B
:10567000EF062091FC063091FD064091FE06509108
:10568000FF060E94F8F0181654F419821A821B8241
:105690001C82BE016F5F7F4F8CEE96E0F2D9111134
:1056A00005C0E11003C0F11007C00CC080E090E01D
:1056B0000E941D231123B9F381E090E00E941D2375
:1056C000111102C0002321F082E090E00E941D230E
:1056D0000E949D1F8091BC0B8093BD0B80914D0556
:1056E00090914E05A0914F05B091500580931D02F9
:1056F00090931E02A0931F02B093200280914B054D
:1057000090914C0590931C0280931B020E94501DA7
:1057100083E080934602CEDE0F900F900F900F90A3
:105720000F90DF91CF911F910F91FF90EF9008950F
:105730008F929F92AF92BF92CF92DF92EF92FF92A1
:105740000F931F93CF93DF9300D01F92CDB7DEB797
:1057500085E40E943D1EB82E811102C00E949F90D8
:105760001AE0C12E13E0D12E02E3E02E05E0F02E68
:1057700004EF16E0812C912CA12CF60181916F0190
:105780000E943D1E882361F1F80120813181428110
:10579000538129833A834B835C830E94491EF8011D
:1057A000608371838283938329813A814B815C81F9
:1057B000F3E08F16A9F00E941BEE9B01AC01F701EC
:1057C00060817181828193810E941CEEF701608368
:1057D000718382839383C4010E94B622AA24A39476
:1057E000FFEF8F1A9F0A84E0E80EF11C0C5F1F4F39
:1057F000E4E08E16910409F6AA2019F00E949D1F7C
:1058000008C0BB2031F060E077E083E090E00E94C8
:1058100047870F900F900F900F90DF91CF911F91BE
:105820000F91FF90EF90DF90CF90BF90AF909F903F
:105830008F9040CECF93DF93E9E8F5E08491EF01BC
:105840002196882321F00E94B01BFE01F7CFEBE7E1
:10585000F5E08491EF012196882321F00E94B01B8E
:10586000FE01F7CFE4E6F5E08491EF01219688236D
:1058700021F00E94B01BFE01F7CFE4E5F5E0849132
:10588000EF012196882321F00E94B01BFE01F7CF83
:10589000E3E4F5E08491EF012196882321F00E9452
:1058A000B01BFE01F7CFE2E3F5E08491EF01219612
:1058B000882321F00E94B01BFE01F7CFE3E2F5E060
:1058C0008491EF012196882321F00E94B01BFE01F4
:1058D000F7CFEEE0F5E08491EF012196882321F0E7
:1058E0000E94B01BFE01F7CFE8EFF4E08491EF01D6
:1058F0002196882321F00E94B01BFE01F7CFE3EE32
:10590000F4E08491EF012196882321F00E94B01BDE
:10591000FE01F7CFE6ECF4E08491EF0121968823B5
:1059200021F00E94B01BFE01F7CFEEEAF4E0849173
:10593000EF012196882321F00E94B01BFE01F7CFD2
:10594000DF91CF910895CF93DF9385E40E940F1EDE
:10595000882379F00E94AF1E882359F0EEE8FEE01C
:105960008491EF012196882321F00E94B01BFE0153
:10597000F7CF81E40E940F1E882379F00E94AF1EAA
:10598000882359F0EAEAF4E08491EF012196882314
:1059900021F00E94B01BFE01F7CFC091E30BD09124
:1059A000E40B8991882319F00E94B01BFACF8AE09A
:1059B000DF91CF910C94B01B83E50E940F1E8823CA
:1059C000D9F00E94491EAB01BC014093390C5093A1
:1059D0003A0C60933B0C70933C0C4093310C509309
:1059E000320C6093330C7093340C80E694E00E9488
:1059F000C3888AE00E94B01B80E50E940F1E8823A6
:105A000099F00E94491EAB01BC014093390C5093A0
:105A10003A0C60933B0C70933C0C83E494E00E943E
:105A2000C3888AE00E94B01B82E50E940F1E882373
:105A300099F00E94491EAB01BC014093350C509374
:105A4000360C6093370C7093380C84E294E00E941B
:105A5000C3888AE00E94B01B84E50E940F1E882341
:105A600099F00E94491EAB01BC014093310C509348
:105A7000320C6093330C7093340C86E094E00E94F7
:105A8000C3888AE00C94B01B089583E50E940F1E22
:105A9000882351F00E94491E60933D0C70933E0C88
:105AA00080933F0C9093400C84E50E940F1E882346
:105AB00051F00E94491E60931D0C70931E0C809340
:105AC0001F0C9093200C82E40E940F1E882351F03B
:105AD0000E948E1E6093410C7093420C8093430C85
