:100000000C94111B0C9403EA0C942EEA0C9459EAFC
:100010000C9484EA0C94AFEA0C94DAEA0C9405EBA5
:100020000C9430EB0C94421B0C94421B0C94421B1E
:100030000C94421B0C94421B0C94421B0C94421BCC
:100040000C94421B0C942B900C94421B0C94421B5E
:100050000C94421B0C94421B0C948A9E0C945BEBF8
:100060000C94421B0C94441B0C94421B0C94421B9A
:100070000C94421B0C94421B0C94421B0C94421B8C
:100080000C94421B0C94421B0C94421B0C94421B7C
:100090000C94421B0C94421B0C94421B0C94421B6C
:1000A0000C94421B0C94421B0C94421B0C94421B5C
:1000B0000C94421B0C94421B0C94421B0C94421B4C
:1000C0000C94421B0C94421B0C94421B0C94421B3C
:1000D0000C94421B0C94421B0C94421B0C94421B2C
:1000E0000C94421B22A72BA734A73DA746A761A7C4
:1000F0006EA777A74FA758A7DDE9A7E9AFE9BBE946
:10010000C8E9E9E9F6E990EC95EC9AECA4ECAEECE0
:1001100027EDB8ECC0ECC8ECD2ECDCECE6ECF5EC8E
:10012000FFEC27ED09ED13ED1DED48ED4BED3AED3C
:100130003EED44ED82ED4FED53ED59ED5DED61ED9A
:1001400067ED6BED6FED82ED75ED79ED7DED084AB4
:10015000D73B3BCE016E84BCBFFDC12F3D6C7431DB
:100160009ABD56833DDA3D00C77F11BED9E4BB4C32
:100170003E916BAAAABE000000803F05A84CCDB2FC
:10018000D44EB93836A9020C50B9918688083CA6DD
:10019000AAAA2ABE000000803F00446F6E6520734B
:1001A0006176696E672066696C652E0A004D32398A
:1001B000002020506C616E6E6572427566666572D5
:1001C00042797465733A20002046726565204D655A
:1001D0006D6F72793A2000436F6D70696C65643A97
:1001E000204E6F7620203920323031370A00207CB3
:1001F00020417574686F723A2028414E5943554228
:10020000494320466F75724D61782C2056312E304F
:10021000290A00323031372D30392D323220313237
:100220003A303000204C61737420557064617465FD
:10023000643A2000312E312E350A004D61726C690E
:100240006E0020536F667477617265205265736526
:10025000740A00205761746368646F672052657385
:1002600065740A002042726F776E206F7574205299
:10027000657365740A002045787465726E616C2040
:1002800052657365740A00506F77657255700A0085
:1002900073746172740A005072696E7465722068BA
:1002A000616C7465642E206B696C6C282920636115
:1002B0006C6C6564210A0055434349534F2E20005E
:1002C0004B494C4C206361757365642062792074DE
:1002D0006F6F206D75636820696E61637469766500
:1002E0002074696D65202D2063757272656E7420AF
:1002F000636F6D6D616E643A20004D3630300020C2
:10030000746F6F206C6F6E67206578747275736997
:100310006F6E2070726576656E7465640A00206386
:100320006F6C6420657874727573696F6E2070727B
:100330006576656E7465640A006F6B00526573655F
:100340006E643A20004E6F2063617365206C6967AC
:1003500068740A004F6666736574206170706C691A
:100360006361746F004572723A20546F6F2066614A
:10037000722100546F6F206661722066726F6D206B
:100380007265666572656E636520706F696E740A6A
:100390000043290A0061626C656420286D696E2043
:1003A00074656D702000436F6C642065787472759D
:1003B00064657320617265200020643A0020693A08
:1003C0000020703A00205A00205900580020204D8B
:1003D00061783A2000205A00205900580020204D12
:1003E000696E3A20004F6666004F6E2000536F66BC
:1003F0007420656E6473746F70733A200053657473
:1004000074696E672054726176656C204163636520
:100410006C65726174696F6E3A200053657474691B
:100420006E67205265747261637420416363656C0A
:1004300065726174696F6E3A200053657474696EF9
:1004400067205072696E7420416363656C657261E8
:1004500074696F6E3A200053657474696E6720503A
:1004600072696E7420616E642054726176656C20CE
:10047000416363656C65726174696F6E3A20004D0B
:1004800031343520533C696E6465783E206F757455
:10049000206F662072616E67652028302D31290A31
:1004A000002F2F20004361703A454D455247454E7D
:1004B00043595F5041525345523A300A00436170EC
:1004C0003A434153455F4C494748545F425249477C
:1004D00048544E4553533A300A004361703A544FE2
:1004E00047474C455F4C49474854533A300A00430C
:1004F00061703A534F4654574152455F504F5745EC
:10050000523A300A004361703A4C4556454C494EC8
:10051000475F444154413A300A004361703A5A5FA0
:1005200050524F42453A300A004361703A415554A7
:100530004F4C4556454C3A300A004361703A505290
:10054000494E545F4A4F423A310A004361703A5073
:10055000524F47524553533A300A004361703A4173
:1005600055544F5245504F52545F54454D503A31B7
:100570000A004361703A454550524F4D3A310A00E6
:100580004649524D574152455F4E414D453A4D61A6
:10059000726C696E20312E312E35202847697468BF
:1005A00075622920534F555243455F434F44455F81
:1005B00055524C3A68747470733A2F2F6769746897
:1005C00075622E636F6D2F4D61726C696E46697234
:1005D0006D776172652F4D61726C696E2050524F5C
:1005E000544F434F4C5F56455253494F4E3A312E6C
:1005F00030204D414348494E455F545950453A34A7
:100600004D61782045585452554445525F434F55EB
:100610004E543A3120555549443A63656465326118
:1006200032662D343161322D343734382D39623110
:10063000322D6335356336326633363766660A00E7
:10064000344D6178204F66662E004D36303020489C
:100650006F74656E6420746F6F20636F6C642074B8
:100660006F206368616E67652066696C616D656E99
:10067000740A0050696174746F2050726F6E746FE9
:100680000020573A00526973632E205069617474D8
:100690006F2E2E00526973632E20636F6D706C6530
:1006A0007461746F0020573A004E6F7A7A6C65203F
:1006B000257300344D61782070726F6E746F2E0058
:1006C0006F6B004D31313320530055434349534F35
:1006D0002E20004543484F00494E464F0045525298
:1006E0004F52530044525952554E00434F4D4D55B1
:1006F0004E49434154494F4E006F666600D306D8B9
:1007000006DD06E406EB0644454255473A004E6FC7
:100710007A7A6C6520257300344D61782070726F91
:100720006E746F2E00000136372603FF3C3D380EF5
:10073000FF2E303E12FFFF0C0809FFFF071A1C189E
:10074000FFFF08440AFF43FFFFFFFFFFFF50726FE8
:100750007465637465642050696E0A0025697300CE
:1007600025696D20256973002569682025696D203C
:1007700025697300256964202569682025696D2035
:100780002569730025697920256964202569682019
:1007900025696D20256973005072696E7420746933
:1007A0006D653A20004D31323500456E6420666932
:1007B0006C65206C6973740A00426567696E206617
:1007C000696C65206C6973740A004E657373756E8D
:1007D000204D6F76696D656E746F00344D617820C1
:1007E00070726F6E746F2E0052697072656E6469FC
:1007F000205374616D7061005072656D6920746181
:1008000073746F2E2E00536F7370656E73696F6E05
:10081000652E2E2E0047322F4733206261642070F0
:100820006172616D65746572730A00416374697603
:10083000652045787472756465723A200020453AE7
:1008400000205A3A0020593A00583A002042403AD3
:100850000020403A00202F005761726E696E673A9F
:1008600020486F6D696E672042756D70204469760F
:1008700069736F72203C20310A00020204627573B2
:10088000793A2070617573656420666F7220696EB5
:100890007075740A00627573793A207061757365BA
:1008A0006420666F7220757365720A0062757379D1
:1008B0003A2070726F63657373696E670A0020492E
:1008C0006E76616C696420657874727564657220F7
:1008D0000053442072656164206572726F720A0071
:1008E000446F6E65207072696E74696E6720666908
:1008F0006C650A0055434349534F2E200041525224
:1009000045535441544F2E20005072696E746572E5
:100910002073746F707065642064756520746F2037
:100920006572726F72732E20466978207468652034
:100930006572726F7220616E6420757365204D3927
:10094000393920746F20726573746172742E202897
:1009500054656D706572617475726520697320727B
:10096000657365742E205365742069742061667404
:1009700065722072657374617274696E67290A000A
:100980004E6F204C696E65204E756D6265722077E2
:1009900069746820636865636B73756D2C204C61A6
:1009A0007374204C696E653A20004E6F2043686571
:1009B000636B73756D2077697468206C696E652050
:1009C0006E756D6265722C204C617374204C696E7B
:1009D000653A2000636865636B73756D206D69739C
:1009E0006D617463682C204C617374204C696E6572
:1009F0003A20004C696E65204E756D626572206903
:100A000073206E6F74204C617374204C696E652086
:100A10004E756D6265722B312C204C617374204CC5
:100A2000696E653A20004D31313000656E71756533
:100A30007565696E67202200FFFFFF0000A040007F
:100A400000A0400000004000005D4300005C430047
:100A5000009643000080C00000000000000000007D
:100A600000594300005C4300009643000080C00032
:100A70000000000000000000004842000048420062
:100A8000002041000000007C3C3E5E2B3D3F2F5B80
:100A90005D3B2C2A225C004D3331004D3834205808
:100AA0002059205A20450043616E6E6F7420656E98
:100AB000746572207375626469723A20006175749E
:100AC0006F25692E67006572726F72207772697484
:100AD000696E6720746F2066696C650A004E6F74DA
:100AE000205344207072696E74696E670A00534423
:100AF000207072696E74696E672062797465200077
:100B000044656C6574696F6E206661696C65642C00
:100B10002046696C653A200046696C652064656C06
:100B2000657465643A006F70656E206661696C6516
:100B3000642C2046696C653A200057726974696EAE
:100B40006720746F2066696C653A20006F70656E6F
:100B5000206661696C65642C2046696C653A2000EA
:100B60006F70656E206661696C65642C2046696CE7
:100B7000653A200046696C652073656C6563746531
:100B8000640A002053697A653A200046696C652042
:100B90006F70656E65643A20006F70656E206661E7
:100BA000696C65642C2046696C653A200020666992
:100BB0006C653A20004E6F7720002220706F730022
:100BC0002220706172656E743A2200535542524F72
:100BD0005554494E452043414C4C20746172676521
:100BE000743A220055434349534F2E2000747279C2
:100BF000696E6720746F2063616C6C207375622D61
:100C000067636F64652066696C65732077697468D3
:100C100020746F6F206D616E79206C6576656C73E2
:100C20002E204D4158206C6576656C2069733A0022
:100C30004D3234004D32332025730053442063611C
:100C40007264206F6B0A006F70656E526F6F742054
:100C50006661696C65640A00766F6C756D652E69F6
:100C60006E6974206661696C65640A00534420698A
:100C70006E6974206661696C0A0043616E6E6F7400
:100C8000206F70656E207375626469722000486120
:100C90007264636F6465642044656661756C74207A
:100CA00053657474696E6773204C6F616465640A80
:100CB00000DC050000DC05000064000000102700D7
:100CC000000000964300009643000020410000C849
:100CD000410000A0420000A0420000C8433333B9E5
:100CE00042202863616C63756C6174656429210A14
:100CF0000020213D2000454550524F4D2043524396
:100D0000206D69736D61746368202D202873746F82
:100D1000726564292000290A002062797465733B9A
:100D20002063726320002073746F726564207365A2
:100D30007474696E67732072657472696576656430
:100D4000202800204D61726C696E3D563430290AAE
:100D50000028454550524F4D3D00454550524F4D9E
:100D60002076657273696F6E206D69736D6174634F
:100D7000682000290A002062797465733B20637241
:100D800063200053657474696E67732053746F72C7
:100D900065642028004572726F72207772697469E9
:100DA0006E6720746F20454550524F4D210A004513
:100DB00072726F722077726974696E6720746F2027
:100DC000454550524F4D210A0066696C616D656E54
:100DD000743A20007A5F6D696E3A2000795F6D6920
:100DE0006E3A2000785F6D696E3A20005265706F30
:100DF0007274696E6720656E6473746F70207374AB
:100E0000617475730A00456E6473746F7020256396
:100E100020256320256320256300205A3A002059AD
:100E20003A0020583A00656E6473746F70732068DE
:100E300069743A2000556E6B6E6F776E20636F6D2C
:100E40006D616E643A20220020746F6F206C6F6EAB
:100E50006720657874727573696F6E20707265763D
:100E6000656E7465640A0020636F6C642065787435
:100E7000727573696F6E2070726576656E746564E5
:100E80000A006563686F3A004572726F723A00201B
:100E90005A3A0020593A0020436F756E7420583A30
:100EA000004D383420582059205A20450024F4D4CD
:100EB0003050C38E20C2A24017828B7011127A91DB
:100EC0000D816CD90AA861E108C7586607615143D2
:100ED000061E4B5D05C145A7041A411104093D9842
:100EE00003713931034036DB0265339102D430544B
:100EF00002802E1D02632CEE01752AC501B028A0C8
:100F000001102781018F2564012B244B01E022343D
:100F100001AC211F018D200D01801FFC00841EEDFE
:100F200000971DDF00B81CD200E61BC600201BBCCA
:100F300000641AB200B219A8000A19A0006A189930
:100F400000D117910040178B00B516840031167E32
:100F500000B31579003A157300C7146F0058146A6E
:100F600000EE1366008813630025135E00C7125B52
:100F7000006C12570015125400C111510070114F2E
:100F80000021114B00D61049008D10470046104437
:100F90000002104200C00F4000800F3E00420F3C94
:100FA00000060F3B00CB0E3800930E37005C0E3569
:100FB00000270E3400F30D3200C10D3100900D30CA
:100FC00000600D2E00320D2D00050D2C00D90C2BCC
:100FD00000AE0C2900850C29005C0C2700350C277D
:100FE000000E0C2600E80B2400C40B2400A00B23E9
:100FF000007D0B23005A0B2100390B2100180B2018
:1010000000F80A1F00D90A1E00BB0A1E009D0A1D17
:1010100000800A1D00630A1C00470A1B002C0A1BE3
:1010200000110A1A00F7091A00DD091900C409198C
:1010300000AB091900920917007B09180063091712
:10104000004C09160036091600200916000A091579
:1010500000F5081500E0081400CC081400B80814C6
:1010600000A4081400900813007D0812006B0813F8
:101070000058081200460812003408110023081115
:10108000001208110001081100F0071000E007101D
:1010900000D0071000C0071000B0070F00A1071014
:1010A0000091070E0083070F0074070F0065070EFD
:1010B0000057070E0049070E003B070D002E070ED4
:1010C0000020070D0013070D0006070D00F9060CA0
:1010D00000ED060D00E0060C00D4060C00C8060C5E
:1010E00000BC060C00B0060C00A4060B0099060C10
:1010F000008D060B0082060B0077060B006C060BBA
:101100000061060A0057060B004C060A0042060A58
:101110000038060A002E060A0024060A001A060AEB
:10112000001006090007060A00FD050900F405097C
:1011300000EB050900E2050900D9050900D0050901
:1011400000C7050900BE050900B5050800AD050882
:1011500000A50509009C050800940508008C0508F9
:1011600000840508007C050800740508006C05076C
:1011700000650508005D050700560508004E0507D7
:10118000004705070040050800380507003105073E
:10119000002A050700230507001C050600160507A1
:1011A000000F0507000805060002050700FB0406FE
:1011B00000F5040700EE040600E8040600E2040758
:1011C00000DB040600D5040600CF040600C90406AF
:1011D00000C3040600BD040600B7040600B1040500
:1011E00000AC040600A6040600A00405009B04064B
:1011F0000095040500900406008A04050085040596
:1012000000800406007A04050075040500700405DA
:10121000006B04050066040500610405005C04051C
:101220000057040500520405004D0405004804055C
:1012300000430405003E0404003A0405003504059B
:1012400000300404002C04050027040400230405D6
:10125000001E0404001A040400160405001104040E
:10126000000D040400090405000404040000040443
:1012700000FC030400F8030400F4030400F003047A
:1012800000EC030400E8030400E4030400E00304AA
:1012900000DC030400D8030400D4030400D00304DA
:1012A00000CC030400C8030300C503030024F404B6
:1012B000D9201BC40C5C0E9804C4095F0265077139
:1012C00001F405F900FB04B30048048700C1036979
:1012D000005803550003034500BE023A0084023162
:1012E0000053022A002902250004022000E4011C08
:1012F00000C8011900AF0117009801140084011300
:1013000000710110006101100051010E0043010D38
:101310000036010B002B010B0020010B0015010909
:10132000000C01090003010800FB000800F300089D
:1013300000EB000700E4000600DE000600D800060F
:1013400000D2000600CC000500C7000500C2000561
:1013500000BD000400B9000400B5000400B10004A1
:1013600000AD000400A9000400A5000300A20003D2
:10137000009F0004009B00030098000300950002FA
:101380000093000300900003008D0002008B000317
:101390000088000200860002008400030081000231
:1013A000007F0002007D0002007B00020079000245
:1013B0000077000100760002007400020072000154
:1013C00000710002006F0002006D0001006C00025D
:1013D000006A000100690002006700010066000168
:1013E000006500010064000200620001006100016C
:1013F00000600001005F0002005D0001005C000170
:10140000005B0001005A0001005900010058000172
:101410000057000100560001005500010054000172
:101420000053000000530001005200010051000170
:1014300000500001004F0001004E0000004E00016E
:10144000004D0001004C0001004B0000004B00016A
:10145000004A000100490001004800000048000166
:101460000047000100460000004600010045000062
:10147000004500010044000100430000004300015A
:101480000042000000420001004100000041000154
:1014900000400001003F0000003F0001003E00004E
:1014A000003E0001003D0000003D0001003C000046
:1014B000003C0000003C0001003B0000003B00013C
:1014C000003A0000003A0001003900000039000134
:1014D000003800000038000000380001003700002C
:1014E0000037000100360000003600000036000121
:1014F0000035000000350000003500010034000018
:10150000003400000034000100330000003300000C
:101510000033000100320000003200000032000100
:1015200000310000003100000031000100300000F7
:101530000030000000300001002F0000002F0000EC
:10154000002F0000002F0001002E0000002E0000E0
:10155000002E0001002D0000002D0000002D0000D5
:10156000002D0001002C0000002C0000002C0000C9
:10157000002C0001002B0000002B0000002B0000BD
:10158000002B0001002A0000002A0000002A0000B1
:10159000002A0001002900000029000000290000A5
:1015A0000029000000290001002800000028000098
:1015B000002800000028000000280001002700008B
:1015C000002700000027000000270000002700017E
:1015D0000026000000260000002600000026000073
:1015E0000026000100250000002500000025000065
:1015F0000025000000250000002500010024000057
:101600000024000000240000002400000024000149
:10161000002300000023000000230000002300003E
:10162000002300000023000000230001002200002E
:101630000022000000220000002200000022000022
:101640000022000100210000002100000021000014
:101650000021000000210000002100000021000105
:1016600000200000002000000020000000200000FA
:1016700000200000002000000020000000200001E9
:10168000001F0000001F0000001F0000001F0000DE
:10169000001F0000001F0000001F0001001E0000CE
:1016A000001E0000001E0000001E000000546865BF
:1016B000726D616C2052756E617761790054454D91
:1016C000502046554F524920434F4E54524F4C4C98
:1016D0004F0055434349534F2E2000202D20496E83
:1016E00076616C6964206578747275646572206EC9
:1016F000756D62657220210A0048656174696E67C4
:10170000206661696C65640052697363616C642E64
:101710002046616C6C69746F004D494E54454D50C4
:1017200020747269676765726564004572723A2059
:1017300054454D50204D494E494D4120504941544A
:10174000544F004572723A2054454D50204D494E39
:10175000494D41004D415854454D502074726967C0
:101760006765726564004572723A2054454D502099
:101770004D415353494D412050494154544F004528
:1017800072723A2054454D50204D415353494D41BA
:10179000006265640A002C2073797374656D207390
:1017A000746F7070656421204865617465725F496B
:1017B000443A200023646566696E652020444546EE
:1017C00041554C545F4B64200023646566696E6527
:1017D000202044454641554C545F4B69200023640A
:1017E0006566696E65202044454641554C545F4B03
:1017F000702000504944204175746F74756E6520E7
:1018000066696E6973686564212050757420746818
:1018100065206C617374204B702C204B6920616EC5
:1018200064204B6420636F6E7374616E7473206602
:10183000726F6D2062656C6F7720696E746F2043E4
:101840006F6E66696775726174696F6E2E680A00E3
:10185000504944204175746F74756E6520666169E6
:101860006C6564212074696D656F75740A00504958
:1018700044204175746F74756E65206661696C658E
:1018800064212054656D7065726174757265207491
:101890006F6F20686967680A00204B643A20002057
:1018A0004B693A2000204B703A20000A20436C61BB
:1018B0007373696320504944200A002054753A200C
:1018C00000204B753A2000206D61783A2000206D91
:1018D000696E3A200020643A200020626961733A00
:1018E000200070012C0190012701B0012201C001EC
:1018F0001D01F00118011002130130020E016002F7
:10190000090190020401C002FF000003FA00400335
:10191000F5008003F000D003EB002004E600700423
:10192000E100E004DC004005D700C005D20040061D
:10193000CD00D006C8008007C3003008BE00F00804
:10194000B900C009B400B00AAF00B00BAA00D00CB7
:10195000A500000EA000500F9B00C0109600501272
:10196000910000148C00C0158700B0178200B019D8
:101970007D00D01B7800001E730040206E00902276
:101980006900F024640040275F0090295A00E02B92
:101990005500102E500020304B0010324600E0332E
:1019A000410090353C001037370070383200A039C4
:1019B0002D00B03A2800A03B2300603C1E00103DE3
:1019C0001900903D1400103E0F00703E0A00C03E0A
:1019D0000500003F0000403FFBFF803FF6FFC03F97
:1019E000F1FF534420436172642072696D6F737319
:1019F00061005344204361726420696E73657269AB
:101A000074610064656C6C61207374616D70610059
:101A10006C61207269707265736100417474656EE7
:101A200064657265005354414D504120494E205029
:101A3000415553410020205567656C6C6F3A20007A
:101A400064656C2066696C616D656E746F006C27EF
:101A5000657374727573696F6E6500417474656E39
:101A600064657265005354414D504120494E2050E9
:101A7000415553410020205567656C6C6F3A20003A
:101A800064656C2066696C616D656E746F00696C6D
:101A9000206361726963616D656E746F0041747477
:101AA000656E64657265005354414D504120494E46
:101AB0002050415553410020205567656C6C6F3AAA
:101AC00020007072656D692070657220636F6E749E
:101AD0000066696C616D656E746F206500496E7398
:101AE00065726973636920696C005354414D5041BC
:101AF00020494E2050415553410020205567656CC8
:101B00006C6F3A2000200072697363616C64207509
:101B100067656C6C6F2E005072656D692070657220
:101B2000005354414D504120494E2050415553419E
:101B30000020205567656C6C6F3A200020004174CE
:101B400074656E646572652E2E2E00526973636132
:101B50006C642E207567656C6C6F005354414D505A
:101B60004120494E20504155534100202055676582
:101B70006C6C6F3A200064656C2066696C616D6501
:101B80006E746F006C27657370756C73696F6E652A
:101B900000417474656E64657265005354414D5024
:101BA0004120494E20504155534100202055676542
:101BB0006C6C6F3A200064692066696C616D656EBB
:101BC000746F0064656C2063616D62696F004174BD
:101BD00074656E6465726520617676696F00535432
:101BE000414D504120494E205041555341004573CD
:101BF000747275646920616E636F726100526970FE
:101C000072656E6469207374616D7061004F505A23
:101C1000494F4E493A0020205567656C6C6F3A2059
:101C2000002000496E64696574726F0054656D70C0
:101C3000206D696E696D6120C3A8203137302E0098
:101C400052697363616C642E2046616C6C69746FB9
:101C500000022E2E004D656E75207072696E6369EC
:101C600070616C65004469616D2E2066696C6F005F
:101C70004469616D2E2066696C6F004520696E2095
:101C80006D6D33004F6666004F6E2000436F6E74BB
:101C9000726F6C6C6F0050617373692F6D6D004AC9
:101CA00065726B00416363656C6572617A696F6E22
:101CB000650056656C6F636974C3A000436F6E74F2
:101CC000726F6C6C6F004570617373692F6D6D007E
:101CD0004570617373692F6D6D005A70617373691C
:101CE0002F6D6D005A70617373692F6D6D0059709F
:101CF000617373692F6D6D005970617373692F6D16
:101D00006D005870617373692F6D6D005870617349
:101D100073692F6D6D004D6F76696D656E746F0020
:101D200056652D6A65726B0056652D6A65726B008B
:101D300056652D6A65726B00567A2D6A65726B0066
:101D4000567A2D6A65726B0056792D6A65726B0042
:101D500056792D6A65726B0056792D6A65726B0033
:101D600056782D6A65726B0056782D6A65726B0025
:101D700056782D6A65726B004D6F76696D656E746D
:101D80006F00416D6178204500416D61782045000C
:101D9000416D6178205A00416D6178205A00416D93
:101DA0006178205900416D6178205900416D61785A
:101DB000205800416D6178205800412D53706F7399
:101DC00074616D656E746F00412D53706F73746133
:101DD0006D656E746F00412D72657472616374007D
:101DE000412D7265747261637400416363656C00B8
:101DF000416363656C004D6F76696D656E746F004D
:101E00005654726176206D696E0056547261762068
:101E10006D696E005654726176206D696E00566D64
:101E2000696E00566D696E00566D696E00566D6183
:101E300078204500566D6178204500566D61782008
:101E40004500566D6178205A00566D6178205A0021
:101E5000566D6178205A00566D6178205900566D94
:101E60006178205900566D6178205900566D61786F
:101E7000205800566D6178205800566D61782058C2
:101E8000004D6F76696D656E746F0053616C76619D
:101E900020696E206D656D6F7269610050696174B3
:101EA000746F0050696174746F0050696174746F6D
:101EB000005567656C6C6F005567656C6C6F0055FD
:101EC00067656C6C6F0056656C6F636974C3A020A6
:101ED00076656E746F6C610056656C6F636974C370
:101EE000A02076656E746F6C610056656C6F6369D7
:101EF00074C3A02076656E746F6C610054656D705C
:101F00006572617475726100507265726973632ED7
:101F100041425320636F6E6600507265726973634D
:101F20002E504C4120636F6E66005049442D440092
:101F30005049442D44005049442D49005049442DF6
:101F400049005049442D50005049442D500008206C
:101F500046616374000820466163740008204D6187
:101F6000780008204D61780008204D617800082035
:101F70004D696E0008204D696E0008204D696E00A5
:101F80004175746F74656D70004F6666004F6E200A
:101F90000056656C6F636974C3A02076656E746FBC
:101FA0006C610056656C6F636974C3A02076656EC2
:101FB000746F6C610056656C6F636974C3A02076A2
:101FC000656E746F6C610050696174746F00506964
:101FD0006174746F005567656C6C6F005567656C54
:101FE0006C6F00436F6E74726F6C6C6F00496E693A
:101FF0007A69616C697A7A6120454550524F4D008B
:102000004D3530320A4D3530300052697072697387
:1020100074696E6120696D702E004361726963613D
:10202000206461206D656D6F7269610053616C762B
:102030006120696E206D656D6F7269610046696C23
:10204000616D656E746F004D6F76696D656E746F4E
:102050000054656D7065726174757261004D656ED6
:1020600075207072696E636970616C650045737488
:102070007275736F7265004D756F7669205A004DE9
:10208000756F76692059004D756F7669205800503C
:10209000726570617261004D756F766920646920A8
:1020A000302E316D6D004D756F766920646920208A
:1020B00020316D6D004D756F766920646920203187
:1020C000306D6D004D756F76692041737365004505
:1020D00073747275736F7265004D756F7669205AEF
:1020E000004D756F76692059004D756F76692058DF
:1020F000004573747275736F7265004D756F766904
:10210000205A004D756F76692059004D756F7669BC
:1021100020580050726572697363616C646120417C
:1021200042530050726572697363616C6461205040
:102130004C41005261666672656464610043616D82
:102140006269612066696C616D656E746F004469D7
:10215000736162696C697461204D6F746F7269009C
:102160004D3834004175746F20486F6D65004732FB
:1021700038004D756F76692041737365004D656E4B
:1021800075207072696E636970616C65005072656C
:10219000726973632E4142532050696174746F00F9
:1021A000507265726973632E414253205567656CA6
:1021B0006C6F0050726572697363616C6461204179
:1021C00042530050726570617261005072657269AD
:1021D00073632E504C412050696174746F005072CB
:1021E00065726973632E504C41205567656C6C6F46
:1021F0000050726572697363616C646120504C4178
:1022000000507265706172610043616D62696120A6
:1022100066696C616D656E746F00466C7573736F83
:1022200000466C7573736F00466C7573736F005660
:10223000656C6F636974C3A02076656E746F6C61A2
:102240000056656C6F636974C3A02076656E746F09
:102250006C610056656C6F636974C3A02076656E0F
:10226000746F6C610050696174746F0050696174BF
:10227000746F005567656C6C6F005567656C6C6FAB
:102280000056656C6F636974C3A00056656C6F631C
:102290006974C3A00056656C6F636974C3A0004D78
:1022A000656E75207072696E636970616C65004D52
:1022B000363030204230004D656E75207072696E88
:1022C000636970616C65005344206E6F6E2070729C
:1022D0006573656E74650053657474696E67004D4F
:1022E000656E75207072696E636970616C6500530C
:1022F00044206E6F6E2070726573656E7465005356
:1023000074616D7061206461205344004172726594
:10231000737461207374616D7061005269707265CD
:102320006E6469207374616D7061005061757361D2
:1023300000526573756D652066726F6D206F7574E0
:1023400061676500436F6E74726F6C6C6F005072E2
:102350006570617261005265676F6C6100477561FD
:10236000726461005374616D706120616E6E756C92
:102370006C617461004D3234005374616D70612082
:10238000736F7370657361004D31323500002575D0
:102390003A2530327500253032753A2530327500D5
:1023A00025756420253032753A25303275000920B4
:1023B000005A005900580052696176766961726569
:1023C00020707265676F005354414D50414E544523
:1023D000204645524D4154410000060900FE0701C8
:1023E00092032120FFFF08FF07FF00000006000006
:1023F00001070706020080808080800080030202BF
:10240000060105A0A00507070600005050F850F887
:1024100050500507070600002078A07028F020051E
:102420000707060000C0C8102040981805070706D7
:1024300000006090A040A89068020303060104C059
:102440004080030707060100204080808040200371
:102450000707060100804020202040800505050672
:10246000000120A870A8200505050600012020F81D
:1024700020200203030602FFC04080050101060080
:1024800003F8020202060200C0C0050505060001AD
:10249000081020408005070706000070888888889B
:1024A000887003070706010040C040404040E00537
:1024B0000707060000708808708080F80507070687
:1024C0000000F81020100808F005070706000010AB
:1024D000305090F81010050707060000F880F0084B
:1024E000088870050707060000708080F0888870F3
:1024F000050707060000F808102020202005070720
:10250000060000708888708888700507070600003C
:1025100070888878080870020505060200C0C000AF
:10252000C0C00206060602FFC0C000C0408004070B
:10253000070600001020408040201005030306001D
:1025400002F800F804070706010080402010204030
:102550008005070706000070880810200020050786
:102560000706000070880868A8A87005070706001D
:1025700000708888F8888888050707060000F088BA
:1025800088F08888F0050707060000708880808042
:102590008870050707060000F08888888888F0059D
:1025A0000707060000F88080F08080F8050707061E
:1025B0000000F88080F0808080050707060000702A
:1025C0008880B8888870050707060000888888F822
:1025D00088888801070706020080808080808080CC
:1025E0000507070600003810101010906005070757
:1025F0000600008890A0C0A090880507070600008C
:10260000808080808080F805070706000088D8A8B1
:10261000888888880507070600008888C8A89888E1
:102620008805070706000070888888888870050775
:1026300007060000F08888F0808080050707060004
:102640000070888888A89068050707060000F08851
:1026500088F0A09088050707060000788080700841
:1026600008F0050707060000F8202020202020059C
:10267000070706000088888888888870050707068D
:102680000000888888888850200507070600008891
:1026900088888888A8500507070600008888502089
:1026A0005088880507070600008888885020202069
:1026B000050707060000F80810204080F803070708
:1026C000060100E08080808080E0050505060001AD
:1026D0008040201008030707060100E0202020208A
:1026E00020E00503030600042050880501010600D0
:1026F00000F80202020602058040050505060000FA
:1027000070087888780507070600008080B0C888C0
:1027100088F00505050600007080808870050707B1
:1027200006000008086898888878050505060000F6
:102730007088F880700507070600003048E04040C8
:1027400040400506060600FF708888780870050777
:10275000070600008080B0C8888888010707060245
:1027600000800080808080800308080601FF200030
:1027700020202020A040040707060000808090A0B1
:10278000C0A090030707060100C04040404040E061
:10279000050505060000D0A8A8A8A805050506009F
:1027A00000B0C888888805050506000070888888FC
:1027B000700506060600FFF08888F0808005060692
:1027C0000600FF788888780808050505060000B02F
:1027D000C880808005050506000070807008F00440
:1027E00007070600004040E0404040300505050670
:1027F0000000888888986805050506000088888894
:1028000050200505050600008888A8A85005050584
:1028100006000088502050880506060600FF8888BC
:1028200088780870050505060000F8102040F803B8
:1028300007070601002040408040402001070706AE
:10284000020080808080808080030707060100806E
:1028500040402040408005020206000268900000CF
:102860000006000000000006000000000006000056
:102870000000000600000000000600000000000646
:10288000000000000006000000000006000000003C
:102890000006000000000006000000000006000026
:1028A0000000000600000000000600000000000616
:1028B000000000000006000000000006000000000C
:1028C00000060000000000060000000000060000F6
:1028D00000000006000000000006000000000006E6
:1028E00000000000000600000000000600000000DC
:1028F00000060000000000060000000000060000C6
:1029000000000006000000000006000000000006B5
:1029100000000000000600000000000600000000AB
:102920000006000000000006000001070706020084
:10293000800080808080800507070600002070A846
:10294000A0A87020050707060000304040E0405076
:10295000A805050506000088705070880507070661
:102960000000885020F820F82001070706020080A8
:1029700080800080808005080806000030482050D4
:1029800050209060030101060107A005070706001B
:1029900000F888B8B8B888F805070706000170087D
:1029A00078887800F80505050600012850A0502811
:1029B000050303060001F8080802020206020640A9
:1029C00080050707060000F888A88898A8F8050180
:1029D00001060006F80404040600036090906005F8
:1029E00007070600002020F8202000F8040505064F
:1029F000000360902040F0030505060003E020E09E
:102A000020E002020206020640800508080600FFD8
:102A10008888888898E880800507070600007898ED
:102A20009878181818020202060202C0C0020202B8
:102A30000602FF408003050506000340C04040E059
:102A4000050707060001708888887000F8050505ED
:102A5000060001A0502850A0050707060000889036
:102A6000A858B808080507070600008890B84898D5
:102A70002038050808060000C040C048D8380808BB
:102A80000507070600002000204080887005080820
:102A90000600004020007088F888880508080600B5
:102AA000001020007088F8888805080806000020BB
:102AB00050007088F88888050808060000689000B3
:102AC0007088F8888805080806000050007088881B
:102AD000F888880508080600002050207088F888CB
:102AE000880507070600003860A0B8E0A0B8050810
:102AF000080600FF7088808088702060050808063E
:102B00000000402000F880F080F80508080600006A
:102B1000081000F880F080F8050808060000205032
:102B200000F880F080F80507070600005000F880E4
:102B3000F080F8030808060100804000E0404040B3
:102B4000E0030808060100204000E0404040E003A8
:102B5000080806010040A000E0404040E0030707ED
:102B6000060100A000E0404040E005070706000025
:102B7000704848E84848700508080600006890005A
:102B800088C8A89888050808060000402070888832
:102B900088887005080806000010207088888888DA
:102BA00070050808060000205000708888887005AD
:102BB000080806000068900070888888700508087A
:102BC000060000500070888888887005050506009A
:102BD0000188502050880508080600FF1070A8A83A
:102BE000A8A870400508080600004020888888884A
:102BF000887005080806000010208888888888707A
:102C0000050808060000205000888888887005089C
:102C10000806000050008888888888700508080623
:102C2000000010208850202020200509090600FF00
:102C3000C040704848704040E00408080601FF604A
:102C40009090A09090E080050808060000402000C9
:102C500070087888780508080600001020007008C1
:102C600078887805080806000020500070087888E9
:102C700078050808060000689000700878887805D4
:102C800007070600005000700878887805080806D5
:102C9000000020502070087888780506060600009D
:102CA000D02878A0A8500506060600FF708088701E
:102CB00020600508080600004020007088F8807039
:102CC0000508080600001020007088F880700508CC
:102CD000080600002050007088F88070050707067D
:102CE000000050007088F88070030808060100801A
:102CF000400040C04040E0030808060100204000BA
:102D000040C04040E003080806010040A00040C069
:102D10004040E0030707060100A00040C04040E03B
:102D2000050707060000A040A01078887005080875
:102D3000060000689000B0C888888805080806006A
:102D40000040200070888888700508080600001080
:102D50002000708888887005080806000020500050
:102D600070888888700508080600006890007088E0
:102D700088887005070706000050007088888870F2
:102D80000505050600012000F800200507070600DC
:102D9000FF1070A8A8A87040050808060000402091
:102DA00000888888986805080806000010200088B8
:102DB00088889868050808060000205000888888E0
:102DC00098680507070600005000888888986805FD
:102DD00009090600FF102000888888F80870040799
:102DE000070601FFC04060506040E005080806008B
:102DF000FF500088888878087000060900FE0000EF
:102E000000000001090008FE000005080806000097
:102E100040F0C88888987810050808060000C0F8B7
:102E20008888888888F80505050600012030F83074
:102E3000200508080600002070F820202020E0056A
:102E400009090600FF2070A8A8B888887020050925
:102E5000090600FFE080C0B0A8283028280509092D
:102E60000600FFF8A88888888888A8F8050A0A0656
:102E700000FE205050505088A8A888700303030615
:102E8000000340A04000000000000000000000001F
:102E9000007FFFE0000000000000000000000000D4
:102EA0007000E00000000000000000000000006171
:102EB000F86000000000000000000000000041F881
:102EC0002000000000000000000000000040F02092
:102ED0000000000000000000000000004060200032
:102EE00000000000000000000000005801A07F80EA
:102EF000000000000000004104005C63A0FFC0006F
:102F00000000000000002082005EF7A0FFC000006B
:102F100000000000002082005EF7A0FFC00000005B
:102F2000000000004104005C63A07F8000000000FE
:102F30000000008208005801A07F8000000000000F
:102F40000001041000406020FFC0000000000000ED
:102F50000104100040F020FFC0000000000000004D
:102F600082080041F820FFC000000000000000417E
:102F7000040061F8603F0000000000000000000055
:102F8000007000E01E0000000000000001FFFF8054
:102F90007FFFE00C0000000000000001FFFF800048
:102FA00000000000000000000000000000007FFFA3
:102FB000E00000000000000000000000007000E0E1
:102FC000000000000000000000000000630C600032
:102FD0000000000000000000000000470E2000007C
:102FE000000000000000000000004F0F2000000063
:102FF0000000000000000000005F0FA000000000C3
:1030000000000000000000005E07A07F80000000BC
:1030100000000000410400406020FFC000000000EC
:1030200000000020820040F020FFC00000000000EF
:10303000000020820040F020FFC0000000000000DF
:10304000004104004060207F80000000000000007C
:103050008208005E07A07F800000000000000104DD
:1030600010005F0FA0FFC00000000000000104106E
:10307000004F0F20FFC00000000000000082080089
:10308000470E20FFC0000000000000004104006364
:103090000C603F0000000000000000000000700015
:1030A000E01E0000000000000001FFFF807FFFE045
:1030B0000C0000000000000001FFFF800000000085
:1030C0000000000000000000000000000000000000
:1030D00000000000000000000000000000000000F0
:1030E00000000000000000000000000000000000E0
:1030F00000000000000000000000000000000000D0
:1031000000000000000000000000000000000000BF
:1031100000000000000000000000000000000000AF
:10312000000000000000000000000000000000009F
:10313000000000000000000000000000000000008F
:10314000000000000000000000000000000000007F
:10315000000000000000000000000000000000006F
:10316000000000000000000000000000000000005F
:10317000000000000000000000000000000000004F
:10318000000000000000000000000000000000003F
:10319000000000000000000000000000000000002F
:1031A000000000000000000000000000000000001F
:1031B000000000000000000000000000000000000F
:1031C00000000000000000000000000000000000FF
:1031D00000000000000000000000000000000000EF
:1031E00000000000000000000000000000000000DF
:1031F00000000000000000000000000000000000CF
:1032000000000000000000000000000000000000BE
:1032100000000000000000000000000000000000AE
:10322000000000000000000000000000000000009E
:10323000000000000000000000000000000000008E
:10324000000000000000000000000000000000007E
:10325000000000000000000000000000000000006E
:10326000000808E00F1E6670E0980707660000007F
:10327000000818E00E0EE771E0980F07E701000064
:10328000001C78E01C87E773E0981F87E7030000C5
:10329000001CF8E09CC78371E0181CC78301000084
:1032A0000038E0E1C8E30170E0181CE7010000000D
:1032B0000078C0E3C0E10070E0181CE700000000E7
:1032C000007388E7E0E00070E0981FE7000000006E
:1032D00080F318FFE0E00070E0980FE700000000C6
:1032E00080E338FE60E00070E09807E7000000002F
:1032F000C0F339FC60E00070E01818E7000000003F
:10330000C0F939F860C081E070181CC78100000066
:10331000E0F93BF060C0E7E379981FC7E7030000DE
:10332000E0803BC06080E7C339980F87E703000067
:1033300060803F806000E78019980707E700000081
:10334000000000000000200000000000200000003D
:10335000000000000000000000000000000000006D
:10336000000000000000000000000000000000005D
:10337000000000000000000000000000000000004D
:10338000000000000000000000000000000000003D
:10339000000000000000000000000000000000002D
:1033A000000000000000000000000000000000001D
:1033B000000000000000000000000000000000000D
:1033C00000000000000000000000000000000000FD
:1033D00000000000000000000000000000000000ED
:1033E00000000000000000000000000000000000DD
:1033F00000000000000000000000000000000000CD
:1034000000000000000000000000000000000000BC
:1034100000000000000000000000000000000000AC
:10342000000000000000000000000000000000009C
:10343000000000000000000000000000000000008C
:10344000000000000000000000000000000000007C
:10345000000000000000000000000000000000006C
:10346000000000000000000000000000000000005C
:10347000000000000000000000000000000000004C
:10348000000000000000000000000000000000003C
:10349000000000000000000000000000000000002C
:1034A000000000000000000000000000000000001C
:1034B000000000000000000000000000000000000C
:1034C000000A0B02090C0D0E08070304010000009E
:1034D00000000000000000000000000000000000EC
:1034E00000000000000000000000001211100000A9
:1034F00000000000000000000000000000000000CC
:1035000000000000000102102020080810204010D8
:103510002040800201020108040201010204081097
:1035200020408080402010080402018004020180B5
:1035300040201008040201080402010102040810DE
:103540002040800102040810204080050505050781
:103550000508080808020202020A0A08080404040E
:10356000040101010101010101030303030303033A
:1035700003040707070C0C0C0C0C0C0C0C020202C9
:103580000206060606060606060B0B0B0B0B0B0BBC
:103590000B000020002300260029002C002F003201
:1035A00000000100000301060109010000220025BE
:1035B0000028002B002E003100340002010000051D
:1035C0000108010B0100002100240027002A002D22
:1035D000003000330001010000040107010A014E20
:1035E000414E494E495459494E46CDCCCC3D0AD75F
:1035F000233C17B7D13877CC2B329595E6241FB1F1
:103600004F0A000020410000C84200401C4620BC78
:10361000BE4CCA1B0E5AAEC59D74B64C818879DE6D
:10362000D44C11241FBECFEFD1E2DEBFCDBF00E0EE
:103630000CBF13E0A0E0B2E0E6ECF4EF01E00BBF5A
:1036400002C007900D92A03BB107D9F724E1A0EB8F
:10365000B3E001C01D92A932B207E1F716E3C0E260
:10366000D6E300E006C022970109FE010BBF0E94CD
:10367000D4F2CA31D10780E00807A9F70E9449EEC9
:103680000C9452FA0C9400001F920F920FB60F92F6
:1036900011240BB60F922F933F938F939F93EF9329
:1036A000FF932091C6009FB7F894E091300481E029
:1036B0008E0F8F7730913104831731F0F0E0E055B1
:1036C000FC4F2083809330049FBFFF91EF919F9127
:1036D0008F913F912F910F900BBE0F900FBE0F90C7
:1036E0001F9018959B01AC01211581EE380741050B
:1036F000510549F182E08093C00060E079E08DE3FC
:1037000090E00E948DF22150310941095109CA010E
:10371000B90122E030E040E050E00E948DF23093A9
:10372000C5002093C4008091C10080618093C100D6
:103730008091C10088608093C1008091C100806841
:103740008093C10008951092C00020E130E0E7CFDF
:103750003FB7F8942091310480913004821759F0DA
:10376000E22FF0E0E055FC4F808190E02F5F2F7753
:103770002093310402C08FEF9FEF3FBF08952FB712
:10378000F89480913004909131042FBF891B8F777A
:1037900008958FB7F89490913104909330048FBFBF
:1037A00008959091C00095FFFCCF8093C6000895C6
:1037B000AF92BF92CF92DF92EF92FF920F931F933F
:1037C000CF93DF93CDB7DEB7A0970FB6F894DEBFE7
:1037D0000FBECDBF6115710581059105A9F1B12C11
:1037E000C42ED12CE12CF12CAA24A394AB0C01E023
:1037F00010E00C0F1D1F0B0D111DB7FC1A95A70132
:1038000096010E946BF2F8016083B901CA0161154B
:1038100071058105910511F41B2D11C0BA2CE4CF5F
:10382000E1E0F0E0EC0FFD1FE10FF11D17FDFA954F
:1038300080818A3038F490E3890FB3DF11501F3F45
:1038400079F714C097E3F8CF80E3A0960FB6F89409
:10385000DEBF0FBECDBFDF91CF911F910F91FF90C3
:10386000EF90DF90CF90BF90AF909BCFA0960FB618
:10387000F894DEBF0FBECDBFDF91CF911F910F91A6
:10388000FF90EF90DF90CF90BF90AF9008954115DB
:10389000510511F4862F85CF8BCFAB01682F70E0D7
:1038A00080E090E0F4CFAB01BC0180E090E0EFCF8E
:1038B000CF92DF92EF92FF926B017C0197FF0AC0DB
:1038C0008DE26FDFF094E094D094C094C11CD11CC1
:1038D000E11CF11C4AE0C701B601FF90EF90DF90B8
:1038E000CF9066CF4115510511F4862F5ACF4A303B
:1038F000510509F4DDCF5CCFAB01BC01882777FD12
:103900008095982FEFCF8DE04CDF8AE04ACFAB0156
:10391000BC0180E090E0BBDFF6CF8F929F92AF9228
:10392000BF92CF92DF92EF92FF92CF936B017C0117
:10393000B42E20E030E0A9010E9431EF87FF06C0DD
:103940008DE22FDFF7FAF094F7F8F094C0E060E032
:1039500070E080E09FE3CB1541F02DEC3CEC4CECAB
:103960005DE30E946FF1CF5FF6CF9B01AC01C70111
:10397000B6010E9458EE6B017C010E94A5EF4B013D
:103980005C014AE015DFCC2381F1C501B4010E943E
:10399000D1EF9B01AC01C701B6010E9457EE6B014C
:1039A0007C018EE2FEDE20E030E040E251E4C7011F
:1039B000B6010E946FF16B017C010E94A0EF4B01E8
:1039C000AA2497FCA094BA2CC501B40171DFC501EB
:1039D000B4010E94D3EF9B01AC01C701B6010E9464
:1039E00057EE6B017C01C150F1F6CF91FF90EF9043
:1039F000DF90CF90BF90AF909F908F9008958DCF24
:103A0000809109078130B9F40E94AB965F9A1092B9
:103A1000E0068A9A1092E1069FB7F8948091080117
:103A20008160809308019FBF1092E206129A0E9463
:103A3000D967109209070895CF92DF92EF92FF9213
:103A40000F931F93CF93DF93EC010E94A5EB0E81A0
:103A50001F8128853985011511052105310559F585
:103A60003C853323A9F12A8531503C8731E0320F60
:103A70003A874D85341301C01A86FE0134E0239F36
:103A8000E00DF11D112406851785208931890A83EF
:103A90001B832C833D836B017C01C00ED11EE11C76
:103AA000F11CCE82DF82E886F9868C819D81892B8C
:103AB00079F0409A0DC06B017C01C01AD10AE20A6C
:103AC000F30AF7FC05C040981E821F8218861986EB
:103AD000DF91CF911F910F91FF90EF90DF90CF90EA
:103AE00008950E94A5EB60930505709306058093E9
:103AF0000705909308050895CF92DF92EF92FF9209
:103B00000F931F93CF93DF93EB01FC0160817181D1
:103B1000828193812CE3C22ED12CE12CF12CA701C0
:103B200096010E946BF2162F072FCA01B901A70157
:103B300096010E946BF2F62EE72ECA01B90128E128
:103B400030E040E050E00E946BF2FB01C9016DE6FD
:103B500071E00E9444F29B014F2D5E2D211531052D
:103B6000D9F00F931F93EF92FF92FF93EF939F93E0
:103B70008F933F932F9384E897E09F938F93DF93E6
:103B8000CF930E943FF78DB79EB70E960FB6F8946D
:103B90009EBF0FBE8DBF5BC00097C9F00F931F93F0
:103BA000EF92FF92FF93EF939F938F9384E797E0B9
:103BB0009F938F93DF93CF930E943FF7EDB7FEB7AC
:103BC0003C960FB6F894FEBF0FBEEDBF40C03097D5
:103BD000B9F00F931F93EF92FF92FF93EF9388E654
:103BE00097E09F938F93DF93CF930E943FF78DB71A
:103BF0009EB70A960FB6F8949EBF0FBE8DBF27C022
:103C0000452BA9F00F931F93EF92FF9280E697E068
:103C10009F938F93DF93CF930E943FF7EDB7FEB74B
:103C200038960FB6F894FEBF0FBEEDBF10C00F93CD
:103C30001F938CE597E09F938F93DF93CF930E9420
:103C40003FF70F900F900F900F900F900F90DF9114
:103C5000CF911F910F91FF90EF90DF90CF9008953B
:103C600081548A3148F5482F50E0FA0133E0F59548
:103C7000E7953A95E1F7E452F44F208130E0877000
:103C800002C0359527958A95E2F720FF15C0FA0105
:103C9000EE53F44F2081222339F08091E70B90916D
:103CA000E80B820F911D02C080E090E09093E40B3E
:103CB0008093E30B81E0089580E00895D1DF8823AD
:103CC00039F081E02091E30B3091E40B232B09F4D0
:103CD00080E008951F93CF93DF938091E30B909141
:103CE000E40B009701F1FC01EF011191212F2F7DD1
:103CF00099F0153411F01536B9F7188260E070E0CC
:103D00008091E30B9091E40B0E94D8F21883562F18
:103D1000472F382F292F0BC060E070E0DF91CF9143
:103D20001F910C94D8F250E040E030E020E0652F85
:103D3000742F832F922FDF91CF911F91089580913F
:103D4000E30B9091E40B009731F04AE050E060E023
:103D500070E00C9440F460E070E0CB010895809135
:103D6000E30B9091E40B009731F04AE050E060E003
:103D700070E00C9471F560E070E0CB010895DFDF36
:103D800097FD0CC0DCDF6F3F71058105910509F0DF
:103D900014F4D5DF01C06FEF862F089580E00895F9
:103DA0008091E30B9091E40B892B39F0E8DF91E0EF
:103DB000811101C090E0892F089581E00895EF926C
:103DC000FF920F931F93CF93DF93EC017B018A0146
:103DD0006C854D8564130AC0E881F9810190F081FA
:103DE000E02DCE0119950E94FE9BF2CFF7012081B4
:103DF0003181F801808191815B85FE0174E0579FDC
:103E0000E00DF11D11243E9631832083938382833C
:103E10006F5F6C8781E0850F841711F08B8701C07D
:103E20001B86DF91CF911F910F91FF90EF90089526
:103E3000AF92BF92CF92DF92FF920F931F93CF93D7
:103E4000DF9300D01F92CDB7DEB7F82E662351F076
:103E50001092400410923C0410923D0410923E04D3
:103E600010923F040E94A5EB00913C0410913D0488
:103E700020913E0430913F045B016C01A01AB10A0D
:103E8000C20AD30AD7FC40C0F7FE05C004EC19E013
:103E900020E030E015C0E09140042F2D332727FDAE
:103EA00030952C5F3F4F4E2F552747FD50952417D7
:103EB000350754F1EF1554F300E911E020E030E04C
:103EC000DC01CB01800F911FA21FB31F80933C0424
:103ED00090933D04A0933E04B0933F0480ED97E09F
:103EE0009A8389838CE291E09C838B83AE014F5F40
:103EF0005F4FBE016D5F7F4F85ED94E060DF809185
:103F000040048F5F809340040F900F900F900F90AC
:103F1000DF91CF911F910F91FF90DF90CF90BF90D5
:103F2000AF900895EAE0F1E08081806280839FB7DE
:103F3000F894EBE0F1E080818F7D80839FBF08954E
:103F400020E030E042E852E46091201270912112AA
:103F500080912212909123120E9434F19FB718167B
:103F60002CF4F89480910B01806204C0F894809145
:103F70000B018F7D80930B019FBF089522E037E0F6
:103F80004EEF56E06AEF76E086EF96E00C94AC8652
:103F9000AF92BF92CF92DF92EF92FF920F931F9357
:103FA000CF93DF9300D01F92CDB7DEB779015C01CC
:103FB000AA0CBB1CAA0CBB1CC5018A50994F6C01F2
:103FC000FC01108211821282138249835A836B830F
:103FD0007C83D4DF49815A816B817C81F6014083E7
:103FE000518362837383C0900D0520E030E0A90106
:103FF000B801C7010E9431EF811108C0F501E958ED
:10400000F54FE590F5900591149104C0C801D701D2
:104010007C018D0122E037E04EEF56E06AEF76E05A
:1040200086EF96E00E94C17B0E94C0901092BD0B6B
:104030000F900F900F900F90DF91CF911F910F91E4
:10404000FF90EF90DF90CF90BF90AF900895809158
:10405000D5068093D6061092D70608959091D5067E
:10406000E92FF0E0EF53FB4F80839F5F943018F40B
:104070009093D50602C01092D5068091D7068F5F27
:104080008093D7060895CF93FC01C62F80818B3390
:1040900099F08091D706843078F42091D50630E6E7
:1040A000239FC0011124BF018B5A9A4F0E941BF716
:1040B0008C2FD4DF81E001C080E0CF9108950F9371
:1040C0001F93CF93DF93EC01DEDF8823B1F0E2E8AA
:1040D000FEE084918F010F5F1F4F882319F061DB91
:1040E000F801F7CFBE018BE29AE00E94858882E258
:1040F00058DB8AE056DB81E001C080E0DF91CF91A0
:104100001F910F910895DF92EF92FF920F931F93EB
:10411000CF93DF93CDB7DEB76E970FB6F894DEBFBF
:104120000FBECDBF609153057091540561157105A7
:1041300059F14DE150E08E010F5F1F4FC8010E9401
:10414000AAF61E8EF8017F01E01AF10AD190DD2057
:1041500019F08AE0D812F7CFF801EE0DFF1D10829A
:1041600060E0C801ACDF882379F0DD20B1F08FEF8B
:10417000E81AF80A80915305909154058E0D9F1D01
:10418000909354058093530581E02091530530911D
:104190005405232B29F480E003C080E090E0F0CFA9
:1041A0006E960FB6F894DEBF0FBECDBFDF91CF91F4
:1041B0001F910F91FF90EF90DF9008959093540519
:1041C00080935305A0CF60E08FE40E9483ED61E00F
:1041D0008AE30E9483ED8C98089552985A9A089524
:1041E0008F929F92AF92BF92CF92DF92EF92FF9207
:1041F0000F931F93CF93DF93CDB7DEB728970FB6FA
:10420000F894DEBF0FBECDBF80910C07882309F460
:1042100082C18091D706811102C010924204992474
:104220009394409188095091890960918A0970910D
:104230008B098091840990918509A0918609B0919C
:104240008709481759076A077B0708F4912C00E093
:1042500010E0BB24B394F0E6AF2E9091D706809186
:104260000707943008F0AEC09110ACC090914204A2
:104270009111A8C08111A6C08091DF089091E0083B
:10428000A091E108B091E208809388099093890990
:10429000A0938A09B0938B0987ED98E00E948D5115
:1042A000882E99249394C0908809D0908909E09031
:1042B0008A09F0908B094091840950918509609199
:1042C000860970918709C416D506E606F706C0F47C
:1042D000912C8F3F2FEF920749F14AE0841709F4A0
:1042E00042C0ADE08A1709F43EC0B3E28B1719F063
:1042F0002AE382134DC020914104211149C02EC0F0
:10430000E0EEF8E084917F014FEFE41AF40A88238D
:1043100019F047DAF701F6CF8AE097E00E94D066FD
:1043200061E08AE097E00E94416218C0E8E8FEE0A0
:1043300084917F019FEFE91AF90A882319F031DA95
:10434000F701F6CFE1EDF8E084917F01AFEFEA1AD3
:10435000FA0A882319F025DAF701F6CFB3E28B12B7
:1043600002C0B0924204109241040115110509F4F3
:1043700074CF8091D506F801A89EE00DF11D11249F
:10438000EB5AFA4F108280E069DE00E010E065CF62
:104390000F35110508F061CF2BE3821202C0B092F5
:1043A000410420914104211158CF9091D506F80184
:1043B000A99EE00DF11D1124EB5AFA4F80830F5F87
:1043C0001F4F4BCF882309F4A6C0E5E5F5E025EBA8
:1043D00035E085E196E065E776E01192D9011D921E
:1043E0009D01DC011D92CD01DB011D92BD01B5E0F7
:1043F000E53BFB0791F7C0900D0560911B027091A2
:104400001C02882777FD8095982F0E94D3EF198290
:104410001A821B821C8200E010E020E830EC0D8341
:104420001E832F8338877B018C0129EA3BE04DEA0C
:104430005BE0BE016F5F7F4FCE0105960E94C17B9E
:1044400069EA7BE083E090E00E9468878091B50B89
:104450009091B60BA091B70BB091B80B8093E60684
:104460009093E706A093E806B093E9068091B10B1C
:104470009091B20BA091B30BB091B40B8093EA066C
:104480009093EB06A093EC06B093ED062AE939E988
:1044900049E95EE36091FE067091FF068091000796
:1044A000909101070E9434F11816BCF42DEC3CECFD
:1044B0004CEC5DE36091AD0B7091AE0B8091AF0B56
:1044C0009091B00B0E9457EE6093FE067093FF062A
:1044D000809300079093010710C08091AD0B9091DD
:1044E000AE0BA091AF0BB091B00B8093FE069093F2
:1044F000FF06A0930007B093010785E595E5A5E0C9
:10450000B2E480931D0290931E02A0931F02B09309
:1045100020021092070728960FB6F894DEBF0FBE50
:10452000CDBFDF91CF911F910F91FF90EF90DF9062
:10453000CF90BF90AF909F908F900895FF920F9370
:104540001F93CF93DF93EC0184E5B8DB882321F13F
:1045500016DCF82E1816ECF4E2E8FEE084918F01E8
:104560000F5F1F4F882319F01CD9F801F7CF8DE496
:1045700018D96AE070E0CE0196D96F2D772767FDD4
:1045800070958EEB98E00E94AD888AE00AD981E0B0
:1045900008C08093D40404C080910D058093D40496
:1045A00080E0DF91CF911F910F91FF900895AF921E
:1045B000BF92CF92DF92EF92FF920F931F93CF9310
:1045C000DF93EC018C01000F111F000F111FF80188
:1045D000E85DFA4F20E030E0A901608171818281BD
:1045E00093810E9458EEF801EC5CFA4F20813181F2
:1045F000428153810E9458EE6B017C01F801E45E18
:10460000FA4F60837183828393830559154FF801B4
:1046100065917591859194918E01000F111F000F86
:10462000111F9801205F3A4F5901A70196010E947E
:1046300058EEF5016083718382839383015A154F8D
:10464000F8016591759185919491CC0FDD1FCC0F88
:10465000DD1FC45FDD4FA70196010E9458EE6883FD
:1046600079838A839B83DF91CF911F910F91FF9074
:10467000EF90DF90CF90BF90AF9008954F925F92F0
:104680006F927F92AF92BF92CF92DF92EF92FF92A2
:104690000F931F93CF93DF93EC01FC01E85CF54F80
:1046A0006491FC01EE0FFF1FEE0FFF1FE95BF54F5A
:1046B0004590559065907490772767FD7095872F8A
:1046C000972F0E94D3EF6B017C0120E030E040EC9B
:1046D0005FE3C301B2010E946FF1A70196010E943E
:1046E0006FF1AB01BC0100E010E09801CE0150DC9D
:1046F000FE01EE0FFF1FEE0FFF1FE55CF54F25914A
:10470000359145915491C701B6010E946FF16B013B
:104710007C0120E030E0A9010E9431EF5E01AA0C8B
:10472000BB1CAA0CBB1C882309F445C000E010E0A8
:104730009801B701A6017058CE012ADCFE01E658A7
:10474000F74F6491611117C0E2E8FEE084918F0198
:104750000F5F1F4F882319F024D8F801F7CFE8E541
:10476000F8E084918F010F5F1F4F882319F019D84B
:10477000F801F7CF6AE0F501E958F54F45905590FB
:104780006590749070E080E090E00E94D3EF9B0110
:10479000AC01C301B2010E9438EF2B013C01A7011B
:1047A0009601C701B6010E9458EEAB01BC0193010E
:1047B0008201CE01EDDBFE01ED51F94F81E08083F6
:1047C000FE01E052F94F8083F501EC5CFA4F108254
:1047D000118212821382CE01EADEF501ED5AF54F05
:1047E0006591759185919491CC0FDD1FCC0FDD1FE4
:1047F0008E010A50194FFE01E45EFA4F208131818B
:10480000428153810E9458EEF80160837183828354
:104810009383B4DBCA51D94FF80180819181A28181
:10482000B38188839983AA83BB83DF91CF911F9142
:104830000F91FF90EF90DF90CF90BF90AF907F905F
:104840006F905F904F900895CF92EF92FF920F93E9
:104850001F93E0901D02F0901E0200911F02109124
:104860002002C0900D0522E037E04EEF56E06AEFDF
:1048700076E086EF96E00E94C17B1F910F91FF903A
:10488000EF90CF900895CF92EF92FF920F931F93E6
:10489000C0900D057B018C0122EF36E04EEE56E014
:1048A0006AEE76E086EE96E00E94C17B1F910F9142
:1048B000FF90EF90CF90089580E1E6EEF6E0A6EF4E
:1048C000B6E001900D928A95E1F7089580E1E6EF58
:1048D000F6E0A6EEB6E001900D928A95E1F7089514
:1048E0004F925F926F927F928F929F92AF92BF9200
:1048F000CF92DF92EF92FF920F931F93CF93DF93AC
:104900006C017B018A01E90180901D0290901E02DA
:10491000A0901F02B0902002FA01208131814281D3
:1049200053816091FE067091FF068091000790917F
:1049300001070E9431EF87FF2CC0488059806A80B0
:104940007B8020E030E0A901B201C3010E9431EF79
:10495000811107C0EFE7FAE085919591A591B49197
:1049600002C0C201D30180931D0290931E02A09346
:104970001F02B0932002F80180819181A281B3814E
:104980008093FE069093FF06A0930007B093010763
:104990005BDF488059806A807B8020E030E0A9019D
:1049A000B201C3010E9431EF811105C055E545E513
:1049B00035E023E404C0542D452D362D272D852FB9
:1049C000942FA32FB22F80931D0290931E02A093C9
:1049D0001F02B0932002F60180819181A281B381F0
:1049E0008093F6069093F706A093F806B093F90625
:1049F000F70180819181A281B3818093FA0690931F
:104A0000FB06A093FC06B093FD061EDFF801208193
:104A10003181428153816091FE067091FF06809141
:104A20000007909101070E9434F1181684F5D88090
:104A3000E980FA80CB8120E030E0A9016D2D7E2D48
:104A40008F2D9C2F0E9431EF811107C0EFE7FAE014
:104A500085919591A591B49104C08D2D9E2DAF2D7A
:104A6000BC2F80931D0290931E02A0931F02B0934F
:104A70002002F80180819181A281B3818093FE069A
:104A80009093FF06A0930007B0930107DDDE0E941C
:104A9000C09080921D0290921E02A0921F02B092BE
:104AA0002002DF91CF911F910F91FF90EF90DF9047
:104AB000CF90BF90AF909F908F907F906F905F90BE
:104AC0004F9008959B01AC016AEF76E086EF96E087
:104AD00007CF9A014EEF56E003CFCF92DF92EF92CD
:104AE000FF920F931F93CF93DF933CE0E32E33E0CD
:104AF000F32E06EE16E0C6EFD6E049E4C42E45E0FC
:104B0000D42EF70181917F01ABD88823C9F0E2D878
:104B1000F6012081211104C020910C05222329F0E7
:104B2000288139814A815B8103C020E030E0A901FE
:104B30000E9458EEF801608371838283938309C0D9
:104B400088819981AA81BB81F80180839183A283A6
:104B5000B3830C5F1F4F2496FFEFCF1ADF0A80E16B
:104B6000E81683E0F80669F686E4A8D88823B9F049
:104B7000B1D820E030E0A9010E9434F118167CF48D
:104B8000A9D820E030E040E752E40E9438EF60937B
:104B90001D0270931E0280931F0290932002DF91EA
:104BA000CF911F910F91FF90EF90DF90CF900895DC
:104BB000CF92DF92EF92FF92CF93DF930E94A5EB0B
:104BC0006B017C0180910602882309F468C0209162
:104BD000BF043091C0042115310509F460C08091F3
:104BE000BB049091BC04A091BD04B091BE04B70178
:104BF000A601481B590B6A0B7B0B77FD63C0233062
:104C0000310519F13CF4213031050CF448C0E2E8DB
:104C1000FEE007C02430310509F041C0E2E8FEE0C3
:104C20002AC08491EF012196882321F00E94D11B94
:104C3000FE01F7CFECEAF8E08491EF01219688239A
:104C400071F10E94D11BFE01F7CFE2E8FEE08491F2
:104C5000EF012196882321F00E94D11BFE01F7CF9E
:104C6000E5E9F8E08491EF0121968823C1F00E94E4
:104C7000D11BFE01F7CF8491EF012196882321F00B
:104C80000E94D11BFE01F7CFEDE7F8E08491EF0120
:104C90002196882321F00E94D11BFE01F7CF20919D
:104CA000060230E0A8EEB3E00E94AFF26C0D7D1D6D
:104CB0008E1D9F1D6093BB047093BC048093BD0444
:104CC0009093BE04DF91CF91FF90EF90DF90CF9053
:104CD00008958C9A809111148823D9F10E946968F3
:104CE0008091A50B9091A60BA091A70BB091A80B5A
:104CF00085369105A105B1055CF00597A109B109BB
:104D00008093A50B9093A60BA093A70BB093A80B31
:104D10004091A50B5091A60B6091A70B7091A80B29
:104D2000409388095093890960938A0970938B098D
:104D300087ED98E00E945A5281E0809307078093A4
:104D40000807109211148FEF90E090930F05809355
:104D50000E05669B0BC081E08093090741E050E09F
:104D600060E07DE1809122020C9492E908950F9316
:104D70001F93CF93DF93CDB7DEB769970FB6F89443
:104D8000DEBF0FBECDBF83EF94E00E945C926E8BBE
:104D90007F8B888F998FBE016F5F7F4FCE014696C4
:104DA0000E947C1D60E0CE0101960E9454D9E2E889
:104DB000FEE084918F010F5F1F4F882321F00E9436
:104DC000D11BF801F6CFBE016F5F7F4F88E997E0F6
:104DD0000E9485888AE00E94D11B69960FB6F894DC
:104DE000DEBF0FBECDBFDF91CF911F910F91089510
:104DF0001F93CF93DF9380910C0781110E94C09085
:104E0000C091E50BD091E60B80E50E94301E88230F
:104E100021F00E94D01E182F01C010E080910D07D4
:104E2000882349F1212F41E0BE018AE097E00E94EA
:104E3000956383E50E945E1E882381F00E949F1E79
:104E4000AB01BC01409388095093890960938A099A
:104E500070938B0987ED98E00E945A528AE097E0A0
:104E60000E943060111107C083EF94E0DF91CF9171
:104E70001F910C948992DF91CF911F9108950F9308
:104E80001F93CF93DF9383E50E945E1E882309F46E
:104E900045C00E94BF1E082F80E50E945E1E882329
:104EA00031F00E949F1E77FD39C0EB0102C0CDE0BA
:104EB000D0E08C2FE5E2F7E09491891731F031963C
:104EC00097E0ED34F907C1F716C0E8E8FEE08491F9
:104ED000EF012196882321F00E94D11BFE01F7CF1C
:104EE000EDE4F7E08491EF0121968823B9F00E9468
:104EF000D11BFE01F7CF61E08C2F0E9483ED602F64
:104F00008C2F0E94BCED10E0B8018C2F0E946DEC3C
:104F1000299721F410930F0500930E05DF91CF918F
:104F20001F910F91089588E690E008DB811147C03A
:104F30008091060783FD43C083E50E945E1E88239F
:104F4000E1F10E946A1E0E94A0EF70931912609313
:104F5000181280E00E9461960E946A1E20E030E0F4
:104F60004AEA52E40E9431EF18164CF083EF94E0C5
:104F70000E94269260E088E197E00E9464D90E9436
:104F80006A1E2091201230912112409122125091DC
:104F900023120E9434F1181684F488ED92E09F9356
:104FA0008F938EE097E09F938F931F920E9479DBFF
:104FB0000F900F900F900F900F900C9451880895C0
:104FC000EF92FF920F931F93CF93DF931F92CDB772
:104FD000DEB78C017B0180E249830E94D11B4981AD
:104FE0004F3F11F482E401C084E50E94D11B8AE3A3
:104FF0000E94D11BF801608171818281938142E01E
:1050000050E00E94FF1CF701408151816281738151
:1050100085E598E00F90DF91CF911F910F91FF9060
:10502000EF900C94E4880F931F93CF93DF93CDB749
:10503000DEB728970FB6F894DEBF0FBECDBF6091E4
:10504000181270911912882777FD8095982F0E9469
:10505000D3EF69837A838B839C8380912012909114
:105060002112A0912212B09123128D839E83AF83CF
:10507000B8874EEFBE016F5F7F4FCE010596A0DF70
:105080006091141270911512882777FD8095982FE2
:105090000E94D3EF69837A838B839C8380911C1257
:1050A00090911D12A0911E12B0911F128D839E83AC
:1050B000AF83B8874FEFBE016F5F7F4FCE0105967C
:1050C0007FDFE1E5F8E084918F010F5F1F4F8823B8
:1050D00021F00E94D11BF801F6CF8091D40490E01A
:1050E0000E9460936AE070E00E947C1CECE4F8E0AF
:1050F00084918F010F5F1F4F882321F00E94D11BE5
:10510000F801F6CF8FEF9FEF0E9460936AE070E0A6
:105110000E947C1C28960FB6F894DEBF0FBECDBF50
:10512000DF91CF911F910F910895CF92DF92EF926F
:10513000FF928091A804882379F10E94A5EBC0908A
:10514000A404D090A504E090A604F090A7046C19E4
:105150007D098E099F0997FD1FC00E94A5EB6B0179
:105160007C012091A80430E0A8EEB3E00E94AFF2E9
:10517000C60ED71EE81EF91EC092A404D092A50444
:10518000E092A604F092A7044EDF8AE0FF90EF9031
:10519000DF90CF900C94D11BFF90EF90DF90CF90D9
:1051A0000895DF92EF92FF920F931F93CF93DF93B7
:1051B00083E50E945E1E882319F00E94BF1E01C075
:1051C00080E080930607E2E8FEE08491EF012196FB
:1051D000882321F00E94D11BFE01F7CFE7E0F7E022
:1051E0008491EF012196882321F00E94D11BFE01BA
:1051F000F7CF80910607882381F10DEF16E0C0E01C
:10520000D0E020E08091060790E00C2E02C095953A
:1052100087950A94E2F780FF17C0DD24D394D20E5D
:10522000222319F08CE20E94D11BF80125913491C0
:10523000F90184917901FFEFEF1AFF0A882329F021
:105240000E94D11B9701F4CFD22E21960E5F1F4FE3
:10525000C530D10569F02D2DD5CFE9EFF6E0849169
:10526000EF012196882321F00E94D11BFE01F7CF88
:105270008AE0DF91CF911F910F91FF90EF90DF9027
:105280000C94D11BCF93DF9383E50E945E1E88238D
:1052900051F00E94BF1E8D3308F08CE3809306020C
:1052A000DF91CF910895E2E8FEE08491EF0121962D
:1052B000882321F00E94D11BFE01F7CF4091060206
:1052C00050E060E070E083EC96E00E9420898AE084
:1052D000DF91CF910C94D11BCF93DF9383E50E9494
:1052E0005E1E882319F00E949F1E02C060E070E0DD
:1052F000EB01DD27C230D105B8F0E8E8FEE084918B
:10530000EF012196882321F00E94D11BFE01F7CFE7
:10531000EFE7F4E08491EF012196882309F44EC071
:105320000E94D11BFE01F6CF88E40E945E1E8823F6
:10533000A9F00E949F1E6A3A71053CF0653081E039
:1053400078072CF064E071E002C06AEA70E0FE01C8
:10535000EE0FFF1FE35FFB4E7183608386E40E94C4
:105360005E1E882399F00E949F1E6F3F710519F001
:1053700014F06FEF70E0FE01EE0FFF1FEB5FFB4ECE
:1053800077FF02C060E070E07183608382E40E9476
:105390005E1E882399F00E949F1E6530710534F0CF
:1053A000683871052CF067E870E002C065E070E0D5
:1053B000CC0FDD1FC75FDB4E79836883DF91CF9110
:1053C00008957F928F929F92AF92BF92CF92DF9279
:1053D000EF92FF920F931F93CF93DF930CE013E0B4
:1053E000C7E7DCE0712CF80181918F010E94301E2B
:1053F000882309F46CC0F3E07F1263C00E946A1E28
:105400006B017C0120E030E040EA51E40E9431EF82
:1054100087FF4EC0A70196016091830C7091840CA8
:105420008091850C9091860C0E9438EF4B015C01B5
:105430009B01AC0160912F0C7091300C8091310C6C
:105440009091320C0E946FF160932F0C7093300C8E
:105450008093310C9093320CA50194016091930CD0
:105460007091940C8091950C9091960C0E946FF124
:105470006093930C7093940C8093950C9093960C7E
:105480006091630C7091640C8091650C9091660C36
:105490000E94D1EFA50194010E946FF10E94A5EF37
:1054A0006093630C7093640C8093650C9093660C0E
:1054B000C092830CD092840CE092850CF092860C02
:1054C00006C00E946A1E688379838A839B837394D3
:1054D000249684E0781287CFDF91CF911F910F91AE
:1054E000FF90EF90DF90CF90BF90AF909F908F9004
:1054F0007F900C942D88CF93DF93E9E4F8E08491BA
:10550000EF012196882321F00E94D11BFE01F7CFE5
:105510006091F6067091F7068091F8069091F90671
:1055200042E050E00E94FF1CE5E4F8E08491EF01C6
:105530002196882321F00E94D11BFE01F7CF6091B4
:10554000FA067091FB068091FC069091FD0642E000
:1055500050E00E94FF1CE1E4F8E08491EF01219605
:10556000882321F00E94D11BFE01F7CF6091FE0637
:105570007091FF06809100079091010742E050E092
:105580000E94FF1CEDE3F8E08491EF01219688234F
:1055900021F00E94D11BFE01F7CF609102077091AC
:1055A0000307809104079091050742E050E00E94B4
:1055B000FF1CDF91CF910C94A591EF92FF920F9376
:1055C0001F93CF93DF9300D01F921F92CDB7DEB70A
:1055D0008D830E94C09040911D0250911E026091E7
:1055E0001F027091200240934F0550935005609325
:1055F00051057093520520911B0230911C0230938B
:105600004E0520934D0524E630E030931C02209394
:105610001B020E94711D91E09093BF0B8D8181113F
:1056200018C088E50E94301EF82E89E50E94301EC1
:10563000182F8AE50E94301EF11007C0111110C00A
:10564000E12C882391F001E018C0082F112389F084
:1056500001C001E0102FEE24E394FF24F3940DC069
:10566000082FE12CFF24F39407C0F12C00E011E097
:1056700004C0EE24E394F12C10E028D9111105C0E8
:10568000E11003C0FF2009F43EC020E030E0A90192
:10569000609124057091250580912605909127053C
:1056A0000E9458EE6093EE067093EF068093F0062A
:1056B0009093F1062091FE063091FF06409100077D
:1056C000509101070E9434F1181654F419821A827D
:1056D0001B821C82BE016F5F7F4F8EEE96E0F2D977
:1056E000111105C0E11003C0F11007C00CC080E02B
:1056F00090E00E943E231123B9F381E090E00E94E4
:105700003E23111102C0002321F082E090E00E94AC
:105710003E230E94BE1F8091BE0B8093BF0B8091E1
:105720004F0590915005A0915105B091520580937D
:105730001D0290931E02A0931F02B093200280913D
:105740004D0590914E0590931C0280931B020E9480
:10575000711D83E080934602CEDE0F900F900F9074
:105760000F900F90DF91CF911F910F91FF90EF90CD
:1057700008958F929F92AF92BF92CF92DF92EF9255
:10578000FF920F931F93CF93DF9300D01F92CDB75B
:10579000DEB785E40E945E1EB82E811102C00E9411
:1057A000C0901CE0C12E13E0D12E04E3E02E05E0F2
:1057B000F02E06EF16E0812C912CA12CF6018191A0
:1057C0006F010E945E1E882361F1F8012081318102
:1057D0004281538129833A834B835C830E946A1EF2
:1057E000F801608371838283938329813A814B819D
:1057F0005C81F3E08F16A9F00E9457EE9B01AC018B
:10580000F70160817181828193810E9458EEF701D6
:105810006083718382839383C4010E94D722AA2468
:10582000A394FFEF8F1A9F0A84E0E80EF11C0C5F2F
:105830001F4FE4E08E16910409F6AA2019F00E9489
:10584000BE1F08C0BB2031F062E077E083E090E04B
:105850000E9468870F900F900F900F90DF91CF916B
:105860001F910F91FF90EF90DF90CF90BF90AF907E
:105870009F908F9040CECF93DF93E0E8F5E0849146
:10588000EF012196882321F00E94D11BFE01F7CF62
:10589000E2E7F5E08491EF012196882321F00E9450
:1058A000D11BFE01F7CFEBE5F5E08491EF012196E6
:1058B000882321F00E94D11BFE01F7CFEBE4F5E035
:1058C0008491EF012196882321F00E94D11BFE01D3
:1058D000F7CFEAE3F5E08491EF012196882321F0E8
:1058E0000E94D11BFE01F7CFE9E2F5E08491EF01C0
:1058F0002196882321F00E94D11BFE01F7CFEAE117
:10590000F5E08491EF012196882321F00E94D11BBC
:10591000FE01F7CFE5E0F5E08491EF0121968823C1
:1059200021F00E94D11BFE01F7CFEFEEF4E084914D
:10593000EF012196882321F00E94D11BFE01F7CFB1
:10594000EAEDF4E08491EF012196882321F00E9492
:10595000D11BFE01F7CFEDEBF4E08491EF0121962E
:10596000882321F00E94D11BFE01F7CFE5EAF4E085
:105970008491EF012196882321F00E94D11BFE0122
:10598000F7CFDF91CF910895CF93DF9385E40E9405
:10599000301E882379F00E94D01E882359F0E2E857
:1059A000FEE08491EF012196882321F00E94D11B13
:1059B000FE01F7CF81E40E94301E882379F00E9417
:1059C000D01E882359F0E1EAF4E08491EF0121969A
:1059D000882321F00E94D11BFE01F7CFC091E50B77
:1059E000D091E60B8991882319F00E94D11BFACF40
:1059F0008AE0DF91CF910C94D11B83E50E94301E89
:105A00008823D9F00E946A1EAB01BC0140933B0C75
:105A100050933C0C60933D0C70933E0C4093330CC0
:105A20005093340C6093350C7093360C87E594E0FA
:105A30000E94E4888AE00E94D11B80E50E94301E0B
:105A4000882399F00E946A1EAB01BC0140933B0C75
:105A500050933C0C60933D0C70933E0C8AE394E0B1
:105A60000E94E4888AE00E94D11B82E50E94301ED9
:105A7000882399F00E946A1EAB01BC014093370C49
:105A80005093380C6093390C70933A0C8BE194E08E
:105A90000E94E4888AE00E94D11B84E50E94301EA7
:105AA000882399F00E946A1EAB01BC014093330C1D
:105AB0005093340C6093350C7093360C8DEF93E05B
:105AC0000E94E4888AE00C94D11B089583E50E942B
:105AD000301E882351F00E946A1E60933F0C709321
