:100000000C94411A0C94E3E80C940EE90C9439E931
:100010000C9464E90C948FE90C94BAE90C94E5E92A
:100020000C9410EA0C94721A0C94721A0C94721AB2
:100030000C94721A0C94721A0C94721A0C94721A10
:100040000C94721A0C945B8F0C94721A0C94721AA2
:100050000C94721A0C94721A0C94BA9D0C943BEA8C
:100060000C94721A0C94741A0C94721A0C94721ADE
:100070000C94721A0C94721A0C94721A0C94721AD0
:100080000C94721A0C94721A0C94721A0C94721AC0
:100090000C94721A0C94721A0C94721A0C94721AB0
:1000A0000C94721A0C94721A0C94721A0C94721AA0
:1000B0000C94721A0C94721A0C94721A0C94721A90
:1000C0000C94721A0C94721A0C94721A0C94721A80
:1000D0000C94721A0C94721A0C94721A0C94721A70
:1000E0000C94721A27A630A639A642A64BA666A67D
:1000F00073A67CA654A65DA6BDE887E88FE89BE8BA
:10010000A8E8C9E8D6E870EB75EB7AEB84EB8EEBE8
:1001100007EC98EBA0EBA8EBB2EBBCEBC6EBD5EB96
:10012000DFEB07ECE9EBF3EBFDEB28EC2BEC1AEC47
:100130001EEC24EC62EC2FEC33EC39EC3DEC41ECA2
:1001400047EC4BEC4FEC62EC55EC59EC5DEC084A9B
:10015000D73B3BCE016E84BCBFFDC12F3D6C7431DB
:100160009ABD56833DDA3D00C77F11BED9E4BB4C32
:100170003E916BAAAABE000000803F05A84CCDB2FC
:10018000D44EB93836A9020C50B9918688083CA6DD
:10019000AAAA2ABE000000803F00446F6E6520734B
:1001A0006176696E672066696C652E0A004D32398A
:1001B000002020506C616E6E6572427566666572D5
:1001C00042797465733A20002046726565204D655A
:1001D0006D6F72793A2000436F6D70696C65643A97
:1001E000204E6F7620203920323031370A00207CB3
:1001F00020417574686F723A2028414E5943554228
:10020000494320466F75724D61782C2056312E304F
:10021000290A00323031372D30392D323220313237
:100220003A303000204C61737420557064617465FD
:10023000643A2000312E312E350A004D61726C690E
:100240006E0020536F667477617265205265736526
:10025000740A00205761746368646F672052657385
:1002600065740A002042726F776E206F7574205299
:10027000657365740A002045787465726E616C2040
:1002800052657365740A00506F77657255700A0085
:1002900073746172740A005072696E7465722068BA
:1002A000616C7465642E206B696C6C282920636115
:1002B0006C6C6564210A004B494C4C45442E20006F
:1002C0004B494C4C206361757365642062792074DE
:1002D0006F6F206D75636820696E61637469766500
:1002E0002074696D65202D2063757272656E7420AF
:1002F000636F6D6D616E643A20004D3630300020C2
:10030000746F6F206C6F6E67206578747275736997
:100310006F6E2070726576656E7465640A00206386
:100320006F6C6420657874727573696F6E2070727B
:100330006576656E7465640A006F6B00526573655F
:100340006E643A20004E6F2063617365206C6967AC
:1003500068740A004F666673657473206170706C10
:10036000696564004572723A20546F6F206661724D
:100370002100546F6F206661722066726F6D20726B
:1003800065666572656E636520706F696E740A00DC
:1003900043290A0061626C656420286D696E2074CF
:1003A000656D702000436F6C6420657874727564AD
:1003B000657320617265200020643A0020693A006C
:1003C00020703A00205A00205900580020204D612A
:1003D000783A2000205A00205900580020204D690A
:1003E0006E3A20004F6666004F6E2000536F6674B1
:1003F00020656E6473746F70733A20005365747473
:10040000696E672054726176656C20416363656C28
:1004100065726174696F6E3A200053657474696E19
:1004200067205265747261637420416363656C6513
:10043000726174696F6E3A200053657474696E67F7
:10044000205072696E7420416363656C65726174DB
:10045000696F6E3A200053657474696E672050723C
:10046000696E7420616E642054726176656C2041FF
:100470006363656C65726174696F6E3A20004D311B
:10048000343520533C696E6465783E206F75742066
:100490006F662072616E67652028302D31290A0051
:1004A0002F2F20004361703A454D455247454E433A
:1004B000595F5041525345523A300A004361703AF5
:1004C000434153455F4C494748545F42524947486E
:1004D000544E4553533A300A004361703A544F47E3
:1004E000474C455F4C49474854533A300A004361F2
:1004F000703A534F4654574152455F504F574552FB
:100500003A300A004361703A4C4556454C494E47D3
:100510005F444154413A300A004361703A5A5F5097
:10052000524F42453A300A004361703A4155544FA8
:100530004C4556454C3A300A004361703A50524996
:100540004E545F4A4F423A310A004361703A50526A
:100550004F47524553533A300A004361703A415570
:10056000544F5245504F52545F54454D503A310A02
:10057000004361703A454550524F4D3A310A0046AA
:1005800049524D574152455F4E414D453A4D61727A
:100590006C696E20312E312E3520284769746875BC
:1005A000622920534F555243455F434F44455F55A1
:1005B000524C3A68747470733A2F2F676974687577
:1005C000622E636F6D2F4D61726C696E4669726D3C
:1005D000776172652F4D61726C696E2050524F5475
:1005E0004F434F4C5F56455253494F4E3A312E3090
:1005F000204D414348494E455F545950453A344D8A
:1006000061782045585452554445525F434F554EEA
:10061000543A3120555549443A6365646532613234
:10062000662D343161322D343734382D3962313210
:100630002D6335356336326633363766660A0034E5
:100640004D6178204F66662E004D36303020486F61
:1006500074656E6420746F6F20636F6C6420746FB8
:10066000206368616E67652066696C616D656E7494
:100670000A0042656420646F6E652E0020573A00C0
:100680004265642048656174696E672E0048656143
:1006900074696E6720646F6E652E0020573A004EB5
:1006A0006F7A7A6C6520257300344D61782072650D
:1006B0006164792E006F6B004D3131332053004B54
:1006C000494C4C45442E20004543484F00494E4676
:1006D0004F004552524F52530044525952554E000A
:1006E000434F4D4D554E49434154494F4E006F665F
:1006F0006600C806CD06D206D906E0064445425536
:10070000473A004E6F7A7A6C6520257300344D614C
:10071000782072656164792E00000136372603FF68
:100720003C3D380EFF2E303E12FFFF0C0809FFFF44
:10073000071A1C18FFFF08440AFF43FFFFFFFFFFD3
:10074000FF50726F7465637465642050696E0A00AF
:100750002569730025696D20256973002569682066
:1007600025696D2025697300256964202569682045
:1007700025696D2025697300256979202569642024
:100780002569682025696D20256973005072696E9E
:10079000742074696D653A20004D31323500456E24
:1007A000642066696C65206C6973740A0042656731
:1007B000696E2066696C65206C6973740A004E6FFF
:1007C000206D6F76652E00344D617820726561640E
:1007D000792E00526573756D696E67207072696E4F
:1007E0007400436C69636B20746F20726573756D60
:1007F000652E2E2E00536C6565702E2E2E0047320E
:100800002F47332062616420706172616D65746589
:1008100072730A0041637469766520457874727555
:100820006465723A200020453A00205A3A00205967
:100830003A00583A002042403A0020403A00202F27
:10084000005761726E696E673A20486F6D696E6716
:100850002042756D702044697669736F72203C2068
:10086000310A00020204627573793A20706175736F
:10087000656420666F7220696E7075740A00627517
:1008800073793A2070617573656420666F722075A4
:100890007365720A00627573793A2070726F6365CE
:1008A0007373696E670A0020496E76616C69642013
:1008B00065787472756465722000534420726561B6
:1008C00064206572726F720A00446F6E65207072E8
:1008D000696E74696E672066696C650A004B494CE5
:1008E0004C45442E200053544F505045442E200078
:1008F0005072696E7465722073746F7070656420D5
:1009000064756520746F206572726F72732E204655
:10091000697820746865206572726F7220616E64F8
:1009200020757365204D39393920746F20726573D5
:10093000746172742E202854656D706572617475CF
:1009400072652069732072657365742E2053657417
:1009500020697420616674657220726573746172B7
:1009600074696E67290A004E6F204C696E65204ECF
:10097000756D626572207769746820636865636B62
:1009800073756D2C204C617374204C696E653A2030
:10099000004E6F20436865636B73756D20776974D3
:1009A00068206C696E65206E756D6265722C204CD6
:1009B000617374204C696E653A2000636865636BEF
:1009C00073756D206D69736D617463682C204C6163
:1009D0007374204C696E653A20004C696E65204E38
:1009E000756D626572206973206E6F74204C61733F
:1009F00074204C696E65204E756D6265722B312CCA
:100A0000204C617374204C696E653A20004D313181
:100A10003000656E7175657565696E67202200FF2F
:100A2000FFFF0000A0400000A040000000400000C8
:100A30005D4300005C4300009643000080C000005E
:100A40000000000000000000594300005C4300006B
:100A50009643000080C0000000000000000000007D
:100A600048420000484200002041000000007C3C59
:100A70003E5E2B3D3F2F5B5D3B2C2A225C004D33BD
:100A800031004D383420582059205A204500436108
:100A90006E6E6F7420656E74657220737562646922
:100AA000723A20006175746F25692E670065727255
:100AB0006F722077726974696E6720746F2066693F
:100AC0006C650A004E6F74205344207072696E7416
:100AD000696E670A005344207072696E74696E67AC
:100AE0002062797465200044656C6574696F6E20BE
:100AF0006661696C65642C2046696C653A20004625
:100B0000696C652064656C657465643A006F706536
:100B10006E206661696C65642C2046696C653A20BC
:100B20000057726974696E6720746F2066696C651E
:100B30003A20006F70656E206661696C65642C20D8
:100B400046696C653A20006F70656E206661696C5D
:100B500065642C2046696C653A200046696C652006
:100B600073656C65637465640A002053697A653A3D
:100B7000200046696C65206F70656E65643A2000E0
:100B80006F70656E206661696C65642C2046696CC7
:100B9000653A20002066696C653A20004E6F772028
:100BA000002220706F73002220706172656E743AAB
:100BB0002200535542524F5554494E452043414C13
:100BC0004C207461726765743A22004B494C4C4565
:100BD000442E2000747279696E6720746F206361FF
:100BE0006C6C207375622D67636F64652066696C39
:100BF0006573207769746820746F6F206D616E79FA
:100C0000206C6576656C732E204D4158206C65769E
:100C1000656C2069733A004D3234004D3233202523
:100C2000730053442063617264206F6B0A006F701D
:100C3000656E526F6F74206661696C65640A007638
:100C40006F6C756D652E696E6974206661696C657F
:100C5000640A00534420696E6974206661696C0AF5
:100C60000043616E6E6F74206F70656E20737562E5
:100C7000646972200048617264636F646564204433
:100C8000656661756C742053657474696E67732052
:100C90004C6F616465640A00DC050000DC0500003F
:100CA00064000000102700000000964300009643F7
:100CB000000020410000C8410000A0420000A04206
:100CC0000000C8433333B942202863616C63756CFC
:100CD0006174656429210A0020213D2000454550AA
:100CE000524F4D20435243206D69736D61746368A8
:100CF000202D202873746F726564292000290A0052
:100D00002062797465733B206372632000207374E2
:100D10006F7265642073657474696E6773207265A1
:100D200074726965766564202800204D61726C6973
:100D30006E3D563430290A0028454550524F4D3DEE
:100D400000454550524F4D2076657273696F6E2095
:100D50006D69736D617463682000290A00206279EF
:100D60007465733B20637263200053657474696E0D
:100D700067732053746F7265642028004572726F28
:100D8000722077726974696E6720746F20454550D0
:100D9000524F4D210A004572726F7220777269744A
:100DA000696E6720746F20454550524F4D210A00EF
:100DB00066696C616D656E743A20007A5F6D696E6C
:100DC0003A2000795F6D696E3A2000785F6D696E38
:100DD0003A20005265706F7274696E6720656E64A8
:100DE00073746F70207374617475730A00456E6458
:100DF00073746F707320256320256320256320257D
:100E00006300205A3A0020593A0020583A00656E93
:100E10006473746F7073206869743A2000556E6B48
:100E20006E6F776E20636F6D6D616E643A20220085
:100E300020746F6F206C6F6E6720657874727573A5
:100E4000696F6E2070726576656E7465640A002045
:100E5000636F6C6420657874727573696F6E20704F
:100E6000726576656E7465640A006563686F3A0042
:100E70004572726F723A00205A3A0020593A0020A7
:100E8000436F756E7420583A004D383420582059FD
:100E9000205A20450024F4D43050C38E20C2A240F2
:100EA00017828B7011127A910D816CD90AA861E1B9
:100EB00008C7586607615143061E4B5D05C145A72B
:100EC000041A411104093D9803713931034036DB9E
:100ED0000265339102D4305402802E1D02632CEE41
:100EE00001752AC501B028A001102781018F256452
:100EF000012B244B01E0223401AC211F018D200D78
:100F000001801FFC00841EED00971DDF00B81CD27D
:100F100000E61BC600201BBC00641AB200B219A870
:100F2000000A19A0006A189900D117910040178B88
:100F300000B516840031167E00B31579003A15739A
:100F400000C7146F0058146A00EE1366008813631C
:100F50000025135E00C7125B006C12570015125477
:100F600000C111510070114F0021114B00D61049E2
:100F7000008D1047004610440002104200C00F4090
:100F800000800F3E00420F3C00060F3B00CB0E38A6
:100F900000930E37005C0E3500270E3400F30D323F
:100FA00000C10D3100900D3000600D2E00320D2D6E
:100FB00000050D2C00D90C2B00AE0C2900850C2946
:100FC000005C0C2700350C27000E0C2600E80B24D3
:100FD00000C40B2400A00B23007D0B23005A0B211F
:100FE00000390B2100180B2000F80A1F00D90A1E37
:100FF00000BB0A1E009D0A1D00800A1D00630A1C1A
:1010000000470A1B002C0A1B00110A1A00F7091AD4
:1010100000DD091900C4091900AB0919009209176C
:10102000007B091800630917004C091600360916E1
:1010300000200916000A091500F5081500E008143B
:1010400000CC081400B8081400A408140090081379
:10105000007D0812006B08130058081200460812A1
:1010600000340811002308110012081100010811B2
:1010700000F0071000E0071000D0071000C00710B4
:1010800000B0070F00A107100091070E0083070FA3
:101090000074070F0065070E0057070E0049070E82
:1010A000003B070D002E070E0020070D0013070D53
:1010B0000006070D00F9060C00ED060D00E0060C19
:1010C00000D4060C00C8060C00BC060C00B0060CD0
:1010D00000A4060B0099060C008D060B0082060B7F
:1010E0000077060B006C060B0061060A0057060B22
:1010F000004C060A0042060A0038060A002E060ABC
:101100000024060A001A060A001006090007060A4B
:1011100000FD050900F4050900EB050900E20509D9
:1011200000D9050900D0050900C7050900BE050959
:1011300000B5050800AD050800A50509009C0508D7
:1011400000940508008C050800840508007C05084B
:1011500000740508006C050700650508005D0507BB
:1011600000560508004E0507004705070040050822
:101170000038050700310507002A05070023050789
:10118000001C050600160507000F050700080506E8
:101190000002050700FB040600F5040700EE040644
:1011A00000E8040600E2040700DB040600D504069C
:1011B00000CF040600C9040600C3040600BD0406EF
:1011C00000B7040600B1040500AC040600A604063E
:1011D00000A00405009B0406009504050090040689
:1011E000008A04050085040500800406007A0405D1
:1011F0000075040500700405006B04050066040515
:1012000000610405005C0405005704050052040554
:10121000004D04050048040500430405003E040495
:10122000003A04050035040500300404002C0405D0
:101230000027040400230405001E0404001A04040B
:101240000016040500110404000D0404000904053F
:10125000000404040000040400FC030400F8030478
:1012600000F4030400F0030400EC030400E80304AA
:1012700000E4030400E0030400DC030400D80304DA
:1012800000D4030400D0030400CC030400C803030B
:1012900000C503030024F404D9201BC40C5C0E9881
:1012A00004C4095F0265077101F405F900FB04B38A
:1012B0000048048700C10369005803550003034533
:1012C00000BE023A008402310053022A002902259E
:1012D0000004022000E4011C00C8011900AF01173E
:1012E00000980114008401130071011000610110C5
:1012F0000051010E0043010D0036010B002B010BC4
:101300000020010B00150109000C01090003010870
:1013100000FB000800F3000800EB000700E40006F3
:1013200000DE000600D8000600D2000600CC000552
:1013300000C7000500C2000500BD000400B900049C
:1013400000B5000400B1000400AD000400A90004D1
:1013500000A5000300A20003009F0004009B0003FF
:101360000098000300950002009300030090000322
:10137000008D0002008B000300880002008600023E
:101380000084000300810002007F0002007D000253
:10139000007B000200790002007700010076000265
:1013A000007400020072000100710002006F000270
:1013B000006D0001006C0002006A0001006900027B
:1013C0000067000100660001006500010064000282
:1013D000006200010061000100600001005F000286
:1013E000005D0001005C0001005B0001005A00018B
:1013F000005900010058000100570001005600018B
:10140000005500010054000100530000005300018A
:10141000005200010051000100500001004F000186
:10142000004E0000004E0001004D0001004C000184
:10143000004B0000004B0001004A00010049000180
:10144000004800000048000100470001004600007D
:101450000046000100450000004500010044000175
:101460000043000000430001004200000042000170
:10147000004100000041000100400001003F000069
:10148000003F0001003E0000003E0001003D000062
:10149000003D0001003C0000003C0000003C000159
:1014A000003B0000003B0001003A0000003A000150
:1014B0000039000000390001003800000038000049
:1014C000003800010037000000370001003600003E
:1014D0000036000000360001003500000035000035
:1014E0000035000100340000003400000034000129
:1014F0000033000000330000003300010032000020
:101500000032000000320001003100000031000014
:101510000031000100300000003000000030000108
:10152000002F0000002F0000002F0000002F0001FE
:10153000002E0000002E0000002E0001002D0000F3
:10154000002D0000002D0000002D0001002C0000E7
:10155000002C0000002C0000002C0001002B0000DB
:10156000002B0000002B0000002B0001002A0000CF
:10157000002A0000002A0000002A000100290000C3
:1015800000290000002900000029000000290001B6
:1015900000280000002800000028000000280000AB
:1015A000002800010027000000270000002700009D
:1015B0000027000000270001002600000026000090
:1015C0000026000000260000002600010025000083
:1015D0000025000000250000002500000025000077
:1015E0000025000100240000002400000024000069
:1015F000002400000024000100230000002300005C
:10160000002300000023000000230000002300004E
:101610000023000100220000002200000022000040
:101620000022000000220000002200010021000032
:101630000021000000210000002100000021000026
:101640000021000000210001002000000020000017
:10165000002000000020000000200000002000000A
:101660000020000000200001001F0000001F0000FB
:10167000001F0000001F0000001F0000001F0000EE
:10168000001F0001001E0000001E0000001E0000E0
:10169000001E000000546865726D616C2052756E0A
:1016A0006177617900544845524D414C2052554E66
:1016B00041574159004B494C4C45442E2000202DA8
:1016C00020496E76616C6964206578747275646512
:1016D00072206E756D62657220210A004865617422
:1016E000696E67206661696C65640048656174694C
:1016F0006E67206661696C6564004D494E54454DC6
:101700005020747269676765726564004572723A49
:10171000204D494E54454D5020424544004572727B
:101720003A204D494E54454D50004D415854454D79
:101730005020747269676765726564004572723A19
:10174000204D415854454D50204245440045727249
:101750003A204D415854454D50006265640A002CB2
:101760002073797374656D2073746F707065642174
:10177000204865617465725F49443A2000236465BE
:1017800066696E65202044454641554C545F4B6464
:10179000200023646566696E6520204445464155F6
:1017A0004C545F4B69200023646566696E65202098
:1017B00044454641554C545F4B70200050494420ED
:1017C0004175746F74756E652066696E69736865BE
:1017D00064212050757420746865206C61737420D6
:1017E0004B702C204B6920616E64204B6420636F2A
:1017F0006E7374616E74732066726F6D2062656CB7
:101800006F7720696E746F20436F6E6669677572BB
:101810006174696F6E2E680A0050494420417574E6
:101820006F74756E65206661696C656421207469EA
:101830006D656F75740A00504944204175746F746A
:10184000756E65206661696C6564212054656D70F4
:101850006572617475726520746F6F20686967685E
:101860000A00204B643A2000204B693A2000204BAC
:10187000703A20000A20436C6173736963205049F9
:1018800044200A002054753A2000204B753A20006D
:10189000206D61783A2000206D696E3A2000206446
:1018A0003A200020626961733A200070012C019097
:1018B000012701B0012201C0011D01F00118011032
:1018C00002130130020E016002090190020401C0FE
:1018D00002FF000003FA004003F5008003F000D08F
:1018E00003EB002004E6007004E100E004DC0040AB
:1018F00005D700C005D2004006CD00D006C8008044
:1019000007C3003008BE00F008B900C009B400B039
:101910000AAF00B00BAA00D00CA500000EA000502A
:101920000F9B00C01096005012910000148C00C054
:10193000158700B0178200B0197D00D01B78000019
:101940001E730040206E0090226900F02464004065
:10195000275F0090295A00E02B5500102E500020E0
:10196000304B0010324600E033410090353C00100F
:1019700037370070383200A0392D00B03A2800A067
:101980003B2300603C1E00103D1900903D140010E8
:101990003E0F00703E0A00C03E0500003F000040C0
:1019A0003FFBFF803FF6FFC03FF1FF4361726420C1
:1019B00072656D6F766564004361726420696E7351
:1019C000657274656400746F20726573756D65006F
:1019D0005761697420666F72207072696E7400506E
:1019E00052494E54205041555345440020204E6FDB
:1019F0007A7A6C653A2000200066696C616D656ECC
:101A00007420657874727564650057616974206626
:101A10006F72005052494E54205041555345440076
:101A200020204E6F7A7A6C653A200066696C616D91
:101A3000656E74206C6F6164005761697420666F15
:101A400072005052494E5420504155534544002095
:101A5000204E6F7A7A6C653A2000746F20636F6E47
:101A600074696E75652E2E2E00616E64207072652D
:101A7000737320627574746F6E00496E736572744F
:101A80002066696C616D656E74005052494E542039
:101A90005041555345440020204E6F7A7A6C653A88
:101AA0002000200068656174206E6F7A7A6C652E64
:101AB00000507265737320627574746F6E20746F5A
:101AC000005052494E542050415553454400202067
:101AD0004E6F7A7A6C653A20002000506C65617315
:101AE0006520776169742E2E2E0048656174696ED9
:101AF00067206E6F7A7A6C65005052494E542050C0
:101B000041555345440020204E6F7A7A6C653A2047
:101B100000200066696C616D656E7420756E6C6F77
:101B20006164005761697420666F72005052494EBB
:101B300054205041555345440020204E6F7A7A6C12
:101B4000653A20006368616E6765006F662074689F
:101B5000652066696C616D656E74005761697420FB
:101B6000666F72207374617274005052494E542033
:101B70005041555345440045787472756465206D35
:101B80006F726500526573756D65207072696E7451
:101B900000524553554D45204F5054494F4E533AEE
:101BA0000020204E6F7A7A6C653A20002000426156
:101BB000636B004D696E696D756D2054656D7020A5
:101BC0006973203137302E0048656174696E672073
:101BD0006661696C656400022E2E004D61696E00BD
:101BE00046696C2E204469612E0046696C2E2044A3
:101BF00069612E004520696E206D6D33004F666669
:101C0000004F6E2000436F6E74726F6C00537465EA
:101C100070732F6D6D004A65726B00416363656C74
:101C200065726174696F6E0056656C6F6369747973
:101C300000436F6E74726F6C004573746570732F20
:101C40006D6D004573746570732F6D6D005A7374FC
:101C50006570732F6D6D005A73746570732F6D6DA1
:101C6000005973746570732F6D6D005973746570CE
:101C7000732F6D6D005873746570732F6D6D005800
:101C800073746570732F6D6D004D6F74696F6E00A6
:101C900056652D6A65726B0056652D6A65726B001C
:101CA00056652D6A65726B00567A2D6A65726B00F7
:101CB000567A2D6A65726B0056792D6A65726B00D3
:101CC00056792D6A65726B0056792D6A65726B00C4
:101CD00056782D6A65726B0056782D6A65726B00B6
:101CE00056782D6A65726B004D6F74696F6E004196
:101CF0006D6178204500416D6178204500416D613E
:101D000078205A00416D6178205A00416D61782039
:101D10005900416D6178205900416D61782058006B
:101D2000416D6178205800412D74726176656C00B8
:101D3000412D74726176656C00412D72657472611B
:101D4000637400412D726574726163740041636352
:101D5000656C00416363656C004D6F74696F6E0064
:101D60005654726176206D696E0056547261762009
:101D70006D696E005654726176206D696E00566D05
:101D8000696E00566D696E00566D696E00566D6124
:101D900078204500566D6178204500566D617820A9
:101DA0004500566D6178205A00566D6178205A00C2
:101DB000566D6178205A00566D6178205900566D35
:101DC0006178205900566D6178205900566D617810
:101DD000205800566D6178205800566D6178205863
:101DE000004D6F74696F6E0053746F726520736578
:101DF0007474696E677300426564004265640042F2
:101E00006564004E6F7A7A6C65004E6F7A7A6C6505
:101E1000004E6F7A7A6C650046616E20737065655E
:101E2000640046616E2073706565640046616E20D3
:101E300073706565640054656D7065726174757268
:101E40006500507265686561742041425320636F7C
:101E50006E66005072656865617420504C41206365
:101E60006F6E66005049442D44005049442D440093
:101E70005049442D49005049442D49005049442DB2
:101E800050005049442D50002008204661637400E2
:101E900020082046616374002008204D61780020EE
:101EA00008204D6178002008204D6178002008202E
:101EB0004D696E002008204D696E002008204D6994
:101EC0006E004175746F74656D70004F6666004FEB
:101ED0006E200046616E2073706565640046616E19
:101EE0002073706565640046616E2073706565647B
:101EF0000042656400426564004E6F7A7A6C65004A
:101F00004E6F7A7A6C6500436F6E74726F6C004925
:101F10006E697469616C697A6520454550524F4D10
:101F2000004D3530320A4D35303000526573746FD4
:101F30007265206661696C73616665004C6F6164EF
:101F40002073657474696E67730053746F726520D3
:101F500073657474696E67730046696C616D656E54
:101F600074004D6F74696F6E0054656D70657261B9
:101F700074757265004D61696E00457874727564A0
:101F80006572004D6F7665205A004D6F7665205959
:101F9000004D6F7665205800507265706172650063
:101FA0004D6F766520302E316D6D004D6F7665205A
:101FB000316D6D004D6F76652031306D6D004D6F68
:101FC000766520617869730045787472756465720E
:101FD000004D6F7665205A004D6F76652059004D93
:101FE0006F76652058004578747275646572004D8F
:101FF0006F7665205A004D6F76652059004D6F76DB
:102000006520580050726568656174204142530034
:102010005072656865617420504C4100436F6F6C6D
:10202000646F776E004368616E67652066696C61F6
:102030006D656E740044697361626C6520737465CC
:102040007070657273004D3834004175746F20688C
:102050006F6D6500473238004D6F76652061786995
:1020600073004D61696E005072656865617420414E
:102070004253204265640050726568656174204176
:10208000425320456E64005072656865617420415A
:1020900042530050726570617265005072656865E8
:1020A000617420504C41204265640050726568653F
:1020B000617420504C4120456E6400507265686523
:1020C000617420504C41005072657061726500432C
:1020D00068616E67652066696C616D656E74004647
:1020E0006C6F7700466C6F7700466C6F77004661C7
:1020F0006E2073706565640046616E20737065655F
:10210000640046616E20737065656400426564001A
:10211000426564004E6F7A7A6C65004E6F7A7A6C15
:1021200065005370656564005370656564005370A5
:10213000656564004D61696E004D36303020423077
:10214000004D61696E004E6F2053442063617264DC
:102150000053657474696E67004D61696E004E6F5F
:102160002053442063617264005072696E7420666B
:10217000726F6D2053440053746F70207072696EDB
:102180007400526573756D65207072696E740050CD
:1021900061757365207072696E7400526573756D38
:1021A000652066726F6D206F757461676500436F9F
:1021B0006E74726F6C005072657061726500547558
:1021C0006E6500496E666F2073637265656E0050C0
:1021D00072696E742061626F72746564004D32348E
:1021E000005072696E7420706175736564004D31C2
:1021F0003235000025753A253032750025303275AC
:102200003A253032750025756420253032753A251F
:10221000303275000920005A0059005800506C6592
:10222000617365207265736574005052494E544560
:10223000522048414C5445440000060900FE070165
:1022400092032120FFFF08FF07FF000000060000A7
:102250000107070602008080808080008003020260
:10226000060105A0A00507070600005050F850F829
:1022700050500507070600002078A07028F02005C0
:102280000707060000C0C810204098180507070679
:1022900000006090A040A89068020303060104C0FB
:1022A0004080030707060100204080808040200313
:1022B0000707060100804020202040800505050614
:1022C000000120A870A8200505050600012020F8BF
:1022D00020200203030602FFC04080050101060022
:1022E00003F8020202060200C0C00505050600014F
:1022F000081020408005070706000070888888883D
:10230000887003070706010040C040404040E005D8
:102310000707060000708808708080F80507070628
:102320000000F81020100808F0050707060000104C
:10233000305090F81010050707060000F880F008EC
:10234000088870050707060000708080F088887094
:10235000050707060000F8081020202020050707C1
:1023600006000070888870888870050707060000DE
:1023700070888878080870020505060200C0C00051
:10238000C0C00206060602FFC0C000C040800407AD
:1023900007060000102040804020100503030600BF
:1023A00002F800F8040707060100804020102040D2
:1023B0008005070706000070880810200020050728
:1023C0000706000070880868A8A8700507070600BF
:1023D00000708888F8888888050707060000F0885C
:1023E00088F08888F00507070600007088808080E4
:1023F0008870050707060000F08888888888F0053F
:102400000707060000F88080F08080F805070706BF
:102410000000F88080F080808005070706000070CB
:102420008880B8888870050707060000888888F8C3
:10243000888888010707060200808080808080806D
:1024400005070706000038101010109060050707F8
:102450000600008890A0C0A090880507070600002D
:10246000808080808080F805070706000088D8A853
:10247000888888880507070600008888C8A8988883
:102480008805070706000070888888888870050717
:1024900007060000F08888F08080800507070600A6
:1024A0000070888888A89068050707060000F088F3
:1024B00088F0A090880507070600007880807008E3
:1024C00008F0050707060000F8202020202020053E
:1024D000070706000088888888888870050707062F
:1024E0000000888888888850200507070600008833
:1024F00088888888A850050707060000888850202B
:10250000508888050707060000888888502020200A
:10251000050707060000F80810204080F8030707A9
:10252000060100E08080808080E00505050600014E
:102530008040201008030707060100E0202020202B
:1025400020E0050303060004205088050101060071
:1025500000F802020206020580400505050600009B
:1025600070087888780507070600008080B0C88862
:1025700088F0050505060000708080887005070753
:102580000600000808689888887805050506000098
:102590007088F880700507070600003048E040406A
:1025A00040400506060600FF708888780870050719
:1025B000070600008080B0C88888880107070602E7
:1025C00000800080808080800308080601FF2000D2
:1025D00020202020A040040707060000808090A053
:1025E000C0A090030707060100C04040404040E003
:1025F000050505060000D0A8A8A8A8050505060041
:1026000000B0C8888888050505060000708888889D
:10261000700506060600FFF08888F0808005060633
:102620000600FF788888780808050505060000B0D0
:10263000C880808005050506000070807008F004E1
:1026400007070600004040E0404040300505050611
:102650000000888888986805050506000088888835
:1026600050200505050600008888A8A85005050526
:1026700006000088502050880506060600FF88885E
:1026800088780870050505060000F8102040F8035A
:102690000707060100204040804040200107070650
:1026A0000200808080808080800307070601008010
:1026B0004040204040800502020600026890000071
:1026C00000060000000000060000000000060000F8
:1026D00000000006000000000006000000000006E8
:1026E00000000000000600000000000600000000DE
:1026F00000060000000000060000000000060000C8
:1027000000000006000000000006000000000006B7
:1027100000000000000600000000000600000000AD
:102720000006000000000006000000000006000097
:102730000000000600000000000600000000000687
:10274000000000000006000000000006000000007D
:102750000006000000000006000000000006000067
:102760000000000600000000000600000000000657
:10277000000000000006000000000006000000004D
:102780000006000000000006000001070706020026
:10279000800080808080800507070600002070A8E8
:1027A000A0A87020050707060000304040E0405018
:1027B000A805050506000088705070880507070603
:1027C0000000885020F820F820010707060200804A
:1027D0008080008080800508080600003048205076
:1027E00050209060030101060107A00507070600BD
:1027F00000F888B8B8B888F805070706000170081F
:1028000078887800F80505050600012850A05028B2
:10281000050303060001F80808020202060206404A
:1028200080050707060000F888A88898A8F8050121
:1028300001060006F8040404060003609090600599
:1028400007070600002020F8202000F804050506F0
:10285000000360902040F0030505060003E020E03F
:1028600020E002020206020640800508080600FF7A
:102870008888888898E8808005070706000078988F
:102880009878181818020202060202C0C00202025A
:102890000602FF408003050506000340C04040E0FB
:1028A000050707060001708888887000F80505058F
:1028B000060001A0502850A00507070600008890D8
:1028C000A858B808080507070600008890B8489877
:1028D0002038050808060000C040C048D83808085D
:1028E00005070706000020002040808870050808C2
:1028F0000600004020007088F88888050808060057
:10290000001020007088F88888050808060000205C
:1029100050007088F8888805080806000068900054
:102920007088F888880508080600005000708888BC
:10293000F888880508080600002050207088F8886C
:10294000880507070600003860A0B8E0A0B80508B1
:10295000080600FF708880808870206005080806DF
:102960000000402000F880F080F80508080600000C
:10297000081000F880F080F80508080600002050D4
:1029800000F880F080F80507070600005000F88086
:10299000F080F8030808060100804000E040404055
:1029A000E0030808060100204000E0404040E0034A
:1029B000080806010040A000E0404040E00307078F
:1029C000060100A000E0404040E0050707060000C7
:1029D000704848E8484870050808060000689000FC
:1029E00088C8A898880508080600004020708888D4
:1029F000888870050808060000102070888888887C
:102A0000700508080600002050007088888870054E
:102A1000080806000068900070888888700508081B
:102A2000060000500070888888887005050506003B
:102A30000188502050880508080600FF1070A8A8DB
:102A4000A8A87040050808060000402088888888EB
:102A5000887005080806000010208888888888701B
:102A6000050808060000205000888888887005083E
:102A700008060000500088888888887005080806C5
:102A8000000010208850202020200509090600FFA2
:102A9000C040704848704040E00408080601FF60EC
:102AA0009090A09090E0800508080600004020006B
:102AB0007008788878050808060000102000700863
:102AC000788878050808060000205000700878888B
:102AD0007805080806000068900070087888780576
:102AE0000707060000500070087888780508080677
:102AF000000020502070087888780506060600003F
:102B0000D02878A0A8500506060600FF70808870BF
:102B100020600508080600004020007088F88070DA
:102B20000508080600001020007088F8807005086D
:102B3000080600002050007088F88070050707061E
:102B4000000050007088F8807003080806010080BB
:102B5000400040C04040E00308080601002040005B
:102B600040C04040E003080806010040A00040C00B
:102B70004040E0030707060100A00040C04040E0DD
:102B8000050707060000A040A01078887005080817
:102B9000060000689000B0C888888805080806000C
:102BA0000040200070888888700508080600001022
:102BB00020007088888870050808060000205000F2
:102BC0007088888870050808060000689000708882
:102BD0008888700507070600005000708888887094
:102BE0000505050600012000F8002005070706007E
:102BF000FF1070A8A8A87040050808060000402033
:102C00000088888898680508080600001020008859
:102C10008888986805080806000020500088888881
:102C2000986805070706000050008888889868059E
:102C300009090600FF102000888888F8087004073A
:102C4000070601FFC04060506040E005080806002C
:102C5000FF500088888878087000060900FE000090
:102C600000000001090008FE000005080806000039
:102C700040F0C88888987810050808060000C0F859
:102C80008888888888F80505050600012030F83016
:102C9000200508080600002070F820202020E0050C
:102CA00009090600FF2070A8A8B8888870200509C7
:102CB000090600FFE080C0B0A828302828050909CF
:102CC0000600FFF8A88888888888A8F8050A0A06F8
:102CD00000FE205050505088A8A8887003030306B7
:102CE000000340A0400000000000000000000000C1
:102CF000007FFFE000000000000000000000000076
:102D00007000E00000000000000000000000006112
:102D1000F86000000000000000000000000041F822
:102D20002000000000000000000000000040F02033
:102D300000000000000000000000000040602000D3
:102D400000000000000000000000005801A07F808B
:102D5000000000000000004104005C63A0FFC00010
:102D60000000000000002082005EF7A0FFC000000D
:102D700000000000002082005EF7A0FFC0000000FD
:102D8000000000004104005C63A07F8000000000A0
:102D90000000008208005801A07F800000000000B1
:102DA0000001041000406020FFC00000000000008F
:102DB0000104100040F020FFC000000000000000EF
:102DC00082080041F820FFC0000000000000004120
:102DD000040061F8603F00000000000000000000F7
:102DE000007000E01E0000000000000001FFFF80F6
:102DF0007FFFE00C0000000000000001FFFF8000EA
:102E000000000000000000000000000000007FFF44
:102E1000E00000000000000000000000007000E082
:102E2000000000000000000000000000630C6000D3
:102E30000000000000000000000000470E2000001D
:102E4000000000000000000000004F0F2000000004
:102E50000000000000000000005F0FA00000000064
:102E600000000000000000005E07A07F800000005E
:102E700000000000410400406020FFC0000000008E
:102E800000000020820040F020FFC0000000000091
:102E9000000020820040F020FFC000000000000081
:102EA000004104004060207F80000000000000001E
:102EB0008208005E07A07F8000000000000001047F
:102EC00010005F0FA0FFC000000000000001041010
:102ED000004F0F20FFC0000000000000008208002B
:102EE000470E20FFC0000000000000004104006306
:102EF0000C603F00000000000000000000007000B7
:102F0000E01E0000000000000001FFFF807FFFE0E6
:102F10000C0000000000000001FFFF800000000026
:102F200000000000000000000000000000000000A1
:102F30000000000000000000000000000000000091
:102F40000000000000000000000000000000000081
:102F50000000000000000000000000000000000071
:102F60000000000000000000000000000000000061
:102F70000000000000000000000000000000000051
:102F80000000000000000000000000000000000041
:102F90000000000000000000000000000000000031
:102FA0000000000000000000000000000000000021
:102FB0000000000000000000000000000000000011
:102FC0000000000000000000000000000000000001
:102FD00000000000000000000000000000000000F1
:102FE00000000000000000000000000000000000E1
:102FF00000000000000000000000000000000000D1
:1030000000000000000000000000000000000000C0
:1030100000000000000000000000000000000000B0
:1030200000000000000000000000000000000000A0
:103030000000000000000000000000000000000090
:103040000000000000000000000000000000000080
:103050000000000000000000000000000000000070
:103060000000000000000000000000000000000060
:103070000000000000000000000000000000000050
:103080000000000000000000000000000000000040
:103090000000000000000000000000000000000030
:1030A0000000000000000000000000000000000020
:1030B0000000000000000000000000000000000010
:1030C000000808E00F1E6670E09807076600000021
:1030D000000818E00E0EE771E0980F07E701000006
:1030E000001C78E01C87E773E0981F87E703000067
:1030F000001CF8E09CC78371E0181CC78301000026
:103100000038E0E1C8E30170E0181CE701000000AE
:103110000078C0E3C0E10070E0181CE70000000088
:10312000007388E7E0E00070E0981FE7000000000F
:1031300080F318FFE0E00070E0980FE70000000067
:1031400080E338FE60E00070E09807E700000000D0
:10315000C0F339FC60E00070E01818E700000000E0
:10316000C0F939F860C081E070181CC78100000008
:10317000E0F93BF060C0E7E379981FC7E703000080
:10318000E0803BC06080E7C339980F87E703000009
:1031900060803F806000E78019980707E700000023
:1031A00000000000000020000000000020000000DF
:1031B000000000000000000000000000000000000F
:1031C00000000000000000000000000000000000FF
:1031D00000000000000000000000000000000000EF
:1031E00000000000000000000000000000000000DF
:1031F00000000000000000000000000000000000CF
:1032000000000000000000000000000000000000BE
:1032100000000000000000000000000000000000AE
:10322000000000000000000000000000000000009E
:10323000000000000000000000000000000000008E
:10324000000000000000000000000000000000007E
:10325000000000000000000000000000000000006E
:10326000000000000000000000000000000000005E
:10327000000000000000000000000000000000004E
:10328000000000000000000000000000000000003E
:10329000000000000000000000000000000000002E
:1032A000000000000000000000000000000000001E
:1032B000000000000000000000000000000000000E
:1032C00000000000000000000000000000000000FE
:1032D00000000000000000000000000000000000EE
:1032E00000000000000000000000000000000000DE
:1032F00000000000000000000000000000000000CE
:1033000000000000000000000000000000000000BD
:1033100000000000000000000000000000000000AD
:10332000000A0B02090C0D0E08070304010000003F
:10333000000000000000000000000000000000008D
:10334000000000000000000000000012111000004A
:10335000000000000000000000000000000000006D
:10336000000000000001021020200808102040107A
:103370002040800201020108040201010204081039
:103380002040808040201008040201800402018057
:103390004020100804020108040201010204081080
:1033A0002040800102040810204080050505050723
:1033B0000508080808020202020A0A0808040404B0
:1033C00004010101010101010103030303030303DC
:1033D00003040707070C0C0C0C0C0C0C0C0202026B
:1033E0000206060606060606060B0B0B0B0B0B0B5E
:1033F0000B000020002300260029002C002F0032A3
:10340000000001000003010601090100002200255F
:103410000028002B002E00310034000201000005BE
:103420000108010B0100002100240027002A002DC3
:10343000003000330001010000040107010A014EC1
:10344000414E494E495459494E46CDCCCC3D0AD700
:10345000233C17B7D13877CC2B329595E6241FB192
:103460004F0A000020410000C84200401C4620BC1A
:10347000BE4CCA1B0E5AAEC59D74E64BB18759DDD2
:10348000044C11241FBECFEFD1E2DEBFCDBF00E060
:103490000CBF13E0A0E0B2E0E6E8F2EF01E00BBF02
:1034A00002C007900D92AA3AB107D9F724E1AAEA1F
:1034B000B3E001C01D92A132B207E1F714E3C0E806
:1034C000D4E300E006C022970109FE010BBF0E9471
:1034D000B4F1CA37D10780E00807A9F70E9429EDA7
:1034E0000C9432F90C9400001F920F920FB60F92B9
:1034F00011240BB60F922F933F938F939F93EF93CB
:10350000FF932091C6009FB7F894E0912A0481E0D0
:103510008E0F8F7730912B04831731F0F0E0E65552
:10352000FC4F208380932A049FBFFF91EF919F91CE
:103530008F913F912F910F900BBE0F900FBE0F9068
:103540001F9018959B01AC01211581EE38074105AC
:10355000510549F182E08093C00060E079E08DE39D
:1035600090E00E946DF12150310941095109CA01D1
:10357000B90122E030E040E050E00E946DF130936C
:10358000C5002093C4008091C10080618093C10078
:103590008091C10088608093C1008091C1008068E3
:1035A0008093C10008951092C00020E130E0E7CF81
:1035B0003FB7F89420912B0480912A04821759F088
:1035C000E22FF0E0E655FC4F808190E02F5F2F77EF
:1035D00020932B0402C08FEF9FEF3FBF08952FB7BA
:1035E000F89480912A0490912B042FBF891B8F7728
:1035F00008958FB7F89490912B0490932A048FBF6D
:1036000008959091C00095FFFCCF8093C600089567
:10361000AF92BF92CF92DF92EF92FF920F931F93E0
:10362000CF93DF93CDB7DEB7A0970FB6F894DEBF88
:103630000FBECDBF6115710581059105A9F1B12CB2
:10364000C42ED12CE12CF12CAA24A394AB0C01E0C4
:1036500010E00C0F1D1F0B0D111DB7FC1A95A701D3
:1036600096010E944BF1F8016083B901CA0161150E
:1036700071058105910511F41B2D11C0BA2CE4CF01
:10368000E1E0F0E0EC0FFD1FE10FF11D17FDFA95F1
:1036900080818A3038F490E3890FB3DF11501F3FE7
:1036A00079F714C097E3F8CF80E3A0960FB6F894AB
:1036B000DEBF0FBECDBFDF91CF911F910F91FF9065
:1036C000EF90DF90CF90BF90AF909BCFA0960FB6BA
:1036D000F894DEBF0FBECDBFDF91CF911F910F9148
:1036E000FF90EF90DF90CF90BF90AF90089541157D
:1036F000510511F4862F85CF8BCFAB01682F70E079
:1037000080E090E0F4CFAB01BC0180E090E0EFCF2F
:10371000CF92DF92EF92FF926B017C0197FF0AC07C
:103720008DE26FDFF094E094D094C094C11CD11C62
:10373000E11CF11C4AE0C701B601FF90EF90DF9059
:10374000CF9066CF4115510511F4862F5ACF4A30DC
:10375000510509F4DDCF5CCFAB01BC01882777FDB3
:103760008095982FEFCF8DE04CDF8AE04ACFAB01F8
:10377000BC0180E090E0BBDFF6CF8F929F92AF92CA
:10378000BF92CF92DF92EF92FF92CF936B017C01B9
:10379000B42E20E030E0A9010E9411EE87FF06C0A0
:1037A0008DE22FDFF7FAF094F7F8F094C0E060E0D4
:1037B00070E080E09FE3CB1541F02DEC3CEC4CEC4D
:1037C0005DE30E944FF0CF5FF6CF9B01AC01C701D4
:1037D000B6010E9438ED6B017C010E9485EE4B0121
:1037E0005C014AE015DFCC2381F1C501B4010E94E0
:1037F000B1EE9B01AC01C701B6010E9437ED6B0130
:103800007C018EE2FEDE20E030E040E251E4C701C0
:10381000B6010E944FF06B017C010E9480EE4B01CB
:10382000AA2497FCA094BA2CC501B40171DFC5018C
:10383000B4010E94B3EE9B01AC01C701B6010E9426
:1038400037ED6B017C01C150F1F6CF91FF90EF9005
:10385000DF90CF90BF90AF909F908F9008958DCFC5
:10386000809103078130B9F40E94DB955F9A109232
:10387000DA068A9A1092DB069FB7F89480910801C5
:103880008160809308019FBF1092DC06129A0E940B
:103890000967109203070895CF92DF92EF92FF928B
:1038A0000F931F93CF93DF93EC010E9485EA0E8163
:1038B0001F8128853985011511052105310559F527
:1038C0003C853323A9F12A8531503C8731E0320F02
:1038D0003A874D85341301C01A86FE0134E0239FD8
:1038E000E00DF11D112406851785208931890A8391
:1038F0001B832C833D836B017C01C00ED11EE11C18
:10390000F11CCE82DF82E886F9868C819D81892B2D
:1039100079F0409A0DC06B017C01C01AD10AE20A0D
:10392000F30AF7FC05C040981E821F82188619868C
:10393000DF91CF911F910F91FF90EF90DF90CF908B
:1039400008950E9485EA6093FF04709300058093B8
:103950000105909302050895CF92DF92EF92FF92B6
:103960000F931F93CF93DF93EB01FC016081718173
:10397000828193812CE3C22ED12CE12CF12CA70162
:1039800096010E944BF1162F072FCA01B901A7011A
:1039900096010E944BF1F62EE72ECA01B90128E1EB
:1039A00030E040E050E00E944BF1FB01C9016DE6C0
:1039B00071E00E9424F19B014F2D5E2D21153105F0
:1039C000D9F00F931F93EF92FF92FF93EF939F9382
:1039D0008F933F932F9388E797E09F938F93DF9385
:1039E000CF930E941FF68DB79EB70E960FB6F89430
:1039F0009EBF0FBE8DBF5BC00097C9F00F931F9392
:103A0000EF92FF92FF93EF939F938F9388E697E057
:103A10009F938F93DF93CF930E941FF6EDB7FEB76E
:103A20003C960FB6F894FEBF0FBEEDBF40C0309776
:103A3000B9F00F931F93EF92FF92FF93EF938CE5F2
:103A400097E09F938F93DF93CF930E941FF68DB7DC
:103A50009EB70A960FB6F8949EBF0FBE8DBF27C0C3
:103A6000452BA9F00F931F93EF92FF9284E597E007
:103A70009F938F93DF93CF930E941FF6EDB7FEB70E
:103A800038960FB6F894FEBF0FBEEDBF10C00F936F
:103A90001F9380E597E09F938F93DF93CF930E94CE
:103AA0001FF60F900F900F900F900F900F90DF91D7
:103AB000CF911F910F91FF90EF90DF90CF900895DD
:103AC00081548A3148F5482F50E0FA0133E0F595EA
:103AD000E7953A95E1F7EA52F44F208130E087709C
:103AE00002C0359527958A95E2F720FF15C0FA01A7
:103AF000E454F44F2081222339F08091E10B90911E
:103B0000E20B820F911D02C080E090E09093DE0BEB
:103B10008093DD0B81E0089580E00895D1DF882354
:103B200039F081E02091DD0B3091DE0B232B09F47D
:103B300080E008951F93CF93DF938091DD0B9091E8
:103B4000DE0B009701F1FC01EF011191212F2F7D78
:103B500099F0153411F01536B9F7188260E070E06D
:103B60008091DD0B9091DE0B0E94B8F11883562FE7
:103B7000472F382F292F0BC060E070E0DF91CF91E5
:103B80001F910C94B8F150E040E030E020E0652F48
:103B9000742F832F922FDF91CF911F9108958091E1
:103BA000DD0B9091DE0B009731F04AE050E060E0D1
:103BB00070E00C9420F360E070E0CB0108958091F8
:103BC000DD0B9091DE0B009731F04AE050E060E0B1
:103BD00070E00C9451F460E070E0CB010895DFDFF9
:103BE00097FD0CC0DCDF6F3F71058105910509F081
:103BF00014F4D5DF01C06FEF862F089580E008959B
:103C00008091DD0B9091DE0B892B39F0E8DF91E09C
:103C1000811101C090E0892F089581E00895EF920D
:103C2000FF920F931F93CF93DF93EC017B018A01E7
:103C30006C854D8564130AC0E881F9810190F0819B
:103C4000E02DCE0119950E942E9BF2CFF701208125
:103C50003181F801808191815B85FE0174E0579F7D
:103C6000E00DF11D11243E963183208393838283DE
:103C70006F5F6C8781E0850F841711F08B8701C01F
:103C80001B86DF91CF911F910F91FF90EF900895C8
:103C9000AF92BF92CF92DF92FF920F931F93CF9379
:103CA000DF9300D01F92CDB7DEB7F82E662351F018
:103CB00010923A041092360410923704109238048D
:103CC000109239040E9485EA00913604109137045D
:103CD00020913804309139045B016C01A01AB10ABB
:103CE000C20AD30AD7FC40C0F7FE05C004EC19E0B5
:103CF00020E030E015C0E0913A042F2D332727FD56
:103D000030952C5F3F4F4E2F552747FD5095241778
:103D1000350754F1EF1554F300E911E020E030E0ED
:103D2000DC01CB01800F911FA21FB31F80933604CB
:103D300090933704A0933804B093390480ED97E052
:103D40009A8389838CE291E09C838B83AE014F5FE1
:103D50005F4FBE016D5F7F4F8FEC94E060DF80911D
:103D60003A048F5F80933A040F900F900F900F905A
:103D7000DF91CF911F910F91FF90DF90CF90BF9077
:103D8000AF900895EAE0F1E08081806280839FB780
:103D9000F894EBE0F1E080818F7D80839FBF0895F0
:103DA00020E030E042E852E460911A1270911B1258
:103DB00080911C1290911D120E9414F09FB718164A
:103DC0002CF4F89480910B01806204C0F8948091E7
:103DD0000B018F7D80930B019FBF08952CEF36E080
:103DE00048EF56E064EF76E080EF96E00C94DC85D7
:103DF000AF92BF92CF92DF92EF92FF920F931F93F9
:103E0000CF93DF9300D01F92CDB7DEB779015C016D
:103E1000AA0CBB1CAA0CBB1CC5018051994F6C019C
:103E2000FC01108211821282138249835A836B83B0
:103E30007C83D4DF49815A816B817C81F601408388
:103E4000518362837383C090070520E030E0A901AD
:103E5000B801C7010E9411EE811108C0F501E25AB4
:103E6000F54FE590F5900591149104C0C801D70174
:103E70007C018D012CEF36E048EF56E064EF76E0F0
:103E800080EF96E00E94F17A0E94F08F1092B70BBB
:103E90000F900F900F900F90DF91CF911F910F9186
:103EA000FF90EF90DF90CF90BF90AF9008958091FA
:103EB000CF068093D0061092D10608959091CF0638
:103EC000E92FF0E0E554FB4F80839F5F943018F4B6
:103ED0009093CF0602C01092CF068091D1068F5FDB
:103EE0008093D1060895CF93FC01C62F80818B3338
:103EF00099F08091D106843078F42091CF0630E695
:103F0000239FC0011124BF01815B9A4F0E94FBF5E2
:103F10008C2FD4DF81E001C080E0CF9108950F9312
:103F20001F93CF93DF93EC01DEDF8823B1F0EAE645
:103F3000FEE084918F010F5F1F4F882319F061DB32
:103F4000F801F7CFBE0182E19AE00E94B58782E2D4
:103F500058DB8AE056DB81E001C080E0DF91CF9141
:103F60001F910F910895DF92EF92FF920F931F938D
:103F7000CF93DF93CDB7DEB76E970FB6F894DEBF61
:103F80000FBECDBF60914D0570914E056115710555
:103F900059F14DE150E08E010F5F1F4FC8010E94A3
:103FA0008AF51E8EF8017F01E01AF10AD190DD201A
:103FB00019F08AE0D812F7CFF801EE0DFF1D10823C
:103FC00060E0C801ACDF882379F0DD20B1F08FEF2D
:103FD000E81AF80A80914D0590914E058E0D9F1DAF
:103FE00090934E0580934D0581E020914D053091D1
:103FF0004E05232B29F480E003C080E090E0F0CF51
:104000006E960FB6F894DEBF0FBECDBFDF91CF9195
:104010001F910F91FF90EF90DF90089590934E05C0
:1040200080934D05A0CF60E08FE40E9463EC61E0D7
:104030008AE30E9463EC8C98089552985A9A0895E6
:104040008F929F92AF92BF92CF92DF92EF92FF92A8
:104050000F931F93CF93DF93CDB7DEB728970FB69B
:10406000F894DEBF0FBECDBF80910607882309F408
:1040700082C18091D106811102C010923C04992422
:1040800093944091820950918309609184097091C1
:10409000850980917E0990917F09A0918009B09156
:1040A0008109481759076A077B0708F4912C00E03B
:1040B00010E0BB24B394F0E6AF2E9091D10680912E
:1040C0000107943008F0AEC09110ACC090913C0450
:1040D0009111A8C08111A6C08091D9089091DA08E9
:1040E000A091DB08B091DC0880938209909383094A
:1040F000A0938409B093850981ED98E00E94BD509A
:10410000882E99249394C0908209D0908309E090DE
:104110008409F090850940917E0950917F09609152
:10412000800970918109C416D506E606F706C0F429
:10413000912C8F3F2FEF920749F14AE0841709F441
:1041400042C0ADE08A1709F43EC0B3E28B1719F004
:104150002AE382134DC020913B04211149C02EC097
:10416000E9ECF8E084917F014FEFE41AF40A882328
:1041700019F047DAF701F6CF84E097E00E94006675
:1041800061E084E097E00E94716118C0E0E7FEE022
:1041900084917F019FEFE91AF90A882319F031DA37
:1041A000F701F6CFEAEBF8E084917F01AFEFEA1A6E
:1041B000FA0A882319F025DAF701F6CFB3E28B1259
:1041C00002C0B0923C0410923B040115110509F4A1
:1041D00074CF8091CF06F801A89EE00DF11D112447
:1041E000E15BFA4F108280E069DE00E010E065CF0D
:1041F0000F35110508F061CF2BE3821202C0B09297
:104200003B0420913B04211158CF9091CF06F80137
:10421000A99EE00DF11D1124E15BFA4F80830F5F31
:104220001F4F4BCF882309F4A6C0EFE4F5E02FEA37
:1042300035E08FE096E06FE676E01192D9011D92AD
:104240009D01DC011D92CD01DB011D92BD01B5E098
:10425000EF3AFB0791F7C090070560911B02709140
:104260001C02882777FD8095982F0E94B3EE198253
:104270001A821B821C8200E010E020E830EC0D83E3
:104280001E832F8338877B018C0123EA3BE047EABA
:104290005BE0BE016F5F7F4FCE0105960E94F17A11
:1042A00063EA7BE083E090E00E9498868091AF0B08
:1042B0009091B00BA091B10BB091B20B8093E0063E
:1042C0009093E106A093E206B093E3068091AB0BD6
:1042D0009091AC0BA091AD0BB091AE0B8093E40626
:1042E0009093E506A093E606B093E7062AE939E93C
:1042F00049E95EE36091F8067091F9068091FA064B
:104300009091FB060E9414F01816BCF42DEC3CECC6
:104310004CEC5DE36091A70B7091A80B8091A90B09
:104320009091AA0B0E9437ED6093F8067093F906FE
:104330008093FA069093FB0610C08091A70B909192
:10434000A80BA091A90BB091AA0B8093F8069093AB
:10435000F906A093FA06B093FB0685E595E5A5E07E
:10436000B2E480931D0290931E02A0931F02B093AB
:1043700020021092010728960FB6F894DEBF0FBEF8
:10438000CDBFDF91CF911F910F91FF90EF90DF9004
:10439000CF90BF90AF909F908F900895FF920F9312
:1043A0001F93CF93DF93EC0184E5B8DB882321F1E1
:1043B00016DCF82E1816ECF4EAE6FEE084918F0184
:1043C0000F5F1F4F882319F01CD9F801F7CF8DE438
:1043D00018D96AE070E0CE0196D96F2D772767FD76
:1043E000709587EA98E00E94DD878AE00AD981E02B
:1043F00008C08093CE0404C0809107058093CE044A
:1044000080E0DF91CF911F910F91FF900895AF92BF
:10441000BF92CF92DF92EF92FF920F931F93CF93B1
:10442000DF93EC018C01000F111F000F111FF80129
:10443000EE5DFA4F20E030E0A90160817181828158
:1044400093810E9438EDF801E25DFA4F20813181BD
:10445000428153810E9438ED6B017C01F801EA5ED4
:10446000FA4F60837183828393830E5A154FF8014C
:1044700065917591859194918E01000F111F000F28
:10448000111F9801265F3A4F5901A70196010E941A
:1044900038EDF50160837183828393830A5B154F46
:1044A000F8016591759185919491CC0FDD1FCC0F2A
:1044B000DD1FC45FDD4FA70196010E9438ED6883C0
:1044C00079838A839B83DF91CF911F910F91FF9016
:1044D000EF90DF90CF90BF90AF9008954F925F9292
:1044E0006F927F92AF92BF92CF92DF92EF92FF9244
:1044F0000F931F93CF93DF93EC01FC01E15EF54F27
:104500006491FC01EE0FFF1FEE0FFF1FE25DF54F00
:104510004590559065907490772767FD7095872F2B
:10452000972F0E94B3EE6B017C0120E030E040EC5D
:104530005FE3C301B2010E944FF0A70196010E9400
:104540004FF0AB01BC0100E010E09801CE0150DC5F
:10455000FE01EE0FFF1FEE0FFF1FEE5DF54F2591E1
:10456000359145915491C701B6010E944FF06B01FE
:104570007C0120E030E0A9010E9411EE5E01AA0C4E
:10458000BB1CAA0CBB1C882309F445C000E010E04A
:104590009801B701A6017058CE012ADCFE01ED5941
:1045A000F74F6491611117C0EAE6FEE084918F0134
:1045B0000F5F1F4F882319F024D8F801F7CFE1E4EB
:1045C000F8E084918F010F5F1F4F882319F019D8ED
:1045D000F801F7CF6AE0F501E25AF54F45905590A2
:1045E0006590749070E080E090E00E94B3EE9B01D3
:1045F000AC01C301B2010E9418EE2B013C01A701DE
:104600009601C701B6010E9438EDAB01BC019301D0
:104610008201CE01EDDBFE01E352F94F81E08083A0
:10462000FE01E652F94F8083F501E25DFA4F1082F8
:10463000118212821382CE01EADEF501E65CF54FAB
:104640006591759185919491CC0FDD1FCC0FDD1F85
:104650008E010051194FFE01EA5EFA4F208131812F
:10466000428153810E9438EDF80160837183828317
:104670009383B4DBC052D94FF80180819181A2812C
:10468000B38188839983AA83BB83DF91CF911F91E4
:104690000F91FF90EF90DF90CF90BF90AF907F9001
:1046A0006F905F904F900895CF92EF92FF920F938B
:1046B0001F93E0901D02F0901E0200911F021091C6
:1046C0002002C09007052CEF36E048EF56E064EF7B
:1046D00076E080EF96E00E94F17A1F910F91FF90B3
:1046E000EF90CF900895CF92EF92FF920F931F9388
:1046F000C09007057B018C012CEE36E048EE56E0B9
:1047000064EE76E080EE96E00E94F17A1F910F91C0
:10471000FF90EF90CF90089580E1E0EEF6E0A0EFFB
:10472000B6E001900D928A95E1F7089580E1E0EFFF
:10473000F6E0A0EEB6E001900D928A95E1F70895BB
:104740004F925F926F927F928F929F92AF92BF92A1
:10475000CF92DF92EF92FF920F931F93CF93DF934D
:104760006C017B018A01E90180901D0290901E027C
:10477000A0901F02B0902002FA0120813181428175
:1047800053816091F8067091F9068091FA06909134
:10479000FB060E9411EE87FF2CC0488059806A807A
:1047A0007B8020E030E0A901B201C3010E9411EE3C
:1047B000811107C0E6E6FAE085919591A591B49143
:1047C00002C0C201D30180931D0290931E02A093E8
:1047D0001F02B0932002F80180819181A281B381F0
:1047E0008093F8069093F906A093FA06B093FB061F
:1047F0005BDF488059806A807B8020E030E0A9013F
:10480000B201C3010E9411EE811105C055E545E5D5
:1048100035E023E404C0542D452D362D272D852F5A
:10482000942FA32FB22F80931D0290931E02A0936A
:104830001F02B0932002F60180819181A281B38191
:104840008093F0069093F106A093F206B093F306DE
:10485000F70180819181A281B3818093F4069093C6
:10486000F506A093F606B093F7061EDFF801208147
:104870003181428153816091F8067091F9068091EF
:10488000FA069091FB060E9414F0181684F5D88061
:10489000E980FA80CB8120E030E0A9016D2D7E2DEA
:1048A0008F2D9C2F0E9411EE811107C0E6E6FAE0E1
:1048B00085919591A591B49104C08D2D9E2DAF2D1C
:1048C000BC2F80931D0290931E02A0931F02B093F1
:1048D0002002F80180819181A281B3818093F80642
:1048E0009093F906A093FA06B093FB06DDDE0E94D2
:1048F000F08F80921D0290921E02A0921F02B09231
:104900002002DF91CF911F910F91FF90EF90DF90E8
:10491000CF90BF90AF909F908F907F906F905F905F
:104920004F9008959B01AC0164EF76E080EF96E034
:1049300007CF9A0148EF56E003CFCF92DF92EF9274
:10494000FF920F931F93CF93DF9337E0E32E33E073
:10495000F32E00EE16E0C0EFD6E043E4C42E45E0AF
:10496000D42EF70181917F01ABD88823C9F0E2D81A
:10497000F6012081211104C020910605222329F08F
:10498000288139814A815B8103C020E030E0A901A0
:104990000E9438EDF801608371838283938309C09C
:1049A00088819981AA81BB81F80180839183A28348
:1049B000B3830C5F1F4F2496FFEFCF1ADF0A8BE003
:1049C000E81683E0F80669F686E4A8D88823B9F0EB
:1049D000B1D820E030E0A9010E9414F018167CF450
:1049E000A9D820E030E040E752E40E9418EE60933E
:1049F0001D0270931E0280931F0290932002DF918C
:104A0000CF911F910F91FF90EF90DF90CF9008957D
:104A1000CF92DF92EF92FF92CF93DF930E9485EACD
:104A20006B017C0180910602882309F468C0209103
:104A3000B9043091BA042115310509F460C08091A0
:104A4000B5049091B604A091B704B091B804B70131
:104A5000A601481B590B6A0B7B0B77FD63C0233003
:104A6000310519F13CF4213031050CF448C0EAE677
:104A7000FEE007C02430310509F041C0EAE6FEE05F
:104A80002AC08491EF012196882321F00E94011B06
:104A9000FE01F7CFE5E9F8E08491EF012196882344
:104AA00071F10E94011BFE01F7CFEAE6FEE084915E
:104AB000EF012196882321F00E94011BFE01F7CF10
:104AC000EEE7F8E08491EF0121968823C1F00E947F
:104AD000011BFE01F7CF8491EF012196882321F07D
:104AE0000E94011BFE01F7CFE6E6F8E08491EF019A
:104AF0002196882321F00E94011BFE01F7CF20910F
:104B0000060230E0A8EEB3E00E948FF16C0D7D1D2F
:104B10008E1D9F1D6093B5047093B6048093B704F7
:104B20009093B804DF91CF91FF90EF90DF90CF90FA
:104B300008958C9A809109148823D9F10E9499676D
:104B400080919F0B9091A00BA091A10BB091A20B13
:104B500085369105A105B1055CF00597A109B1095C
:104B600080939F0B9093A00BA093A10BB093A20BEB
:104B700040919F0B5091A00B6091A10B7091A20BE3
:104B80004093820950938309609384097093850947
:104B900081ED98E00E948A5181E080930107809323
:104BA0000207109209148FEF90E09093090580930B
:104BB0000805669B0BC081E08093030741E050E04D
:104BC00060E37CE1809122020C9472E808950F93D7
:104BD0001F93CF93DF93CDB7DEB769970FB6F894E5
:104BE000DEBF0FBECDBF8DEE94E00E948C916E8B28
:104BF0007F8B888F998FBE016F5F7F4FCE01469666
:104C00000E94AC1C60E0CE0101960E9434D8EAE616
:104C1000FEE084918F010F5F1F4F882321F00E94D7
:104C2000011BF801F6CFBE016F5F7F4F8CE897E064
:104C30000E94B5878AE00E94011B69960FB6F8941E
:104C4000DEBF0FBECDBFDF91CF911F910F910895B1
:104C50001F93CF93DF938091060781110E94F08FFD
:104C6000C091DF0BD091E00B80E50E94601D88238E
:104C700021F00E94001E182F01C010E0809107074C
:104C8000882349F1212F41E0BE0184E097E00E9492
:104C9000C56283E50E948E1D882381F00E94CF1D8E
:104CA000AB01BC014093820950938309609384094E
:104CB0007093850981ED98E00E948A5184E097E025
:104CC0000E94605F111107C08DEE94E0DF91CF91DB
:104CD0001F910C94B991DF91CF911F9108950F937B
:104CE0001F93CF93DF9383E50E948E1D882309F4E1
:104CF00045C00E94EF1D082F80E50E948E1D88236D
:104D000031F00E94CF1D77FD39C0EB0102C0CDE02C
:104D1000D0E08C2FE9E1F7E09491891731F03196DA
:104D200097E0E134F907C1F716C0E0E7FEE08491AF
:104D3000EF012196882321F00E94011BFE01F7CF8D
:104D4000E1E4F7E08491EF0121968823B9F00E9415
:104D5000011BFE01F7CF61E08C2F0E9463EC602FF6
:104D60008C2F0E949CEC10E0B8018C2F0E944DEB20
:104D7000299721F41093090500930805DF91CF913D
:104D80001F910F91089588E690E008DB811147C0DC
:104D90008091000783FD43C083E50E948E1D882318
:104DA000E1F10E949A1D0E9480EE709313126093AD
:104DB000121280E00E9491950E949A1D20E030E03E
:104DC0004AEA52E40E9411EE18164CF08DEE94E07F
:104DD0000E94569160E08DE097E00E9444D80E94C6
:104DE0009A1D20911A1230911B1240911C12509161
:104DF0001D120E9414F0181684F488ED92E09F931F
:104E00008F9383E097E09F938F931F920E9459DACC
:104E10000F900F900F900F900F900C948187089532
:104E2000EF92FF920F931F93CF93DF931F92CDB713
:104E3000DEB78C017B0180E249830E94011B49811E
:104E40004F3F11F482E401C084E50E94011B8AE314
:104E50000E94011BF801608171818281938142E08F
:104E600050E00E942F1CF7014081518162817381C3
:104E70008EE398E00F90DF91CF911F910F91FF90FB
:104E8000EF900C9414880F931F93CF93DF93CDB7BB
:104E9000DEB728970FB6F894DEBF0FBECDBF609186
:104EA000121270911312882777FD8095982F0E9417
:104EB000B3EE69837A838B839C8380911A129091DD
:104EC0001B12A0911C12B0911D128D839E83AF8383
:104ED000B8874EEFBE016F5F7F4FCE010596A0DF12
:104EE00060910E1270910F12882777FD8095982F90
:104EF0000E94B3EE69837A838B839C838091161220
:104F000090911712A0911812B09119128D839E835F
:104F1000AF83B8874FEFBE016F5F7F4FCE0105961D
:104F20007FDFEAE3F8E084918F010F5F1F4F882352
:104F300021F00E94011BF801F6CF8091CE0490E091
:104F40000E9490926AE070E00E94AC1BE5E3F8E0FA
:104F500084918F010F5F1F4F882321F00E94011B56
:104F6000F801F6CF8FEF9FEF0E9490926AE070E019
:104F70000E94AC1B28960FB6F894DEBF0FBECDBFC3
:104F8000DF91CF911F910F910895CF92DF92EF9211
:104F9000FF928091A204882379F10E9485EAC09053
:104FA0009E04D0909F04E090A004F090A1046C199E
:104FB0007D098E099F0997FD1FC00E9485EA6B013C
:104FC0007C012091A20430E0A8EEB3E00E948FF1B2
:104FD000C60ED71EE81EF91EC0929E04D0929F04F2
:104FE000E092A004F092A1044EDF8AE0FF90EF90DF
:104FF000DF90CF900C94011BFF90EF90DF90CF904B
:105000000895DF92EF92FF920F931F93CF93DF9358
:1050100083E50E948E1D882319F00E94EF1D01C0B8
:1050200080E080930007EAE6FEE08491EF0121969C
:10503000882321F00E94011BFE01F7CFECEFF6E080
:105040008491EF012196882321F00E94011BFE012B
:10505000F7CF80910007882381F102EF16E0C0E0CE
:10506000D0E020E08091000790E00C2E02C09595E2
:1050700087950A94E2F780FF17C0DD24D394D20EFF
:10508000222319F08CE20E94011BF8012591349132
:10509000F90184917901FFEFEF1AFF0A882329F0C3
:1050A0000E94011B9701F4CFD22E21960E5F1F4F55
:1050B000C530D10569F02D2DD5CFEEEEF6E0849107
:1050C000EF012196882321F00E94011BFE01F7CFFA
:1050D0008AE0DF91CF911F910F91FF90EF90DF90C9
:1050E0000C94011BCF93DF9383E50E948E1D8823D0
:1050F00051F00E94EF1D8D3308F08CE3809306027F
:10510000DF91CF910895EAE6FEE08491EF012196C8
:10511000882321F00E94011BFE01F7CF4091060277
:1051200050E060E070E088EB96E00E9450888AE0F2
:10513000DF91CF910C94011BCF93DF9383E50E9405
:105140008E1D882319F00E94CF1D02C060E070E020
:10515000EB01DD27C230D105B8F0E0E7FEE0849135
:10516000EF012196882321F00E94011BFE01F7CF59
:10517000EEE7F4E08491EF012196882309F44EC014
:105180000E94011BFE01F6CF88E40E948E1D882339
:10519000A9F00E94CF1D6A3A71053CF0653081E0AC
:1051A00078072CF064E071E002C06AEA70E0FE016A
:1051B000EE0FFF1FEB5FFB4E7183608386E40E945E
:1051C0008E1D882399F00E94CF1D6F3F710519F045
:1051D00014F06FEF70E0FE01EE0FFF1FE350FC4E86
:1051E00077FF02C060E070E07183608382E40E9418
:1051F0008E1D882399F00E94CF1D6530710534F013
:10520000683871052CF067E870E002C065E070E076
:10521000CC0FDD1FCF5FDB4E79836883DF91CF91A9
:1052200008957F928F929F92AF92BF92CF92DF921A
:10523000EF92FF920F931F93CF93DF9307E013E05A
:10524000C1E7DCE0712CF80181918F010E94601DA3
:10525000882309F46CC0F3E07F1263C00E949A1D9A
:105260006B017C0120E030E040EA51E40E9411EE45
:1052700087FF4EC0A701960160917D0C70917E0C56
:1052800080917F0C9091800C0E9418EE4B015C0184
:105290009B01AC016091290C70912A0C80912B0C20
:1052A00090912C0C0E944FF06093290C70932A0C63
:1052B00080932B0C90932C0CA501940160918D0C84
:1052C00070918E0C80918F0C9091900C0E944FF0F9
:1052D00060938D0C70938E0C80938F0C9093900C38
:1052E00060915D0C70915E0C80915F0C9091600CF0
:1052F0000E94B1EEA50194010E944FF00E9485EE3C
:1053000060935D0C70935E0C80935F0C9093600CC7
:10531000C0927D0CD0927E0CE0927F0CF092800CBB
:1053200006C00E949A1D688379838A839B83739445
:10533000249684E0781287CFDF91CF911F910F914F
:10534000FF90EF90DF90CF90BF90AF909F908F90A5
:105350007F900C945D87CF93DF93E2E3F8E0849134
:10536000EF012196882321F00E94011BFE01F7CF57
:105370006091F0067091F1068091F2069091F3062B
:1053800042E050E00E942F1CEEE2F8E08491EF0131
:105390002196882321F00E94011BFE01F7CF609126
:1053A000F4067091F5068091F6069091F70642E0BA
:1053B00050E00E942F1CEAE2F8E08491EF01219670
:1053C000882321F00E94011BFE01F7CF6091F806AF
:1053D0007091F9068091FA069091FB0642E050E048
:1053E0000E942F1CE6E2F8E08491EF0121968823C9
:1053F00021F00E94011BFE01F7CF6091FC06709125
:10540000FD068091FE069091FF0642E050E00E946A
:105410002F1CDF91CF910C94D590EF92FF920F93B8
:105420001F93CF93DF9300D01F921F92CDB7DEB7AB
:105430008D830E94F08F40911D0250911E02609159
:105440001F02709120024093490550934A056093D2
:105450004B0570934C0520911B0230911C02309338
:1054600048052093470524E630E030931C02209342
:105470001B020E94A11C91E09093B90B8D818111B8
:1054800018C088E50E94601DF82E89E50E94601D05
:10549000182F8AE50E94601DF11007C0111110C07D
:1054A000E12C882391F001E018C0082F112389F026
:1054B00001C001E0102FEE24E394FF24F3940DC00B
:1054C000082FE12CFF24F39407C0F12C00E011E039
:1054D00004C0EE24E394F12C10E028D9111105C08A
:1054E000E11003C0FF2009F43EC020E030E0A90134
:1054F00060911E0570911F058091200590912105F6
:105500000E9438ED6093E8067093E9068093EA06FE
:105510009093EB062091F8063091F9064091FA0637
:105520005091FB060E9414F0181654F419821A8246
:105530001B821C82BE016F5F7F4F88EE96E0F2D91E
:10554000111105C0E11003C0F11007C00CC080E0CC
:1055500090E00E946E221123B9F381E090E00E9456
:105560006E22111102C0002321F082E090E00E941F
:105570006E220E94EE1E8091B80B8093B90B809131
:10558000490590914A05A0914B05B0914C05809337
:105590001D0290931E02A0931F02B09320028091DF
:1055A00047059091480590931C0280931B020E942E
:1055B000A11C83E080934602CEDE0F900F900F90E7
:1055C0000F900F90DF91CF911F910F91FF90EF906F
:1055D00008958F929F92AF92BF92CF92DF92EF92F7
:1055E000FF920F931F93CF93DF9300D01F92CDB7FD
:1055F000DEB785E40E948E1DB82E811102C00E9484
:10560000F08F17E0C12E13E0D12E0EE2E02E05E060
:10561000F02E00EF16E0812C912CA12CF601819147
:105620006F010E948E1D882361F1F8012081318174
:105630004281538129833A834B835C830E949A1D64
:10564000F801608371838283938329813A814B813E
:105650005C81F3E08F16A9F00E9437ED9B01AC014D
:10566000F70160817181828193810E9438EDF70199
:105670006083718382839383C4010E940722AA24DA
:10568000A394FFEF8F1A9F0A84E0E80EF11C0C5FD1
:105690001F4FE4E08E16910409F6AA2019F00E942B
:1056A000EE1E08C0BB2031F06CEF76E083E090E0A6
:1056B0000E9498860F900F900F900F90DF91CF91DE
:1056C0001F910F91FF90EF90DF90CF90BF90AF9020
:1056D0009F908F9040CECF93DF93EFE7F5E08491DA
:1056E000EF012196882321F00E94011BFE01F7CFD4
:1056F000E1E7F5E08491EF012196882321F00E94F3
:10570000011BFE01F7CFEAE5F5E08491EF01219658
:10571000882321F00E94011BFE01F7CFEAE4F5E0A7
:105720008491EF012196882321F00E94011BFE0144
:10573000F7CFE9E3F5E08491EF012196882321F08A
:105740000E94011BFE01F7CFE8E2F5E08491EF0132
:105750002196882321F00E94011BFE01F7CFE9E189
:10576000F5E08491EF012196882321F00E94011B2E
:10577000FE01F7CFE4E0F5E08491EF012196882364
:1057800021F00E94011BFE01F7CFEEEEF4E08491C0
:10579000EF012196882321F00E94011BFE01F7CF23
:1057A000E9EDF4E08491EF012196882321F00E9435
:1057B000011BFE01F7CFECEBF4E08491EF012196A1
:1057C000882321F00E94011BFE01F7CFE4EAF4E0F8
:1057D0008491EF012196882321F00E94011BFE0194
:1057E000F7CFDF91CF910895CF93DF9385E40E94A7
:1057F000601D882379F00E94001E882359F0EAE694
:10580000FEE08491EF012196882321F00E94011B84
:10581000FE01F7CF81E40E94601D882379F00E9489
:10582000001E882359F0E0EAF4E08491EF0121960C
:10583000882321F00E94011BFE01F7CFC091DF0BEE
:10584000D091E00B8991882319F00E94011BFACFB7
:105850008AE0DF91CF910C94011B83E50E94601DCB
:105860008823D9F00E949A1DAB01BC014093350CEE
:105870005093360C6093370C7093380C40932D0C7A
:1058800050932E0C60932F0C7093300C86E594E0AF
:105890000E9414888AE00E94011B80E50E94601D1E
:1058A000882399F00E949A1DAB01BC014093350CEE
:1058B0005093360C6093370C7093380C89E394E066
:1058C0000E9414888AE00E94011B82E50E94601DEC
:1058D000882399F00E949A1DAB01BC014093310CC2
:1058E0005093320C6093330C7093340C8AE194E043
:1058F0000E9414888AE00E94011B84E50E94601DBA
:10590000882399F00E949A1DAB01BC0140932D0C95
:1059100050932E0C60932F0C7093300C8CEF93E00F
:105920000E9414888AE00C94011B089583E50E946C
:10593000601D882351F00E949A1D6093390C70936A
:105940003A0C80933B0C90933C0C84E50E94601DC4
:10595000882351F00E949A1D6093190C70931A0CC1
:1059600080931B0C90931C0C82E40E94601D882382
:1059700051F00E94DF1D60933D0C70933E0C8093AC
:105980003F0C9093400C88E50E94601D882351F0E5
:105990000E949A1D60931D0C70931E0C80931F0C27
:1059A0009093200C89E50E94601D882351F00E948D
:1059B0009A1D6093210C7093220C8093230C90937A
:1059C000240C8AE50E94601D882351F00E949A1DD4
:1059D0006093250C7093260C8093270C9093280CD1
:1059E00085E40E94601D882351F00E949A1D6093F7
:1059F000290C70932A0C80932B0C90932C0C0895F7
:105A00008F929F92AF92BF92CF92DF92EF92FF92CE
:105A10000F931F93CF93DF9387E0C82E83E0D82E98
:105A200090EFE92E96E0F92E02E215E0C0E0D0E01A
:105A3000F60181916F010E94601D882309F10E9487
:105A40009A1D4B015C01F801208131814281538113
:105A50000E9437ED9B01AC01F70160817181828169
:105A600093810E9438EDF701608371838283938371
:105A7000F80180829182A282B382CE010E94072225
:105A80002196F4E0EF0EF11C0C5F1F4FC330D105DF
:105A900079F60E94EE1EDF91CF911F910F91FF903A
:105AA000EF90DF90CF90BF90AF909F908F9053CCAE
:105AB000CF93DF93EAE6FEE08491EF0121968823FD
:105AC00021F00E94011BFE01F7CF83E50E94601DBB
:105AD000882321F00E94001E80931802ECEEF3E070
