:100000000C94D31A0C94C5E90C94F0E90C941BEAF7
:100010000C9446EA0C9471EA0C949CEA0C94C7EA9E
:100020000C94F2EA0C94041B0C94041B0C94041B17
:100030000C94041B0C94041B0C94041B0C94041BC4
:100040000C94041B0C94ED8F0C94041B0C94041B57
:100050000C94041B0C94041B0C944C9E0C941DEBF0
:100060000C94041B0C94061B0C94041B0C94041B92
:100070000C94041B0C94041B0C94041B0C94041B84
:100080000C94041B0C94041B0C94041B0C94041B74
:100090000C94041B0C94041B0C94041B0C94041B64
:1000A0000C94041B0C94041B0C94041B0C94041B54
:1000B0000C94041B0C94041B0C94041B0C94041B44
:1000C0000C94041B0C94041B0C94041B0C94041B34
:1000D0000C94041B0C94041B0C94041B0C94041B24
:1000E0000C94041BE4A6EDA6F6A6FFA608A723A77A
:1000F00030A739A711A71AA79FE969E971E97DE936
:100100008AE9ABE9B8E952EC57EC5CEC66EC70ECD0
:10011000E9EC7AEC82EC8AEC94EC9EECA8ECB7EC7F
:10012000C1ECE9ECCBECD5ECDFEC0AED0DEDFCEC31
:1001300000ED06ED44ED11ED15ED1BED1FED23ED8A
:1001400029ED2DED31ED44ED37ED3BED3FED084A66
:10015000D73B3BCE016E84BCBFFDC12F3D6C7431DB
:100160009ABD56833DDA3D00C77F11BED9E4BB4C32
:100170003E916BAAAABE000000803F05A84CCDB2FC
:10018000D44EB93836A9020C50B9918688083CA6DD
:10019000AAAA2ABE000000803F00446F6E6520734B
:1001A0006176696E672066696C652E0A004D32398A
:1001B000002020506C616E6E6572427566666572D5
:1001C00042797465733A20002046726565204D655A
:1001D0006D6F72793A2000436F6D70696C65643A97
:1001E000204E6F7620203920323031370A00207CB3
:1001F00020417574686F723A2028414E5943554228
:10020000494320466F75724D61782C2056312E304F
:10021000290A00323031372D30392D323220313237
:100220003A303000204C61737420557064617465FD
:10023000643A2000312E312E350A004D61726C690E
:100240006E0020536F667477617265205265736526
:10025000740A00205761746368646F672052657385
:1002600065740A002042726F776E206F7574205299
:10027000657365740A002045787465726E616C2040
:1002800052657365740A00506F77657255700A0085
:1002900073746172740A005072696E7465722068BA
:1002A000616C7465642E206B696C6C282920636115
:1002B0006C6C6564210A004142474542524F4348F5
:1002C000454E004B494C4C20636175736564206258
:1002D0007920746F6F206D75636820696E61637437
:1002E0006976652074696D65202D2063757272656D
:1002F0006E7420636F6D6D616E643A20004D363010
:10030000300020746F6F206C6F6E67206578747298
:100310007573696F6E2070726576656E7465640AB8
:100320000020636F6C6420657874727573696F6EFA
:100330002070726576656E7465640A006F6B00529A
:100340006573656E643A20004E6F206361736520AB
:100350006C696768740A00486F6D657665727361D1
:10036000747A20616B746976004572723A20546F1A
:100370006F206661722100546F6F20666172206683
:10038000726F6D207265666572656E636520706F51
:10039000696E740A0043290A0061626C6564202852
:1003A0006D696E2074656D702000436F6C6420650C
:1003B0007874727564657320617265200020643AF8
:1003C0000020693A0020703A00205A002059005855
:1003D0000020204D61783A2000205A002059005812
:1003E0000020204D696E3A20004175730045696E0A
:1003F00000536F667420656E6473746F70733A2077
:100400000053657474696E672054726176656C2060
:10041000416363656C65726174696F6E3A20005365
:10042000657474696E6720526574726163742041EB
:100430006363656C65726174696F6E3A2000536521
:100440007474696E67205072696E742041636365CD
:100450006C65726174696F6E3A20005365747469DB
:100460006E67205072696E7420616E6420547261F0
:1004700076656C20416363656C65726174696F6E4B
:100480003A20004D31343520533C696E6465783E26
:10049000206F7574206F662072616E67652028304A
:1004A0002D31290A002F2F20004361703A454D4518
:1004B0005247454E43595F5041525345523A300AD4
:1004C000004361703A434153455F4C494748545F8C
:1004D0004252494748544E4553533A300A0043610B
:1004E000703A544F47474C455F4C49474854533A3C
:1004F000300A004361703A534F4654574152455FAA
:10050000504F5745523A300A004361703A4C4556B5
:10051000454C494E475F444154413A300A004361DB
:10052000703A5A5F50524F42453A300A0043617068
:100530003A4155544F4C4556454C3A300A004361B8
:10054000703A5052494E545F4A4F423A310A004382
:1005500061703A50524F47524553533A300A004364
:1005600061703A4155544F5245504F52545F544573
:100570004D503A310A004361703A454550524F4D53
:100580003A310A004649524D574152455F4E414D5E
:10059000453A4D61726C696E20312E312E3520281E
:1005A0004769746875622920534F555243455F432C
:1005B0004F44455F55524C3A68747470733A2F2F0C
:1005C0006769746875622E636F6D2F4D61726C6917
:1005D0006E4669726D776172652F4D61726C696EDE
:1005E0002050524F544F434F4C5F56455253494F42
:1005F0004E3A312E30204D414348494E455F5459C3
:1006000050453A344D61782045585452554445522E
:100610005F434F554E543A3120555549443A63652E
:100620006465326132662D343161322D34373438AD
:100630002D396231322D63353563363266333637C4
:1006400066660A00344D6178204175732E004D3680
:10065000303020486F74656E6420746F6F20636F54
:100660006C6420746F206368616E67652066696CD6
:10067000616D656E740A0042657474206175666709
:10068000656865697A740020573A00426574742081
:100690006865697A742E2E2E00457874722E20615A
:1006A000756667656865697A740020573A004E6F11
:1006B0007A7A6C6520257300344D6178206265720A
:1006C000656974006F6B004D313133205300414236
:1006D000474542524F4348454E004543484F004925
:1006E0004E464F004552524F5253004452595255B4
:1006F0004E00434F4D4D554E49434154494F4E00D6
:100700006F666600DA06DF06E406EB06F20644458D
:100710004255473A004E6F7A7A6C65202573003453
:100720004D61782062657265697400000136372674
:1007300003FF3C3D380EFF2E303E12FFFF0C080930
:10074000FFFF071A1C18FFFF08440AFF43FFFFFFC3
:10075000FFFFFF50726F7465637465642050696EAB
:100760000A002569730025696D20256973002569D4
:10077000682025696D202569730025696420256935
:10078000682025696D202569730025697920256910
:1007900064202569682025696D20256973005072E1
:1007A000696E742074696D653A20004D31323500F0
:1007B000456E642066696C65206C6973740A00423A
:1007C0006567696E2066696C65206C6973740A00E0
:1007D0004D6F746F72656E2065696E6765736368CF
:1007E000616C74657400344D61782062657265696E
:1007F0007400447275636B666F72747365747A7596
:100800006E6700576172746520617566204E75745D
:100810007A65720057617274656E2E2E2E00473213
:100820002F47332062616420706172616D65746569
:1008300072730A0041637469766520457874727535
:100840006465723A200020453A00205A3A00205947
:100850003A00583A002042403A0020403A00202F07
:10086000005761726E696E673A20486F6D696E67F6
:100870002042756D702044697669736F72203C2048
:10088000310A00020204627573793A20706175734F
:10089000656420666F7220696E7075740A006275F7
:1008A00073793A2070617573656420666F72207584
:1008B0007365720A00627573793A2070726F6365AE
:1008C0007373696E670A0020496E76616C696420F3
:1008D0006578747275646572200053442072656196
:1008E00064206572726F720A00446F6E65207072C8
:1008F000696E74696E672066696C650A00414247DB
:100900004542524F4348454E00414E474548414CB1
:1009100054454E005072696E7465722073746F7026
:100920007065642064756520746F206572726F72E3
:10093000732E2046697820746865206572726F7224
:1009400020616E6420757365204D39393920746FCC
:1009500020726573746172742E202854656D706501
:100960007261747572652069732072657365742E87
:100970002053657420697420616674657220726505
:100980007374617274696E67290A004E6F204C6936
:100990006E65204E756D626572207769746820639C
:1009A0006865636B73756D2C204C617374204C69A2
:1009B0006E653A20004E6F20436865636B73756DFA
:1009C0002077697468206C696E65206E756D62654C
:1009D000722C204C617374204C696E653A20006360
:1009E0006865636B73756D206D69736D61746368A1
:1009F0002C204C617374204C696E653A20004C6960
:100A00006E65204E756D626572206973206E6F741D
:100A1000204C617374204C696E65204E756D626563
:100A2000722B312C204C617374204C696E653A2016
:100A3000004D31313000656E7175657565696E67A1
:100A4000202200FFFFFF0000A0400000A0400000A7
:100A5000004000005D4300005C430000964300003E
:100A600080C00000000000000000000059430000AA
:100A70005C4300009643000080C0000000000000BE
:100A800000000000484200004842000020410000F1
:100A900000007C3C3E5E2B3D3F2F5B5D3B2C2A22C1
:100AA0005C004D3331004D383420582059205A20F5
:100AB000450043616E6E6F7420656E7465722073BD
:100AC00075626469723A20006175746F25692E67DA
:100AD000006572726F722077726974696E67207434
:100AE0006F2066696C650A004E6F74205344207055
:100AF00072696E74696E670A005344207072696E81
:100B000074696E672062797465200044656C657451
:100B1000696F6E206661696C65642C2046696C653E
:100B20003A200046696C652064656C657465643ABA
:100B3000006F70656E206661696C65642C20466983
:100B40006C653A200057726974696E6720746F2073
:100B500066696C653A20006F70656E206661696C2D
:100B600065642C2046696C653A20006F70656E20C4
:100B70006661696C65642C2046696C653A200046A4
:100B8000696C652073656C65637465640A00205345
:100B9000697A653A200046696C65206F70656E65FC
:100BA000643A20006F70656E206661696C65642C24
:100BB0002046696C653A20002066696C653A200021
:100BC0004E6F7720002220706F73002220706172B8
:100BD000656E743A2200535542524F5554494E4562
:100BE0002043414C4C207461726765743A22004185
:100BF00042474542524F4348454E00747279696EF0
:100C00006720746F2063616C6C207375622D67635D
:100C10006F64652066696C657320776974682074F9
:100C20006F6F206D616E79206C6576656C732E2018
:100C30004D4158206C6576656C2069733A004D32E1
:100C400034004D32332025730053442063617264B5
:100C5000206F6B0A006F70656E526F6F7420666153
:100C6000696C65640A00766F6C756D652E696E69D6
:100C700074206661696C65640A00534420696E697A
:100C800074206661696C0A0043616E6E6F74206F38
:100C900070656E20737562646972200048617264C9
:100CA000636F6465642044656661756C7420536588
:100CB0007474696E6773204C6F616465640A00DC4C
:100CC000050000DC050000640000001027000000A3
:100CD00000964300009643000020410000C84100F8
:100CE00000A0420000A0420000C8433333B94220B4
:100CF0002863616C63756C6174656429210A002046
:100D0000213D2000454550524F4D20435243206D18
:100D100069736D61746368202D202873746F726528
:100D200064292000290A002062797465733B2063DE
:100D3000726320002073746F72656420736574742D
:100D4000696E6773207265747269657665642028C0
:100D500000204D61726C696E3D563430290A0028BE
:100D6000454550524F4D3D00454550524F4D207620
:100D7000657273696F6E206D69736D61746368204D
:100D800000290A002062797465733B206372632036
:100D90000053657474696E67732053746F72656471
:100DA0002028004572726F722077726974696E67CD
:100DB00020746F20454550524F4D210A00457272F4
:100DC0006F722077726974696E6720746F20454571
:100DD00050524F4D210A0066696C616D656E743A20
:100DE00020007A5F6D696E3A2000795F6D696E3A16
:100DF0002000785F6D696E3A20005265706F7274E2
:100E0000696E6720656E6473746F702073746174AB
:100E100075730A00456E6473746F707020256320CB
:100E2000256320256320256300205A3A0020593A83
:100E30000020583A00656E6473746F70732068699F
:100E4000743A2000556E6B6E6F776E20636F6D6D18
:100E5000616E643A20220020746F6F206C6F6E67A1
:100E600020657874727573696F6E2070726576652F
:100E70006E7465640A0020636F6C64206578747218
:100E80007573696F6E2070726576656E7465640A3D
:100E9000006563686F3A004572726F723A00205ABB
:100EA0003A0020593A0020436F756E7420583A007A
:100EB0004D383420582059205A20450024F4D4308D
:100EC00050C38E20C2A24017828B7011127A910DEE
:100ED000816CD90AA861E108C758660761514306C9
:100EE0001E4B5D05C145A7041A411104093D980335
:100EF000713931034036DB0265339102D43054023C
:100F0000802E1D02632CEE01752AC501B028A001B8
:100F1000102781018F2564012B244B01E02234012D
:100F2000AC211F018D200D01801FFC00841EED00EF
:100F3000971DDF00B81CD200E61BC600201BBC00BA
:100F4000641AB200B219A8000A19A0006A18990020
:100F5000D117910040178B00B516840031167E0022
:100F6000B31579003A157300C7146F0058146A005E
:100F7000EE1366008813630025135E00C7125B0042
:100F80006C12570015125400C111510070114F001E
:100F900021114B00D61049008D1047004610440027
:100FA00002104200C00F4000800F3E00420F3C0084
:100FB000060F3B00CB0E3800930E37005C0E350059
:100FC000270E3400F30D3200C10D3100900D3000BA
:100FD000600D2E00320D2D00050D2C00D90C2B00BC
:100FE000AE0C2900850C29005C0C2700350C27006D
:100FF0000E0C2600E80B2400C40B2400A00B2300D9
:101000007D0B23005A0B2100390B2100180B200007
:10101000F80A1F00D90A1E00BB0A1E009D0A1D0007
:10102000800A1D00630A1C00470A1B002C0A1B00D3
:10103000110A1A00F7091A00DD091900C40919007C
:10104000AB091900920917007B0918006309170002
:101050004C09160036091600200916000A09150069
:10106000F5081500E0081400CC081400B8081400B6
:10107000A4081400900813007D0812006B081300E8
:101080005808120046081200340811002308110005
:101090001208110001081100F0071000E00710000D
:1010A000D0071000C0071000B0070F00A107100004
:1010B00091070E0083070F0074070F0065070E00ED
:1010C00057070E0049070E003B070D002E070E00C4
:1010D00020070D0013070D0006070D00F9060C0090
:1010E000ED060D00E0060C00D4060C00C8060C004E
:1010F000BC060C00B0060C00A4060B0099060C0000
:101100008D060B0082060B0077060B006C060B00A9
:1011100061060A0057060B004C060A0042060A0048
:1011200038060A002E060A0024060A001A060A00DB
:101130001006090007060A00FD050900F40509006C
:10114000EB050900E2050900D9050900D0050900F1
:10115000C7050900BE050900B5050800AD05080072
:10116000A50509009C050800940508008C050800E9
:10117000840508007C050800740508006C0507005C
:10118000650508005D050700560508004E050700C7
:10119000470507004005080038050700310507002E
:1011A0002A050700230507001C0506001605070091
:1011B0000F0507000805060002050700FB040600EE
:1011C000F5040700EE040600E8040600E204070048
:1011D000DB040600D5040600CF040600C90406009F
:1011E000C3040600BD040600B7040600B1040500F0
:1011F000AC040600A6040600A00405009B0406003B
:1012000095040500900406008A0405008504050085
:10121000800406007A0405007504050070040500CA
:101220006B04050066040500610405005C0405000C
:1012300057040500520405004D040500480405004C
:10124000430405003E0404003A040500350405008B
:10125000300404002C0405002704040023040500C6
:101260001E0404001A0404001604050011040400FE
:101270000D04040009040500040404000004040033
:10128000FC030400F8030400F4030400F00304006A
:10129000EC030400E8030400E4030400E00304009A
:1012A000DC030400D8030400D4030400D0030400CA
:1012B000CC030400C8030300C503030024F404D9CD
:1012C000201BC40C5C0E9804C4095F026507710101
:1012D000F405F900FB04B30048048700C10369006A
:1012E0005803550003034500BE023A008402310052
:1012F00053022A002902250004022000E4011C00F8
:10130000C8011900AF0117009801140084011300EF
:10131000710110006101100051010E0043010D0028
:1013200036010B002B010B0020010B0015010900F9
:101330000C01090003010800FB000800F30008008D
:10134000EB000700E4000600DE000600D8000600FF
:10135000D2000600CC000500C7000500C200050051
:10136000BD000400B9000400B5000400B100040091
:10137000AD000400A9000400A5000300A2000300C2
:101380009F0004009B0003009800030095000200EA
:1013900093000300900003008D0002008B00030007
:1013A0008800020086000200840003008100020021
:1013B0007F0002007D0002007B0002007900020035
:1013C0007700010076000200740002007200010044
:1013D000710002006F0002006D0001006C0002004D
:1013E0006A00010069000200670001006600010058
:1013F000650001006400020062000100610001005C
:10140000600001005F0002005D0001005C0001005F
:101410005B0001005A000100590001005800010062
:101420005700010056000100550001005400010062
:101430005300000053000100520001005100010060
:10144000500001004F0001004E0000004E0001005E
:101450004D0001004C0001004B0000004B0001005A
:101460004A00010049000100480000004800010056
:101470004700010046000000460001004500000052
:10148000450001004400010043000000430001004A
:101490004200000042000100410000004100010044
:1014A000400001003F0000003F0001003E0000003E
:1014B0003E0001003D0000003D0001003C00000036
:1014C0003C0000003C0001003B0000003B0001002C
:1014D0003A0000003A000100390000003900010024
:1014E000380000003800000038000100370000001C
:1014F0003700010036000000360000003600010011
:101500003500000035000000350001003400000007
:1015100034000000340001003300000033000000FC
:1015200033000100320000003200000032000100F0
:1015300031000000310000003100010030000000E7
:1015400030000000300001002F0000002F000000DC
:101550002F0000002F0001002E0000002E000000D0
:101560002E0001002D0000002D0000002D000000C5
:101570002D0001002C0000002C0000002C000000B9
:101580002C0001002B0000002B0000002B000000AD
:101590002B0001002A0000002A0000002A000000A1
:1015A0002A00010029000000290000002900000095
:1015B0002900000029000100280000002800000088
:1015C000280000002800000028000100270000007B
:1015D000270000002700000027000000270001006E
:1015E0002600000026000000260000002600000063
:1015F0002600010025000000250000002500000055
:101600002500000025000000250001002400000046
:101610002400000024000000240000002400010039
:10162000230000002300000023000000230000002E
:10163000230000002300000023000100220000001E
:101640002200000022000000220000002200000012
:101650002200010021000000210000002100000004
:1016600021000000210000002100000021000100F5
:1016700020000000200000002000000020000000EA
:1016800020000000200000002000000020000100D9
:101690001F0000001F0000001F0000001F000000CE
:1016A0001F0000001F0000001F0001001E000000BE
:1016B0001E0000001E0000001E000000546865723D
:1016C0006D616C2052756E617761790008204E491A
:1016D00043485420455252454943485400414247EB
:1016E0004542524F4348454E00202D20496E7661B9
:1016F0006C6964206578747275646572206E756DAE
:1017000062657220210A0048656174696E6720660F
:1017100061696C6564004845495A454E2046454814
:101720004C47455343484C4147454E004D494E5464
:10173000454D502074726967676572656400424563
:101740005454200820554E5445525343485249544E
:1017500054454E000820554E544552534348524973
:101760005454454E004D415854454D5020747269B3
:101770006767657265640042455454200820C39C25
:1017800042455253434852495454454E000820C3E1
:101790009C42455253434852495454454E00626559
:1017A000640A002C2073797374656D2073746F70F4
:1017B00070656421204865617465725F49443A2010
:1017C0000023646566696E65202044454641554C9A
:1017D000545F4B64200023646566696E6520204475
:1017E000454641554C545F4B69200023646566694A
:1017F0006E65202044454641554C545F4B70200097
:10180000504944204175746F74756E652066696E29
:101810006973686564212050757420746865206C54
:10182000617374204B702C204B6920616E64204BD7
:101830006420636F6E7374616E74732066726F6D73
:101840002062656C6F7720696E746F20436F6E66DF
:10185000696775726174696F6E2E680A0050494439
:10186000204175746F74756E65206661696C65647E
:10187000212074696D656F75740A005049442041D8
:1018800075746F74756E65206661696C656421207E
:1018900054656D706572617475726520746F6F2028
:1018A000686967680A00204B643A2000204B693A57
:1018B0002000204B703A20000A20436C617373694A
:1018C0006320504944200A002054753A2000204BE0
:1018D000753A2000206D61783A2000206D696E3ADB
:1018E000200020643A200020626961733A20007071
:1018F000012C0190012701B0012201C0011D01F05E
:101900000118011002130130020E0160020901905A
:10191000020401C002FF000003FA004003F500804A
:1019200003F000D003EB002004E6007004E100E0C7
:1019300004DC004005D700C005D2004006CD00D031
:1019400006C8008007C3003008BE00F008B900C018
:1019500009B400B00AAF00B00BAA00D00CA500007B
:101960000EA000500F9B00C0109600501291000076
:10197000148C00C0158700B0178200B0197D00D00C
:101980001B7800001E730040206E0090226900F05A
:1019900024640040275F0090295A00E02B55001076
:1019A0002E500020304B0010324600E033410090B2
:1019B000353C001037370070383200A0392D00B0A8
:1019C0003A2800A03B2300603C1E00103D19009007
:1019D0003D1400103E0F00703E0A00C03E0500009E
:1019E0003F0000403FFBFF803FF6FFC03FF1FF5349
:1019F000442D4B6172746520656E746665726E74F9
:101A00000053442D4B617274652065726B616E6E7C
:101A10007400447275636B65732E2E2E00466F72D0
:101A2000747365747A756E672064657300576172AC
:101A300074652061756600445255434B20504155F2
:101A4000534945525400202044C3BC73653A2000DA
:101A500046696C616D656E74730045787472757358
:101A6000696F6E20646573005761727465206175DB
:101A70006600445255434B205041555349455254FA
:101A800000202044C3BC73653A200046696C616D38
:101A9000656E7473004C6164656E206465730057F5
:101AA000617274652061756600445255434B205045
:101AB0004155534945525400202044C3BC73653AF4
:101AC00020006472C3BC636B656E2E2E2E00756E93
:101AD00064204B6E6F70660046696C616D656E7454
:101AE0002065696E6C6567656E00445255434B20F6
:101AF000504155534945525400202044C3BC73659E
:101B00003A2000200044C3BC7365206175667A7575
:101B10006865697A656E2E004B6E6F706620647220
:101B2000C3BC636B656E20756D00445255434B20FA
:101B3000504155534945525400202044C3BC73655D
:101B40003A200020004269747465207761727465E0
:101B50006E2E2E2E0044C3BC7365206865697A74AE
:101B6000206175662E2E2E00445255434B20504165
:101B700055534945525400202044C3BC73653A2054
:101B8000006465732046696C616D656E74732E2EFA
:101B90002E004865726175736E61686D65005761EE
:101BA0007274652061756600445255434B20504164
:101BB00055534945525400202044C3BC73653A2014
:101BC0000046696C616D656E747765636873656CFA
:101BD000730053746172742064657300576172748A
:101BE00065206175662064656E00445255434B2044
:101BF0005041555349455254004578747275646597
:101C0000206D65687200447275636B652077656945
:101C100074657200464F5254532E204F5054494F12
:101C20004E454E3A00202044C3BC73653A20002044
:101C3000005A7572C3BC636B004D696E2E205465EB
:101C40006D706572617475722069737420313730FC
:101C50002E004845495A454E204645484C47455375
:101C600043484C4147454E00022E2E004861757096
:101C7000746D656EC3BC00442046696C2E00442020
:101C800046696C2E004520696E206D6DC2B300411F
:101C900075730045696E0045696E7374656C6C758B
:101CA0006E67656E0053746570732F6D6D004A65C5
:101CB000726B0042657363686C65756E6967756EFB
:101CC0006700476573636877696E6469676B656908
:101CD000740045696E7374656C6C756E67656E0033
:101CE000452053746570732F6D6D004520537465E6
:101CF00070732F6D6D005A2053746570732F6D6D66
:101D0000005A2053746570732F6D6D005920537401
:101D10006570732F6D6D00592053746570732F6D4E
:101D20006D00582053746570732F6D6D00582053EB
:101D3000746570732F6D6D004265776567756E67AA
:101D400000562045204A65726B00562045204A65A2
:101D5000726B00562045204A65726B0056205A204F
:101D60004A65726B0056205A204A65726B005620F5
:101D700059204A65726B00562059204A65726B00E3
:101D8000562059204A65726B00562058204A6572C9
:101D90006B00562058204A65726B00562058204A26
:101DA00065726B004265776567756E670041206DEF
:101DB000617820450041206D617820450041206D0B
:101DC0006178205A0041206D6178205A0041206DD1
:101DD000617820590041206D617820590041206DC3
:101DE000617820580041206D617820580041204CD6
:101DF00065657266616872740041204C6565726643
:101E000061687274004120526574726163740041AC
:101E1000205265747261637400410041004265772D
:101E20006567756E670056206D696E204C6565723A
:101E300066616872740056206D696E204C6565722B
:101E400066616872740056206D696E204C6565721B
:101E500066616872740056206D696E0056206D6967
:101E60006E0056206D696E0056206D617820450029
:101E700056206D617820450056206D617820450020
:101E800056206D6178205A0056206D6178205A00E6
:101E900056206D6178205A0056206D6178205900D7
:101EA00056206D617820590056206D6178205900C8
:101EB00056206D617820580056206D6178205800BA
:101EC00056206D61782058004265776567756E67AA
:101ED000004B6F6E6669672E207370656963686575
:101EE000726E0042657474004265747400426574D9
:101EF000740044C3BC73650044C3BC73650044C331
:101F0000BC7365004CC3BC66746572004CC3BC6690
:101F1000746572004CC3BC667465720054656D7064
:101F200065726174757200566F72772E204142534C
:101F30002045696E73742E00566F72772E20504CB8
:101F4000412045696E73742E00504944204400506E
:101F50004944204400504944204900504944204904
:101F60000050494420500050494420500008204669
:101F7000616B746F7200082046616B746F720008A9
:101F8000206D61780008206D61780008206D61780F
:101F90000008206D696E0008206D696E0008206DD4
:101FA000696E004175746F54656D70004175730002
:101FB00045696E004CC3BC66746572004CC3BC6658
:101FC000746572004CC3BC667465720042657474BB
:101FD00000426574740044C3BC73650044C3BC73A1
:101FE000650045696E7374656C6C756E67656E002F
:101FF0005765726B7365696E7374656C6C756E672B
:10200000656E004D3530320A4D3530300053746105
:102010006E646172647765727465206C6164656E6C
:10202000004B6F6E6669672E206C6164656E004BB5
:102030006F6E6669672E2073706569636865726E7E
:102040000046696C616D656E740042657765677501
:102050006E670054656D70657261747572004861D9
:102060007570746D656EC3BC004578747275646577
:102070007220005A0059005800566F7262657265EE
:102080006974756E670020302C31206D6D00203131
:102090002C30206D6D0031302C30206D6D0042658C
:1020A000776567656E0045787472756465722000A7
:1020B0005A005900580045787472756465722000A2
:1020C0005A0059005800566F7277C3A4726D656E3E
:1020D0002041425300566F7277C3A4726D656E2023
:1020E000504C410041626BC3BC686C656E00466930
:1020F0006C616D656E74207765636873656C6E00E6
:102100004D6F746F72656E206465616B746976697A
:102110006572656E004D383400486F6D650047325A
:1021200038004265776567656E0048617570746D4B
:10213000656EC3BC00566F72772E20414253204219
:1021400065747400566F72772E2041425320457893
:1021500074722E00566F7277C3A4726D656E204143
:10216000425300566F72626572656974756E6700DE
:10217000566F72772E20504C412042657474005681
:102180006F72772E20504C4120457874722E005685
:102190006F7277C3A4726D656E20504C4100566F0C
:1021A00072626572656974756E670046696C616D0F
:1021B000656E74207765636873656C6E00466C7538
:1021C00073737261746500466C75737372617465C4
:1021D00000466C75737372617465004CC3BC6674A1
:1021E0006572004CC3BC66746572004CC3BC6674F7
:1021F0006572004265747400426574740044C3BC27
:1022000073650044C3BC7365004765736368772ECC
:10221000004765736368772E004765736368772EA0
:102220000048617570746D656EC3BC004D3630300A
:102230002042300048617570746D656EC3BC004B00
:1022400065696E652053442D4B617274650053655A
:102250007474696E670048617570746D656EC3BC97
:10226000004B65696E652053442D4B6172746500A7
:1022700053442D4B617274650053442D4472756351
:102280006B20416262727563680053442D4472751D
:10229000636B20466F72747365747A756E67005352
:1022A000442D447275636B205061757365005265EF
:1022B00073756D652066726F6D206F7574616765EB
:1022C0000045696E7374656C6C756E67656E00565B
:1022D0006F72626572656974756E67004A757374B2
:1022E000696572756E6700496E666F00447275634A
:1022F0006B206162676562726F6368656E004D3264
:102300003400447275636B20706175736965727413
:10231000004D313235000025753A253032750025E3
:102320003032753A253032750025756420253032FB
:10233000753A25303275000920005A0059005800BE
:10234000426974746520526573657474656E0044E7
:102350005255434B45522053544F505000000609EC
:1023600000FE070192032120FFFF08FF07FF000086
:1023700000060000010707060200808080808000C0
:1023800080030202060105A0A00507070600005011
:1023900050F850F850500507070600002078A0704C
:1023A00028F020050707060000C0C8102040981834
:1023B0000507070600006090A040A890680203038C
:1023C000060104C04080030707060100204080800A
:1023D0008040200307070601008040202020408025
:1023E00005050506000120A870A8200505050600C2
:1023F000012020F820200203030602FFC0408005D0
:102400000101060003F8020202060200C0C0050531
:10241000050600010810204080050707060000702F
:1024200088888888887003070706010040C04040FC
:102430004040E0050707060000708808708080F8BB
:10244000050707060000F81020100808F005070728
:1024500006000010305090F8101005070706000025
:10246000F880F00808887005070706000070808073
:10247000F0888870050707060000F8081020202063
:102480002005070706000070888870888870050797
:1024900007060000708888780808700205050602A3
:1024A00000C0C000C0C00206060602FFC0C000C0D7
:1024B00040800407070600001020408040201005DF
:1024C0000303060002F800F8040707060100804035
:1024D00020102040800507070600007088081020A3
:1024E000002005070706000070880868A8A8700586
:1024F0000707060000708888F8888888050707069F
:102500000000F08888F08888F00507070600007052
:10251000888080808870050707060000F08888881A
:102520008888F0050707060000F88080F08080F8B2
:10253000050707060000F88080F080808005070707
:10254000060000708880B8888870050707060000BC
:10255000888888F8888888010707060200808080BC
:10256000808080800507070600003810101010904A
:10257000600507070600008890A0C0A090880507A6
:1025800007060000808080808080F805070706002D
:102590000088D8A8888888880507070600008888EA
:1025A000C8A898888805070706000070888888886A
:1025B0008870050707060000F08888F08080800595
:1025C000070706000070888888A890680507070636
:1025D0000000F08888F0A0908805070706000078C2
:1025E0008080700808F0050707060000F82020200A
:1025F00020202005070706000088888888888870C2
:102600000507070600008888888888502005070786
:102610000600008888888888A850050707060000FB
:102620008888502050888805070706000088888819
:1026300050202020050707060000F80810204080E1
:10264000F8030707060100E08080808080E0050530
:10265000050600018040201008030707060100E07E
:102660002020202020E005030306000420508805D8
:102670000101060000F8020202060205804005057D
:1026800005060000700878887805070706000080B6
:1026900080B0C88888F00505050600007080808835
:1026A00070050707060000080868988888780505FF
:1026B000050600007088F8807005070706000030E6
:1026C00048E0404040400506060600FF70888878D4
:1026D00008700507070600008080B0C88888880158
:1026E00007070602008000808080808003080806BB
:1026F00001FF200020202020A04004070706000042
:10270000808090A0C0A090030707060100C0404051
:10271000404040E0050505060000D0A8A8A8A8058F
:102720000505060000B0C888888805050506000074
:1027300070888888700506060600FFF08888F0809B
:10274000800506060600FF788888780808050505D4
:10275000060000B0C8808080050505060000708076
:102760007008F00407070600004040E04040403099
:102770000505050600008888889868050505060097
:102780000088888850200505050600008888A8A8CC
:1027900050050505060000885020508805060606ED
:1027A00000FF888888780870050505060000F81085
:1027B0002040F803070706010020404080404020E9
:1027C0000107070602008080808080808003070761
:1027D00006010080404020404080050202060002C1
:1027E00068900000000600000000000600000000E5
:1027F00000060000000000060000000000060000C7
:1028000000000006000000000006000000000006B6
:1028100000000000000600000000000600000000AC
:102820000006000000000006000000000006000096
:102830000000000600000000000600000000000686
:10284000000000000006000000000006000000007C
:102850000006000000000006000000000006000066
:102860000000000600000000000600000000000656
:10287000000000000006000000000006000000004C
:102880000006000000000006000000000006000036
:102890000000000600000000000600000000000626
:1028A0000000000000060000000000060000010714
:1028B00007060200800080808080800507070600F0
:1028C000002070A8A0A8702005070706000030406F
:1028D00040E04050A805050506000088705070884B
:1028E000050707060000885020F820F82001070798
:1028F00006020080808000808080050808060000B5
:102900003048205050209060030101060107A005C7
:102910000707060000F888B8B8B888F80507070662
:102920000001700878887800F80505050600012880
:1029300050A05028050303060001F808080202020F
:102940000602064080050707060000F888A8889858
:10295000A8F8050101060006F80404040600036057
:102960009090600507070600002020F8202000F85E
:1029700004050506000360902040F00305050600ED
:1029800003E020E020E00202020602064080050883
:10299000080600FF8888888898E880800507070671
:1029A000000078989878181818020202060202C0EF
:1029B000C00202020602FF40800305050600034034
:1029C000C04040E005070706000170888888700055
:1029D000F8050505060001A0502850A005070706C8
:1029E00000008890A858B808080507070600008866
:1029F00090B848982038050808060000C040C04834
:102A0000D838080805070706000020002040808805
:102A1000700508080600004020007088F8888805C6
:102A200008080600001020007088F888880508084B
:102A30000600002050007088F88888050808060005
:102A4000006890007088F888880508080600005023
:102A500000708888F8888805080806000020502043
:102A60007088F888880507070600003860A0B8E07D
:102A7000A0B80508080600FF708880808870206074
:102A8000050808060000402000F880F080F80508DE
:102A900008060000081000F880F080F80508080615
:102AA0000000205000F880F080F8050707060000BD
:102AB0005000F880F080F80308080601008040000C
:102AC000E0404040E0030808060100204000E040EC
:102AD0004040E003080806010040A000E0404040FC
:102AE000E0030707060100A000E0404040E00507C2
:102AF00007060000704848E84848700508080600C6
:102B00000068900088C8A89888050808060000405A
:102B100020708888888870050808060000102070DA
:102B20008888888870050808060000205000708892
:102B300088887005080806000068900070888888FA
:102B400070050808060000500070888888887005A5
:102B5000050506000188502050880508080600FF7A
:102B60001070A8A8A8A8704005080806000040201A
:102B700088888888887005080806000010208888E2
:102B8000888888700508080600002050008888881A
:102B900088700508080600005000888888888870BA
:102BA0000508080600001020885020202020050974
:102BB000090600FFC040704848704040E004080823
:102BC0000601FF609090A09090E080050808060044
:102BD000004020007008788878050808060000107A
:102BE000200070087888780508080600002050004A
:102BF000700878887805080806000068900070085A
:102C000078887805070706000050007008788878F3
:102C1000050808060000205020700878887805060E
:102C200006060000D02878A0A8500506060600FF7A
:102C30007080887020600508080600004020007041
:102C400088F880700508080600001020007088F8D9
:102C500080700508080600002050007088F8807019
:102C600005070706000050007088F8807003080808
:102C700006010080400040C04040E0030808060113
:102C80000020400040C04040E0030808060100402A
:102C9000A00040C04040E0030707060100A000403C
:102CA000C04040E0050707060000A040A01078885B
:102CB00070050808060000689000B0C8888888057C
:102CC0000808060000402000708888887005080801
:102CD000060000102000708888887005080806002B
:102CE0000020500070888888700508080600006879
:102CF00090007088888870050707060000500070F3
:102D0000888888700505050600012000F800200568
:102D100007070600FF1070A8A8A87040050808065D
:102D20000000402000888888986805080806000090
:102D30001020008888889868050808060000205040
:102D40000088888898680507070600005000888872
:102D50008898680509090600FF102000888888F80F
:102D600008700407070601FFC04060506040E0059E
:102D700008080600FF500088888878087000060957
:102D800000FE000000000001090008FE0000050828
:102D90000806000040F0C8888898781005080806E2
:102DA0000000C0F88888888888F8050505060001B5
:102DB0002030F830200508080600002070F8202098
:102DC0002020E00509090600FF2070A8A8B888881F
:102DD00070200509090600FFE080C0B0A82830284F
:102DE000280509090600FFF8A88888888888A8F8B7
:102DF000050A0A0600FE205050505088A8A8887086
:102E000003030306000340A0400000000000000090
:102E100000000000007FFFE0000000000000000054
:102E2000000000007000E000000000000000000052
:102E300000000061F86000000000000000000000D9
:102E4000000041F820000000000000000000000029
:102E50000040F02000000000000000000000000022
:102E6000406020000000000000000000000000584A
:102E700001A07F80000000000000004104005C63AE
:102E8000A0FFC0000000000000002082005EF7A04C
:102E9000FFC0000000000000002082005EF7A0FFDD
:102EA000C0000000000000004104005C63A07F80BF
:102EB000000000000000008208005801A07F800090
:102EC000000000000001041000406020FFC000006E
:102ED000000000000104100040F020FFC0000000CE
:102EE0000000000082080041F820FFC00000000040
:102EF00000000041040061F8603F00000000000095
:102F000000000000007000E01E0000000000000053
:102F100001FFFF807FFFE00C0000000000000001C7
:102F2000FFFF800000000000000000000000000023
:102F300000007FFFE0000000000000000000000033
:102F4000007000E000000000000000000000000031
:102F5000630C60000000000000000000000000475B
:102F60000E200000000000000000000000004F0FD5
:102F7000200000000000000000000000005F0FA023
:102F80000000000000000000000000005E07A07FBD
:102F90008000000000000000410400406020FFC0ED
:102FA0000000000000000020820040F020FFC00070
:102FB00000000000000020820040F020FFC0000060
:102FC00000000000004104004060207F80000000FD
:102FD000000000008208005E07A07F800000000063
:102FE0000000010410005F0FA0FFC00000000000FF
:102FF00000010410004F0F20FFC00000000000007F
:1030000000820800470E20FFC00000000000000002
:10301000410400630C603F0000000000000000005D
:1030200000007000E01E0000000000000001FFFF33
:10303000807FFFE00C0000000000000001FFFF8027
:103040000000000000000000000000000000000080
:103050000000000000000000000000000000000070
:103060000000000000000000000000000000000060
:103070000000000000000000000000000000000050
:103080000000000000000000000000000000000040
:103090000000000000000000000000000000000030
:1030A0000000000000000000000000000000000020
:1030B0000000000000000000000000000000000010
:1030C0000000000000000000000000000000000000
:1030D00000000000000000000000000000000000F0
:1030E00000000000000000000000000000000000E0
:1030F00000000000000000000000000000000000D0
:1031000000000000000000000000000000000000BF
:1031100000000000000000000000000000000000AF
:10312000000000000000000000000000000000009F
:10313000000000000000000000000000000000008F
:10314000000000000000000000000000000000007F
:10315000000000000000000000000000000000006F
:10316000000000000000000000000000000000005F
:10317000000000000000000000000000000000004F
:10318000000000000000000000000000000000003F
:10319000000000000000000000000000000000002F
:1031A000000000000000000000000000000000001F
:1031B000000000000000000000000000000000000F
:1031C00000000000000000000000000000000000FF
:1031D00000000000000000000000000000000000EF
:1031E00000000000000808E00F1E6670E098070766
:1031F00066000000000818E00E0EE771E0980F0767
:10320000E7010000001C78E01C87E773E0981F8747
:10321000E7030000001CF8E09CC78371E0181CC79E
:10322000830100000038E0E1C8E30170E0181CE70A
:10323000010000000078C0E3C0E10070E0181CE766
:1032400000000000007388E7E0E00070E0981FE7EE
:103250000000000080F318FFE0E00070E0980FE746
:103260000000000080E338FE60E00070E09807E7AF
:1032700000000000C0F339FC60E00070E01818E7BF
:1032800000000000C0F939F860C081E070181CC768
:1032900081000000E0F93BF060C0E7E379981FC7C8
:1032A000E7030000E0803BC06080E7C339980F87E8
:1032B000E703000060803F806000E78019980707FF
:1032C000E7000000000000000000200000000000F7
:1032D00020000000000000000000000000000000CE
:1032E00000000000000000000000000000000000DE
:1032F00000000000000000000000000000000000CE
:1033000000000000000000000000000000000000BD
:1033100000000000000000000000000000000000AD
:10332000000000000000000000000000000000009D
:10333000000000000000000000000000000000008D
:10334000000000000000000000000000000000007D
:10335000000000000000000000000000000000006D
:10336000000000000000000000000000000000005D
:10337000000000000000000000000000000000004D
:10338000000000000000000000000000000000003D
:10339000000000000000000000000000000000002D
:1033A000000000000000000000000000000000001D
:1033B000000000000000000000000000000000000D
:1033C00000000000000000000000000000000000FD
:1033D00000000000000000000000000000000000ED
:1033E00000000000000000000000000000000000DD
:1033F00000000000000000000000000000000000CD
:1034000000000000000000000000000000000000BC
:1034100000000000000000000000000000000000AC
:10342000000000000000000000000000000000009C
:10343000000000000000000000000000000000008C
:1034400000000000000A0B02090C0D0E080703041F
:10345000010000000000000000000000000000006B
:10346000000000000000000000000000000000124A
:10347000111000000000000000000000000000002B
:1034800000000000000000000001021020200808D9
:1034900010204010204080020102010804020101B6
:1034A000020408102040808040201008040201809F
:1034B00004020180402010080402010804020101F6
:1034C00002040810204080010204081020408005FA
:1034D000050505070508080808020202020A0A088D
:1034E00008040404040101010101010101030303B3
:1034F0000303030303040707070C0C0C0C0C0C0C50
:103500000C0202020206060606060606060B0B0B56
:103510000B0B0B0B0B000020002300260029002CB6
:10352000002F003200000100000301060109010024
:10353000002200250028002B002E0031003400025C
:10354000010000050108010B0100002100240027F3
:10355000002A002D003000330001010000040107A3
:10356000010A014E414E494E495459494E46CDCC6F
:10357000CC3D0AD7233C17B7D13877CC2B32959561
:10358000E6241FB14F0A000020410000C84200405D
:103590001C4620BCBE4CCA1B0E5AAEC59D74784C4E
:1035A00043883BDE964C11241FBECFEFD1E2DEBF35
:1035B000CDBF00E00CBF13E0A0E0B2E0EAE4F4EF1E
:1035C00001E00BBF02C007900D92AE3AB107D9F7E8
:1035D00024E1AEEAB3E001C01D92A732B207E1F7E1
:1035E00015E3C4EAD5E300E006C022970109FE0115
:1035F0000BBF0E9496F2CE39D10780E00807A9F7E9
:103600000E940BEE0C9414FA0C9400001F920F927F
:103610000FB60F9211240BB60F922F933F938F93F7
:103620009F93EF93FF932091C6009FB7F894E0918A
:103630002E0481E08E0F8F7730912F04831731F0A5
:10364000F0E0E255FC4F208380932E049FBFFF9152
:10365000EF919F918F913F912F910F900BBE0F9003
:103660000FBE0F901F9018959B01AC01211581EEA4
:1036700038074105510549F182E08093C00060E0C0
:1036800079E08DE390E00E944FF221503109410929
:103690005109CA01B90122E030E040E050E00E9447
:1036A0004FF23093C5002093C4008091C100806127
:1036B0008093C1008091C10088608093C100809197
:1036C000C10080688093C10008951092C00020E17D
:1036D00030E0E7CF3FB7F89420912F0480912E047B
:1036E000821759F0E22FF0E0E255FC4F808190E024
:1036F0002F5F2F7720932F0402C08FEF9FEF3FBFE4
:1037000008952FB7F89480912E0490912F042FBF25
:10371000891B8F7708958FB7F89490912F04909319
:103720002E048FBF08959091C00095FFFCCF809329
:10373000C6000895AF92BF92CF92DF92EF92FF92B0
:103740000F931F93CF93DF93CDB7DEB7A0970FB63C
:10375000F894DEBF0FBECDBF6115710581059105DF
:10376000A9F1B12CC42ED12CE12CF12CAA24A394C4
:10377000AB0C01E010E00C0F1D1F0B0D111DB7FC71
:103780001A95A70196010E942DF2F8016083B901F4
:10379000CA01611571058105910511F41B2D11C038
:1037A000BA2CE4CFE1E0F0E0EC0FFD1FE10FF11DDA
:1037B00017FDFA9580818A3038F490E3890FB3DFE2
:1037C00011501F3F79F714C097E3F8CF80E3A0961C
:1037D0000FB6F894DEBF0FBECDBFDF91CF911F9122
:1037E0000F91FF90EF90DF90CF90BF90AF909BCF65
:1037F000A0960FB6F894DEBF0FBECDBFDF91CF917C
:103800001F910F91FF90EF90DF90CF90BF90AF90FE
:1038100008954115510511F4862F85CF8BCFAB014B
:10382000682F70E080E090E0F4CFAB01BC0180E055
:1038300090E0EFCFCF92DF92EF92FF926B017C018D
:1038400097FF0AC08DE26FDFF094E094D094C094AB
:10385000C11CD11CE11CF11C4AE0C701B601FF905C
:10386000EF90DF90CF9066CF4115510511F4862F70
:103870005ACF4A30510509F4DDCF5CCFAB01BC0112
:10388000882777FD8095982FEFCF8DE04CDF8AE079
:103890004ACFAB01BC0180E090E0BBDFF6CF8F9256
:1038A0009F92AF92BF92CF92DF92EF92FF92CF930F
:1038B0006B017C01B42E20E030E0A9010E94F3EE00
:1038C00087FF06C08DE22FDFF7FAF094F7F8F09447
:1038D000C0E060E070E080E09FE3CB1541F02DECAC
:1038E0003CEC4CEC5DE30E9431F1CF5FF6CF9B01E5
:1038F000AC01C701B6010E941AEE6B017C010E9467
:1039000067EF4B015C014AE015DFCC2381F1C50173
:10391000B4010E9493EF9B01AC01C701B6010E9464
:1039200019EE6B017C018EE2FEDE20E030E040E229
:1039300051E4C701B6010E9431F16B017C010E9484
:1039400062EF4B01AA2497FCA094BA2CC501B401E4
:1039500071DFC501B4010E9495EF9B01AC01C70165
:10396000B6010E9419EE6B017C01C150F1F6CF91B6
:10397000FF90EF90DF90CF90BF90AF909F908F908F
:1039800008958DCF809107078130B9F40E946D961C
:103990005F9A1092DE068A9A1092DF069FB7F8941B
:1039A000809108018160809308019FBF1092E0061A
:1039B000129A0E949B67109207070895CF92DF9298
:1039C000EF92FF920F931F93CF93DF93EC010E942E
:1039D00067EB0E811F8128853985011511052105A9
:1039E000310559F53C853323A9F12A8531503C87AF
:1039F00031E0320F3A874D85341301C01A86FE013B
:103A000034E0239FE00DF11D1124068517852089E0
:103A100031890A831B832C833D836B017C01C00E9B
:103A2000D11EE11CF11CCE82DF82E886F9868C81F2
:103A30009D81892B79F0409A0DC06B017C01C01AE1
:103A4000D10AE20AF30AF7FC05C040981E821F82E1
:103A500018861986DF91CF911F910F91FF90EF90FB
:103A6000DF90CF9008950E9467EB609303057093F9
:103A7000040580930505909306050895CF92DF9283
:103A8000EF92FF920F931F93CF93DF93EB01FC0113
:103A900060817181828193812CE3C22ED12CE12C33
:103AA000F12CA70196010E942DF2162F072FCA01B3
:103AB000B901A70196010E942DF2F62EE72ECA0148
:103AC000B90128E130E040E050E00E942DF2FB0116
:103AD000C9016DE671E00E9406F29B014F2D5E2D3B
:103AE00021153105D9F00F931F93EF92FF92FF93A9
:103AF000EF939F938F933F932F938AE897E09F9341
:103B00008F93DF93CF930E9401F78DB79EB70E96E8
:103B10000FB6F8949EBF0FBE8DBF5BC00097C9F073
:103B20000F931F93EF92FF92FF93EF939F938F93C7
:103B30008AE797E09F938F93DF93CF930E9401F7DB
:103B4000EDB7FEB73C960FB6F894FEBF0FBEEDBFC3
:103B500040C03097B9F00F931F93EF92FF92FF93FD
:103B6000EF938EE697E09F938F93DF93CF930E941E
:103B700001F78DB79EB70A960FB6F8949EBF0FBE99
:103B80008DBF27C0452BA9F00F931F93EF92FF9293
:103B900086E697E09F938F93DF93CF930E9401F780
:103BA000EDB7FEB738960FB6F894FEBF0FBEEDBF67
:103BB00010C00F931F9382E697E09F938F93DF933C
:103BC000CF930E9401F70F900F900F900F900F90DE
:103BD0000F90DF91CF911F910F91FF90EF90DF90A9
:103BE000CF90089581548A3148F5482F50E0FA016A
:103BF00033E0F595E7953A95E1F7E652F44F2081E9
:103C000030E0877002C0359527958A95E2F720FF4E
:103C100015C0FA01E054F44F2081222339F080913D
:103C2000E50B9091E60B820F911D02C080E090E0C1
:103C30009093E20B8093E10B81E0089580E008957A
:103C4000D1DF882339F081E02091E10B3091E20B44
:103C5000232B09F480E008951F93CF93DF93809185
:103C6000E10B9091E20B009701F1FC01EF01119142
:103C7000212F2F7D99F0153411F01536B9F71882E0
:103C800060E070E08091E10B9091E20B0E949AF26B
:103C90001883562F472F382F292F0BC060E070E074
:103CA000DF91CF911F910C949AF250E040E030E008
:103CB00020E0652F742F832F922FDF91CF911F91DA
:103CC00008958091E10B9091E20B009731F04AE06A
:103CD00050E060E070E00C9402F460E070E0CB0132
:103CE00008958091E10B9091E20B009731F04AE04A
:103CF00050E060E070E00C9433F560E070E0CB01E0
:103D00000895DFDF97FD0CC0DCDF6F3F7105810593
:103D1000910509F014F4D5DF01C06FEF862F0895E7
:103D200080E008958091E10B9091E20B892B39F0AE
:103D3000E8DF91E0811101C090E0892F089581E0D2
:103D40000895EF92FF920F931F93CF93DF93EC01AF
:103D50007B018A016C854D8564130AC0E881F98175
:103D60000190F081E02DCE0119950E94C09BF2CF09
:103D7000F70120813181F801808191815B85FE010D
:103D800074E0579FE00DF11D11243E96318320838E
:103D9000938382836F5F6C8781E0850F841711F0B6
:103DA0008B8701C01B86DF91CF911F910F91FF90F0
:103DB000EF900895AF92BF92CF92DF92FF920F9350
:103DC0001F93CF93DF9300D01F92CDB7DEB7F82EAD
:103DD000662351F010923E0410923A0410923B0474
:103DE00010923C0410923D040E9467EB00913A044B
:103DF00010913B0420913C0430913D045B016C0127
:103E0000A01AB10AC20AD30AD7FC40C0F7FE05C007
:103E100004EC19E020E030E015C0E0913E042F2DC5
:103E2000332727FD30952C5F3F4F4E2F552747FDF9
:103E300050952417350754F1EF1554F300E911E0BC
:103E400020E030E0DC01CB01800F911FA21FB31FE7
:103E500080933A0490933B04A0933C04B0933D04B8
:103E600080ED97E09A8389838CE291E09C838B8339
:103E7000AE014F5F5F4FBE016D5F7F4F83ED94E0FA
:103E800060DF80913E048F5F80933E040F900F901F
:103E90000F900F90DF91CF911F910F91FF90DF90C6
:103EA000CF90BF90AF900895EAE0F1E0808180620A
:103EB00080839FB7F894EBE0F1E080818F7D808371
:103EC0009FBF089520E030E042E852E460911E1266
:103ED00070911F1280912012909121120E94F6F091
:103EE0009FB718162CF4F89480910B01806204C0DF
:103EF000F89480910B018F7D80930B019FBF0895F3
:103F000020E037E04CEF56E068EF76E084EF96E093
:103F10000C946E86AF92BF92CF92DF92EF92FF9297
:103F20000F931F93CF93DF9300D01F92CDB7DEB7CF
:103F300079015C01AA0CBB1CAA0CBB1CC5018C50EE
:103F4000994F6C01FC011082118212821382498305
:103F50005A836B837C83D4DF49815A816B817C8156
:103F6000F6014083518362837383C0900B0520E088
:103F700030E0A901B801C7010E94F3EE811108C029
:103F8000F501EE57F54FE590F5900591149104C0B9
:103F9000C801D7017C018D0120E037E04CEF56E0ED
:103FA00068EF76E084EF96E00E94837B0E94829027
:103FB0001092BB0B0F900F900F900F90DF91CF914D
:103FC0001F910F91FF90EF90DF90CF90BF90AF9037
:103FD00008958091D3068093D4061092D506089553
:103FE0009091D306E92FF0E0E154FB4F80839F5F6F
:103FF000943018F49093D30602C01092D3068091A7
:10400000D5068F5F8093D5060895CF93FC01C62F08
:1040100080818B3399F08091D506843078F420919B
:10402000D30630E6239FC0011124BF018D5A9A4F59
:104030000E94DDF68C2FD4DF81E001C080E0CF91BB
:1040400008950F931F93CF93DF93EC01DEDF882356
:10405000B1F0E1E9FEE084918F010F5F1F4F8823EB
:1040600019F061DBF801F7CFBE0186E39AE00E9408
:10407000478882E258DB8AE056DB81E001C080E0BD
:10408000DF91CF911F910F910895DF92EF92FF92F0
:104090000F931F93CF93DF93CDB7DEB76E970FB615
:1040A000F894DEBF0FBECDBF6091510570915205EF
:1040B0006115710559F14DE150E08E010F5F1F4F01
:1040C000C8010E946CF61E8EF8017F01E01AF10A09
:1040D000D190DD2019F08AE0D812F7CFF801EE0D6B
:1040E000FF1D108260E0C801ACDF882379F0DD207D
:1040F000B1F08FEFE81AF80A8091510590915205BE
:104100008E0D9F1D909352058093510581E0209163
:10411000510530915205232B29F480E003C080E043
:1041200090E0F0CF6E960FB6F894DEBF0FBECDBF15
:10413000DF91CF911F910F91FF90EF90DF90089545
:104140009093520580935105A0CF60E08FE40E94C8
:1041500045ED61E08AE30E9445ED8C980895529800
:104160005A9A08958F929F92AF92BF92CF92DF9208
:10417000EF92FF920F931F93CF93DF93CDB7DEB7EC
:1041800028970FB6F894DEBF0FBECDBF80910A0707
:10419000882309F482C18091D506811102C0109252
:1041A0004004992493944091860950918709609125
:1041B0008809709189098091820990918309A09161
:1041C0008409B0918509481759076A077B0708F4E5
:1041D000912C00E010E0BB24B394F0E6AF2E909158
:1041E000D50680910507943008F0AEC09110ACC0A0
:1041F000909140049111A8C08111A6C08091DD0862
:104200009091DE08A091DF08B091E00880938609C4
:1042100090938709A0938809B093890985ED98E068
:104220000E944F51882E99249394C0908609D09073
:104230008709E0908809F09089094091820950919E
:1042400083096091840970918509C416D506E60634
:10425000F706C0F4912C8F3F2FEF920749F14AE007
:10426000841709F442C0ADE08A1709F43EC0B3E2F6
:104270008B1719F02AE382134DC020913F042111BE
:1042800049C02EC0E9EEF8E084917F014FEFE41AB7
:10429000F40A882319F047DAF701F6CF88E097E0AF
:1042A0000E94926661E088E097E00E94036218C075
:1042B000E7E9FEE084917F019FEFE91AF90A88237C
:1042C00019F031DAF701F6CFEAEDF8E084917F01D9
:1042D000AFEFEA1AFA0A882319F025DAF701F6CFC8
:1042E000B3E28B1202C0B092400410923F04011559
:1042F000110509F474CF8091D306F801A89EE00D52
:10430000F11D1124ED5AFA4F108280E069DE00E0C1
:1043100010E065CF0F35110508F061CF2BE3821255
:1043200002C0B0923F0420913F04211158CF9091D8
:10433000D306F801A99EE00DF11D1124ED5AFA4FA4
:1043400080830F5F1F4F4BCF882309F4A6C0E3E59E
:10435000F5E023EB35E083E196E063E776E0119248
:10436000D9011D929D01DC011D92CD01DB011D9241
:10437000BD01B5E0E33BFB0791F7C0900B056091F1
:104380001B0270911C02882777FD8095982F0E9450
:1043900095EF19821A821B821C8200E010E020E84F
:1043A00030EC0D831E832F8338877B018C0127EA35
:1043B0003BE04BEA5BE0BE016F5F7F4FCE010596AD
:1043C0000E94837B67EA7BE083E090E00E942A877B
:1043D0008091B30B9091B40BA091B50BB091B60B3B
:1043E0008093E4069093E506A093E606B093E70673
:1043F0008091AF0B9091B00BA091B10BB091B20B2B
:104400008093E8069093E906A093EA06B093EB0642
:104410002AE939E949E95EE36091FC067091FD06FD
:104420008091FE069091FF060E94F6F01816BCF4EB
:104430002DEC3CEC4CEC5DE36091AB0B7091AC0B64
:104440008091AD0B9091AE0B0E9419EE6093FC062B
:104450007093FD068093FE069093FF0610C0809136
:10446000AB0B9091AC0BA091AD0BB091AE0B8093C8
:10447000FC069093FD06A093FE06B093FF0685E52B
:1044800095E5A5E0B2E480931D0290931E02A093EF
:104490001F02B09320021092050728960FB6F894D9
:1044A000DEBF0FBECDBFDF91CF911F910F91FF9067
:1044B000EF90DF90CF90BF90AF909F908F90089536
:1044C000FF920F931F93CF93DF93EC0184E5B8DB4A
:1044D000882321F116DCF82E1816ECF4E1E9FEE051
:1044E00084918F010F5F1F4F882319F01CD9F801A9
:1044F000F7CF8DE418D96AE070E0CE0196D96F2D20
:10450000772767FD709587EC98E00E946F888AE0B6
:104510000AD981E008C08093D20404C080910B05C1
:104520008093D20480E0DF91CF911F910F91FF9093
:104530000895AF92BF92CF92DF92EF92FF920F93C6
:104540001F93CF93DF93EC018C01000F111F000F1D
:10455000111FF801EA5DFA4F20E030E0A901608107
:104560007181828193810E941AEEF801EE5CFA4F0C
:1045700020813181428153810E941AEE6B017C01BE
:10458000F801E65EFA4F60837183828393830A5851
:10459000154FF80165917591859194918E01000FE9
:1045A000111F000F111F9801225F3A4F5901A701F7
:1045B00096010E941AEEF5016083718382839383D2
:1045C0000659154FF8016591759185919491CC0F1D
:1045D000DD1FCC0FDD1FC45FDD4FA70196010E94D8
:1045E0001AEE688379838A839B83DF91CF911F9131
:1045F0000F91FF90EF90DF90CF90BF90AF90089514
:104600004F925F926F927F92AF92BF92CF92DF9262
:10461000EF92FF920F931F93CF93DF93EC01FC0176
:10462000ED5BF54F6491FC01EE0FFF1FEE0FFF1FD6
:10463000EE5AF54F4590559065907490772767FD39
:104640007095872F972F0E9495EF6B017C0120E0DA
:1046500030E040EC5FE3C301B2010E9431F1A701F9
:1046600096010E9431F1AB01BC0100E010E098011D
:10467000CE0150DCFE01EE0FFF1FEE0FFF1FEA5BC5
:10468000F54F2591359145915491C701B6010E948E
:1046900031F16B017C0120E030E0A9010E94F3EED2
:1046A0005E01AA0CBB1CAA0CBB1C882309F445C0E4
:1046B00000E010E09801B701A6017058CE012ADC95
:1046C000FE01ED57F74F6491611117C0E1E9FEE07B
:1046D00084918F010F5F1F4F882319F024D8F801B0
:1046E000F7CFE1E6F8E084918F010F5F1F4F882339
:1046F00019F019D8F801F7CF6AE0F501EE57F54F38
:10470000459055906590749070E080E090E00E9434
:1047100095EF9B01AC01C301B2010E94FAEE2B019F
:104720003C01A7019601C701B6010E941AEEAB0138
:10473000BC0193018201CE01EDDBFE01EF51F94F87
:1047400081E08083FE01E252F94F8083F501EE5C47
:10475000FA4F1082118212821382CE01EADEF50135
:10476000E25AF54F6591759185919491CC0FDD1FBB
:10477000CC0FDD1F8E010C50194FFE01E65EFA4F83
:1047800020813181428153810E941AEEF8016083B9
:10479000718382839383B4DBCC51D94FF80180813C
:1047A0009181A281B38188839983AA83BB83DF919E
:1047B000CF911F910F91FF90EF90DF90CF90BF901E
:1047C000AF907F906F905F904F900895CF92EF924F
:1047D000FF920F931F93E0901D02F0901E02009134
:1047E0001F0210912002C0900B0520E037E04CEF33
:1047F00056E068EF76E084EF96E00E94837B1F919D
:104800000F91FF90EF90CF900895CF92EF92FF928B
:104810000F931F93C0900B057B018C0120EF36E0B6
:104820004CEE56E068EE76E084EE96E00E94837BE4
:104830001F910F91FF90EF90CF90089580E1E4EEEB
:10484000F6E0A4EFB6E001900D928A95E1F70895A5
:1048500080E1E4EFF6E0A4EEB6E001900D928A95D7
:10486000E1F708954F925F926F927F928F929F929D
:10487000AF92BF92CF92DF92EF92FF920F931F936E
:10488000CF93DF936C017B018A01E90180901D02C7
:1048900090901E02A0901F02B0902002FA01208189
:1048A0003181428153816091FC067091FD068091B7
:1048B000FE069091FF060E94F3EE87FF2CC0488011
:1048C00059806A807B8020E030E0A901B201C301F9
:1048D0000E94F3EE811107C0EAE8FAE08591959114
:1048E000A591B49102C0C201D30180931D0290939F
:1048F0001E02A0931F02B0932002F80180819181D3
:10490000A281B3818093FC069093FD06A093FE06DE
:10491000B093FF065BDF488059806A807B8020E08F
:1049200030E0A901B201C3010E94F3EE811105C07C
:1049300055E545E535E023E404C0542D452D362DDD
:10494000272D852F942FA32FB22F80931D02909394
:104950001E02A0931F02B0932002F6018081918174
:10496000A281B3818093F4069093F506A093F60696
:10497000B093F706F70180819181A281B381809382
:10498000F8069093F906A093FA06B093FB061EDF93
:10499000F80120813181428153816091FC06709140
:1049A000FD068091FE069091FF060E94F6F0181613
:1049B00084F5D880E980FA80CB8120E030E0A9013D
:1049C0006D2D7E2D8F2D9C2F0E94F3EE811107C03F
:1049D000EAE8FAE085919591A591B49104C08D2DF6
:1049E0009E2DAF2DBC2F80931D0290931E02A0938D
:1049F0001F02B0932002F80180819181A281B381CE
:104A00008093FC069093FD06A093FE06B093FF06EC
:104A1000DDDE0E94829080921D0290921E02A09282
:104A20001F02B0922002DF91CF911F910F91FF9052
:104A3000EF90DF90CF90BF90AF909F908F907F903E
:104A40006F905F904F9008959B01AC0168EF76E006
:104A500084EF96E007CF9A014CEF56E003CFCF9258
:104A6000DF92EF92FF920F931F93CF93DF933BE080
:104A7000E32E33E0F32E04EE16E0C4EFD6E047E475
:104A8000C42E45E0D42EF70181917F01ABD8882355
:104A9000C9F0E2D8F6012081211104C020910A0555
:104AA000222329F0288139814A815B8103C020E0DB
:104AB00030E0A9010E941AEEF801608371838283BD
:104AC000938309C088819981AA81BB81F801808381
:104AD0009183A283B3830C5F1F4F2496FFEFCF1AFD
:104AE000DF0A8FE0E81683E0F80669F686E4A8D8C6
:104AF0008823B9F0B1D820E030E0A9010E94F6F097
:104B000018167CF4A9D820E030E040E752E40E9477
:104B1000FAEE60931D0270931E0280931F02909321
:104B20002002DF91CF911F910F91FF90EF90DF90C6
:104B3000CF900895CF92DF92EF92FF92CF93DF93C1
:104B40000E9467EB6B017C0180910602882309F4C7
:104B500068C02091BD043091BE042115310509F4CF
:104B600060C08091B9049091BA04A091BB04B09147
:104B7000BC04B701A601481B590B6A0B7B0B77FDE0
:104B800063C02330310519F13CF4213031050CF4B8
:104B900048C0E1E9FEE007C02430310509F041C01A
:104BA000E1E9FEE02AC08491EF012196882321F0FB
:104BB0000E94931BFE01F7CFE5EBF8E08491EF0133
:104BC0002196882371F10E94931BFE01F7CFE1E942
:104BD000FEE08491EF012196882321F00E94931B2F
:104BE000FE01F7CFEEE9F8E08491EF0121968823EA
:104BF000C1F00E94931BFE01F7CF8491EF01219633
:104C0000882321F00E94931BFE01F7CFE6E8F8E02D
:104C10008491EF012196882321F00E94931BFE01CD
:104C2000F7CF2091060230E0A8EEB3E00E9471F2C7
:104C30006C0D7D1D8E1D9F1D6093B9047093BA0489
:104C40008093BB049093BC04DF91CF91FF90EF90D1
:104C5000DF90CF9008958C9A80910F148823D9F11A
:104C60000E942B688091A30B9091A40BA091A50B9F
:104C7000B091A60B85369105A105B1055CF00597AD
:104C8000A109B1098093A30B9093A40BA093A50B4A
:104C9000B093A60B4091A30B5091A40B6091A50B70
:104CA0007091A60B409386095093870960938809F9
:104CB0007093890985ED98E00E941C5281E08093F1
:104CC00005078093060710920F148FEF90E09093E2
:104CD0000D0580930C05669B0BC081E08093070750
:104CE00041E050E062EC7CE1809122020C9454E9B6
:104CF00008950F931F93CF93DF93CDB7DEB76997D6
:104D00000FB6F894DEBF0FBECDBF81EF94E00E94D6
:104D10001E926E8B7F8B888F998FBE016F5F7F4F46
:104D2000CE0146960E943E1D60E0CE0101960E9493
:104D300016D9E1E9FEE084918F010F5F1F4F8823B0
:104D400021F00E94931BF801F6CFBE016F5F7F4FE9
:104D50008EE997E00E9447888AE00E94931B69963B
:104D60000FB6F894DEBF0FBECDBFDF91CF911F917C
:104D70000F9108951F93CF93DF9380910A078111BC
:104D80000E948290C091E30BD091E40B80E50E94D9
:104D9000F21D882321F00E94921E182F01C010E0FE
:104DA00080910B07882349F1212F41E0BE0188E063
:104DB00097E00E94576383E50E94201E882381F0BC
:104DC0000E94611EAB01BC01409386095093870984
:104DD000609388097093890985ED98E00E941C52C0
:104DE00088E097E00E94F25F111107C081EF94E024
:104DF000DF91CF911F910C944B92DF91CF911F9136
:104E000008950F931F93CF93DF9383E50E94201E95
:104E1000882309F445C00E94811E082F80E50E9466
:104E2000201E882331F00E94611E77FD39C0EB01FE
:104E300002C0CDE0D0E08C2FEBE2F7E0949189172F
:104E400031F0319697E0E335F907C1F716C0E7E98D
:104E5000FEE08491EF012196882321F00E94931BAC
:104E6000FE01F7CFE3E5F7E08491EF012196882377
:104E7000B9F00E94931BFE01F7CF61E08C2F0E94D6
:104E800045ED602F8C2F0E947EED10E0B8018C2F35
:104E90000E942FEC299721F410930D0500930C0527
:104EA000DF91CF911F910F91089588E690E008DB84
:104EB000811147C08091040783FD43C083E50E94B0
:104EC000201E8823E1F10E942C1E0E9462EF709345
:104ED00017126093161280E00E9423960E942C1EE7
:104EE00020E030E04AEA52E40E94F3EE18164CF05B
:104EF00081EF94E00E94E89160E08FE197E00E94EA
:104F000026D90E942C1E20911E1230911F12409112
:104F10002012509121120E94F6F0181684F488EDA8
:104F200092E09F938F9385E197E09F938F931F92D9
:104F30000E943BDB0F900F900F900F900F900C94FE
:104F400013880895EF92FF920F931F93CF93DF93EF
:104F50001F92CDB7DEB78C017B0180E249830E94AE
:104F6000931B49814F3F11F482E401C084E50E9404
:104F7000931B8AE30E94931BF801608171818281F7
:104F8000938142E050E00E94C11CF70140815181B1
:104F9000628173818EE598E00F90DF91CF911F9130
:104FA0000F91FF90EF900C94A6880F931F93CF93CF
:104FB000DF93CDB7DEB728970FB6F894DEBF0FBEEC
:104FC000CDBF6091161270911712882777FD8095DA
:104FD000982F0E9495EF69837A838B839C838091BD
:104FE0001E1290911F12A0912012B09121128D8358
:104FF0009E83AF83B8874EEFBE016F5F7F4FCE01B8
:105000000596A0DF6091121270911312882777FD28
:105010008095982F0E9495EF69837A838B839C8378
:1050200080911A1290911B12A0911C12B0911D1226
:105030008D839E83AF83B8874FEFBE016F5F7F4F35
:10504000CE0105967FDFEAE5F8E084918F010F5FDE
:105050001F4F882321F00E94931BF801F6CF809107
:10506000D20490E00E9422936AE070E00E943E1C0D
:10507000E5E5F8E084918F010F5F1F4F882321F051
:105080000E94931BF801F6CF8FEF9FEF0E942293AF
:105090006AE070E00E943E1C28960FB6F894DEBFCE
:1050A0000FBECDBFDF91CF911F910F910895CF9289
:1050B000DF92EF92FF928091A604882379F10E94FB
:1050C00067EBC090A204D090A304E090A404F090F9
:1050D000A5046C197D098E099F0997FD1FC00E94C8
:1050E00067EB6B017C012091A60430E0A8EEB3E0F1
:1050F0000E9471F2C60ED71EE81EF91EC092A204CD
:10510000D092A304E092A404F092A5044EDF8AE0BA
:10511000FF90EF90DF90CF900C94931BFF90EF9057
:10512000DF90CF900895DF92EF92FF920F931F933D
:10513000CF93DF9383E50E94201E882319F00E94FD
:10514000811E01C080E080930407E1E9FEE08491C4
:10515000EF012196882321F00E94931BFE01F7CFD7
:10516000EEE0F7E08491EF012196882321F00E9480
:10517000931BFE01F7CF80910407882381F104E09F
:1051800017E0C0E0D0E020E08091040790E00C2E12
:1051900002C0959587950A94E2F780FF17C0DD2439
:1051A000D394D20E222319F08CE20E94931BF801B3
:1051B00025913491F90184917901FFEFEF1AFF0AEB
:1051C000882329F00E94931B9701F4CFD22E2196B9
:1051D0000E5F1F4FC530D10569F02D2DD5CFE0E012
:1051E000F7E08491EF012196882321F00E94931B20
:1051F000FE01F7CF8AE0DF91CF911F910F91FF90D1
:10520000EF90DF900C94931BCF93DF9383E50E9484
:10521000201E882351F00E94811E8D3308F08CE3FC
:1052200080930602DF91CF910895E1E9FEE0849139
:10523000EF012196882321F00E94931BFE01F7CFF6
:105240004091060250E060E070E087EC96E00E943A
:10525000E2888AE0DF91CF910C94931BCF93DF9388
:1052600083E50E94201E882319F00E94611E02C05F
:1052700060E070E0EB01DD27C230D105B8F0E7E96E
:10528000FEE08491EF012196882321F00E94931B78
:10529000FE01F7CFE3E8F4E08491EF012196882343
:1052A00009F44EC00E94931BFE01F6CF88E40E94D1
:1052B000201E8823A9F00E94611E6A3A71053CF005
:1052C000653081E078072CF064E071E002C06AEAA2
:1052D00070E0FE01EE0FFF1FE55FFB4E7183608300
:1052E00086E40E94201E882399F00E94611E6F3F71
:1052F000710519F014F06FEF70E0FE01EE0FFF1F63
:10530000ED5FFB4E77FF02C060E070E07183608369
:1053100082E40E94201E882399F00E94611E65305D
:10532000710534F0683871052CF067E870E002C050
:1053300065E070E0CC0FDD1FC95FDB4E79836883C9
:10534000DF91CF9108957F928F929F92AF92BF92FB
:10535000CF92DF92EF92FF920F931F93CF93DF9341
:105360000BE013E0C5E7DCE0712CF80181918F01BF
:105370000E94F21D882309F46CC0F3E07F1263C021
:105380000E942C1E6B017C0120E030E040EA51E4D9
:105390000E94F3EE87FF4EC0A70196016091810C39
:1053A0007091820C8091830C9091840C0E94FAEE93
:1053B0004B015C019B01AC0160912D0C70912E0C96
:1053C00080912F0C9091300C0E9431F160932D0C44
:1053D00070932E0C80932F0C9093300CA5019401A8
:1053E0006091910C7091920C8091930C9091940C1F
:1053F0000E9431F16093910C7093920C8093930C06
:105400009093940C6091610C7091620C8091630C8C
:105410009091640C0E9493EFA50194010E9431F1D8
:105420000E9467EF6093610C7093620C8093630C31
:105430009093640CC092810CD092820CE092830C09
:10544000F092840C06C00E942C1E688379838A83A4
:105450009B837394249684E0781287CFDF91CF9159
:105460001F910F91FF90EF90DF90CF90BF90AF9082
:105470009F908F907F900C94EF87CF93DF93E2E51E
:10548000F8E08491EF012196882321F00E94931B7C
:10549000FE01F7CF6091F4067091F5068091F60653
:1054A0009091F70642E050E00E94C11CEEE4F8E063
:1054B0008491EF012196882321F00E94931BFE0125
:1054C000F7CF6091F8067091F9068091FA069091F5
:1054D000FB0642E050E00E94C11CEAE4F8E084913F
:1054E000EF012196882321F00E94931BFE01F7CF44
:1054F0006091FC067091FD068091FE069091FF067A
:1055000042E050E00E94C11CE6E4F8E08491EF0123
:105510002196882321F00E94931BFE01F7CF609112
:10552000000770910107809102079091030742E004
:1055300050E00E94C11CDF91CF910C946791EF92D3
:10554000FF920F931F93CF93DF9300D01F921F9270
:10555000CDB7DEB78D830E94829040911D0250919D
:105560001E0260911F027091200240934D055093DE
:105570004E0560934F057093500520911B023091AA
:105580001C0230934C0520934B0524E630E0309309
:105590001C0220931B020E94331D91E09093BD0BCF
:1055A0008D81811118C088E50E94F21DF82E89E5D1
:1055B0000E94F21D182F8AE50E94F21DF11007C00B
:1055C000111110C0E12C882391F001E018C0082FC0
:1055D000112389F001C001E0102FEE24E394FF2491
:1055E000F3940DC0082FE12CFF24F39407C0F12C95
:1055F00000E011E004C0EE24E394F12C10E028D97F
:10560000111105C0E11003C0FF2009F43EC020E0E5
:1056100030E0A90160912205709123058091240555
:10562000909125050E941AEE6093EC067093ED06AA
:105630008093EE069093EF062091FC063091FD06D4
:105640004091FE065091FF060E94F6F0181654F4A1
:1056500019821A821B821C82BE016F5F7F4F8CEE03
:1056600096E0F2D9111105C0E11003C0F11007C096
:105670000CC080E090E00E9400231123B9F381E088
:1056800090E00E940023111102C0002321F082E06B
:1056900090E00E9400230E94801F8091BC0B8093A9
:1056A000BD0B80914D0590914E05A0914F05B09195
:1056B000500580931D0290931E02A0931F02B09389
:1056C000200280914B0590914C0590931C02809391
:1056D0001B020E94331D83E080934602CEDE0F90B2
:1056E0000F900F900F900F90DF91CF911F910F911E
:1056F000FF90EF9008958F929F92AF92BF92CF92BA
:10570000DF92EF92FF920F931F93CF93DF9300D01E
:105710001F92CDB7DEB785E40E94201EB82E8111FE
:1057200002C00E9482901BE0C12E13E0D12E02E342
:10573000E02E05E0F02E04EF16E0812C912CA12C38
:10574000F60181916F010E94201E882361F1F8010A
:10575000208131814281538129833A834B835C8349
:105760000E942C1EF80160837183828393832981B8
:105770003A814B815C81F3E08F16A9F00E9419EE0B
:105780009B01AC01F70160817181828193810E944C
:105790001AEEF7016083718382839383C4010E94B0
:1057A0009922AA24A394FFEF8F1A9F0A84E0E80E9F
:1057B000F11C0C5F1F4FE4E08E16910409F6AA203D
:1057C00019F00E94801F08C0BB2031F060E077E034
:1057D00083E090E00E942A870F900F900F900F9027
:1057E000DF91CF911F910F91FF90EF90DF90CF90BD
:1057F000BF90AF909F908F9040CECF93DF93E4E81F
:10580000F5E08491EF012196882321F00E94931BFB
:10581000FE01F7CFE6E7F5E08491EF0121968823BA
:1058200021F00E94931BFE01F7CFEFE5F5E0849194
:10583000EF012196882321F00E94931BFE01F7CFF0
:10584000EFE4F5E08491EF012196882321F00E9496
:10585000931BFE01F7CFEEE3F5E08491EF01219673
:10586000882321F00E94931BFE01F7CFEDE2F5E0C3
:105870008491EF012196882321F00E94931BFE0161
:10588000F7CFEEE1F5E08491EF012196882321F036
:105890000E94931BFE01F7CFE9E0F5E08491EF0150
:1058A0002196882321F00E94931BFE01F7CFE3EF9E
:1058B000F4E08491EF012196882321F00E94931B4C
:1058C000FE01F7CFEEEDF4E08491EF0121968823FD
:1058D00021F00E94931BFE01F7CFE1ECF4E08491EC
:1058E000EF012196882321F00E94931BFE01F7CF40
:1058F000E9EAF4E08491EF012196882321F00E94E7
:10590000931BFE01F7CFDF91CF910895CF93DF93E3
:1059100085E40E94F21D882379F00E94921E88235C
:1059200059F0E1E9FEE08491EF012196882321F00E
:105930000E94931BFE01F7CF81E40E94F21D882391
:1059400079F00E94921E882359F0E5EAF4E08491F0
:10595000EF012196882321F00E94931BFE01F7CFCF
:10596000C091E30BD091E40B8991882319F00E9438
:10597000931BFACF8AE0DF91CF910C94931B83E5C0
:105980000E94F21D8823D9F00E942C1EAB01BC019D
:105990004093390C50933A0C60933B0C70933C0C41
:1059A0004093310C5093320C6093330C7093340C51
:1059B0008BE594E00E94A6888AE00E94931B80E514
:1059C0000E94F21D882399F00E942C1EAB01BC019D
:1059D0004093390C50933A0C60933B0C70933C0C01
:1059E0008EE394E00E94A6888AE00E94931B82E5E1
:1059F0000E94F21D882399F00E942C1EAB01BC016D
:105A00004093350C5093360C6093370C7093380CE0
:105A10008FE194E00E94A6888AE00E94931B84E5AF
:105A20000E94F21D882399F00E942C1EAB01BC013C
:105A30004093310C5093320C6093330C7093340CC0
:105A400081E094E00E94A6888AE00C94931B08955C
:105A500083E50E94F21D882351F00E942C1E609362
:105A60003D0C70933E0C80933F0C9093400C84E56A
:105A70000E94F21D882351F00E942C1E60931D0C81
:105A800070931E0C80931F0C9093200C82E40E9454
:105A9000F21D882351F00E94711E6093410C709397
:105AA000420C8093430C9093440C88E50E94F21DB5
:105AB000882351F00E942C1E6093210C7093220CBD
:105AC0008093230C9093240C89E50E94F21D882377
:105AD00051F00E942C1E6093250C7093260C80932D
