:100000000C94AC1E0C9483ED0C94AEED0C94D9EDD5
:100010000C9404EE0C942FEE0C945AEE0C9485EE96
:100020000C94B0EE0C94DD1E0C94DD1E0C94DD1EC1
:100030000C94DD1E0C94DD1E0C94DD1E0C94DD1E54
:100040000C94DD1E0C94C6930C94DD1E0C94DD1EE6
:100050000C94DD1E0C94DD1E0C9425A20C94DBEE9A
:100060000C94DD1E0C94DF1E0C94DD1E0C94DD1E22
:100070000C94DD1E0C94DD1E0C94DD1E0C94DD1E14
:100080000C94DD1E0C94DD1E0C94DD1E0C94DD1E04
:100090000C94DD1E0C94DD1E0C94DD1E0C94DD1EF4
:1000A0000C94DD1E0C94DD1E0C94DD1E0C94DD1EE4
:1000B0000C94DD1E0C94DD1E0C94DD1E0C94DD1ED4
:1000C0000C94DD1E0C94DD1E0C94DD1E0C94DD1EC4
:1000D0000C94DD1E0C94DD1E0C94DD1E0C94DD1EB4
:1000E0000C94DD1EBDAAC6AACFAAD8AAE1AAFCAA72
:1000F00009AB12ABEAAAF3AA5DED27ED2FED3BEDBC
:1001000048ED69ED76ED10F015F01AF024F02EF0C0
:10011000A7F038F040F048F052F05CF066F075F06F
:100120007FF0A7F089F093F09DF0C8F0CBF0BAF023
:10013000BEF0C4F002F1CFF0D3F0D9F0DDF0E1F081
:10014000E7F0EBF0EFF002F1F5F0F9F0FDF0084A1E
:10015000D73B3BCE016E84BCBFFDC12F3D6C7431DB
:100160009ABD56833DDA3D00C77F11BED9E4BB4C32
:100170003E916BAAAABE000000803F05A84CCDB2FC
:10018000D44EB93836A9020C50B9918688083CA6DD
:10019000AAAA2ABE000000803F00446F6E6520734B
:1001A0006176696E672066696C652E0A004D32398A
:1001B000002020506C616E6E6572427566666572D5
:1001C00042797465733A20002046726565204D655A
:1001D0006D6F72793A2000436F6D70696C65643A97
:1001E000204E6F7620203920323031370A00207CB3
:1001F00020417574686F723A2028414E5943554228
:10020000494320466F75724D61782C2056312E304F
:10021000290A00323031372D30392D323220313237
:100220003A303000204C61737420557064617465FD
:10023000643A2000312E312E350A004D61726C690E
:100240006E0020536F667477617265205265736526
:10025000740A00205761746368646F672052657385
:1002600065740A002042726F776E206F7574205299
:10027000657365740A002045787465726E616C2040
:1002800052657365740A00506F77657255700A0085
:1002900073746172740A005072696E7465722068BA
:1002A000616C7465642E206B696C6C282920636115
:1002B0006C6C6564210A00D0A3D091D098D0A2D0F4
:1002C0009E2E004B494C4C2063617573656420621F
:1002D0007920746F6F206D75636820696E61637437
:1002E0006976652074696D65202D2063757272656D
:1002F0006E7420636F6D6D616E643A20004D363010
:10030000300020746F6F206C6F6E67206578747298
:100310007573696F6E2070726576656E7465640AB8
:100320000020636F6C6420657874727573696F6EFA
:100330002070726576656E7465640A006F6B00529A
:100340006573656E643A20004E6F206361736520AB
:100350006C696768740A00D09AD0BED180D180D011
:10036000B5D0BAD186D0B8D0B820D0BFD180D0B85F
:10037000D0BCD0B5D0BD004572723A20546F6F200A
:100380006661722100546F6F206661722066726F21
:100390006D207265666572656E636520706F696E4B
:1003A000740A0043290A0061626C656420286D6943
:1003B0006E2074656D702000436F6C6420657874E6
:1003C000727564657320617265200020643A0020B4
:1003D000693A0020703A00205A0020590058002045
:1003E000204D61783A2000205A0020590058002002
:1003F000204D696E3A2000D09ED182D0BAD0BB2E5B
:100400002000D092D0BAD0BB2E2000536F6674204B
:10041000656E6473746F70733A2000536574746909
:100420006E672054726176656C20416363656C650C
:10043000726174696F6E3A200053657474696E67F7
:10044000205265747261637420416363656C6572E8
:100450006174696F6E3A200053657474696E672029
:100460005072696E7420416363656C657261746972
:100470006F6E3A200053657474696E67205072691C
:100480006E7420616E642054726176656C204163E5
:1004900063656C65726174696F6E3A20004D31342A
:1004A0003520533C696E6465783E206F7574206F0B
:1004B000662072616E67652028302D31290A002F71
:1004C0002F20004361703A454D455247454E4359F0
:1004D0005F5041525345523A300A004361703A43EB
:1004E0004153455F4C494748545F4252494748543D
:1004F0004E4553533A300A004361703A544F4747D0
:100500004C455F4C49474854533A300A00436170A8
:100510003A534F4654574152455F504F5745523A10
:10052000300A004361703A4C4556454C494E475F8E
:10053000444154413A300A004361703A5A5F505284
:100540004F42453A300A004361703A4155544F4C8E
:100550004556454C3A300A004361703A5052494E74
:10056000545F4A4F423A310A004361703A50524F49
:1005700047524553533A300A004361703A4155544B
:100580004F5245504F52545F54454D503A310A0036
:100590004361703A454550524F4D3A310A00464941
:1005A000524D574152455F4E414D453A4D61726C37
:1005B000696E20312E312E352028476974687562A6
:1005C0002920534F555243455F434F44455F555291
:1005D0004C3A68747470733A2F2F67697468756247
:1005E0002E636F6D2F4D61726C696E4669726D7707
:1005F0006172652F4D61726C696E2050524F544F7D
:10060000434F4C5F56455253494F4E3A312E30209E
:100610004D414348494E455F545950453A344D6128
:10062000782045585452554445525F434F554E54D7
:100630003A3120555549443A636564653261326602
:100640002D343161322D343734382D396231322D29
:100650006335356336326633363766660A00344DA5
:10066000617820D09ED182D0BAD0BB2E202E004DF2
:1006700036303020486F74656E6420746F6F20636D
:100680006F6C6420746F206368616E6765206669B3
:100690006C616D656E740A00D0A1D182D0BED0BBF2
:1006A00020D180D0B0D0B7D0BED0B3D180D0B5D11A
:1006B000820020573A00D09DD0B0D0B3D180D0B5C1
:1006C000D0B2D0B0D18E20D181D182D0BED0BB00EB
:1006D000D09DD0B0D0B3D180D0B5D0B220D0B2D1DF
:1006E0008BD0BFD0BED0BBD0BDD0B5D0BD002057C1
:1006F0003A004E6F7A7A6C6520257300344D61782C
:1007000020D093D0BED182D0BED0B22E006F6B006D
:100710004D313133205300D0A3D091D098D0A2D006
:100720009E2E004543484F00494E464F00455252C9
:100730004F52530044525952554E00434F4D4D5560
:100740004E49434154494F4E006F666600230728C7
:10075000072D0734073B0744454255473A004E6F83
:100760007A7A6C6520257300344D617820D093D05F
:10077000BED182D0BED0B22E00000136372603FF94
:100780003C3D380EFF2E303E12FFFF0C0809FFFFE4
:10079000071A1C18FFFF08440AFF43FFFFFFFFFF73
:1007A000FF50726F7465637465642050696E0A004F
:1007B0002569730025696D20256973002569682006
:1007C00025696D20256973002569642025696820E5
:1007D00025696D20256973002569792025696420C4
:1007E0002569682025696D20256973005072696E3E
:1007F000742074696D653A20004D31323500456EC4
:10080000642066696C65206C6973740A00426567D0
:10081000696E2066696C65206C6973740A00D09DEE
:10082000D0B5D18220D0B4D0B2D0B8D0B6D0B5D067
:10083000BDD0B8D18F2E00344D617820D093D0BE7A
:10084000D182D0BED0B22E00D092D0BED0B7D0BE12
:10085000D0B1D0BDD0BED0B2D0BBD0B5D0BDD0B855
:10086000D0B52E2E2E00D09FD180D0BED0B4D0BE19
:10087000D0BBD0B6D0B8D182D18C2E2E2E00D0A134
:10088000D0BED0BD2E2E2E0047322F4733206261BE
:100890006420706172616D65746572730A004163F2
:1008A000746976652045787472756465723A2000C3
:1008B00020453A00205A3A0020593A00583A002080
:1008C00042403A0020403A00202F005761726E6982
:1008D0006E673A20486F6D696E672042756D7020B3
:1008E00044697669736F72203C20310A0002020469
:1008F000627573793A2070617573656420666F72F2
:1009000020696E7075740A00627573793A2070619F
:100910007573656420666F7220757365720A006274
:100920007573793A2070726F63657373696E670AC5
:100930000020496E76616C69642065787472756414
:100940006572200053442072656164206572726F85
:10095000720A00446F6E65207072696E74696E670A
:100960002066696C650A00D0A3D091D098D0A2D03F
:100970009E2E00D09ED0A1D0A2D090D09DD09ED04F
:1009800092D09BD095D09DD09E2E005072696E74EF
:1009900065722073746F707065642064756520746F
:1009A0006F206572726F72732E20466978207468AA
:1009B00065206572726F7220616E642075736520A8
:1009C0004D39393920746F20726573746172742ED9
:1009D000202854656D706572617475726520697345
:1009E0002072657365742E205365742069742061CC
:1009F000667465722072657374617274696E6729BA
:100A00000A004E6F204C696E65204E756D626572EE
:100A1000207769746820636865636B73756D2C203B
:100A20004C617374204C696E653A20004E6F204310
:100A30006865636B73756D2077697468206C696E87
:100A400065206E756D6265722C204C617374204C4C
:100A5000696E653A2000636865636B73756D206D20
:100A600069736D617463682C204C617374204C69E8
:100A70006E653A20004C696E65204E756D62657238
:100A8000206973206E6F74204C617374204C696E02
:100A900065204E756D6265722B312C204C6173742C
:100AA000204C696E653A20004D31313000656E7121
:100AB00075657565696E67202200FFFFFF0000A065
:100AC000400000A0400000004000005D4300005CCA
:100AD0004300009643000080C000000000000000BA
:100AE000000000594300005C430000964300008072
:100AF000C000000000000000000000484200004864
:100B00004200002041000000007C3C3E5E2B3D3F47
:100B10002F5B5D3B2C2A225C004D3331004D383475
:100B200020582059205A20450043616E6E6F742072
:100B3000656E746572207375626469723A20006133
:100B400075746F25692E67006572726F72207772F7
:100B50006974696E6720746F2066696C650A004E5F
:100B60006F74205344207072696E74696E670A0056
:100B70005344207072696E74696E6720627974657F
:100B8000200044656C6574696F6E206661696C65F0
:100B9000642C2046696C653A200046696C652064C7
:100BA000656C657465643A006F70656E2066616996
:100BB0006C65642C2046696C653A20005772697434
:100BC000696E6720746F2066696C653A20006F70EB
:100BD000656E206661696C65642C2046696C653AB7
:100BE00020006F70656E206661696C65642C20461C
:100BF000696C653A200046696C652073656C6563B5
:100C00007465640A002053697A653A200046696C6D
:100C100065206F70656E65643A20006F70656E20A8
:100C20006661696C65642C2046696C653A20002019
:100C300066696C653A20004E6F7720002220706F45
:100C400073002220706172656E743A22005355421F
:100C5000524F5554494E452043414C4C20746172CB
:100C60006765743A2200D0A3D091D098D0A2D09ECC
:100C70002E00747279696E6720746F2063616C6CEA
:100C8000207375622D67636F64652066696C657398
:100C9000207769746820746F6F206D616E79206CA5
:100CA0006576656C732E204D4158206C6576656CB9
:100CB0002069733A004D3234004D323320257300E1
:100CC00053442063617264206F6B0A006F70656E1D
:100CD000526F6F74206661696C65640A00766F6C90
:100CE000756D652E696E6974206661696C65640A4C
:100CF00000534420696E6974206661696C0A004380
:100D0000616E6E6F74206F70656E207375626469BA
:100D100072200048617264636F6465642044656694
:100D200061756C742053657474696E6773204C6FC1
:100D3000616465640A00DC050000DC0500006400F5
:100D400000001027000000009643000096430000BA
:100D500020410000C8410000A0420000A042000065
:100D6000C8433333B942202863616C63756C617486
:100D7000656429210A0020213D2000454550524F3D
:100D80004D20435243206D69736D61746368202D5B
:100D9000202873746F726564292000290A0020627C
:100DA000797465733B2063726320002073746F72E3
:100DB00065642073657474696E67732072657472FC
:100DC0006965766564202800204D61726C696E3D0E
:100DD000563430290A0028454550524F4D3D0045B4
:100DE0004550524F4D2076657273696F6E206D6964
:100DF000736D617463682000290A0020627974654C
:100E0000733B20637263200053657474696E67736B
:100E10002053746F7265642028004572726F7220CF
:100E200077726974696E6720746F20454550524F20
:100E30004D210A004572726F722077726974696E73
:100E40006720746F20454550524F4D210A00666956
:100E50006C616D656E743A20007A5F6D696E3A2040
:100E600000795F6D696E3A2000785F6D696E3A2097
:100E7000005265706F7274696E6720656E6473747A
:100E80006F70207374617475730A00D09AD0BED0ED
:100E9000BDD186D0B5D0B2D0B8D0BAD0B8202563F5
:100EA00020256320256320256300205A3A0020591D
:100EB0003A0020583A00656E6473746F707320684E
:100EC00069743A2000556E6B6E6F776E20636F6D9C
:100ED0006D616E643A20220020746F6F206C6F6E1B
:100EE0006720657874727573696F6E2070726576AD
:100EF000656E7465640A0020636F6C6420657874A5
:100F0000727573696F6E2070726576656E74656454
:100F10000A006563686F3A004572726F723A00208A
:100F20005A3A0020593A0020436F756E7420583A9F
:100F3000004D383420582059205A20450024F4D43C
:100F40003050C38E20C2A24017828B7011127A914A
:100F50000D816CD90AA861E108C758660761514341
:100F6000061E4B5D05C145A7041A411104093D98B1
:100F700003713931034036DB0265339102D43054BA
:100F800002802E1D02632CEE01752AC501B028A037
:100F900001102781018F2564012B244B01E02234AD
:100FA00001AC211F018D200D01801FFC00841EED6E
:100FB00000971DDF00B81CD200E61BC600201BBC3A
:100FC00000641AB200B219A8000A19A0006A1899A0
:100FD00000D117910040178B00B516840031167EA2
:100FE00000B31579003A157300C7146F0058146ADE
:100FF00000EE1366008813630025135E00C7125BC2
:10100000006C12570015125400C111510070114F9D
:101010000021114B00D61049008D104700461044A6
:101020000002104200C00F4000800F3E00420F3C03
:1010300000060F3B00CB0E3800930E37005C0E35D8
:1010400000270E3400F30D3200C10D3100900D3039
:1010500000600D2E00320D2D00050D2C00D90C2B3B
:1010600000AE0C2900850C29005C0C2700350C27EC
:10107000000E0C2600E80B2400C40B2400A00B2358
:10108000007D0B23005A0B2100390B2100180B2087
:1010900000F80A1F00D90A1E00BB0A1E009D0A1D87
:1010A00000800A1D00630A1C00470A1B002C0A1B53
:1010B00000110A1A00F7091A00DD091900C40919FC
:1010C00000AB091900920917007B09180063091782
:1010D000004C09160036091600200916000A0915E9
:1010E00000F5081500E0081400CC081400B8081436
:1010F00000A4081400900813007D0812006B081368
:101100000058081200460812003408110023081184
:10111000001208110001081100F0071000E007108C
:1011200000D0071000C0071000B0070F00A1071083
:101130000091070E0083070F0074070F0065070E6C
:101140000057070E0049070E003B070D002E070E43
:101150000020070D0013070D0006070D00F9060C0F
:1011600000ED060D00E0060C00D4060C00C8060CCD
:1011700000BC060C00B0060C00A4060B0099060C7F
:10118000008D060B0082060B0077060B006C060B29
:101190000061060A0057060B004C060A0042060AC8
:1011A0000038060A002E060A0024060A001A060A5B
:1011B000001006090007060A00FD050900F40509EC
:1011C00000EB050900E2050900D9050900D0050971
:1011D00000C7050900BE050900B5050800AD0508F2
:1011E00000A50509009C050800940508008C050869
:1011F00000840508007C050800740508006C0507DC
:1012000000650508005D050700560508004E050746
:1012100000470507004005080038050700310507AD
:10122000002A050700230507001C05060016050710
:10123000000F0507000805060002050700FB04066D
:1012400000F5040700EE040600E8040600E20407C7
:1012500000DB040600D5040600CF040600C904061E
:1012600000C3040600BD040600B7040600B104056F
:1012700000AC040600A6040600A00405009B0406BA
:101280000095040500900406008A04050085040505
:1012900000800406007A040500750405007004054A
:1012A000006B04050066040500610405005C04058C
:1012B0000057040500520405004D040500480405CC
:1012C00000430405003E0404003A0405003504050B
:1012D00000300404002C0405002704040023040546
:1012E000001E0404001A040400160405001104047E
:1012F000000D0404000904050004040400000404B3
:1013000000FC030400F8030400F4030400F00304E9
:1013100000EC030400E8030400E4030400E0030419
:1013200000DC030400D8030400D4030400D0030449
:1013300000CC030400C8030300C503030024F40425
:10134000D9201BC40C5C0E9804C4095F02650771A8
:1013500001F405F900FB04B30048048700C10369E8
:10136000005803550003034500BE023A00840231D1
:101370000053022A002902250004022000E4011C77
:1013800000C8011900AF011700980114008401136F
:1013900000710110006101100051010E0043010DA8
:1013A0000036010B002B010B0020010B0015010979
:1013B000000C01090003010800FB000800F300080D
:1013C00000EB000700E4000600DE000600D800067F
:1013D00000D2000600CC000500C7000500C20005D1
:1013E00000BD000400B9000400B5000400B1000411
:1013F00000AD000400A9000400A5000300A2000342
:10140000009F0004009B0003009800030095000269
:101410000093000300900003008D0002008B000386
:1014200000880002008600020084000300810002A0
:10143000007F0002007D0002007B000200790002B4
:1014400000770001007600020074000200720001C3
:1014500000710002006F0002006D0001006C0002CC
:10146000006A0001006900020067000100660001D7
:1014700000650001006400020062000100610001DB
:1014800000600001005F0002005D0001005C0001DF
:10149000005B0001005A00010059000100580001E2
:1014A00000570001005600010055000100540001E2
:1014B00000530000005300010052000100510001E0
:1014C00000500001004F0001004E0000004E0001DE
:1014D000004D0001004C0001004B0000004B0001DA
:1014E000004A0001004900010048000000480001D6
:1014F00000470001004600000046000100450000D2
:1015000000450001004400010043000000430001C9
:1015100000420000004200010041000000410001C3
:1015200000400001003F0000003F0001003E0000BD
:10153000003E0001003D0000003D0001003C0000B5
:10154000003C0000003C0001003B0000003B0001AB
:10155000003A0000003A00010039000000390001A3
:10156000003800000038000000380001003700009B
:101570000037000100360000003600000036000190
:101580000035000000350000003500010034000087
:10159000003400000034000100330000003300007C
:1015A0000033000100320000003200000032000170
:1015B0000031000000310000003100010030000067
:1015C0000030000000300001002F0000002F00005C
:1015D000002F0000002F0001002E0000002E000050
:1015E000002E0001002D0000002D0000002D000045
:1015F000002D0001002C0000002C0000002C000039
:10160000002C0001002B0000002B0000002B00002C
:10161000002B0001002A0000002A0000002A000020
:10162000002A000100290000002900000029000014
:101630000029000000290001002800000028000007
:1016400000280000002800000028000100270000FA
:1016500000270000002700000027000000270001ED
:1016600000260000002600000026000000260000E2
:1016700000260001002500000025000000250000D4
:1016800000250000002500000025000100240000C6
:1016900000240000002400000024000000240001B9
:1016A00000230000002300000023000000230000AE
:1016B000002300000023000000230001002200009E
:1016C0000022000000220000002200000022000092
:1016D0000022000100210000002100000021000084
:1016E0000021000000210000002100000021000175
:1016F000002000000020000000200000002000006A
:101700000020000000200000002000000020000158
:10171000001F0000001F0000001F0000001F00004D
:10172000001F0000001F0000001F0001001E00003D
:10173000001E0000001E0000001E0000005468652E
:10174000726D616C2052756E6177617900D0A2D0A4
:1017500095D09FD09BD09E20D0A3D091D095D093F0
:10176000D090D09DD098D0AF2100D0A3D091D09868
:10177000D0A2D09E2E00202D20496E76616C696427
:10178000206578747275646572206E756D6265721D
:1017900020210A0048656174696E67206661696C82
:1017A000656400D0A0D0B0D0B7D0BED0B3D180D0C7
:1017B000B5D0B220D0BDD0B520D183D0B4D0B0D078
:1017C000BBD181D18F004D494E54454D502074728C
:1017D0006967676572656400D09ED188D0B8D0B162
:1017E000D0BAD0B03AD0A220D0BCD0B8D0BD2ED183
:1017F00081D182D0BED0BB00D09ED188D0B8D0B12C
:10180000D0BAD0B03A20D0A220D0BCD0B8D0BD2E13
:10181000004D415854454D50207472696767657298
:10182000656400D09ED188D0B8D0B1D0BAD0B03ADB
:10183000D0A220D0BCD0B0D0BAD1812ED181D1825B
:10184000D0BED0BB00D09ED188D0B8D0B1D0BAD055
:10185000B03A20D0A220D0BCD0B0D0BAD1812E00D6
:101860006265640A002C2073797374656D2073744B
:101870006F7070656421204865617465725F4944CA
:101880003A200023646566696E6520204445464120
:10189000554C545F4B64200023646566696E652077
:1018A0002044454641554C545F4B692000236465F4
:1018B00066696E65202044454641554C545F4B7027
:1018C0002000504944204175746F74756E65206620
:1018D000696E697368656421205075742074686549
:1018E000206C617374204B702C204B6920616E64F6
:1018F000204B6420636F6E7374616E747320667224
:101900006F6D2062656C6F7720696E746F20436F16
:101910006E66696775726174696F6E2E680A005031
:101920004944204175746F74756E65206661696CF9
:101930006564212074696D656F75740A00504944AF
:10194000204175746F74756E65206661696C65649D
:10195000212054656D706572617475726520746FB5
:101960006F20686967680A00204B643A2000204BAA
:10197000693A2000204B703A20000A20436C6173C2
:1019800073696320504944200A002054753A2000AE
:10199000204B753A2000206D61783A2000206D6957
:1019A0006E3A200020643A200020626961733A2078
:1019B0000070012C0190012701B0012201C0011D1E
:1019C00001F00118011002130130020E016002093A
:1019D0000190020401C002FF000003FA004003F579
:1019E000008003F000D003EB002004E6007004E167
:1019F00000E004DC004005D700C005D2004006CD61
:101A000000D006C8008007C3003008BE00F008B947
:101A100000C009B400B00AAF00B00BAA00D00CA5FA
:101A200000000EA000500F9B00C0109600501291B5
:101A30000000148C00C0158700B0178200B0197D1B
:101A400000D01B7800001E730040206E00902269B9
:101A500000F024640040275F0090295A00E02B55D5
:101A600000102E500020304B0010324600E0334171
:101A70000090353C001037370070383200A0392D07
:101A800000B03A2800A03B2300603C1E00103D1926
:101A900000903D1400103E0F00703E0A00C03E054D
:101AA00000003F0000403FFBFF803FF6FFC03FF1DA
:101AB000FFD09AD0B0D180D182D0B020D0B8D0B7EA
:101AC000D0B2D0BBD0B5D187D0B5D0BDD0B000D0CA
:101AD0009AD0B0D180D182D0B020D0B2D181D18281
:101AE000D0B0D0B2D0BBD0B5D0BDD0B000D0B2D085
:101AF000BED0B7D0BED0B1D0BDD0BED0B2D0BBD09A
:101B0000B5D0BDD0B8D18F00D09ED0B6D0B8D0B4AB
:101B1000D0B0D0B9D182D0B500D09FD095D0A7D0C9
:101B200090D0A2D0AC20D09ED0A1D0A2D090D09DF9
:101B3000D09ED092D09BD095D09DD090002020D028
:101B4000A1D0BED0BFD0BBD0B03A20002000666983
:101B50006C616D656E74206578747275646500578C
:101B600061697420666F7200D09FD095D0A7D09025
:101B7000D0A2D0AC20D09ED0A1D0A2D090D09DD069
:101B80009ED092D09BD095D09DD090002020D0A107
:101B9000D0BED0BFD0BBD0B03A2000D0B7D0B0D0EC
:101BA000B3D180D183D0B7D0BAD0B820D184D0B847
:101BB000D0BBD0B0D0BCD0B5D0BDD182D0B000D0D9
:101BC0009ED0B6D0B8D0B4D0B0D0B9D182D0B50004
:101BD000D09FD095D0A7D090D0A2D0AC20D09ED00E
:101BE000A1D0A2D090D09DD09ED092D09BD095D0A5
:101BF0009DD090002020D0A1D0BED0BFD0BBD0B00F
:101C00003A2000D0B4D0BBD18F20D0BFD180D0BE7D
:101C1000D0B4D0BED0BBD0B6D0B5D0BDD0B8D18FA7
:101C20002E2E2E00D0B820D0BDD0B0D0B6D0BCD093
:101C3000B8D182D0B520D0BAD0BDD0BED0BFD0BA36
:101C4000D18300D092D181D182D0B0D0B2D18CD109
:101C500082D0B520D184D0B8D0BBD0B0D0BCD0B564
:101C6000D0BDD18200D09FD095D0A7D090D0A2D0A7
:101C7000AC20D09ED0A1D0A2D090D09DD09ED092AA
:101C8000D09BD095D09DD090002020D0A1D0BED0A8
:101C9000BFD0BBD0B03A20002000D0BDD0B0D0B370
:101CA000D180D0B5D0B2D0B020D181D0BED0BFD0FD
:101CB000BBD0B02E2E2E00D09DD0B0D0B6D0BCD090
:101CC000B8D182D0B520D0BAD0BDD0BED0BFD0BAA6
:101CD000D18320D0B4D0BBD18F00D09FD095D0A7D6
:101CE000D090D0A2D0AC20D09ED0A1D0A2D090D005
:101CF0009DD09ED092D09BD095D09DD0900020209A
:101D0000D0A1D0BED0BFD0BBD0B03A20002000D0F0
:101D100096D0B4D0B8D182D0B52E2E2E00D09DD082
:101D2000B0D0B3D180D0B5D0B220D181D0BED0BF99
:101D3000D0BBD0B000D09FD095D0A7D090D0A2D0AB
:101D4000AC20D09ED0A1D0A2D090D09DD09ED092D9
:101D5000D09BD095D09DD090002020D0A1D0BED0D7
:101D6000BFD0BBD0B03A20002000D0B2D18BD0B3CE
:101D7000D180D183D0B7D0BAD0B820D184D0B8D058
:101D8000BBD0B0D0BCD0B5D0BDD182D0B000D09E39
:101D9000D0B6D0B8D0B4D0B0D0B9D182D0B500D000
:101DA0009FD095D0A7D090D0A2D0AC20D09ED0A16B
:101DB000D0A2D090D09DD09ED092D09BD095D09DD7
:101DC000D090002020D0A1D0BED0BFD0BBD0B03AA0
:101DD0002000D184D0B8D0BBD0B0D0BCD0B5D0BD5D
:101DE000D182D0B000D0BDD0B0D187D0B0D0BBD0E0
:101DF000B020D181D0BCD0B5D0BDD18B00D09ED089
:101E0000B6D0B8D0B4D0B0D0B9D182D0B500D09FC0
:101E1000D095D0A7D090D0A2D0AC20D09ED0A1D0C9
:101E2000A2D090D09DD09ED092D09BD095D09DD066
:101E30009000D092D18BD0B4D0B0D0B2D0B8D182F3
:101E4000D18C20D0B5D189D19100D092D0BED0B75D
:101E5000D0BED0B1D0BDD0BED0B2D0B8D182D18C9E
:101E600020D0BFD0B5D187D0B0D182D18C00D09E48
:101E7000D09FD0A6D098D09820D092D09ED097D086
:101E80009ED091D09DD09ED092D09BD095D09DD009
:101E900098D0AF3A002020D0A1D0BED0BFD0BBD0C8
:101EA000B03A20002000D09DD0B0D0B7D0B0D0B490
:101EB00000D09CD0B8D0BD2E20D182D0B5D0BCD01F
:101EC000BFD0B5D180D0B0D182D183D180D0B03154
:101ED00037302E00D0A0D0B0D0B7D0BED0B3D18094
:101EE000D0B5D0B220D0BDD0B520D183D0B4D0B041
:101EF000D0BBD181D18F00022E2E00D09CD0B5D086
:101F0000BDD18E00D094D0B8D0B0D0BCD0B5D182E5
:101F1000D18020D0BFD180D183D182D0BAD0B000BF
:101F2000D094D0B8D0B0D0BCD0B5D182D18020D0A0
:101F3000BFD180D183D182D0BAD0B0004520D0B2F9
:101F4000206D6D3300D09ED182D0BAD0BB2E200040
:101F5000D092D0BAD0BB2E2000D09DD0B0D181D1AC
:101F600082D180D0BED0B9D0BAD0B800D0A8D0B07D
:101F7000D0B32FD0BCD0BC00D0A0D18BD0B2D0BEBB
:101F8000D0BA00D0A3D181D0BAD0BED180D0B5D044
:101F9000BDD0B8D0B500D0A1D0BAD0BED180D0BE0F
:101FA000D181D182D18C00D09DD0B0D181D182D1CC
:101FB00080D0BED0B9D0BAD0B8004520D188D0B03A
:101FC000D0B32FD0BCD0BC004520D188D0B0D0B386
:101FD0002FD0BCD0BC005A20D188D0B0D0B32FD0E5
:101FE000BCD0BC005A20D188D0B0D0B32FD0BCD048
:101FF000BC005920D188D0B0D0B32FD0BCD0BC0009
:102000005920D188D0B0D0B32FD0BCD0BC0058203C
:10201000D188D0B0D0B32FD0BCD0BC005820D1884C
:10202000D0B0D0B32FD0BCD0BC00D09CD0B5D1851F
:10203000D0B0D0BDD0B8D0BAD0B00056652DD180C8
:10204000D18BD0B2D0BED0BA0056652DD180D18B05
:10205000D0B2D0BED0BA0056652DD180D18BD0B2CF
:10206000D0BED0BA00567A2DD180D18BD0B2D0BE9E
:10207000D0BA00567A2DD180D18BD0B2D0BED0BA92
:102080000056792DD180D18BD0B2D0BED0BA0056B7
:10209000792DD180D18BD0B2D0BED0BA0056792D57
:1020A000D180D18BD0B2D0BED0BA0056782DD1809D
:1020B000D18BD0B2D0BED0BA0056782DD180D18B82
:1020C000D0B2D0BED0BA0056782DD180D18BD0B24C
:1020D000D0BED0BA00D09CD0B5D185D0B0D0BDD0C4
:1020E000B8D0BAD0B00041D0BCD0B0D0BAD18145C0
:1020F0000041D0BCD0B0D0BAD181450041D0BCD0D5
:10210000B0D0BAD1815A0041D0BCD0B0D0BAD181C0
:102110005A0041D0BCD0B0D0BAD181590041D0BC16
:10212000D0B0D0BAD181590041D0BCD0B0D0BAD152
:1021300081580041D0BCD0B0D0BAD1815800412DD7
:10214000D0BFD183D182D0B5D1882E00412DD0BF50
:10215000D183D182D0B5D1882E00412DD0B2D18289
:10216000D18FD0B3D0B8D0B2D0B0D0BDD0B8D0B568
:1021700000412DD0B2D182D18FD0B3D0B8D0B2D05F
:10218000B0D0BDD0B8D0B500D0A3D181D0BAD0BE28
:10219000D180D0B5D0BDD0B8D0B500D0A3D181D03A
:1021A000BAD0BED180D0B5D0BDD0B8D0B500D09C0B
:1021B000D0B5D185D0B0D0BDD0B8D0BAD0B000564F
:1021C000D0BFD183D182D0B5D1882E20D0BCD0B899
:1021D000D0BD0056D0BFD183D182D0B5D1882E20BA
:1021E000D0BCD0B8D0BD0056D0BFD183D182D0B53D
:1021F000D1882E20D0BCD0B8D0BD0056D0BCD0B82D
:10220000D0BD0056D0BCD0B8D0BD0056D0BCD0B8E0
:10221000D0BD0056D0BCD0B0D0BAD1812045005638
:10222000D0BCD0B0D0BAD18120450056D0BCD0B0FF
:10223000D0BAD18120450056D0BCD0B0D0BAD1811F
:10224000205A0056D0BCD0B0D0BAD181205A005606
:10225000D0BCD0B0D0BAD181205A0056D0BCD0B0BA
:10226000D0BAD18120590056D0BCD0B0D0BAD181DB
:1022700020590056D0BCD0B0D0BAD18120590056D8
:10228000D0BCD0B0D0BAD18120580056D0BCD0B08C
:10229000D0BAD18120580056D0BCD0B0D0BAD181AC
:1022A000205800D09CD0B5D185D0B0D0BDD0B8D00A
:1022B000BAD0B000D0A1D0BED185D180D0B0D0BD31
:1022C000D0B8D182D18C20D0B220454550524F4D4C
:1022D000000820D0A1D182D0BED0BB000820D0A160
:1022E000D182D0BED0BB000820D0A1D182D0BED038
:1022F000BB000820D0A1D0BED0BFD0BBD0BE00084C
:1023000020D0A1D0BED0BFD0BBD0BE000820D0A16D
:10231000D0BED0BFD0BBD0BE00D09AD183D0BBD06E
:10232000B5D18000D09AD183D0BBD0B5D18000D0B8
:102330009AD183D0BBD0B5D18000D0A2D0B5D0BCCB
:10234000D0BFD0B5D180D0B0D182D183D180D0B030
:1023500000D09FD180D0B5D0B4D0BDD0B0D0B3D153
:1023600080D0B5D0B22041425320D09DD0B0D18191
:10237000D182D1802E00D09FD180D0B5D0B4D0BD35
:10238000D0B0D0B3D180D0B5D0B220504C4120D005
:102390009DD0B0D181D182D1802E005049442D44AE
:1023A000005049442D44005049442D4900504944AF
:1023B0002D49005049442D50005049442D500008EB
:1023C00020D0A4D0B0D0BAD182D0BED18000082015
:1023D000D0A4D0B0D0BAD182D0BED180000820D055
:1023E0009CD0B0D0BAD181D0B8D0BCD183D0BC0001
:1023F0000820D09CD0B0D0BAD181D0B8D0BCD18385
:10240000D0BC000820D09CD0B0D0BAD181D0B8D0F8
:10241000BCD183D0BC000820D09CD0B8D0BDD0B8EF
:10242000D0BCD183D0BC000820D09CD0B8D0BDD0C7
:10243000B8D0BCD183D0BC000820D09CD0B8D0BDCF
:10244000D0B8D0BCD183D0BC00D090D0B2D182D093
:10245000BED182D0B5D0BCD0BFD0B5D180D0B0D1A4
:1024600082D183D180D0B000D09ED182D0BAD0BBEF
:102470002E2000D092D0BAD0BB2E2000D09AD1838B
:10248000D0BBD0B5D18000D09AD183D0BBD0B5D14C
:102490008000D09AD183D0BBD0B5D180000820D0A5
:1024A000A1D182D0BED0BB000820D0A1D182D0BEA5
:1024B000D0BB000820D0A1D0BED0BFD0BBD0BE00C2
:1024C0000820D0A1D0BED0BFD0BBD0BE00D09DD000
:1024D000B0D181D182D180D0BED0B9D0BAD0B8002D
:1024E000D098D0BDD0B8D1862E20454550524F4D02
:1024F000004D3530320A4D35303000D0A1D0B1D149
:1025000080D0BED18120454550524F4D00D0A1D141
:1025100087D0B8D182D0B0D182D18C20D0B8D0B7FA
:1025200020454550524F4D00D0A1D0BED185D1801D
:10253000D0B0D0BDD0B8D182D18C20D0B22045450A
:1025400050524F4D00D09FD180D183D182D0BED088
:10255000BA00D09CD0B5D185D0B0D0BDD0B8D0BA5B
:10256000D0B000D0A2D0B5D0BCD0BFD0B5D180D033
:10257000B0D182D183D180D0B000D09CD0B5D0BDB5
:10258000D18E00D0ADD0BAD181D182D180D183D0CB
:10259000B4D0B5D18000D094D0B2D0B8D0B6D0B538
:1025A000D0BDD0B8D0B520D0BFD0BE205A00D09476
:1025B000D0B2D0B8D0B6D0B5D0BDD0B8D0B520D07C
:1025C000BFD0BE205900D094D0B2D0B8D0B6D0B5CC
:1025D000D0BDD0B8D0B520D0BFD0BE205800D09448
:1025E000D0B5D0B9D181D182D0B2D0B8D18F00D0FE
:1025F00094D0B2D0B8D0B6D0B5D0BDD0B8D0B52078
:10260000302E316D6D00D094D0B2D0B8D0B6D0B5E8
:10261000D0BDD0B8D0B520316D6D00D094D0B2D03F
:10262000B8D0B6D0B5D0BDD0B8D0B52031306D6DF2
:1026300000D094D0B2D0B8D0B6D0B5D0BDD0B8D03C
:10264000B520D0BFD0BE20D0BED181D18FD0BC00AC
:10265000D0ADD0BAD181D182D180D183D0B4D0B520
:10266000D18000D094D0B2D0B8D0B6D0B5D0BDD043
:10267000B8D0B520D0BFD0BE205A00D094D0B2D0B0
:10268000B8D0B6D0B5D0BDD0B8D0B520D0BFD0BEB0
:10269000205900D094D0B2D0B8D0B6D0B5D0BDD0EB
:1026A000B8D0B520D0BFD0BE205800D0ADD0BAD160
:1026B00081D182D180D183D0B4D0B5D18000D094E3
:1026C000D0B2D0B8D0B6D0B5D0BDD0B8D0B520D06B
:1026D000BFD0BE205A00D094D0B2D0B8D0B6D0B5BA
:1026E000D0BDD0B8D0B520D0BFD0BE205900D09436
:1026F000D0B2D0B8D0B6D0B5D0BDD0B8D0B520D03B
:10270000BFD0BE205800D09FD180D0B5D0B4D0BDAE
:10271000D0B0D0B3D180D0B5D0B22041425300D098
:102720009FD180D0B5D0B4D0BDD0B0D0B3D180D0FF
:10273000B5D0B220504C4100D09ED185D0BBD0B096
:10274000D0B6D0B4D0B5D0BDD0B8D0B500D0A1D01F
:10275000BCD0B5D0BDD0B020D0BFD180D183D18284
:10276000D0BAD0B000D092D18BD0BAD0BB2E20D06E
:10277000B4D0B2D0B8D0B3D0B0D182D0B5D0BBD065
:10278000B8004D383400D090D0B2D182D0BE20D025
:102790009FD0B0D180D0BAD0BED0B2D0BAD0B00025
:1027A00047323800D094D0B2D0B8D0B6D0B5D0BD72
:1027B000D0B8D0B520D0BFD0BE20D0BED181D18F6F
:1027C000D0BC00D09CD0B5D0BDD18E00D09FD180E0
:1027D000D0B5D0B4D0BDD0B0D0B3D180D0B5D0B208
:1027E0002041425320D0A1D182D0BED0BB00D09F87
:1027F000D180D0B5D0B4D0BDD0B0D0B3D180D0B519
:10280000D0B22041425320D0A1D0BED0BFD0BBD047
:10281000BE00D09FD180D0B5D0B4D0BDD0B0D0B3A1
:10282000D180D0B5D0B22041425300D094D0B5D0A1
:10283000B9D181D182D0B2D0B8D18F00D09FD18010
:10284000D0B5D0B4D0BDD0B0D0B3D180D0B5D0B297
:1028500020504C4120D0A1D182D0BED0BB00D09F0F
:10286000D180D0B5D0B4D0BDD0B0D0B3D180D0B5A8
:10287000D0B220504C4120D0A1D0BED0BFD0BBD0D0
:10288000BE00D09FD180D0B5D0B4D0BDD0B0D0B331
:10289000D180D0B5D0B220504C4100D094D0B5D02A
:1028A000B9D181D182D0B2D0B8D18F00D0A1D0BC63
:1028B000D0B5D0BDD0B020D0BFD180D183D182D00F
:1028C000BAD0B000D09FD0BED182D0BED0BA00D096
:1028D0009FD0BED182D0BED0BA00D09FD0BED18210
:1028E000D0BED0BA00D09AD183D0BBD0B5D18000B1
:1028F000D09AD183D0BBD0B5D18000D09AD183D02B
:10290000BBD0B5D180000820D0A1D182D0BED0BB31
:10291000000820D0A1D182D0BED0BB000820D0A119
:10292000D0BED0BFD0BBD0BE000820D0A1D0BED07A
:10293000BFD0BBD0BE00D0A1D0BAD0BED180D0BE57
:10294000D181D182D18C00D0A1D0BAD0BED180D0DB
:10295000BED181D182D18C00D0A1D0BAD0BED180DD
:10296000D0BED181D182D18C00D09CD0B5D0BDD188
:102970008E004D36303020423000D09CD0B5D0BDD6
:10298000D18E00D09DD0B5D18220D0BAD0B0D18028
:10299000D182D18B0053657474696E6700D09CD06E
:1029A000B5D0BDD18E00D09DD0B5D18220D0BAD0C7
:1029B000B0D180D182D18B00D09ED0B1D0B7D0BE63
:1029C000D18020D0BAD0B0D180D182D18B00D09E1E
:1029D000D181D182D0B0D0BDD0BED0B2D0B8D1825A
:1029E000D18C20D0BFD0B5D187D0B0D182D18C00CE
:1029F000D09FD180D0BED0B4D0BED0BBD0B6D0B8DE
:102A0000D182D18C20D0BFD0B5D187D0B0D182D1E6
:102A10008C00D09FD0B0D183D0B7D0B020D0BFD061
:102A2000B5D187D0B0D182D0B800526573756D65CD
:102A30002066726F6D206F757461676500D09DD0E0
:102A4000B0D181D182D180D0BED0B9D0BAD0B800B7
:102A5000D094D0B5D0B9D181D182D0B2D0B8D18FF5
:102A600000D09DD0B0D181D182D180D0BED0B9D09C
:102A7000BAD0B800D09ED0B1D0B7D0BED18000D0EF
:102A80009ED182D0BCD0B5D0BDD0B020D0BFD0B503
:102A9000D187D0B0D182D0B8004D323400D09FD091
:102AA000B5D187D0B0D182D18C20D0BED181D18296
:102AB000D0B0D0BDD0BED0B2D0BBD0B5D0BDD0B0DC
:102AC000004D313235000025753A2530327500252C
:102AD0003032753A25303275002575642025303244
:102AE000753A25303275000920005A005900580007
:102AF000D09DD0B0D0B6D0BCD0B8D182D0B520D186
:102B000080D0B5D181D0B5D18200D09FD0A0D0984F
:102B1000D09DD0A2D095D0A020D09ED0A1D0A2D0C0
:102B200090D09DD09ED092D09BD095D09D00000695
:102B30000900FE070191032020FFFF08FF07FF00A7
:102B400000000600000107070602008080808080E8
:102B50000080030202060105A0A005070706000089
:102B60005050F850F850500507070600002078A094
:102B70007028F020050707060000C0C81020409804
:102B8000180507070600006090A040A8906802039F
:102B900003060104C04080030707060100204080AF
:102BA000808040200307070601008040202020404D
:102BB0008005050506000120A870A820050505066A
:102BC00000012020F820200203030602FFC04080FD
:102BD000050101060003F8020202060200C0C0055A
:102BE00005050600010810204080050707060000C3
:102BF000708898A8C8887003070706010040C04085
:102C0000404040E00507070600007088087080809B
:102C1000F8050707060000F81020100808F005075F
:102C20000706000010305090F81010050707060046
:102C300000F880F00808887005070706000030409B
:102C400080F0888870050707060000F8081020202B
:102C500020200507070600007088887088887005A6
:102C600007070600007088887808106002050506CE
:102C70000200C0C000C0C00206060602FFC0C000BD
:102C8000C04080040707060000102040804020104C
:102C9000050303060002F800F80407070601008098
:102CA00040201020408005070706000070880810AB
:102CB00020002005060606000070880868A8700538
:102CC0000707060000708888F888888805070706C7
:102CD0000000F08888F08888F0050707060000707B
:102CE000888080808870050707060000E09088884B
:102CF0008890E0050707060000F88080F08080F8E3
:102D0000050707060000F88080F08080800507072F
:102D1000060000708880B8888870050707060000E4
:102D2000888888F8888888010707060200808080E4
:102D30008080808005070706000038101010109072
:102D4000600507070600008890A0C0A090880507CE
:102D500007060000808080808080F8050707060055
:102D60000088D8A888888888050707060000888812
:102D7000C8A8988888050707060000708888888892
:102D80008870050707060000F08888F080808005BD
:102D9000070706000070888888A89068050707065E
:102DA0000000F08888F0A0908805070706000078EA
:102DB0008080700808F0050707060000F820202032
:102DC00020202005070706000088888888888870EA
:102DD00005070706000088888888885020050707AF
:102DE0000600008888888888A85005070706000024
:102DF0008888502050888805070706000088888842
:102E000050202020050707060000F8081020408009
:102E1000F8030707060100E08080808080E0050558
:102E2000050600018040201008030707060100E0A6
:102E30002020202020E00503030600042050880500
:102E40000101060000F802020206020580400505A5
:102E500005060000700878887805070706000080DE
:102E600080B0C88888F0050505060000708080885D
:102E70007005070706000008086898888878050527
:102E8000050600007088F88070050707060000300E
:102E900048E0404040400506060600FF70888878FC
:102EA00008700507070600008080B0C88888880180
:102EB00007070602008000808080808003080806E3
:102EC00001FF200020202020A0400407070600006A
:102ED000808090A0C0A090030707060100C040407A
:102EE000404040E0050505060000D0A8A8A8A805B8
:102EF0000505060000B0C88888880505050600009D
:102F000070888888700506060600FFF08888F080C3
:102F1000800506060600FF788888780808050505FC
:102F2000060000B0C880808005050506000070809E
:102F30007008F00507070600004040E040404830B8
:102F400005050506000088888898680505050600BF
:102F50000088888850200505050600008888A8A8F4
:102F60005005050506000088502050880506060615
:102F700000FF888888780870050505060000F810AD
:102F80002040F80307070601002040408040402011
:102F90000107070602008080808080808003070789
:102FA00006010080404020404080050202060003E8
:102FB000689000000006000000000006000000000D
:102FC00000060000000000060000000000060000EF
:102FD00000000006000000000006000000000006DF
:102FE00000000000000600000000000600000000D5
:102FF00000060000000000060000000000060000BF
:1030000000000006000000000006000000000006AE
:1030100000000000000600000000000600000000A4
:10302000000600000000000600000000000600008E
:10303000000000060000000000060000000000067E
:103040000000000000060000000000060000000074
:10305000000600000000000600000000000600005E
:10306000000000060000000000060000000000064E
:10307000000000000006000005080806000040F8F7
:103080008080F08080F805080806000050F88080F5
:10309000F08080F8050707060000E04040704848CF
:1030A000700508080600001020F8888080808005E0
:1030B0000707060000304880E08048300507070613
:1030C000000070888070088870030707060100E020
:1030D0004040404040E0030808060100A000E040F6
:1030E000404040E00507070600003810101010901F
:1030F00060050707060000A0A0A0B8A8A8B80507AB
:1031000007060000A0A0A0F8A8A8B80407070600BA
:1031100000E0407050505050050808060000102094
:103120008890A0E090880508080600004020889854
:10313000A8C888880509090600FF5020888888509B
:103140002020200508080600FF888888888888F8DD
:1031500020050707060000708888F888888805071A
:1031600007060000F88080F08888F0050707060051
:1031700000F08888F08888F0050707060000F888C6
:1031800080808080800508080600FF78282828486D
:1031900088F888050707060000F88080F08080F82E
:1031A000050707060000A8A8A870A8A8A805070793
:1031B000060000F00808700808F005070706000080
:1031C000888898A8C88888050808060000502088C4
:1031D00098A8A8C8880507070600008890A0C0A086
:1031E00090880507070600007828282828A84805A1
:1031F000070706000088D8A888888888050707067A
:103200000000888888F8888888050707060000700D
:10321000888888888870050707060000F8888888ED
:10322000888888050707060000F08888F08080807D
:1032300005070706000070888080808870050707F2
:10324000060000F8202020202020050707060000A7
:10325000888888502040800507070600002070A855
:10326000A8A870200507070600008888502050880D
:10327000880508080600FF888888888888F8080577
:103280000707060000888888986808080507070669
:103290000000A8A8A8A8A8A8F80508080600FFA884
:1032A000A8A8A8A8A8F808050707060000C040407D
:1032B00070484870050707060000888888C8A8A8D5
:1032C000C8050707060000808080F08888F00507A1
:1032D0000706000070880838088870050707060090
:1032E0000090A8A8E8A8A89005070706000078881D
:1032F00088782848880505050600007008788878D1
:10330000050707060000186080F08888700405052E
:10331000060000E090E090E0050505060000F88852
:103320008080800506060600FF78284888F8880512
:1033300005050600007088F8807005050506000088
:10334000A8A870A8A8050505060000F0083008F038
:103350000505050600008898A8C888050707060027
:103360000050208898A8C88804050506000090A091
:10337000C0A090050505060000F82828A848050506
:103380000506000088D8A88888050505060000887D
:1033900088F888880505050600007088888870050B
:1033A0000505060000F8888888880506060600FFDF
:1033B000F08888F080800505050600007080808810
:1033C00070050505060000F82020202005060606E9
:1033D00000FF8888887808700506060600002070BF
:1033E000A8A8702005050506000088502050880513
:1033F00006060600FF88888888F808050505060087
:10340000008888F80808050505060000A8A8A8A8EF
:10341000F80506060600FFA8A8A8A8F808050505EF
:10342000060000C040704870050505060000888849
:10343000C8A8C80305050601008080C0A0C0050516
:1034400005060000708838887005050506000090A4
:10345000A8E8A890050505060000788878284805A2
:1034600008080600004020007088F88070050707F3
:1034700006000050007088F880700509090600FFFA
:1034800040E0404078484848100508080600001011
:103490002000F8888080800505050600007088609F
:1034A000887005050506000070807008F0010707A8
:1034B00006020080008080808080030707060100EC
:1034C000A00040404040400308080601FF200020C3
:1034D000202020A040050505060000A0A0B8A8B83F
:1034E000050505060000A0A0F8A8B8050606060018
:1034F0000040E0407848480408080600001020001A
:1035000090A0C0A090050808060000402000889800
:10351000A8C8880509090600FF5020008888887817
:1035200008700506060600FF88888888F8200006CF
:103530000900FE000000000001090008FE0000056F
:10354000080806000040F0C8888898781005080828
:10355000060000C0F88888888888F80505050600F8
:10356000012030F830200508080600002070F820FF
:10357000202020E00509090600FF2070A8A8B888CF
:103580008870200509090600FFE080C0B0A8283037
:1035900028280509090600FFF8A88888888888A8CF
:1035A000F8050A0A0600FE205050505088A8A88846
:1035B0007003030306000340A04000000000000069
:1035C0000000000000007FFFE0000000000000009D
:1035D00000000000007000E000000000000000009B
:1035E0000000000061F86000000000000000000022
:1035F00000000041F8200000000000000000000072
:10360000000040F02000000000000000000000006A
:1036100000406020000000000000000000000000EA
:103620005801A07F80000000000000004104005C01
:1036300063A0FFC0000000000000002082005EF7D1
:10364000A0FFC0000000000000002082005EF7A084
:10365000FFC0000000000000004104005C63A07F88
:1036600080000000000000008208005801A07F8058
:1036700000000000000001041000406020FFC000B6
:1036800000000000000104100040F020FFC0000016
:10369000000000000082080041F820FFC000000088
:1036A0000000000041040061F8603F0000000000DD
:1036B0000000000000007000E01E0000000000009C
:1036C0000001FFFF807FFFE00C0000000000000011
:1036D00001FFFF800000000000000000000000006B
:1036E0000000007FFFE0000000000000000000007C
:1036F00000007000E000000000000000000000007A
:1037000000630C60000000000000000000000000EA
:10371000470E200000000000000000000000004FE5
:103720000F200000000000000000000000005F0FFC
:10373000A00000000000000000000000005E07A0E4
:103740007F8000000000000000410400406020FF76
:10375000C00000000000000020820040F020FFC0F8
:103760000000000000000020820040F020FFC000A8
:103770000000000000004104004060207F80000045
:1037800000000000008208005E07A07F80000000AB
:10379000000000010410005F0FA0FFC00000000047
:1037A0000000010410004F0F20FFC00000000000C7
:1037B0000000820800470E20FFC00000000000004B
:1037C00000410400630C603F0000000000000000A6
:1037D0000000007000E01E0000000000000001FF7B
:1037E000FF807FFFE00C0000000000000001FFFFF1
:1037F0008000000000000000000000000000000049
:1038000000000000000000000000000000000000B8
:1038100000000000000000000000000000000000A8
:103820000000000000000000000000000000000098
:103830000000000000000000000000000000000088
:103840000000000000000000000000000000000078
:103850000000000000000000000000000000000068
:103860000000000000000000000000000000000058
:103870000000000000000000000000000000000048
:103880000000000000000000000000000000000038
:103890000000000000000000000000000000000028
:1038A0000000000000000000000000000000000018
:1038B0000000000000000000000000000000000008
:1038C00000000000000000000000000000000000F8
:1038D00000000000000000000000000000000000E8
:1038E00000000000000000000000000000000000D8
:1038F00000000000000000000000000000000000C8
:1039000000000000000000000000000000000000B7
:1039100000000000000000000000000000000000A7
:103920000000000000000000000000000000000097
:103930000000000000000000000000000000000087
:103940000000000000000000000000000000000077
:103950000000000000000000000000000000000067
:103960000000000000000000000000000000000057
:103970000000000000000000000000000000000047
:103980000000000000000000000000000000000037
:103990000000000000000808E00F1E6670E09807B5
:1039A0000766000000000818E00E0EE771E0980FAF
:1039B00007E7010000001C78E01C87E773E0981F10
:1039C00087E7030000001CF8E09CC78371E0181C27
:1039D000C7830100000038E0E1C8E30170E0181C73
:1039E000E7010000000078C0E3C0E10070E0181CAF
:1039F000E700000000007388E7E0E00070E0981F37
:103A0000E70000000080F318FFE0E00070E0980F8E
:103A1000E70000000080E338FE60E00070E09807F7
:103A2000E700000000C0F339FC60E00070E0181807
:103A3000E700000000C0F939F860C081E070181C90
:103A4000C781000000E0F93BF060C0E7E379981F10
:103A5000C7E7030000E0803BC06080E7C339980FF0
:103A600087E703000060803F806000E780199807C7
:103A700007E7000000000000000000200000000038
:103A80000020000000000000000000000000000016
:103A90000000000000000000000000000000000026
:103AA0000000000000000000000000000000000016
:103AB0000000000000000000000000000000000006
:103AC00000000000000000000000000000000000F6
:103AD00000000000000000000000000000000000E6
:103AE00000000000000000000000000000000000D6
:103AF00000000000000000000000000000000000C6
:103B000000000000000000000000000000000000B5
:103B100000000000000000000000000000000000A5
:103B20000000000000000000000000000000000095
:103B30000000000000000000000000000000000085
:103B40000000000000000000000000000000000075
:103B50000000000000000000000000000000000065
:103B60000000000000000000000000000000000055
:103B70000000000000000000000000000000000045
:103B80000000000000000000000000000000000035
:103B90000000000000000000000000000000000025
:103BA0000000000000000000000000000000000015
:103BB0000000000000000000000000000000000005
:103BC00000000000000000000000000000000000F5
:103BD00000000000000000000000000000000000E5
:103BE00000000000000000000000000000000000D5
:103BF0000000000000000A0B02090C0D0E0807036C
:103C000004010000000000000000000000000000AF
:103C100000000000000000000000000000000000A4
:103C20001211100000000000000000000000000061
:103C30000000000000000000000001021020200829
:103C400008102040102040800201020108040201F7
:103C50000102040810204080804020100804020166
:103C600080040201804020100804020108040201BF
:103C70000102040810204080010204081020408046
:103C800005050505070508080808020202020A0AD8
:103C900008080404040401010101010101010303F6
:103CA000030303030303040707070C0C0C0C0C0CA1
:103CB0000C0C0202020206060606060606060B0B9E
:103CC0000B0B0B0B0B0B0000200023002600290020
:103CD0002C002F0032000001000003010601090141
:103CE00000002200250028002B002E0031003400A7
:103CF00002010000050108010B0100002100240061
:103D000027002A002D0030003300010100000401CB
:103D100007010A014E414E494E495459494E46CD7C
:103D2000CCCC3D0AD7233C17B7D13877CC2B329572
:103D300095E6241FB14F0A000020410000C8420050
:103D4000401C4620BCBE4CCA1B0E5AAEC59D74001A
:103D500051501C8CF9E16F5011241FBECFEFD1E2FE
:103D6000DEBFCDBF00E00CBF13E0A0E0B2E0E6ECA8
:103D7000FBEF01E00BBF02C007900D92AE3BB10715
:103D8000D9F724E1AEEBB3E001C01D92A733B2072F
:103D9000E1F71DE3C6E5DDE300E006C02297010977
:103DA000FE010BBF0E9454F6C035D10780E0080722
:103DB000A9F70E94C9F10C94D2FD0C9400001F9247
:103DC0000F920FB60F9211240BB60F922F933F93C1
:103DD0008F939F93EF93FF932091C6009FB7F89422
:103DE000E0913E0481E08E0F8F7730913F0483177E
:103DF00031F0F0E0E254FC4F208380933E049FBFFB
:103E0000FF91EF919F918F913F912F910F900BBE5A
:103E10000F900FBE0F901F9018959B01AC012115BC
:103E200081EE38074105510549F182E08093C000D9
:103E300060E079E08DE390E00E940DF621503109B9
:103E400041095109CA01B90122E030E040E050E0E7
:103E50000E940DF63093C5002093C4008091C100EC
:103E600080618093C1008091C10088608093C1000F
:103E70008091C10080688093C10008951092C000B5
:103E800020E130E0E7CF3FB7F89420913F048091E4
:103E90003E04821759F0E22FF0E0E254FC4F80819B
:103EA00090E02F5F2F7720933F0402C08FEF9FEFAA
:103EB0003FBF08952FB7F89480913E0490913F043E
:103EC0002FBF891B8F7708958FB7F89490913F0487
:103ED00090933E048FBF08959091C00095FFFCCF52
:103EE0008093C6000895AF92BF92CF92DF92EF9277
:103EF000FF920F931F93CF93DF93CDB7DEB7A097B9
:103F00000FB6F894DEBF0FBECDBF611571058105F8
:103F10009105A9F1B12CC42ED12CE12CF12CAA24AD
:103F2000A394AB0C01E010E00C0F1D1F0B0D111D35
:103F3000B7FC1A95A70196010E94EBF5F801608382
:103F4000B901CA01611571058105910511F41B2D97
:103F500011C0BA2CE4CFE1E0F0E0EC0FFD1FE10F5F
:103F6000F11D17FDFA9580818A3038F490E3890FAE
:103F7000B3DF11501F3F79F714C097E3F8CF80E308
:103F8000A0960FB6F894DEBF0FBECDBFDF91CF91E4
:103F90001F910F91FF90EF90DF90CF90BF90AF9067
:103FA0009BCFA0960FB6F894DEBF0FBECDBFDF91BA
:103FB000CF911F910F91FF90EF90DF90CF90BF9026
:103FC000AF9008954115510511F4862F85CF8BCF01
:103FD000AB01682F70E080E090E0F4CFAB01BC0152
:103FE00080E090E0EFCFCF92DF92EF92FF926B01F3
:103FF0007C0197FF0AC08DE26FDFF094E094D094CB
:10400000C094C11CD11CE11CF11C4AE0C701B601DF
:10401000FF90EF90DF90CF9066CF4115510511F4DE
:10402000862F5ACF4A30510509F4DDCF5CCFAB0162
:10403000BC01882777FD8095982FEFCF8DE04CDF6E
:104040008AE04ACFAB01BC0180E090E0BBDFF6CF55
:104050008F929F92AF92BF92CF92DF92EF92FF9298
:10406000CF936B017C01B42E20E030E0A9010E94C7
:10407000B1F287FF06C08DE22FDFF7FAF094F7F870
:10408000F094C0E060E070E080E09FE3CB1541F089
:104090002DEC3CEC4CEC5DE30E94EFF4CF5FF6CFEF
:1040A0009B01AC01C701B6010E94D8F16B017C01F4
:1040B0000E9425F34B015C014AE015DFCC2381F11E
:1040C000C501B4010E9451F39B01AC01C701B601C7
:1040D0000E94D7F16B017C018EE2FEDE20E030E031
:1040E00040E251E4C701B6010E94EFF46B017C018C
:1040F0000E9420F34B01AA2497FCA094BA2CC5017E
:10410000B40171DFC501B4010E9453F39B01AC01FE
:10411000C701B6010E94D7F16B017C01C150F1F6D5
:10412000CF91FF90EF90DF90CF90BF90AF909F9096
:104130008F9008958DCF809117078130B9F40E9438
:10414000469A5F9A1092EE068A9A1092EF069FB7EF
:10415000F894809108018160809308019FBF1092BC
:10416000F006129A0E94746B109217070895CF926E
:10417000DF92EF92FF920F931F93CF93DF93EC01A7
:104180000E9425EF0E811F812885398501151105B3
:104190002105310559F53C853323A9F12A85315094
:1041A0003C8731E0320F3A874D85341301C01A86BF
:1041B000FE0134E0239FE00DF11D112406851785D3
:1041C000208931890A831B832C833D836B017C0109
:1041D000C00ED11EE11CF11CCE82DF82E886F9867A
:1041E0008C819D81892B79F0409A0DC06B017C01F7
:1041F000C01AD10AE20AF30AF7FC05C040981E82F1
:104200001F8218861986DF91CF911F910F91FF9021
:10421000EF90DF90CF9008950E9425EF60931305F3
:104220007093140580931505909316050895CF9209
:10423000DF92EF92FF920F931F93CF93DF93EB01E7
:10424000FC0160817181828193812CE3C22ED12C8B
:10425000E12CF12CA70196010E94EBF5162F072FF8
:10426000CA01B901A70196010E94EBF5F62EE72ECF
:10427000CA01B90128E130E040E050E00E94EBF5CE
:10428000FB01C9016DE671E00E94C4F59B014F2D51
:104290005E2D21153105D9F00F931F93EF92FF92F8
:1042A000FF93EF939F938F933F932F9388ED97E026
:1042B0009F938F93DF93CF930E94BFFA8DB79EB7E2
:1042C0000E960FB6F8949EBF0FBE8DBF5BC00097D1
:1042D000C9F00F931F93EF92FF92FF93EF939F9379
:1042E0008F9388EC97E09F938F93DF93CF930E94F7
:1042F000BFFAEDB7FEB73C960FB6F894FEBF0FBEFF
:10430000EDBF40C03097B9F00F931F93EF92FF922B
:10431000FF93EF938CEB97E09F938F93DF93CF9373
:104320000E94BFFA8DB79EB70A960FB6F8949EBF4B
:104330000FBE8DBF27C0452BA9F00F931F93EF929F
:10434000FF9284EB97E09F938F93DF93CF930E942C
:10435000BFFAEDB7FEB738960FB6F894FEBF0FBEA2
:10436000EDBF10C00F931F9380EB97E09F938F9347
:10437000DF93CF930E94BFFA0F900F900F900F9092
:104380000F900F90DF91CF911F910F91FF90EF90C1
:10439000DF90CF90089581548A3148F5482F50E03E
:1043A000FA0133E0F595E7953A95E1F7E651F44FD8
:1043B000208130E0877002C0359527958A95E2F715
:1043C00020FF15C0FA01E053F44F2081222339F079
:1043D0008091F50B9091F60B820F911D02C080E049
:1043E00090E09093F20B8093F10B81E0089580E0D0
:1043F0000895D1DF882339F081E02091F10B3091CD
:10440000F20B232B09F480E008951F93CF93DF93E1
:104410008091F10B9091F20B009701F1FC01EF01FB
:104420001191212F2F7D99F0153411F01536B9F720
:10443000188260E070E08091F10B9091F20B0E9485
:1044400058F61883562F472F382F292F0BC060E0BE
:1044500070E0DF91CF911F910C9458F650E040E04E
:1044600030E020E0652F742F832F922FDF91CF91C2
:104470001F9108958091F10B9091F20B009731F00C
:104480004AE050E060E070E00C94C0F760E070E05B
:10449000CB0108958091F10B9091F20B009731F0D0
:1044A0004AE050E060E070E00C94F1F860E070E009
:1044B000CB010895DFDF97FD0CC0DCDF6F3F710596
:1044C0008105910509F014F4D5DF01C06FEF862F47
:1044D000089580E008958091F10B9091F20B892B63
:1044E00039F0E8DF91E0811101C090E0892F089553
:1044F00081E00895EF92FF920F931F93CF93DF9384
:10450000EC017B018A016C854D8564130AC0E8814A
:10451000F9810190F081E02DCE0119950E94999FBB
:10452000F2CFF70120813181F801808191815B8593
:10453000FE0174E0579FE00DF11D11243E9631837A
:104540002083938382836F5F6C8781E0850F84175C
:1045500011F08B8701C01B86DF91CF911F910F91C6
:10456000FF90EF900895AF92BF92CF92DF92FF92AB
:104570000F931F93CF93DF9300D01F92CDB7DEB779
:10458000F82E662351F010924E0410924A041092B5
:104590004B0410924C0410924D040E9425EF0091A0
:1045A0004A0410914B0420914C0430914D045B015E
:1045B0006C01A01AB10AC20AD30AD7FC40C0F7FEA8
:1045C00005C004EC19E020E030E015C0E0914E0495
:1045D0002F2D332727FD30952C5F3F4F4E2F55272A
:1045E00047FD50952417350754F1EF1554F300E9B2
:1045F00011E020E030E0DC01CB01800F911FA21F11
:10460000B31F80934A0490934B04A0934C04B0933F
:104610004D0480ED97E09A8389838CE291E09C833E
:104620008B83AE014F5F5F4FBE016D5F7F4F83EEA7
:1046300094E060DF80914E048F5F80934E040F9072
:104640000F900F900F90DF91CF911F910F91FF90DE
:10465000DF90CF90BF90AF900895EAE0F1E08081C5
:10466000806280839FB7F894EBE0F1E080818F7DDA
:1046700080839FBF089520E030E042E852E46091DB
:104680002E1270912F1280913012909131120E944F
:10469000B4F49FB718162CF4F89480910B01806243
:1046A00004C0F89480910B018F7D80930B019FBF14
:1046B000089520E137E04CE057E068E077E084E0DF
:1046C00097E00C94478AAF92BF92CF92DF92EF921D
:1046D000FF920F931F93CF93DF9300D01F92CDB71C
:1046E000DEB779015C01AA0CBB1CAA0CBB1CC5017E
:1046F0008C5F984F6C01FC01108211821282138230
:1047000049835A836B837C83D4DF49815A816B81CF
:104710007C81F6014083518362837383C0901B05C3
:1047200020E030E0A901B801C7010E94B1F2811177
:1047300008C0F501E750F54FE590F590059114910B
:1047400004C0C801D7017C018D0120E137E04CE0B5
:1047500057E068E077E084E097E00E945C7F0E9489
:104760005B941092CB0B0F900F900F900F90DF91F6
:10477000CF911F910F91FF90EF90DF90CF90BF905E
:10478000AF9008958091E3068093E4061092E506C9
:1047900008959091E306E92FF0E0E153FB4F808309
:1047A0009F5F943018F49093E30602C01092E306E2
:1047B0008091E5068F5F8093E5060895CF93FC0115
:1047C000C62F80818B3399F08091E506843078F490
:1047D0002091E30630E6239FC0011124BF018D59CB
:1047E0009A4F0E949BFA8C2FD4DF81E001C080E0B9
:1047F000CF9108950F931F93CF93DF93EC01DEDFEA
:104800008823B1F0E2E1FFE084918F010F5F1F4F39
:10481000882319F061DBF801F7CFBE018DEA9AE039
:104820000E94208C82E258DB8AE056DB81E001C0E6
:1048300080E0DF91CF911F910F910895DF92EF9269
:10484000FF920F931F93CF93DF93CDB7DEB76E9791
:104850000FB6F894DEBF0FBECDBF609161057091B9
:1048600062056115710559F14DE150E08E010F5F50
:104870001F4FC8010E942AFA1E8EF8017F01E01A1C
:10488000F10AD190DD2019F08AE0D812F7CFF801B3
:10489000EE0DFF1D108260E0C801ACDF882379F0C7
:1048A000DD20B1F08FEFE81AF80A80916105909150
:1048B00062058E0D9F1D909362058093610581E0D6
:1048C0002091610530916205232B29F480E003C01B
:1048D00080E090E0F0CF6E960FB6F894DEBF0FBE8A
:1048E000CDBFDF91CF911F910F91FF90EF90DF909F
:1048F00008959093620580936105A0CF60E08FE4F6
:104900000E9403F161E08AE30E9403F18C9808950C
:1049100052985A9A08958F929F92AF92BF92CF92D7
:10492000DF92EF92FF920F931F93CF93DF93CDB758
:10493000DEB728970FB6F894DEBF0FBECDBF8091CB
:104940001A07882309F482C18091E506811102C00B
:10495000109250049924939440919609509197098C
:1049600060919809709199098091920990919309A9
:10497000A0919409B0919509481759076A077B07D8
:1049800008F4912C00E010E0BB24B394F0E6AF2EC5
:104990009091E50680911507943008F0AEC0911013
:1049A000ACC0909150049111A8C08111A6C0809113
:1049B000ED089091EE08A091EF08B091F008809377
:1049C000960990939709A0939809B093990985EE59
:1049D00098E00E942855882E99249394C0909609B7
:1049E000D0909709E0909809F09099094091920928
:1049F000509193096091940970919509C416D50658
:104A0000E606F706C0F4912C8F3F2FEF920749F18D
:104A10004AE0841709F442C0ADE08A1709F43EC0A9
:104A2000B3E28B1719F02AE382134DC020914F0493
:104A3000211149C02EC0E3E5F9E084917F014FEFD9
:104A4000E41AF40A882319F047DAF701F6CF88E16F
:104A500097E00E946B6A61E088E197E00E94DC6564
:104A600018C0E8E1FFE084917F019FEFE91AF90A9D
:104A7000882319F031DAF701F6CFE4E4F9E0849104
:104A80007F01AFEFEA1AFA0A882319F025DAF70155
:104A9000F6CFB3E28B1202C0B092500410924F04D2
:104AA0000115110509F474CF8091E306F801A89E61
:104AB000E00DF11D1124ED59FA4F108280E069DEFE
:104AC00000E010E065CF0F35110508F061CF2BE352
:104AD000821202C0B0924F0420914F04211158CF8E
:104AE0009091E306F801A99EE00DF11D1124ED5906
:104AF000FA4F80830F5F1F4F4BCF882309F4A6C066
:104B0000E3E6F5E023EC35E083E296E063E876E067
:104B10001192D9011D929D01DC011D92CD01DB0195
:104B20001D92BD01B5E0E33CFB0791F7C0901B056A
:104B300060911B0270911C02882777FD8095982F49
:104B40000E9453F319821A821B821C8200E010E03B
:104B500020E830EC0D831E832F8338877B018C0186
:104B600027EB3BE04BEB5BE0BE016F5F7F4FCE017D
:104B700005960E945C7F67EB7BE083E090E00E94FB
:104B8000038B8091C30B9091C40BA091C50BB09186
:104B9000C60B8093F4069093F506A093F606B093A7
:104BA000F7068091BF0B9091C00BA091C10BB09103
:104BB000C20B8093F8069093F906A093FA06B0937F
:104BC000FB062AE939E949E95EE360910C07709137
:104BD0000D0780910E0790910F070E94B4F41816EC
:104BE000BCF42DEC3CEC4CEC5DE36091BB0B7091A4
:104BF000BC0B8091BD0B9091BE0B0E94D7F16093CE
:104C00000C0770930D0780930E0790930F0710C049
:104C10008091BB0B9091BC0BA091BD0BB091BE0BD2
:104C200080930C0790930D07A0930E07B0930F0786
:104C300085E595E5A5E0B2E480931D0290931E0200
:104C4000A0931F02B09320021092150728960FB66A
:104C5000F894DEBF0FBECDBFDF91CF911F910F91B2
:104C6000FF90EF90DF90CF90BF90AF909F908F908C
:104C70000895FF920F931F93CF93DF93EC0184E588
:104C8000B8DB882321F116DCF82E1816ECF4E2E1EB
:104C9000FFE084918F010F5F1F4F882319F01CD90B
:104CA000F801F7CF8DE418D96AE070E0CE0196D90B
:104CB0006F2D772767FD709581E399E00E94488CFE
:104CC0008AE00AD981E008C08093E20404C08091A0
:104CD0001B058093E20480E0DF91CF911F910F913B
:104CE000FF900895AF92BF92CF92DF92EF92FF9222
:104CF0000F931F93CF93DF93EC018C01000F111FD3
:104D0000000F111FF801EA5CFA4F20E030E0A90122
:104D100060817181828193810E94D8F1F801EE5BFC
:104D2000FA4F20813181428153810E94D8F16B0179
:104D30007C01F801E65DFA4F60837183828393837F
:104D40000351154FF80165917591859194918E01EC
:104D5000000F111F000F111F9801225E3A4F5901D9
:104D6000A70196010E94D8F1F501608371838283C7
:104D700093830F51154FF801659175918591949129
:104D8000CC0FDD1FCC0FDD1FC45FDD4FA7019601E7
:104D90000E94D8F1688379838A839B83DF91CF91C6
:104DA0001F910F91FF90EF90DF90CF90BF90AF9049
:104DB00008954F925F926F927F92AF92BF92CF927F
:104DC000DF92EF92FF920F931F93CF93DF93EC014B
:104DD000FC01E654F54F6491FC01EE0FFF1FEE0F4E
:104DE000FF1FE753F54F45905590659074907727D6
:104DF00067FD7095872F972F0E9453F36B017C01FD
:104E000020E030E040EC5FE3C301B2010E94EFF428
:104E1000A70196010E94EFF4AB01BC0100E010E095
:104E20009801CE0150DCFE01EE0FFF1FEE0FFF1FB9
:104E3000E354F54F2591359145915491C701B60141
:104E40000E94EFF46B017C0120E030E0A9010E9498
:104E5000B1F25E01AA0CBB1CAA0CBB1C882309F48E
:104E600045C000E010E09801B701A6017058CE01DE
:104E70002ADCFE01E351F74F6491611117C0E2E1B2
:104E8000FFE084918F010F5F1F4F882319F024D812
:104E9000F801F7CFEBECF8E084918F010F5F1F4F23
:104EA000882319F019D8F801F7CF6AE0F501E75027
:104EB000F54F459055906590749070E080E090E0DB
:104EC0000E9453F39B01AC01C301B2010E94B8F2EE
:104ED0002B013C01A7019601C701B6010E94D8F140
:104EE000AB01BC0193018201CE01EDDBFE01EF506D
:104EF000F94F81E08083FE01E251F94F8083F50193
:104F0000EE5BFA4F1082118212821382CE01EADE2A
:104F1000F501EB52F54F6591759185919491CC0F08
:104F2000DD1FCC0FDD1F8E010C5F184FFE01E65D0B
:104F3000FA4F20813181428153810E94D8F1F801DA
:104F40006083718382839383B4DBCC50D94FF801A3
:104F500080819181A281B38188839983AA83BB8355
:104F6000DF91CF911F910F91FF90EF90DF90CF9045
:104F7000BF90AF907F906F905F904F900895CF92C9
:104F8000EF92FF920F931F93E0901D02F0901E028C
:104F900000911F0210912002C0901B0520E137E014
:104FA0004CE057E068E077E084E097E00E945C7FA7
:104FB0001F910F91FF90EF90CF900895CF92EF92B5
:104FC000FF920F931F93C0901B057B018C0120E083
:104FD00037E04CEF56E068EF76E084EF96E00E9411
:104FE0005C7F1F910F91FF90EF90CF90089580E12B
:104FF000E4EFF6E0A4E0B7E001900D928A95E1F7C6
:10500000089580E1E4E0F7E0A4EFB6E001900D92AE
:105010008A95E1F708954F925F926F927F928F92F7
:105020009F92AF92BF92CF92DF92EF92FF920F9337
:105030001F93CF93DF936C017B018A01E90180907C
:105040001D0290901E02A0901F02B0902002FA0153
:10505000208131814281538160910C0770910D074D
:1050600080910E0790910F070E94B1F287FF2CC02C
:10507000488059806A807B8020E030E0A901B2013D
:10508000C3010E94B1F2811107C0E1E0FBE085910C
:105090009591A591B49102C0C201D30180931D02E4
:1050A00090931E02A0931F02B0932002F80180810A
:1050B0009181A281B38180930C0790930D07A093F7
:1050C0000E07B0930F075BDF488059806A807B80B2
:1050D00020E030E0A901B201C3010E94B1F28111C8
:1050E00005C055E545E535E023E404C0542D452DC4
:1050F000362D272D852F942FA32FB22F80931D029D
:1051000090931E02A0931F02B0932002F6018081AB
:105110009181A281B3818093040790930507A093A6
:105120000607B0930707F70180819181A281B381BF
:105130008093080790930907A0930A07B0930B0781
:105140001EDFF801208131814281538160910C077B
:1051500070910D0780910E0790910F070E94B4F493
:10516000181684F5D880E980FA80CB8120E030E001
:10517000A9016D2D7E2D8F2D9C2F0E94B1F28111E2
:1051800007C0E1E0FBE085919591A591B49104C041
:105190008D2D9E2DAF2DBC2F80931D0290931E024E
:1051A000A0931F02B0932002F80180819181A28117
:1051B000B38180930C0790930D07A0930E07B093D3
:1051C0000F07DDDE0E945B9480921D0290921E020A
:1051D000A0921F02B0922002DF91CF911F910F91F8
:1051E000FF90EF90DF90CF90BF90AF909F908F9007
:1051F0007F906F905F904F9008959B01AC0168E0A5
:1052000077E084E097E007CF9A014CE057E003CFC6
:10521000CF92DF92EF92FF920F931F93CF93DF9382
:105220003BE1E32E33E0F32E04EF16E0C4E0D7E0D9
:1052300047E5C42E45E0D42EF70181917F01ABD81C
:105240008823C9F0E2D8F6012081211104C0209101
:105250001A05222329F0288139814A815B8103C004
:1052600020E030E0A9010E94D8F1F8016083718349
:105270008283938309C088819981AA81BB81F801C7
:1052800080839183A283B3830C5F1F4F2496FFEF2B
:10529000CF1ADF0A8FE1E81683E0F80669F686E4A4
:1052A000A8D88823B9F0B1D820E030E0A9010E9445
:1052B000B4F418167CF4A9D820E030E040E752E4BA
:1052C0000E94B8F260931D0270931E0280931F0229
:1052D00090932002DF91CF911F910F91FF90EF905B
:1052E000DF90CF900895CF92DF92EF92FF92CF930D
:1052F000DF930E9425EF6B017C01809106028823D9
:1053000009F468C02091CD043091CE0421153105F7
:1053100009F460C08091C9049091CA04A091CB04A3
:10532000B091CC04B701A601481B590B6A0B7B0B4B
:1053300077FD63C02330310519F13CF4213031058C
:105340000CF448C0E2E1FFE007C02430310509F069
:1053500041C0E2E1FFE02AC08491EF012196882359
:1053600021F00E946C1FFE01F7CFEFE1F9E084917C
:10537000EF012196882371F10E946C1FFE01F7CF87
:10538000E2E1FFE08491EF012196882321F00E9461
:105390006C1FFE01F7CFE8E0F9E08491EF01219660
:1053A0008823C1F00E946C1FFE01F7CF8491EF01AA
:1053B0002196882321F00E946C1FFE01F7CFE0EFB9
:1053C000F8E08491EF012196882321F00E946C1F60
:1053D000FE01F7CF2091060230E0A8EEB3E00E9474
:1053E0002FF66C0D7D1D8E1D9F1D6093C90470935B
:1053F000CA048093CB049093CC04DF91CF91FF90AB
:10540000EF90DF90CF9008958C9A80911F1488239D
:10541000D9F10E94046C8091B30B9091B40BA091D0
:10542000B50BB091B60B85369105A105B1055CF0C1
:105430000597A109B1098093B30B9093B40BA09386
:10544000B50BB093B60B4091B30B5091B40B609178
:10545000B50B7091B60B40939609509397096093E2
:1054600098097093990985EE98E00E94F55581E0BE
:10547000809315078093160710921F148FEF90E00A
:1054800090931D0580931C05669B0BC081E0809363
:10549000170741E050E06BE970E2809122020C9422
:1054A00012ED08950F931F93CF93DF93CDB7DEB71F
:1054B00069970FB6F894DEBF0FBECDBF81E095E0CF
:1054C0000E94F7956E8B7F8B888F998FBE016F5FDF
:1054D0007F4FCE0146960E94172160E0CE010196D3
:1054E0000E94D4DCE2E1FFE084918F010F5F1F4F47
:1054F000882321F00E946C1FF801F6CFBE016F5F78
:105500007F4F8CEE97E00E94208C8AE00E946C1FF7
:1055100069960FB6F894DEBF0FBECDBFDF91CF9175
:105520001F910F9108951F93CF93DF9380911A07D6
:1055300081110E945B94C091F30BD091F40B80E534
:105540000E94CB21882321F00E946B22182F01C0DA
:1055500010E080911B07882349F1212F41E0BE0113
:1055600088E197E00E94306783E50E94F921882353
:1055700081F00E943A22AB01BC01409396095093FE
:105580009709609398097093990985EE98E00E94B5
:10559000F55588E197E00E94CB63111107C081E0C7
:1055A00095E0DF91CF911F910C942496DF91CF91DC
:1055B0001F9108950F931F93CF93DF9383E50E946C
:1055C000F921882309F445C00E945A22082F80E55A
:1055D0000E94F921882331F00E943A2277FD39C0D8
:1055E000EB0102C0CDE0D0E08C2FE9E7F7E0949129
:1055F000891731F0319697E0E13AF907C1F716C003
:10560000E8E1FFE08491EF012196882321F00E94D8
:105610006C1FFE01F7CFE1EAF7E08491EF012196DC
:105620008823B9F00E946C1FFE01F7CF61E08C2F38
:105630000E9403F1602F8C2F0E943CF110E0B80112
:105640008C2F0E94EDEF299721F410931D050093F4
:105650001C05DF91CF911F910F91089588E690E08E
:1056600008DB811147C08091140783FD43C083E5A7
:105670000E94F9218823E1F10E9405220E9420F373
:10568000709327126093261280E00E94FC990E947A
:10569000052220E030E04AEA52E40E94B1F21816F6
:1056A0004CF081E095E00E94C19560E088E697E0CB
:1056B0000E94E4DC0E94052220912E1230912F12CC
:1056C00040913012509131120E94B4F4181684F4B3
:1056D00088ED92E09F938F938EE597E09F938F9351
:1056E0001F920E94F9DE0F900F900F900F900F9075
:1056F0000C94EC8B0895EF92FF920F931F93CF932E
:10570000DF931F92CDB7DEB78C017B0180E2498326
:105710000E946C1F49814F3F11F482E401C084E56F
:105720000E946C1F8AE30E946C1FF80160817181E6
:105730008281938142E050E00E949A20F7014081EB
:1057400051816281738188EC98E00F90DF91CF9155
:105750001F910F91FF90EF900C947F8C0F931F93EC
:10576000CF93DF93CDB7DEB728970FB6F894DEBF9F
:105770000FBECDBF6091261270912712882777FD4A
:105780008095982F0E9453F369837A838B839C833F
:1057900080912E1290912F12A0913012B09131125F
:1057A0008D839E83AF83B8874EEFBE016F5F7F4FBF
:1057B000CE010596A0DF60912212709123128827F6
:1057C00077FD8095982F0E9453F369837A838B83AA
:1057D0009C8380912A1290912B12A0912C12B0914F
:1057E0002D128D839E83AF83B8874FEFBE016F5F0D
:1057F0007F4FCE0105967FDFE4ECF8E084918F01C6
:105800000F5F1F4F882321F00E946C1FF801F6CF15
:105810008091E20490E00E94FB966AE070E00E94B2
:105820001720EFEBF8E084918F010F5F1F4F882363
:1058300021F00E946C1FF801F6CF8FEF9FEF0E94BE
:10584000FB966AE070E00E94172028960FB6F89445
:10585000DEBF0FBECDBFDF91CF911F910F91089595
:10586000CF92DF92EF92FF928091B604882379F174
:105870000E9425EFC090B204D090B304E090B4042D
:10588000F090B5046C197D098E099F0997FD1FC022
:105890000E9425EF6B017C012091B60430E0A8EE58
:1058A000B3E00E942FF6C60ED71EE81EF91EC09266
:1058B000B204D092B304E092B404F092B5044EDF87
:1058C0008AE0FF90EF90DF90CF900C946C1FFF90D8
:1058D000EF90DF90CF900895DF92EF92FF920F93B9
:1058E0001F93CF93DF9383E50E94F921882319F05A
:1058F0000E945A2201C080E080931407E2E1FFE099
:105900008491EF012196882321F00E946C1FFE01F3
:10591000F7CFE7E5F7E08491EF012196882321F0A6
:105920000E946C1FFE01F7CF80911407882381F13C
:105930000DE417E0C0E0D0E020E08091140790E093
:105940000C2E02C0959587950A94E2F780FF17C048
:10595000DD24D394D20E222319F08CE20E946C1F16
:10596000F80125913491F90184917901FFEFEF1A43
:10597000FF0A882329F00E946C1F9701F4CFD22ED2
:1059800021960E5F1F4FC530D10569F02D2DD5CF63
:10599000E9E4F7E08491EF012196882321F00E9449
:1059A0006C1FFE01F7CF8AE0DF91CF911F910F911D
:1059B000FF90EF90DF900C946C1FCF93DF9383E503
:1059C0000E94F921882351F00E945A228D3308F059
:1059D0008CE380930602DF91CF910895E2E1FFE02E
:1059E0008491EF012196882321F00E946C1FFE0113
:1059F000F7CF4091060250E060E070E080E197E070
:105A00000E94BB8C8AE0DF91CF910C946C1FCF93E6
:105A1000DF9383E50E94F921882319F00E943A223E
:105A200002C060E070E0EB01DD27C230D105B8F0C4
:105A3000E8E1FFE08491EF012196882321F00E94A4
:105A40006C1FFE01F7CFEDE9F4E08491EF012196A0
:105A5000882309F44EC00E946C1FFE01F6CF88E433
:105A60000E94F9218823A9F00E943A226A3A71051E
:105A70003CF0653081E078072CF064E071E002C012
:105A80006AEA70E0FE01EE0FFF1FE55EFB4E7183D8
:105A9000608386E40E94F921882399F00E943A22CB
:105AA0006F3F710519F014F06FEF70E0FE01EE0F1B
:105AB000FF1FED5EFB4E77FF02C060E070E0718378
:105AC000608382E40E94F921882399F00E943A229F
:105AD0006530710534F0683871052CF067E870E0C6
