:100000000C946F1B0C9411EA0C943CEA0C9467EA74
:100010000C9492EA0C94BDEA0C94E8EA0C9413EB6D
:100020000C943EEB0C94A01B0C94A01B0C94A01BF6
:100030000C94A01B0C94A01B0C94A01B0C94A01B54
:100040000C94A01B0C9489900C94A01B0C94A01BE6
:100050000C94A01B0C94A01B0C94E89E0C9469EBD0
:100060000C94A01B0C94A21B0C94A01B0C94A01B22
:100070000C94A01B0C94A01B0C94A01B0C94A01B14
:100080000C94A01B0C94A01B0C94A01B0C94A01B04
:100090000C94A01B0C94A01B0C94A01B0C94A01BF4
:1000A0000C94A01B0C94A01B0C94A01B0C94A01BE4
:1000B0000C94A01B0C94A01B0C94A01B0C94A01BD4
:1000C0000C94A01B0C94A01B0C94A01B0C94A01BC4
:1000D0000C94A01B0C94A01B0C94A01B0C94A01BB4
:1000E0000C94A01B55A75EA767A770A779A794A734
:1000F000A1A7AAA782A78BA7EBE9B5E9BDE9C9E942
:10010000D6E9F7E904EA9EECA3ECA8ECB2ECBCEC6F
:1001100035EDC6ECCEECD6ECE0ECEAECF4EC03ED1D
:100120000DED35ED17ED21ED2BED56ED59ED48EDCB
:100130004CED52ED90ED5DED61ED67ED6BED6FED2A
:1001400075ED79ED7DED90ED83ED87ED8BED084A52
:10015000D73B3BCE016E84BCBFFDC12F3D6C7431DB
:100160009ABD56833DDA3D00C77F11BED9E4BB4C32
:100170003E916BAAAABE000000803F05A84CCDB2FC
:10018000D44EB93836A9020C50B9918688083CA6DD
:10019000AAAA2ABE000000803F00446F6E6520734B
:1001A0006176696E672066696C652E0A004D32398A
:1001B000002020506C616E6E6572427566666572D5
:1001C00042797465733A20002046726565204D655A
:1001D0006D6F72793A2000436F6D70696C65643A97
:1001E000204E6F7620203920323031370A00207CB3
:1001F00020417574686F723A2028414E5943554228
:10020000494320466F75724D61782C2056312E304F
:10021000290A00323031372D30392D323220313237
:100220003A303000204C61737420557064617465FD
:10023000643A2000312E312E350A004D61726C690E
:100240006E0020536F667477617265205265736526
:10025000740A00205761746368646F672052657385
:1002600065740A002042726F776E206F7574205299
:10027000657365740A002045787465726E616C2040
:1002800052657365740A00506F77657255700A0085
:1002900073746172740A005072696E7465722068BA
:1002A000616C7465642E206B696C6C282920636115
:1002B0006C6C6564210A0050617261646120646540
:1002C00020656D657267656E636961004B494C4CD2
:1002D0002063617573656420627920746F6F206D8F
:1002E00075636820696E6163746976652074696DF1
:1002F00065202D2063757272656E7420636F6D6D5D
:10030000616E643A20004D3630300020746F6F20EB
:100310006C6F6E6720657874727573696F6E20708C
:10032000726576656E7465640A0020636F6C642084
:10033000657874727573696F6E2070726576656E1C
:100340007465640A006F6B00526573656E643A20D1
:10035000004E6F2063617365206C696768740A00E2
:10036000446573666173652061706C696361646F75
:10037000004572723A20546F6F20666172210054FA
:100380006F6F206661722066726F6D2072656665A0
:1003900072656E636520706F696E740A0043290A86
:1003A0000061626C656420286D696E2074656D70F3
:1003B0002000436F6C6420657874727564657320E7
:1003C000617265200020643A0020693A0020703A8A
:1003D00000205A00205900580020204D61783A2012
:1003E00000205A00205900580020204D696E3A2004
:1003F0000041706167617200456E63656E6465728D
:1004000000536F667420656E6473746F70733A2066
:100410000053657474696E672054726176656C2050
:10042000416363656C65726174696F6E3A20005355
:10043000657474696E6720526574726163742041DB
:100440006363656C65726174696F6E3A2000536511
:100450007474696E67205072696E742041636365BD
:100460006C65726174696F6E3A20005365747469CB
:100470006E67205072696E7420616E6420547261E0
:1004800076656C20416363656C65726174696F6E3B
:100490003A20004D31343520533C696E6465783E16
:1004A000206F7574206F662072616E67652028303A
:1004B0002D31290A002F2F20004361703A454D4508
:1004C0005247454E43595F5041525345523A300AC4
:1004D000004361703A434153455F4C494748545F7C
:1004E0004252494748544E4553533A300A004361FB
:1004F000703A544F47474C455F4C49474854533A2C
:10050000300A004361703A534F4654574152455F99
:10051000504F5745523A300A004361703A4C4556A5
:10052000454C494E475F444154413A300A004361CB
:10053000703A5A5F50524F42453A300A0043617058
:100540003A4155544F4C4556454C3A300A004361A8
:10055000703A5052494E545F4A4F423A310A004372
:1005600061703A50524F47524553533A300A004354
:1005700061703A4155544F5245504F52545F544563
:100580004D503A310A004361703A454550524F4D43
:100590003A310A004649524D574152455F4E414D4E
:1005A000453A4D61726C696E20312E312E3520280E
:1005B0004769746875622920534F555243455F431C
:1005C0004F44455F55524C3A68747470733A2F2FFC
:1005D0006769746875622E636F6D2F4D61726C6907
:1005E0006E4669726D776172652F4D61726C696ECE
:1005F0002050524F544F434F4C5F56455253494F32
:100600004E3A312E30204D414348494E455F5459B2
:1006100050453A344D61782045585452554445521E
:100620005F434F554E543A3120555549443A63651E
:100630006465326132662D343161322D343734389D
:100640002D396231322D63353563363266333637B4
:1006500066660A00344D6178204170616761722ED0
:10066000004D36303020486F74656E6420746F6FB3
:1006700020636F6C6420746F206368616E6765200F
:1006800066696C616D656E740A00506C61746166B8
:100690006F726D612043616C69656E7465002057EF
:1006A0003A0043616C656E74616E646F20506C61DA
:1006B000742E2E2E0043616C656E74616D69656EDB
:1006C000746F206C6973746F0020573A004E6F7A14
:1006D0007A6C6520257300344D6178206C697374E1
:1006E000612E006F6B004D31313320530050617229
:1006F00061646120646520656D657267656E63691C
:1007000061004543484F00494E464F004552524F05
:1007100052530044525952554E00434F4D4D554E81
:1007200049434154494F4E006F6666000207070770
:100730000C0713071A0744454255473A004E6F7A93
:100740007A6C6520257300344D6178206C69737470
:10075000612E00000136372603FF3C3D380EFF2E88
:10076000303E12FFFF0C0809FFFF071A1C18FFFF9D
:1007700008440AFF43FFFFFFFFFFFF50726F7465DD
:10078000637465642050696E0A00256973002569E9
:100790006D20256973002569682025696D2025690C
:1007A0007300256964202569682025696D20256905
:1007B00073002569792025696420256968202569E9
:1007C0006D20256973005072696E742074696D65BF
:1007D0003A20004D31323500456E642066696C6503
:1007E000206C6973740A00426567696E2066696CE3
:1007F00065206C6973740A0053696E206D6F7669A9
:100800006D69656E746F00344D6178206C69737426
:10081000612E00526573756D69656E646F20696D38
:100820007072652E004573706572616E646F206F23
:100830007264656E6573005265706F736F2E2E2E35
:100840000047322F47332062616420706172616D0E
:1008500065746572730A0041637469766520457832
:100860007472756465723A200020453A00205A3A45
:100870000020593A00583A002042403A0020403ABD
:1008800000202F005761726E696E673A20486F6DC5
:10089000696E672042756D702044697669736F7266
:1008A000203C20310A00020204627573793A2070FC
:1008B000617573656420666F7220696E7075740A65
:1008C00000627573793A2070617573656420666F94
:1008D0007220757365720A00627573793A207072BE
:1008E0006F63657373696E670A0020496E76616C89
:1008F00069642065787472756465722000534420C1
:1009000072656164206572726F720A00446F6E6571
:10091000207072696E74696E672066696C650A0082
:1009200050617261646120646520656D6572676500
:100930006E63696100446574656E6964610050723C
:10094000696E7465722073746F707065642064756D
:100950006520746F206572726F72732E20466978FD
:1009600020746865206572726F7220616E642075F4
:100970007365204D39393920746F20726573746145
:1009800072742E202854656D70657261747572657D
:100990002069732072657365742E20536574206915
:1009A0007420616674657220726573746172746913
:1009B0006E67290A004E6F204C696E65204E756D7A
:1009C000626572207769746820636865636B73750C
:1009D0006D2C204C617374204C696E653A20004E7A
:1009E0006F20436865636B73756D20776974682049
:1009F0006C696E65206E756D6265722C204C61733A
:100A000074204C696E653A2000636865636B73758A
:100A10006D206D69736D617463682C204C61737413
:100A2000204C696E653A20004C696E65204E756DEC
:100A3000626572206973206E6F74204C617374203C
:100A40004C696E65204E756D6265722B312C204CA1
:100A5000617374204C696E653A20004D313130006D
:100A6000656E7175657565696E67202200FFFFFF11
:100A70000000A0400000A0400000004000005D43D6
:100A800000005C4300009643000080C000000000AE
:100A9000000000000000594300005C430000964342
:100AA000000080C00000000000000000000048427C
:100AB0000000484200002041000000007C3C3E5EF7
:100AC0002B3D3F2F5B5D3B2C2A225C004D333100D8
:100AD0004D383420582059205A20450043616E6E0D
:100AE0006F7420656E746572207375626469723A02
:100AF00020006175746F25692E67006572726F72D0
:100B00002077726974696E6720746F2066696C65FE
:100B10000A004E6F74205344207072696E74696EBF
:100B2000670A005344207072696E74696E672062B0
:100B3000797465200044656C6574696F6E20666128
:100B4000696C65642C2046696C653A200046696CC6
:100B5000652064656C657465643A006F70656E202D
:100B60006661696C65642C2046696C653A200057A3
:100B7000726974696E6720746F2066696C653A20CB
:100B8000006F70656E206661696C65642C20466933
:100B90006C653A20006F70656E206661696C6564F3
:100BA0002C2046696C653A200046696C65207365A7
:100BB0006C65637465640A002053697A653A2000A5
:100BC00046696C65206F70656E65643A20006F70D1
:100BD000656E206661696C65642C2046696C653AB7
:100BE00020002066696C653A20004E6F7720002255
:100BF00020706F73002220706172656E743A22005B
:100C0000535542524F5554494E452043414C4C2078
:100C10007461726765743A22005061726164612088
:100C2000646520656D657267656E636961007472E5
:100C300079696E6720746F2063616C6C20737562D4
:100C40002D67636F64652066696C657320776974CE
:100C50006820746F6F206D616E79206C6576656CAD
:100C6000732E204D4158206C6576656C2069733A6F
:100C7000004D3234004D323320257300534420633D
:100C8000617264206F6B0A006F70656E526F6F74D3
:100C9000206661696C65640A00766F6C756D652EFF
:100CA000696E6974206661696C65640A005344204A
:100CB000696E6974206661696C0A0043616E6E6FCB
:100CC00074206F70656E20737562646972200048CD
:100CD000617264636F6465642044656661756C74F9
:100CE0002053657474696E6773204C6F616465642A
:100CF0000A00DC050000DC0500006400000010278D
:100D000000000000964300009643000020410000D0
:100D1000C8410000A0420000A0420000C843333395
:100D2000B942202863616C63756C61746564292124
:100D30000A0020213D2000454550524F4D2043528E
:100D400043206D69736D61746368202D202873746E
:100D50006F726564292000290A0020627974657326
:100D60003B2063726320002073746F72656420738C
:100D7000657474696E6773207265747269657665EF
:100D800064202800204D61726C696E3D5634302914
:100D90000A0028454550524F4D3D00454550524FA1
:100DA0004D2076657273696F6E206D69736D617425
:100DB00063682000290A002062797465733B206310
:100DC0007263200053657474696E67732053746F87
:100DD0007265642028004572726F722077726974A0
:100DE000696E6720746F20454550524F4D210A00AF
:100DF0004572726F722077726974696E6720746FC2
:100E000020454550524F4D210A0066696C616D6561
:100E10006E743A20007A5F6D696E3A2000795F6DDA
:100E2000696E3A2000785F6D696E3A2000526570F5
:100E30006F7274696E6720656E6473746F7020736F
:100E400074617475730A00456E6473746F707320F7
:100E5000256320256320256320256300205A3A005E
:100E600020593A0020583A00656E6473746F7073AD
:100E7000206869743A2000556E6B6E6F776E206340
:100E80006F6D6D616E643A20220020746F6F206C6C
:100E90006F6E6720657874727573696F6E207072FB
:100EA0006576656E7465640A0020636F6C64206506
:100EB0007874727573696F6E2070726576656E7482
:100EC00065640A006563686F3A004572726F723A32
:100ED00000205A3A0020593A0020436F756E742062
:100EE000583A004D383420582059205A20450024C3
:100EF000F4D43050C38E20C2A24017828B701112DE
:100F00007A910D816CD90AA861E108C7586607611A
:100F10005143061E4B5D05C145A7041A4111040942
:100F20003D9803713931034036DB0265339102D4B9
:100F3000305402802E1D02632CEE01752AC501B0CB
:100F400028A001102781018F2564012B244B01E08B
:100F5000223401AC211F018D200D01801FFC008473
:100F60001EED00971DDF00B81CD200E61BC6002056
:100F70001BBC00641AB200B219A8000A19A0006ACA
:100F8000189900D117910040178B00B516840031D5
:100F9000167E00B31579003A157300C7146F005818
:100FA000146A00EE1366008813630025135E00C701
:100FB000125B006C12570015125400C111510070E1
:100FC000114F0021114B00D61049008D10470046EB
:100FD00010440002104200C00F4000800F3E00424B
:100FE0000F3C00060F3B00CB0E3800930E37005C21
:100FF0000E3500270E3400F30D3200C10D31009084
:101000000D3000600D2E00320D2D00050D2C00D985
:101010000C2B00AE0C2900850C29005C0C27003538
:101020000C27000E0C2600E80B2400C40B2400A0A3
:101030000B23007D0B23005A0B2100390B210018D4
:101040000B2000F80A1F00D90A1E00BB0A1E009DD3
:101050000A1D00800A1D00630A1C00470A1B002CA1
:101060000A1B00110A1A00F7091A00DD091900C449
:10107000091900AB091900920917007B09180063D0
:101080000917004C09160036091600200916000A37
:10109000091500F5081500E0081400CC081400B884
:1010A000081400A4081400900813007D0812006BB7
:1010B00008130058081200460812003408110023D3
:1010C0000811001208110001081100F0071000E0DB
:1010D000071000D0071000C0071000B0070F00A1D4
:1010E00007100091070E0083070F0074070F0065BB
:1010F000070E0057070E0049070E003B070D002E94
:10110000070E0020070D0013070D0006070D00F95C
:10111000060C00ED060D00E0060C00D4060C00C81D
:10112000060C00BC060C00B0060C00A4060B0099CF
:10113000060C008D060B0082060B0077060B006C78
:10114000060B0061060A0057060B004C060A004217
:10115000060A0038060A002E060A0024060A001AAB
:10116000060A001006090007060A00FD050900F43A
:10117000050900EB050900E2050900D9050900D0C1
:10118000050900C7050900BE050900B5050800AD41
:10119000050800A50509009C050800940508008CB9
:1011A000050800840508007C050800740508006C2B
:1011B000050700650508005D050700560508004E97
:1011C00005070047050700400508003805070031FE
:1011D0000507002A050700230507001C0506001661
:1011E0000507000F0507000805060002050700FBBC
:1011F000040600F5040700EE040600E8040600E219
:10120000040700DB040600D5040600CF040600C96D
:10121000040600C3040600BD040600B7040600B1BE
:10122000040500AC040600A6040600A00405009B0B
:1012300004060095040500900406008A0405008554
:10124000040500800406007A04050075040500709A
:101250000405006B04050066040500610405005CDC
:1012600004050057040500520405004D040500481C
:10127000040500430405003E0404003A040500355B
:10128000040500300404002C040500270404002396
:101290000405001E0404001A0404001604050011CD
:1012A0000404000D04040009040500040404000003
:1012B000040400FC030400F8030400F4030400F039
:1012C000030400EC030400E8030400E4030400E06A
:1012D000030400DC030400D8030400D4030400D09A
:1012E000030400CC030400C8030300C50303002467
:1012F000F404D9201BC40C5C0E9804C4095F026579
:10130000077101F405F900FB04B30048048700C12C
:101310000369005803550003034500BE023A0084E8
:1013200002310053022A002902250004022000E4B1
:10133000011C00C8011900AF0117009801140084B6
:10134000011300710110006101100051010E0043F2
:10135000010D0036010B002B010B0020010B0015C5
:101360000109000C01090003010800FB000800F35B
:10137000000800EB000700E4000600DE000600D8CD
:10138000000600D2000600CC000500C7000500C220
:10139000000500BD000400B9000400B5000400B160
:1013A000000400AD000400A9000400A5000300A291
:1013B0000003009F0004009B0003009800030095B9
:1013C00000020093000300900003008D0002008BD8
:1013D00000030088000200860002008400030081F0
:1013E0000002007F0002007D0002007B0002007905
:1013F0000002007700010076000200740002007213
:10140000000100710002006F0002006D0001006C1D
:101410000002006A00010069000200670001006626
:10142000000100650001006400020062000100612B
:10143000000100600001005F0002005D0001005C2F
:101440000001005B0001005A000100590001005832
:101450000001005700010056000100550001005432
:101460000001005300000053000100520001005130
:10147000000100500001004F0001004E0000004E2E
:101480000001004D0001004C0001004B0000004B2A
:101490000001004A00010049000100480000004826
:1014A0000001004700010046000000460001004521
:1014B000000000450001004400010043000000431B
:1014C0000001004200000042000100410000004114
:1014D000000100400001003F0000003F0001003E0D
:1014E0000000003E0001003D0000003D0001003C06
:1014F0000000003C0000003C0001003B0000003BFD
:101500000001003A0000003A0001003900000039F3
:1015100000010038000000380000003800010037EA
:1015200000000037000100360000003600000036E1
:1015300000010035000000350000003500010034D6
:1015400000000034000000340001003300000033CC
:1015500000000033000100320000003200000032C1
:1015600000010031000000310000003100010030B6
:1015700000000030000000300001002F0000002FAC
:101580000000002F0000002F0001002E0000002EA0
:101590000000002E0001002D0000002D0000002D95
:1015A0000000002D0001002C0000002C0000002C89
:1015B0000000002C0001002B0000002B0000002B7D
:1015C0000000002B0001002A0000002A0000002A71
:1015D0000000002A00010029000000290000002965
:1015E0000000002900000029000100280000002858
:1015F000000000280000002800000028000100274B
:10160000000000270000002700000027000000273E
:101610000001002600000026000000260000002631
:101620000000002600010025000000250000002524
:101630000000002500000025000000250001002416
:10164000000000240000002400000024000000240A
:1016500000010023000000230000002300000023FD
:1016600000000023000000230000002300010022EE
:1016700000000022000000220000002200000022E2
:1016800000000022000100210000002100000021D4
:1016900000000021000000210000002100000021C6
:1016A00000010020000000200000002000000020B9
:1016B00000000020000000200000002000000020AA
:1016C0000001001F0000001F0000001F0000001F9D
:1016D0000000001F0000001F0000001F0001001E8E
:1016E0000000001E0000001E0000001E000000544C
:1016F0006865726D616C2052756E61776179004525
:1017000072726F723A2074656D7065726174757271
:10171000610050617261646120646520656D65726D
:1017200067656E63696100202D20496E76616C6982
:1017300064206578747275646572206E756D62657B
:101740007220210A0048656174696E6720666169CC
:101750006C6564004572726F723A20616C2063613F
:101760006C656E746172004D494E54454D50207445
:101770007269676765726564004572726F723A20BC
:1017800054656D70204D696E20506C617400457217
:10179000726F723A2054656D70204D696E696D618B
:1017A000004D415854454D50207472696767657209
:1017B0006564004572726F723A2054656D70204DF9
:1017C000617820506C6174004572726F723A2054D7
:1017D000656D70204D6178696D61006265640A0015
:1017E0002C2073797374656D2073746F70706564E9
:1017F00021204865617465725F49443A2000236482
:101800006566696E65202044454641554C545F4BE2
:1018100064200023646566696E6520204445464166
:10182000554C545F4B69200023646566696E6520E2
:101830002044454641554C545F4B7020005049446C
:10184000204175746F74756E652066696E69736882
:101850006564212050757420746865206C61737410
:10186000204B702C204B6920616E64204B642063F8
:101870006F6E7374616E74732066726F6D20626533
:101880006C6F7720696E746F20436F6E6669677541
:10189000726174696F6E2E680A0050494420417568
:1018A000746F74756E65206661696C65642120745F
:1018B000696D656F75740A00504944204175746FF5
:1018C00074756E65206661696C6564212054656D70
:1018D000706572617475726520746F6F20686967D6
:1018E000680A00204B643A2000204B693A2000200F
:1018F0004B703A20000A20436C6173736963205077
:101900004944200A002054753A2000204B753A20A3
:1019100000206D61783A2000206D696E3A20002029
:10192000643A200020626961733A200070012C0142
:1019300090012701B0012201C0011D01F001180131
:101940001002130130020E0160020901900204012D
:10195000C002FF000003FA004003F5008003F0001E
:10196000D003EB002004E6007004E100E004DC009A
:101970004005D700C005D2004006CD00D006C80003
:101980008007C3003008BE00F008B900C009B400E9
:10199000B00AAF00B00BAA00D00CA500000EA0004A
:1019A000500F9B00C01096005012910000148C0044
:1019B000C0158700B0178200B0197D00D01B7800D9
:1019C000001E730040206E0090226900F024640025
:1019D00040275F0090295A00E02B5500102E500040
:1019E00020304B0010324600E033410090353C007F
:1019F0001037370070383200A0392D00B03A280077
:101A0000A03B2300603C1E00103D1900903D1400D7
:101A1000103E0F00703E0A00C03E0500003F00006F
:101A2000403FFBFF803FF6FFC03FF1FF5461726A09
:101A300065746120726574697261646100546172D9
:101A40006A65746120636F6C6F63616461007061CB
:101A5000726120726573756D69720045737065728D
:101A6000616E646F20696D702E00494D50522E20BA
:101A700050415553414441002020426F7175696CBB
:101A80006C613A2000200045787472756972206696
:101A9000696C616D656E746F004573706572616429
:101AA0006F20706F7200494D50522E205041555397
:101AB000414441002020426F7175696C6C613A208D
:101AC000004361726761722066696C616D656E7456
:101AD0006F00457370657261646F20706F720049AA
:101AE0004D50522E20504155534144410020204238
:101AF0006F7175696C6C613A20007061726120636E
:101B00006F6E74696E7561722E2E2E007920707260
:101B10006573696F6E6520656C20626F746F6E000F
:101B2000496E73657274652066696C616D656E746B
:101B30006F00494D50522E205041555341444100B1
:101B40002020426F7175696C6C613A20002000435F
:101B5000616C656E746172206C6120626F71756971
:101B60006C6C61004F7072696D6120626F746F6E92
:101B7000207061726100494D50522E2050415553E2
:101B8000414441002020426F7175696C6C613A20BC
:101B900000200045737065726520706F7220666169
:101BA000766F720043616C656E74616E646F206263
:101BB0006F7175696C6C6100494D50522E20504117
:101BC0005553414441002020426F7175696C6C612E
:101BD0003A2000200066696C616D656E746F206547
:101BE0007870756C7361646F0045737065726164C1
:101BF0006F20706F7200494D50522E205041555346
:101C0000414441002020426F7175696C6C613A203B
:101C10000063616D626961720064656C2066696C65
:101C2000616D656E746F004573706572616E646F8F
:101C300020696E696369617200494D50522E2050CF
:101C40004155534144410045787472756972206D65
:101C5000617300526573756D697220696D702E0035
:101C60004F50432E205245494E4943494F3A002098
:101C700020426F7175696C6C613A200020004174DC
:101C80007261730054656D70204D696E696D6120DD
:101C90006573203137302E004572726F723A2061C1
:101CA0006C2063616C656E74617200022E2E004DB3
:101CB000656E75207072696E636970616C0046694B
:101CC0006C2E204469612E0046696C2E20446961A7
:101CD0002E004520696E206D6D3300417061676193
:101CE0007200456E63656E64657200436F6E747258
:101CF0006F6C005061736F732F6D6D004A65726B6E
:101D0000004163656C65726163696F6E0056656C56
:101D10006F6369747900436F6E74726F6C00452055
:101D20007061736F732F6D6D0045207061736F73F9
:101D30002F6D6D005A207061736F732F6D6D005A97
:101D4000207061736F732F6D6D0059207061736F18
:101D5000732F6D6D0059207061736F732F6D6D005F
:101D600058207061736F732F6D6D00582070617310
:101D70006F732F6D6D004D6F76696D69656E746F51
:101D80000056652D6A65726B0056652D6A65726B2B
:101D90000056652D6A65726B00567A2D6A65726B06
:101DA00000567A2D6A65726B0056792D6A65726BE2
:101DB0000056792D6A65726B0056792D6A65726BD3
:101DC0000056782D6A65726B0056782D6A65726BC5
:101DD0000056782D6A65726B004D6F76696D696586
:101DE0006E746F004163656C2E206D617845004113
:101DF00063656C2E206D617845004163656C2E2013
:101E00006D61785A004163656C2E206D61785A00CF
:101E10004163656C2E206D617859004163656C2EBD
:101E2000206D617859004163656C2E206D61785892
:101E3000004163656C2E206D617858004163656CCC
:101E40002E205669616A65004163656C2E205669D3
:101E5000616A65004163656C2E207265747261630E
:101E60002E004163656C2E207265747261632E00D2
:101E70004163656C65726163696F6E004163656C97
:101E800065726163696F6E004D6F76696D69656E2D
:101E9000746F0056656C2E207669616A65206D69E5
:101EA0006E0056656C2E207669616A65206D696EDC
:101EB0000056656C2E207669616A65206D696E003A
:101EC000566D696E00566D696E00566D696E0056EE
:101ED0006D61784500566D61784500566D617845B5
:101EE00000566D61785A00566D61785A00566D61E2
:101EF000785A00566D61785900566D6178590056D0
:101F00006D61785900566D61785800566D6178584A
:101F100000566D617858004D6F76696D69656E7415
:101F20006F0047756172646172206D656D6F7269D3
:101F30006100506C617461666F726D6100506C611C
:101F40007461666F726D6100506C617461666F726E
:101F50006D6100426F7175696C6C6100426F7175E3
:101F6000696C6C6100426F7175696C6C61005665DB
:101F70006E74696C61646F720056656E74696C6131
:101F8000646F720056656E74696C61646F720054A0
:101F9000656D706572617475726100507265636120
:101FA0006C656E74617220414253436F6E6669675F
:101FB0000050726563616C656E74617220504C41B3
:101FC000436F6E666967005049442D440050494490
:101FD0002D44005049442D49005049442D4900509A
:101FE00049442D50005049442D500020082046619E
:101FF00063740020082046616374002008204D614E
:1020000078002008204D6178002008204D6178007C
:102010002008204D696E002008204D696E002008C0
:10202000204D696E0054656D7065726174757261E2
:10203000204175746F2E0041706167617200456EBA
:1020400063656E6465720056656E74696C61646F79
:10205000720056656E74696C61646F720056656ECD
:1020600074696C61646F7200506C617461666F7248
:102070006D6100506C617461666F726D6100426FDA
:102080007175696C6C6100426F7175696C6C61008F
:10209000436F6E74726F6C00496E697469616C692C
:1020A0007A6520454550524F4D004D3530320A4D2E
:1020B00035303000526573746175726172206D65E0
:1020C0006D6F72696100436172676172206D656D49
:1020D0006F7269610047756172646172206D656D30
:1020E0006F7269610046696C616D656E746F004D59
:1020F0006F76696D69656E746F0054656D70657299
:102100006174757261004D656E75207072696E63E1
:102110006970616C004578747275736F72004D6FF1
:10212000766572205A004D6F7665722059004D6FAA
:102130007665722058005072657061726172004D50
:102140006F76657220302E316D6D004D6F76657241
:1021500020316D6D004D6F7665722031306D6D00F0
:102160004D6F76657220656A657300457874727587
:10217000736F72004D6F766572205A004D6F7665F1
:10218000722059004D6F7665722058004578747240
:1021900075736F72004D6F766572205A004D6F76C1
:1021A00065722059004D6F76657220580050726537
:1021B00063616C656E7461722041425300507265B8
:1021C00063616C656E74617220504C4100456E66AF
:1021D000726961720043616D626961722066696C47
:1021E000616D656E746F00417061676172206D6F23
:1021F000746F726573004D3834004C6C6576617293
:1022000020616C206F726967656E00473238004D3F
:102210006F76657220656A6573004D656E75207016
:1022200072696E636970616C0050726563616C65A0
:102230006E74617220414253506C617461666F72BA
:102240006D610050726563616C656E7461722041EE
:10225000425320456E640050726563616C656E7414
:102260006172204142530050726570617261720068
:1022700050726563616C656E74617220504C4150A0
:102280006C617461666F726D610050726563616C40
:10229000656E74617220504C4120456E640050722E
:1022A0006563616C656E74617220504C41005072C0
:1022B0006570617261720043616D6269617220666E
:1022C000696C616D656E746F00466C756A6F00466F
:1022D0006C756A6F00466C756A6F0056656E74693E
:1022E0006C61646F720056656E74696C61646F72C4
:1022F0000056656E74696C61646F7200506C617435
:1023000061666F726D6100506C617461666F726DB1
:102310006100426F7175696C6C6100426F71756923
:102320006C6C610056656C6F63696461640056652E
:102330006C6F63696461640056656C6F63696461A6
:1023400064004D656E75207072696E636970616CB2
:10235000004D363030204230004D656E7520707271
:10236000696E636970616C004E6F206861792074DA
:1023700061726A6574612053440053657474696EB8
:1023800067004D656E75207072696E636970616C6F
:10239000004E6F20686179207461726A65746120F3
:1023A0005344004D656E75206465205344004465B8
:1023B00074656E657220696D70726573696F6E0009
:1023C0005265616E7564617220696D7072657369C2
:1023D0006F6E0050617573617220696D7072657304
:1023E000696F6E00526573756D652066726F6D2042
:1023F0006F757461676500436F6E74726F6C005027
:102400007265706172617200416A75737461720005
:10241000496E666F726D6163696F6E00496D7072AF
:102420006573696F6E2063616E63656C61646100E2
:102430004D3234005072696E74207061757365643A
:10244000004D313235000025753A253032750025B2
:102450003032753A253032750025756420253032CA
:10246000753A25303275000920005A00590058008D
:10247000506F72206661766F722C207265696E698A
:1024800063696500494D505245534F5241205041B8
:10249000524144410000060900FE07019203212039
:1024A000FFFF08FF07FF0000000600000107070606
:1024B000020080808080800080030202060105A067
:1024C000A00507070600005050F850F850500507C7
:1024D000070600002078A07028F0200507070600F6
:1024E00000C0C8102040981805070706000060903B
:1024F000A040A89068020303060104C040800307BF
:102500000706010020408080804020030707060165
:10251000008040202020408005050506000120A8FD
:1025200070A8200505050600012020F820200203E0
:10253000030602FFC04080050101060003F8020205
:1025400002060200C0C00505050600010810204073
:102550008005070706000070888888888870030750
:102560000706010040C040404040E0050707060064
:1025700000708808708080F8050707060000F810D2
:1025800020100808F005070706000010305090F8EA
:102590001010050707060000F880F008088870058D
:1025A0000707060000708080F0888870050707061E
:1025B0000000F80810202020200507070600007002
:1025C00088887088887005070706000070888878FA
:1025D000080870020505060200C0C000C0C002065F
:1025E000060602FFC0C000C04080040707060000C6
:1025F00010204080402010050303060002F800F878
:1026000004070706010080402010204080050707CE
:10261000060000708808102000200507070600004B
:1026200070880868A8A870050707060000708888E9
:10263000F8888888050707060000F08888F08888F1
:10264000F005070706000070888080808870050705
:1026500007060000F08888888888F00507070600CC
:1026600000F88080F08080F8050707060000F880F9
:1026700080F0808080050707060000708880B88899
:102680008870050707060000888888F88888880110
:10269000070706020080808080808080050707068B
:1026A0000000381010101090600507070600008821
:1026B00090A0C0A090880507070600008080808059
:1026C0008080F805070706000088D8A888888888D1
:1026D0000507070600008888C8A8988888050707A6
:1026E0000600007088888888887005070706000043
:1026F000F08888F0808080050707060000708888D1
:1027000088A89068050707060000F08888F0A09068
:1027100088050707060000788080700808F0050724
:1027200007060000F82020202020200507070600CB
:1027300000888888888888700507070600008888D0
:1027400088888850200507070600008888888888C0
:10275000A850050707060000888850205088880583
:1027600007070600008888885020202005070706F4
:102770000000F80810204080F8030707060100E079
:102780008080808080E005050506000180402010E3
:1027900008030707060100E02020202020E00503B1
:1027A00003060004205088050101060000F802021B
:1027B00002060205804005050506000070087888BD
:1027C000780507070600008080B0C88888F00505F6
:1027D0000506000070808088700507070600000865
:1027E0000868988888780505050600007088F880D4
:1027F000700507070600003048E0404040400506ED
:10280000060600FF70888878087005070706000034
:102810008080B0C888888801070706020080008091
:10282000808080800308080601FF200020202020EF
:10283000A040040707060000808090A0C0A090037D
:102840000707060100C04040404040E0050505067E
:102850000000D0A8A8A8A8050505060000B0C888F3
:1028600088880505050600007088888870050606BA
:102870000600FFF08888F080800506060600FF78D5
:102880008888780808050505060000B0C8808080A3
:1028900005050506000070807008F00407070600B3
:1028A000004040E0404040300505050600008888B3
:1028B0008898680505050600008888885020050569
:1028C000050600008888A8A85005050506000088B0
:1028D000502050880506060600FF88888878087012
:1028E000050505060000F8102040F803070706015B
:1028F0000020404080404020010707060200808001
:1029000080808080800307070601008040402040CF
:1029100040800502020600026890000000060000E8
:102920000000000600000000000600000000000695
:10293000000000000006000000000006000000008B
:102940000006000000000006000000000006000075
:102950000000000600000000000600000000000665
:10296000000000000006000000000006000000005B
:102970000006000000000006000000000006000045
:102980000000000600000000000600000000000635
:10299000000000000006000000000006000000002B
:1029A0000006000000000006000000000006000015
:1029B0000000000600000000000600000000000605
:1029C00000000000000600000000000600000000FB
:1029D00000060000000000060000000000060000E5
:1029E000000000060000010707060200800080804A
:1029F0008080800507070600002070A8A0A870202E
:102A0000050707060000304040E04050A8050505D6
:102A1000060000887050708805070706000088507F
:102A200020F820F82001070706020080808000803F
:102A30008080050808060000304820505020906033
:102A4000030101060107A0050707060000F888B882
:102A5000B8B888F80507070600017008788878007C
:102A6000F80505050600012850A0502805030306B7
:102A70000001F80808020202060206408005070766
:102A8000060000F888A88898A8F805010106000645
:102A9000F804040406000360909060050707060030
:102AA000002020F8202000F80405050600036090AF
:102AB0002040F0030505060003E020E020E00202CC
:102AC0000206020640800508080600FF88888888FC
:102AD00098E880800507070600007898987818180D
:102AE00018020202060202C0C00202020602FF40F1
:102AF0008003050506000340C04040E005070706C7
:102B00000001708888887000F8050505060001A09E
:102B1000502850A00507070600008890A858B8085C
:102B2000080507070600008890B84898203805086F
:102B300008060000C040C048D83808080507070646
:102B40000000200020408088700508080600004032
:102B500020007088F888880508080600001020000A
:102B60007088F888880508080600002050007088E2
:102B7000F888880508080600006890007088F888C2
:102B8000880508080600005000708888F8888805C5
:102B900008080600002050207088F888880507077C
:102BA0000600003860A0B8E0A0B80508080600FFDD
:102BB000708880808870206005080806000040202A
:102BC00000F880F080F8050808060000081000F8FA
:102BD00080F080F8050808060000205000F880F01A
:102BE00080F80507070600005000F880F080F80321
:102BF0000808060100804000E0404040E00308086B
:102C0000060100204000E0404040E00308080601C3
:102C10000040A000E0404040E0030707060100A09C
:102C200000E0404040E0050707060000704848E823
:102C300048487005080806000068900088C8A898F1
:102C4000880508080600004020708888888870057C
:102C50000808060000102070888888887005080819
:102C6000060000205000708888887005080806005B
:102C70000068900070888888700508080600005079
:102C80000070888888887005050506000188502036
:102C900050880508080600FF1070A8A8A8A8704072
:102CA0000508080600004020888888888870050884
:102CB00008060000102088888888887005080806A3
:102CC00000002050008888888870050808060000E9
:102CD0005000888888888870050808060000102041
:102CE0008850202020200509090600FFC0407048B8
:102CF00048704040E00408080601FF609090A090F2
:102D000090E08005080806000040200070087888E0
:102D100078050808060000102000700878887805FB
:102D20000808060000205000700878887805080818
:102D3000060000689000700878887805070706008C
:102D400000500070087888780508080600002050B8
:102D5000207008788878050606060000D02878A03C
:102D6000A8500506060600FF7080887020600508E0
:102D7000080600004020007088F8807005080806EA
:102D800000001020007088F8807005080806000018
:102D90002050007088F8807005070706000050007A
:102DA0007088F8807003080806010080400040C069
:102DB0004040E003080806010020400040C04040B9
:102DC000E003080806010040A00040C04040E003C6
:102DD0000707060100A00040C04040E005070706C5
:102DE0000000A040A0107888700508080600006860
:102DF0009000B0C8888888050808060000402000B8
:102E00007088888870050808060000102000708807
:102E1000888870050808060000205000708888889F
:102E200070050808060000689000708888887005A2
:102E300007070600005000708888887005050506A1
:102E400000012000F800200507070600FF1070A809
:102E5000A8A870400508080600004020008888885F
:102E6000986805080806000010200088888898687F
:102E70000508080600002050008888889868050723
:102E80000706000050008888889868050909060030
:102E9000FF102000888888F808700407070601FFE3
:102EA000C04060506040E00508080600FF50008800
:102EB000888878087000060900FE00000000000104
:102EC000090008FE000005080806000040F0C88858
:102ED00088987810050808060000C0F88888888857
:102EE00088F80505050600012030F830200508089F
:102EF0000600002070F820202020E00509090600C7
:102F0000FF2070A8A8B8888870200509090600FF6E
:102F1000E080C0B0A8283028280509090600FFF87D
:102F2000A88888888888A8F8050A0A0600FE205024
:102F300050505088A8A8887003030306000340A0DF
:102F4000400000000000000000000000007FFFE0E3
:102F50000000000000000000000000007000E00021
:102F6000000000000000000000000061F8600000A8
:102F70000000000000000000000041F820000000F8
:102F800000000000000000000040F02000000000F1
:102F90000000000000000000406020000000000071
:102FA000000000000000005801A07F800000000029
:102FB0000000004104005C63A0FFC00000000000AE
:102FC00000002082005EF7A0FFC0000000000000AB
:102FD000002082005EF7A0FFC0000000000000009B
:102FE0004104005C63A07F800000000000000082BC
:102FF00008005801A07F80000000000000010410BC
:1030000000406020FFC0000000000000010410002C
:1030100040F020FFC00000000000000082080041D6
:10302000F820FFC00000000000000041040061F82B
:10303000603F00000000000000000000007000E0A1
:103040001E0000000000000001FFFF807FFFE00C79
:103050000000000000000001FFFF800000000000F1
:10306000000000000000000000007FFFE000000002
:103070000000000000000000007000E00000000000
:103080000000000000000000630C60000000000071
:1030900000000000000000470E20000000000000BB
:1030A0000000000000004F0F2000000000000000A2
:1030B00000000000005F0FA0000000000000000002
:1030C000000000005E07A07F8000000000000000FC
:1030D000410400406020FFC000000000000000200C
:1030E000820040F020FFC0000000000000002082AD
:1030F0000040F020FFC0000000000000004104007C
:103100004060207F80000000000000008208005E18
:1031100007A07F80000000000000010410005F0F86
:10312000A0FFC0000000000000010410004F0F20AD
:10313000FFC000000000000000820800470E20FFD2
:10314000C000000000000000410400630C603F006C
:10315000000000000000000000007000E01E000001
:10316000000000000001FFFF807FFFE00C00000076
:103170000000000001FFFF800000000000000000D0
:10318000000000000000000000000000000000003F
:10319000000000000000000000000000000000002F
:1031A000000000000000000000000000000000001F
:1031B000000000000000000000000000000000000F
:1031C00000000000000000000000000000000000FF
:1031D00000000000000000000000000000000000EF
:1031E00000000000000000000000000000000000DF
:1031F00000000000000000000000000000000000CF
:1032000000000000000000000000000000000000BE
:1032100000000000000000000000000000000000AE
:10322000000000000000000000000000000000009E
:10323000000000000000000000000000000000008E
:10324000000000000000000000000000000000007E
:10325000000000000000000000000000000000006E
:10326000000000000000000000000000000000005E
:10327000000000000000000000000000000000004E
:10328000000000000000000000000000000000003E
:10329000000000000000000000000000000000002E
:1032A000000000000000000000000000000000001E
:1032B000000000000000000000000000000000000E
:1032C00000000000000000000000000000000000FE
:1032D00000000000000000000000000000000000EE
:1032E00000000000000000000000000000000000DE
:1032F00000000000000000000000000000000000CE
:1033000000000000000000000000000000000000BD
:10331000000000000000000000000000000808E0BD
:103320000F1E6670E098070766000000000818E0AE
:103330000E0EE771E0980F07E7010000001C78E02F
:103340001C87E773E0981F87E7030000001CF8E084
:103350009CC78371E0181CC7830100000038E0E1BE
:10336000C8E30170E0181CE7010000000078C0E32A
:10337000C0E10070E0181CE700000000007388E75F
:10338000E0E00070E0981FE70000000080F318FF05
:10339000E0E00070E0980FE70000000080E338FEF6
:1033A00060E00070E09807E700000000C0F339FC1F
:1033B00060E00070E01818E700000000C0F939F87C
:1033C00060C081E070181CC781000000E0F93BF08C
:1033D00060C0E7E379981FC7E7030000E0803BC0C7
:1033E0006080E7C339980F87E703000060803F8063
:1033F0006000E78019980707E70000000000000060
:10340000000020000000000020000000000000007C
:1034100000000000000000000000000000000000AC
:10342000000000000000000000000000000000009C
:10343000000000000000000000000000000000008C
:10344000000000000000000000000000000000007C
:10345000000000000000000000000000000000006C
:10346000000000000000000000000000000000005C
:10347000000000000000000000000000000000004C
:10348000000000000000000000000000000000003C
:10349000000000000000000000000000000000002C
:1034A000000000000000000000000000000000001C
:1034B000000000000000000000000000000000000C
:1034C00000000000000000000000000000000000FC
:1034D00000000000000000000000000000000000EC
:1034E00000000000000000000000000000000000DC
:1034F00000000000000000000000000000000000CC
:1035000000000000000000000000000000000000BB
:1035100000000000000000000000000000000000AB
:10352000000000000000000000000000000000009B
:10353000000000000000000000000000000000008B
:10354000000000000000000000000000000000007B
:10355000000000000000000000000000000000006B
:10356000000000000000000000000000000000005B
:10357000000000000000000000000000000A0B0234
:10358000090C0D0E080703040100000000000000F4
:10359000000000000000000000000000000000002B
:1035A00000000000000000121110000000000000E8
:1035B000000000000000000000000000000000000B
:1035C0000001021020200808102040102040800236
:1035D0000102010804020101020408102040808059
:1035E00040201008040201800402018040201008DD
:1035F00004020108040201010204081020408001B5
:103600000204081020408005050505070508080884
:1036100008020202020A0A08080404040401010163
:10362000010101010103030303030303030407076B
:10363000070C0C0C0C0C0C0C0C0202020206060609
:1036400006060606060B0B0B0B0B0B0B0B000020E4
:10365000002300260029002C002F0032000001006A
:103660000003010601090100002200250028002BAB
:10367000002E003100340002010000050108010B9A
:103680000100002100240027002A002D0030003313
:103690000001010000040107010A014E414E494E9C
:1036A000495459494E46CDCCCC3D0AD7233C17B797
:1036B000D13877CC2B329595E6241FB14F0A000004
:1036C00020410000C84200401C4620BCBE4CCA1B22
:1036D0000E5AAEC59D74144DDF8887DE324D11241D
:1036E0001FBECFEFD1E2DEBFCDBF00E00CBF13E0C5
:1036F000A0E0B2E0E2EEF4EF01E00BBF02C0079001
:103700000D92AE3AB107D9F724E1AEEAB3E001C0B9
:103710001D92A532B207E1F716E3CCEDD6E300E047
:1037200006C022970109FE010BBF0E94E2F2C63DCE
:10373000D10780E00807A9F70E9457EE0C9460FAC1
:103740000C9400001F920F920FB60F9211240BB62B
:103750000F922F933F938F939F93EF93FF9320911B
:10376000C6009FB7F894E0912E0481E08E0F8F770A
:1037700030912F04831731F0F0E0E255FC4F2083A5
:1037800080932E049FBFFF91EF919F918F913F9166
:103790002F910F900BBE0F900FBE0F901F9018959A
:1037A0009B01AC01211581EE38074105510549F116
:1037B00082E08093C00060E079E08DE390E00E94B9
:1037C0009BF22150310941095109CA01B90122E096
:1037D00030E040E050E00E949BF23093C50020931F
:1037E000C4008091C10080618093C1008091C100BC
:1037F00088608093C1008091C10080688093C1007F
:1038000008951092C00020E130E0E7CF3FB7F89470
:1038100020912F0480912E04821759F0E22FF0E0BE
:10382000E255FC4F808190E02F5F2F7720932F048B
:1038300002C08FEF9FEF3FBF08952FB7F89480919C
:103840002E0490912F042FBF891B8F7708958FB777
:10385000F89490912F0490932E048FBF0895909127
:10386000C00095FFFCCF8093C6000895AF92BF9231
:10387000CF92DF92EF92FF920F931F93CF93DF933C
:10388000CDB7DEB7A0970FB6F894DEBF0FBECDBFA1
:103890006115710581059105A9F1B12CC42ED12CBA
:1038A000E12CF12CAA24A394AB0C01E010E00C0F46
:1038B0001D1F0B0D111DB7FC1A95A70196010E9443
:1038C00079F2F8016083B901CA01611571058105BA
:1038D000910511F41B2D11C0BA2CE4CFE1E0F0E00A
:1038E000EC0FFD1FE10FF11D17FDFA9580818A3065
:1038F00038F490E3890FB3DF11501F3F79F714C0FC
:1039000097E3F8CF80E3A0960FB6F894DEBF0FBE22
:10391000CDBFDF91CF911F910F91FF90EF90DF907E
:10392000CF90BF90AF909BCFA0960FB6F894DEBF1C
:103930000FBECDBFDF91CF911F910F91FF90EF9000
:10394000DF90CF90BF90AF9008954115510511F4CD
:10395000862F85CF8BCFAB01682F70E080E090E0A1
:10396000F4CFAB01BC0180E090E0EFCFCF92DF92CB
:10397000EF92FF926B017C0197FF0AC08DE26FDF2F
:10398000F094E094D094C094C11CD11CE11CF11CB3
:103990004AE0C701B601FF90EF90DF90CF9066CF6D
:1039A0004115510511F4862F5ACF4A30510509F4BB
:1039B000DDCF5CCFAB01BC01882777FD8095982FC8
:1039C000EFCF8DE04CDF8AE04ACFAB01BC0180E055
:1039D00090E0BBDFF6CF8F929F92AF92BF92CF92D3
:1039E000DF92EF92FF92CF936B017C01B42E20E027
:1039F00030E0A9010E943FEF87FF06C08DE22FDF74
:103A0000F7FAF094F7F8F094C0E060E070E080E03E
:103A10009FE3CB1541F02DEC3CEC4CEC5DE30E94B8
:103A20007DF1CF5FF6CF9B01AC01C701B6010E94CB
:103A300066EE6B017C010E94B3EF4B015C014AE032
:103A400015DFCC2381F1C501B4010E94DFEF9B019A
:103A5000AC01C701B6010E9465EE6B017C018EE2EC
:103A6000FEDE20E030E040E251E4C701B6010E94F2
:103A70007DF16B017C010E94AEEF4B01AA2497FC03
:103A8000A094BA2CC501B40171DFC501B4010E9434
:103A9000E1EF9B01AC01C701B6010E9465EE6B012D
:103AA0007C01C150F1F6CF91FF90EF90DF90CF9065
:103AB000BF90AF909F908F9008958DCF8091070712
:103AC0008130B9F40E9409975F9A1092DE068A9AB3
:103AD0001092DF069FB7F89480910801816080936F
:103AE00008019FBF1092E006129A0E943768109258
:103AF00007070895CF92DF92EF92FF920F931F93E3
:103B0000CF93DF93EC010E94B3EB0E811F812885D8
:103B10003985011511052105310559F53C853323FA
:103B2000A9F12A8531503C8731E0320F3A874D8523
:103B3000341301C01A86FE0134E0239FE00DF11D0D
:103B4000112406851785208931890A831B832C83DC
:103B50003D836B017C01C00ED11EE11CF11CCE82A5
:103B6000DF82E886F9868C819D81892B79F0409AE5
:103B70000DC06B017C01C01AD10AE20AF30AF7FCFE
:103B800005C040981E821F8218861986DF91CF914A
:103B90001F910F91FF90EF90DF90CF9008950E94BA
:103BA000B3EB609303057093040580930505909330
:103BB00006050895CF92DF92EF92FF920F931F9325
:103BC000CF93DF93EB01FC0160817181828193814E
:103BD0002CE3C22ED12CE12CF12CA70196010E94DE
:103BE00079F2162F072FCA01B901A70196010E9489
:103BF00079F2F62EE72ECA01B90128E130E040E063
:103C000050E00E9479F2FB01C9016DE671E00E946B
:103C100052F29B014F2D5E2D21153105D9F00F93E6
:103C20001F93EF92FF92FF93EF939F938F933F9396
:103C30002F9382EB97E09F938F93DF93CF930E9414
:103C40004DF78DB79EB70E960FB6F8949EBF0FBE78
:103C50008DBF5BC00097C9F00F931F93EF92FF9247
:103C6000FF93EF939F938F9382EA97E09F938F93B5
:103C7000DF93CF930E944DF7EDB7FEB73C960FB69A
:103C8000F894FEBF0FBEEDBF40C03097B9F00F9360
:103C90001F93EF92FF92FF93EF9386E997E09F9334
:103CA0008F93DF93CF930E944DF78DB79EB70A96FF
:103CB0000FB6F8949EBF0FBE8DBF27C0452BA9F04D
:103CC0000F931F93EF92FF928EE897E09F938F934D
:103CD000DF93CF930E944DF7EDB7FEB738960FB63E
:103CE000F894FEBF0FBEEDBF10C00F931F938AE87C
:103CF00097E09F938F93DF93CF930E944DF70F90A0
:103D00000F900F900F900F900F90DF91CF911F9118
:103D10000F91FF90EF90DF90CF90089581548A31FA
:103D200048F5482F50E0FA0133E0F595E7953A95CC
:103D3000E1F7E652F44F208130E0877002C03595FC
:103D400027958A95E2F720FF15C0FA01E054F44F59
:103D50002081222339F08091E50B9091E60B820FB0
:103D6000911D02C080E090E09093E20B8093E10B04
:103D700081E0089580E00895D1DF882339F081E063
:103D80002091E10B3091E20B232B09F480E00895A0
:103D90001F93CF93DF938091E10B9091E20B0097FB
:103DA00001F1FC01EF011191212F2F7D99F01534C4
:103DB00011F01536B9F7188260E070E08091E10BE0
:103DC0009091E20B0E94E6F21883562F472F382F6E
:103DD000292F0BC060E070E0DF91CF911F910C9410
:103DE000E6F250E040E030E020E0652F742F832FB2
:103DF000922FDF91CF911F9108958091E10B9091C7
:103E0000E20B009731F04AE050E060E070E00C9483
:103E10004EF460E070E0CB0108958091E10B909149
:103E2000E20B009731F04AE050E060E070E00C9463
:103E30007FF560E070E0CB010895DFDF97FD0CC0F7
:103E4000DCDF6F3F71058105910509F014F4D5DFC2
:103E500001C06FEF862F089580E008958091E10BF7
:103E60009091E20B892B39F0E8DF91E0811101C0DC
:103E700090E0892F089581E00895EF92FF920F93CB
:103E80001F93CF93DF93EC017B018A016C854D85F5
:103E900064130AC0E881F9810190F081E02DCE0120
:103EA00019950E945C9CF2CFF70120813181F801C5
:103EB000808191815B85FE0174E0579FE00DF11DCB
:103EC00011243E9631832083938382836F5F6C87B6
:103ED00081E0850F841711F08B8701C01B86DF916D
:103EE000CF911F910F91FF90EF900895AF92BF92E5
:103EF000CF92DF92FF920F931F93CF93DF9300D067
:103F00001F92CDB7DEB7F82E662351F010923E0413
:103F100010923A0410923B0410923C0410923D041B
:103F20000E94B3EB00913A0410913B0420913C04B1
:103F300030913D045B016C01A01AB10AC20AD30A98
:103F4000D7FC40C0F7FE05C004EC19E020E030E0EB
:103F500015C0E0913E042F2D332727FD30952C5FAF
:103F60003F4F4E2F552747FD50952417350754F1E5
:103F7000EF1554F300E911E020E030E0DC01CB0163
:103F8000800F911FA21FB31F80933A0490933B04AC
:103F9000A0933C04B0933D0480ED97E09A8389831D
:103FA0008CE291E09C838B83AE014F5F5F4FBE013B
:103FB0006D5F7F4F83ED94E060DF80913E048F5F03
:103FC00080933E040F900F900F900F90DF91CF9150
:103FD0001F910F91FF90DF90CF90BF90AF90089509
:103FE000EAE0F1E08081806280839FB7F894EBE0A3
:103FF000F1E080818F7D80839FBF089520E030E0D5
:1040000042E852E460911E1270911F1280912012BA
:10401000909121120E9442F19FB718162CF4F89447
:1040200080910B01806204C0F89480910B018F7D18
:1040300080930B019FBF089520E037E04CEF56E0DE
:1040400068EF76E084EF96E00C940A87AF92BF9217
:10405000CF92DF92EF92FF920F931F93CF93DF9354
:1040600000D01F92CDB7DEB779015C01AA0CBB1C52
:10407000AA0CBB1CC5018C50994F6C01FC0110822D
:1040800011821282138249835A836B837C83D4DF2B
:1040900049815A816B817C81F6014083518362831F
:1040A0007383C0900B0520E030E0A901B801C7017F
:1040B0000E943FEF811108C0F501E455F54FE590EE
:1040C000F5900591149104C0C801D7017C018D01C0
:1040D00020E037E04CEF56E068EF76E084EF96E0C2
:1040E0000E941F7C0E941E911092BB0B0F900F909C
:1040F0000F900F90DF91CF911F910F91FF90EF9054
:10410000DF90CF90BF90AF9008958091D3068093B9
:10411000D4061092D50608959091D306E92FF0E0C9
:10412000E154FB4F80839F5F943018F49093D30643
:1041300002C01092D3068091D5068F5F8093D5067A
:104140000895CF93FC01C62F80818B3399F0809125
:10415000D506843078F42091D30630E6239FC00141
:104160001124BF018D5A9A4F0E9429F78C2FD4DF5A
:1041700081E001C080E0CF9108950F931F93CF930A
:10418000DF93EC01DEDF8823B1F0E4ECFEE0849104
:104190008F010F5F1F4F882319F061DBF801F7CF04
:1041A000BE0180E69AE00E94E38882E258DB8AE062
:1041B00056DB81E001C080E0DF91CF911F910F912C
:1041C0000895DF92EF92FF920F931F93CF93DF93A7
:1041D000CDB7DEB76E970FB6F894DEBF0FBECDBF7A
:1041E00060915105709152056115710559F14DE1CC
:1041F00050E08E010F5F1F4FC8010E94B8F61E8E5F
:10420000F8017F01E01AF10AD190DD2019F08AE06F
:10421000D812F7CFF801EE0DFF1D108260E0C80143
:10422000ACDF882379F0DD20B1F08FEFE81AF80ACF
:1042300080915105909152058E0D9F1D90935205CE
:104240008093510581E02091510530915205232B37
:1042500029F480E003C080E090E0F0CF6E960FB6C6
:10426000F894DEBF0FBECDBFDF91CF911F910F91AC
:10427000FF90EF90DF900895909352058093510541
:10428000A0CF60E08FE40E9491ED61E08AE30E949C
:1042900091ED8C98089552985A9A08958F929F9212
:1042A000AF92BF92CF92DF92EF92FF920F931F9344
:1042B000CF93DF93CDB7DEB728970FB6F894DEBF64
:1042C0000FBECDBF80910A07882309F482C1809177
:1042D000D506811102C01092400499249394409114
:1042E00086095091870960918809709189098091A8
:1042F000820990918309A0918409B091850948179A
:1043000059076A077B0708F4912C00E010E0BB24F2
:10431000B394F0E6AF2E9091D506809105079430C6
:1043200008F0AEC09110ACC0909140049111A8C0AB
:104330008111A6C08091DD089091DE08A091DF0870
:10434000B091E0088093860990938709A09388092B
:10435000B093890985ED98E00E94EB51882E99244D
:104360009394C0908609D0908709E0908809F090D6
:104370008909409182095091830960918409709163
:104380008509C416D506E606F706C0F4912C8F3FC2
:104390002FEF920749F14AE0841709F442C0ADE0DB
:1043A0008A1709F43EC0B3E28B1719F02AE382138F
:1043B0004DC020913F04211149C02EC0ECE0F9E02E
:1043C00084917F014FEFE41AF40A882319F047DA49
:1043D000F701F6CF88E097E00E942E6761E088E061
:1043E00097E00E949F6218C0EAECFEE084917F0192
:1043F0009FEFE91AF90A882319F031DAF701F6CFAD
:10440000EDEFF8E084917F01AFEFEA1AFA0A882312
:1044100019F025DAF701F6CFB3E28B1202C0B092A1
:10442000400410923F040115110509F474CF8091E6
:10443000D306F801A89EE00DF11D1124ED5AFA4FA4
:10444000108280E069DE00E010E065CF0F351105D5
:1044500008F061CF2BE3821202C0B0923F0420919A
:104460003F04211158CF9091D306F801A99EE00D89
:10447000F11D1124ED5AFA4F80830F5F1F4F4BCF70
:10448000882309F4A6C0E3E5F5E023EB35E083E1FA
:1044900096E063E776E01192D9011D929D01DC015F
:1044A0001D92CD01DB011D92BD01B5E0E33BFB0791
:1044B00091F7C0900B0560911B0270911C02882738
:1044C00077FD8095982F0E94E1EF19821A821B8256
:1044D0001C8200E010E020E830EC0D831E832F8367
:1044E00038877B018C0127EA3BE04BEA5BE0BE01A9
:1044F0006F5F7F4FCE0105960E941F7C67EA7BE0CD
:1045000083E090E00E94C6878091B30B9091B40B3A
:10451000A091B50BB091B60B8093E4069093E5069D
:10452000A093E606B093E7068091AF0B9091B00B95
:10453000A091B10BB091B20B8093E8069093E9067D
:10454000A093EA06B093EB062AE939E949E95EE36C
:104550006091FC067091FD068091FE069091FF0629
:104560000E9442F11816BCF42DEC3CEC4CEC5DE3DF
:104570006091AB0B7091AC0B8091AD0B9091AE0B39
:104580000E9465EE6093FC067093FD068093FE0624
:104590009093FF0610C08091AB0B9091AC0BA09153
:1045A000AD0BB091AE0B8093FC069093FD06A093EB
:1045B000FE06B093FF0685E595E5A5E0B2E480939D
:1045C0001D0290931E02A0931F02B093200210922E
:1045D000050728960FB6F894DEBF0FBECDBFDF915A
:1045E000CF911F910F91FF90EF90DF90CF90BF90F0
:1045F000AF909F908F900895FF920F931F93CF934A
:10460000DF93EC0184E5B8DB882321F116DCF82E7A
:104610001816ECF4E4ECFEE084918F010F5F1F4F5D
:10462000882319F01CD9F801F7CF8DE418D96AE076
:1046300070E0CE0196D96F2D772767FD70958AEED1
:1046400098E00E940B898AE00AD981E008C0809333
:10465000D20404C080910B058093D20480E0DF91E6
:10466000CF911F910F91FF900895AF92BF92CF927B
:10467000DF92EF92FF920F931F93CF93DF93EC01A2
:104680008C01000F111F000F111FF801EA5DFA4F96
:1046900020E030E0A90160817181828193810E94D4
:1046A00066EEF801EE5CFA4F208131814281538140
:1046B0000E9466EE6B017C01F801E65EFA4F6083B2
:1046C0007183828393830056154FF801659175912C
:1046D000859194918E01000F111F000F111F9801F9
:1046E000225F3A4F5901A70196010E9466EEF5013B
:1046F00060837183828393830C56154FF801659113
:10470000759185919491CC0FDD1FCC0FDD1FC45F97
:10471000DD4FA70196010E9466EE688379838A8344
:104720009B83DF91CF911F910F91FF90EF90DF90CE
:10473000CF90BF90AF9008954F925F926F927F920B
:10474000AF92BF92CF92DF92EF92FF920F931F939F
:10475000CF93DF93EC01FC01E359F54F6491FC0129
:10476000EE0FFF1FEE0FFF1FE458F54F45905590D9
:1047700065907490772767FD7095872F972F0E941B
:10478000E1EF6B017C0120E030E040EC5FE3C3012E
:10479000B2010E947DF1A70196010E947DF1AB015B
:1047A000BC0100E010E09801CE0150DCFE01EE0FEC
:1047B000FF1FEE0FFF1FE059F54F259135914591F1
:1047C0005491C701B6010E947DF16B017C0120E08C
:1047D00030E0A9010E943FEF5E01AA0CBB1CAA0CAD
:1047E000BB1C882309F445C000E010E09801B70124
:1047F000A6017058CE012ADCFE01EA55F74F6491FC
:10480000611117C0E4ECFEE084918F010F5F1F4F30
:10481000882319F024D8F801F7CFE4E8F8E0849170
:104820008F010F5F1F4F882319F019D8F801F7CFB8
:104830006AE0F501E455F54F459055906590749008
:1048400070E080E090E00E94E1EF9B01AC01C301C9
:10485000B2010E9446EF2B013C01A7019601C7015E
:10486000B6010E9466EEAB01BC0193018201CE014C
:10487000EDDBFE01EF51F94F81E08083FE01E25252
:10488000F94F8083F501EE5CFA4F1082118212829B
:104890001382CE01EADEF501E857F54F6591759177
:1048A00085919491CC0FDD1FCC0FDD1F8E010C5034
:1048B000194FFE01E65EFA4F20813181428153811A
:1048C0000E9466EEF8016083718382839383B4DB78
:1048D000CC51D94FF80180819181A281B381888325
:1048E0009983AA83BB83DF91CF911F910F91FF9092
:1048F000EF90DF90CF90BF90AF907F906F905F90E0
:104900004F900895CF92EF92FF920F931F93E090F4
:104910001D02F0901E0200911F0210912002C09013
:104920000B0520E037E04CEF56E068EF76E084EFCF
:1049300096E00E941F7C1F910F91FF90EF90CF9007
:104940000895CF92EF92FF920F931F93C0900B05A3
:104950007B018C0120EF36E04CEE56E068EE76E00D
:1049600084EE96E00E941F7C1F910F91FF90EF90C4
:10497000CF90089580E1E4EEF6E0A4EFB6E0019078
:104980000D928A95E1F7089580E1E4EFF6E0A4EE58
:10499000B6E001900D928A95E1F708954F925F92EB
:1049A0006F927F928F929F92AF92BF92CF92DF923F
:1049B000EF92FF920F931F93CF93DF936C017B01D4
:1049C0008A01E90180901D0290901E02A0901F02B2
:1049D000B0902002FA01208131814281538160919F
:1049E000FC067091FD068091FE069091FF060E94E4
:1049F0003FEF87FF2CC0488059806A807B8020E091
:104A000030E0A901B201C3010E943FEF811107C04C
:104A1000E4EBFAE085919591A591B49102C0C201B1
:104A2000D30180931D0290931E02A0931F02B093A6
:104A30002002F80180819181A281B3818093FC06DC
:104A40009093FD06A093FE06B093FF065BDF4880BF
:104A500059806A807B8020E030E0A901B201C30167
:104A60000E943FEF811105C055E545E535E023E49F
:104A700004C0542D452D362D272D852F942FA32F7F
:104A8000B22F80931D0290931E02A0931F02B09339
:104A90002002F60180819181A281B3818093F40686
:104AA0009093F506A093F606B093F706F701808180
:104AB0009181A281B3818093F8069093F906A09327
:104AC000FA06B093FB061EDFF80120813181428196
:104AD00053816091FC067091FD068091FE069091D5
:104AE000FF060E9442F1181684F5D880E980FA800A
:104AF000CB8120E030E0A9016D2D7E2D8F2D9C2FE4
:104B00000E943FEF811107C0E4EBFAE08591959197
:104B1000A591B49104C08D2D9E2DAF2DBC2F8093F7
:104B20001D0290931E02A0931F02B0932002F80171
:104B300080819181A281B3818093FC069093FD06D0
:104B4000A093FE06B093FF06DDDE0E941E918092C8
:104B50001D0290921E02A0921F02B0922002DF91CD
:104B6000CF911F910F91FF90EF90DF90CF90BF906A
:104B7000AF909F908F907F906F905F904F9008952F
:104B80009B01AC0168EF76E084EF96E007CF9A01D5
:104B90004CEF56E003CFCF92DF92EF92FF920F934C
:104BA0001F93CF93DF933AE0E32E33E0F32E04EE2E
:104BB00016E0C4EFD6E047E4C42E45E0D42EF7015A
:104BC00081917F01ABD88823C9F0E2D8F60120811A
:104BD000211104C020910A05222329F0288139815E
:104BE0004A815B8103C020E030E0A9010E9466EEAB
:104BF000F801608371838283938309C088819981DE
:104C0000AA81BB81F80180839183A283B3830C5F67
:104C10001F4F2496FFEFCF1ADF0A8EE0E81683E0DD
:104C2000F80669F686E4A8D88823B9F0B1D820E060
:104C300030E0A9010E9442F118167CF4A9D820E0C6
:104C400030E040E752E40E9446EF60931D0270930B
:104C50001E0280931F0290932002DF91CF911F913B
:104C60000F91FF90EF90DF90CF900895CF92DF9259
:104C7000EF92FF92CF93DF930E94B3EB6B017C0125
:104C800080910602882309F468C02091BD04309108
:104C9000BE042115310509F460C08091B9049091DA
:104CA000BA04A091BB04B091BC04B701A601481B93
:104CB000590B6A0B7B0B77FD63C02330310519F16B
:104CC0003CF4213031050CF448C0E4ECFEE007C0B0
:104CD0002430310509F041C0E4ECFEE02AC08491A3
:104CE000EF012196882321F00E942F1CFE01F7CFAF
:104CF000E8EDF8E08491EF012196882371F10E949C
:104D00002F1CFE01F7CFE4ECFEE08491EF01219629
:104D1000882321F00E942F1CFE01F7CFE1ECF8E080
:104D20008491EF0121968823C1F00E942F1CFE017F
:104D3000F7CF8491EF012196882321F00E942F1C48
:104D4000FE01F7CFE9EAF8E08491EF01219688238C
:104D500021F00E942F1CFE01F7CF2091060230E0C7
:104D6000A8EEB3E00E94BDF26C0D7D1D8E1D9F1D4F
:104D70006093B9047093BA048093BB049093BC040D
:104D8000DF91CF91FF90EF90DF90CF9008958C9AB4
:104D900080910D148823D9F10E94C7688091A30BDC
:104DA0009091A40BA091A50BB091A60B853691050F
:104DB000A105B1055CF00597A109B1098093A30B8A
:104DC0009093A40BA093A50BB093A60B4091A30BBB
:104DD0005091A40B6091A50B7091A60B409386098E
:104DE00050938709609388097093890985ED98E04D
:104DF0000E94B85281E080930507809306071092C5
:104E00000D148FEF90E090930D0580930C05669B39
:104E10000BC081E08093070741E050E06EE57DE143
:104E2000809122020C94A0E908950F931F93CF93D1
:104E3000DF93CDB7DEB769970FB6F894DEBF0FBE2C
:104E4000CDBF81EF94E00E94BA926E8B7F8B888FEA
:104E5000998FBE016F5F7F4FCE0146960E94DA1D8B
:104E600060E0CE0101960E9462D9E4ECFEE08491FC
:104E70008F010F5F1F4F882321F00E942F1CF80124
:104E8000F6CFBE016F5F7F4F86EC97E00E94E3880C
:104E90008AE00E942F1C69960FB6F894DEBF0FBE01
:104EA000CDBFDF91CF911F910F9108951F93CF93A5
:104EB000DF9380910A0781110E941E91C091E30B3C
:104EC000D091E40B80E50E948E1E882321F00E9481
:104ED0002E1F182F01C010E080910B07882349F185
:104EE000212F41E0BE0188E097E00E94F36383E553
:104EF0000E94BC1E882381F00E94FD1EAB01BC01F4
:104F000040938609509387096093880970938909B3
:104F100085ED98E00E94B85288E097E00E948E608C
:104F2000111107C081EF94E0DF91CF911F910C9494
:104F3000E792DF91CF911F9108950F931F93CF9325
:104F4000DF9383E50E94BC1E882309F445C00E94BC
:104F50001D1F082F80E50E94BC1E882331F00E948F
:104F6000FD1E77FD39C0EB0102C0CDE0D0E08C2FF3
:104F7000E3E5F7E09491891731F0319697E0EB374C
:104F8000F907C1F716C0EAECFEE08491EF01219623
:104F9000882321F00E942F1CFE01F7CFEBE7F7E0FA
:104FA0008491EF0121968823B9F00E942F1CFE0105
:104FB000F7CF61E08C2F0E9491ED602F8C2F0E9423
:104FC000CAED10E0B8018C2F0E947BEC299721F4E8
:104FD00010930D0500930C05DF91CF911F910F9158
:104FE000089588E690E008DB811147C080910407AE
:104FF00083FD43C083E50E94BC1E8823E1F10E942B
:10500000C81E0E94AEEF709317126093161280E0D4
:105010000E94BF960E94C81E20E030E04AEA52E497
:105020000E943FEF18164CF081EF94E00E948492AA
:1050300060E087E497E00E9472D90E94C81E209128
:105040001E1230911F1240912012509121120E9485
:1050500042F1181684F488ED92E09F938F938DE3CC
:1050600097E09F938F931F920E9487DB0F900F9082
:105070000F900F900F900C94AF880895EF92FF92CD
:105080000F931F93CF93DF931F92CDB7DEB78C01A1
:105090007B0180E249830E942F1C49814F3F11F41C
:1050A00082E401C084E50E942F1C8AE30E942F1C29
:1050B000F801608171818281938142E050E00E9419
:1050C0005D1DF701408151816281738181E898E023
:1050D0000F90DF91CF911F910F91FF90EF900C9463
:1050E00042890F931F93CF93DF93CDB7DEB72897F5
:1050F0000FB6F894DEBF0FBECDBF6091161270914F
:105100001712882777FD8095982F0E94E1EF698319
:105110007A838B839C8380911E1290911F12A091A1
:105120002012B09121128D839E83AF83B8874EEFFA
:10513000BE016F5F7F4FCE010596A0DF6091121216
:1051400070911312882777FD8095982F0E94E1EFC8
:1051500069837A838B839C8380911A1290911B12AE
:10516000A0911C12B0911D128D839E83AF83B887CE
:105170004FEFBE016F5F7F4FCE0105967FDFEDE7FA
:10518000F8E084918F010F5F1F4F882321F00E9468
:105190002F1CF801F6CF8091D20490E00E94BE93BC
:1051A0006AE070E00E94DA1CE8E7F8E084918F0181
:1051B0000F5F1F4F882321F00E942F1CF801F6CFAC
:1051C0008FEF9FEF0E94BE936AE070E00E94DA1CAE
:1051D00028960FB6F894DEBF0FBECDBFDF91CF91FA
:1051E0001F910F910895CF92DF92EF92FF928091DD
:1051F000A604882379F10E94B3EBC090A204D0905A
:10520000A304E090A404F090A5046C197D098E0914
:105210009F0997FD1FC00E94B3EB6B017C01209199
:10522000A60430E0A8EEB3E00E94BDF2C60ED71E81
:10523000E81EF91EC092A204D092A304E092A40436
:10524000F092A5044EDF8AE0FF90EF90DF90CF90C0
:105250000C942F1CFF90EF90DF90CF900895DF9279
:10526000EF92FF920F931F93CF93DF9383E50E94FA
:10527000BC1E882319F00E941D1F01C080E080938E
:105280000407E4ECFEE08491EF012196882321F0ED
:105290000E942F1CFE01F7CFE6E3F7E08491EF01B7
:1052A0002196882321F00E942F1CFE01F7CF8091C8
:1052B0000407882381F10CE217E0C0E0D0E020E091
:1052C0008091040790E00C2E02C0959587950A9472
:1052D000E2F780FF17C0DD24D394D20E222319F009
:1052E0008CE20E942F1CF80125913491F9018491E0
:1052F0007901FFEFEF1AFF0A882329F00E942F1C83
:105300009701F4CFD22E21960E5F1F4FC530D105E5
:1053100069F02D2DD5CFE8E2F7E08491EF012196D9
:10532000882321F00E942F1CFE01F7CF8AE0DF9135
:10533000CF911F910F91FF90EF90DF900C942F1C55
:10534000CF93DF9383E50E94BC1E882351F00E9417
:105350001D1F8D3308F08CE380930602DF91CF91FF
:105360000895E4ECFEE08491EF012196882321F07A
:105370000E942F1CFE01F7CF4091060250E060E032
:1053800070E086EE96E00E947E898AE0DF91CF9100
:105390000C942F1CCF93DF9383E50E94BC1E8823BF
:1053A00019F00E94FD1E02C060E070E0EB01DD27F5
:1053B000C230D105B8F0EAECFEE08491EF0121960D
:1053C000882321F00E942F1CFE01F7CFE3E9F4E0CF
:1053D0008491EF012196882309F44EC00E942F1C6E
:1053E000FE01F6CF88E40E94BC1E8823A9F00E942B
:1053F000FD1E6A3A71053CF0653081E078072CF0BB
:1054000064E071E002C06AEA70E0FE01EE0FFF1F87
:10541000E75FFB4E7183608386E40E94BC1E882395
:1054200099F00E94FD1E6F3F710519F014F06FEFA7
:1054300070E0FE01EE0FFF1FEF5FFB4E77FF02C033
:1054400060E070E07183608382E40E94BC1E882368
:1054500099F00E94FD1E6530710534F068387105C1
:105460002CF067E870E002C065E070E0CC0FDD1F53
:10547000CB5FDB4E79836883DF91CF9108957F9274
:105480008F929F92AF92BF92CF92DF92EF92FF9254
:105490000F931F93CF93DF930AE013E0C5E7DCE09F
:1054A000712CF80181918F010E948E1E882309F4CE
:1054B0006CC0F3E07F1263C00E94C81E6B017C01C8
:1054C00020E030E040EA51E40E943FEF87FF4EC009
:1054D000A70196016091810C7091820C8091830CE0
:1054E0009091840C0E9446EF4B015C019B01AC0142
:1054F00060912D0C70912E0C80912F0C9091300C9E
:105500000E947DF160932D0C70932E0C80932F0CD4
:105510009093300CA50194016091910C7091920CC4
:105520008091930C9091940C0E947DF16093910C6A
:105530007093920C8093930C9093940C6091610CF7
:105540007091620C8091630C9091640C0E94DFEF6B
:10555000A50194010E947DF10E94B3EF6093610C5C
:105560007093620C8093630C9093640CC092810CD6
:10557000D092820CE092830CF092840C06C00E94C0
:10558000C81E688379838A839B837394249684E0FE
:10559000781287CFDF91CF911F910F91FF90EF90FD
:1055A000DF90CF90BF90AF909F908F907F900C94A2
:1055B0008B88CF93DF93E5E7F8E08491EF012196A4
:1055C000882321F00E942F1CFE01F7CF6091F40682
:1055D0007091F5068091F6069091F70642E050E052
:1055E0000E945D1DE1E7F8E08491EF012196882398
:1055F00021F00E942F1CFE01F7CF6091F8067091F8
:10560000F9068091FA069091FB0642E050E00E9474
:105610005D1DEDE6F8E08491EF012196882321F0ED
:105620000E942F1CFE01F7CF6091FC067091FD06D1
:105630008091FE069091FF0642E050E00E945D1DC1
:10564000E9E6F8E08491EF012196882321F00E9499
:105650002F1CFE01F7CF6091000770910107809128
:1056600002079091030742E050E00E945D1DDF9128
:10567000CF910C940392EF92FF920F931F93CF93CD
:10568000DF9300D01F921F92CDB7DEB78D830E94AB
:105690001E9140911D0250911E0260911F02709157
:1056A000200240934D0550934E0560934F05709333
:1056B000500520911B0230911C0230934C05209321
:1056C0004B0524E630E030931C0220931B020E941D
:1056D000CF1D91E09093BD0B8D81811118C088E59D
:1056E0000E948E1EF82E89E50E948E1E182F8AE5D4
:1056F0000E948E1EF11007C0111110C0E12C8823EA
:1057000091F001E018C0082F112389F001C001E0D9
:10571000102FEE24E394FF24F3940DC0082FE12C06
:10572000FF24F39407C0F12C00E011E004C0EE2444
:10573000E394F12C10E028D9111105C0E11003C049
:10574000FF2009F43EC020E030E0A901609122056D
:105750007091230580912405909125050E9466EEA5
:105760006093EC067093ED068093EE069093EF063F
:105770002091FC063091FD064091FE065091FF06F7
:105780000E9442F1181654F419821A821B821C825C
:10579000BE016F5F7F4F8CEE96E0F2D9111105C00C
:1057A000E11003C0F11007C00CC080E090E00E943F
:1057B0009C231123B9F381E090E00E949C231111F6
:1057C00002C0002321F082E090E00E949C230E940E
:1057D0001C208091BC0B8093BD0B80914D05909156
:1057E0004E05A0914F05B091500580931D029093F6
:1057F0001E02A0931F02B093200280914B0590914E
:105800004C0590931C0280931B020E94CF1D83E0E5
:1058100080934602CEDE0F900F900F900F900F9066
:10582000DF91CF911F910F91FF90EF9008958F928C
:105830009F92AF92BF92CF92DF92EF92FF920F931F
:105840001F93CF93DF9300D01F92CDB7DEB785E4CF
:105850000E94BC1EB82E811102C00E941E911AE047
:10586000C12E13E0D12E02E3E02E05E0F02E04EF6E
:1058700016E0812C912CA12CF60181916F010E94E0
:10588000BC1E882361F1F80120813181428153815E
:1058900029833A834B835C830E94C81EF80160838E
:1058A00071838283938329813A814B815C81F3E008
:1058B0008F16A9F00E9465EE9B01AC01F701608193
:1058C0007181828193810E9466EEF701608371830A
:1058D00082839383C4010E943523AA24A394FFEFFB
:1058E0008F1A9F0A84E0E80EF11C0C5F1F4FE4E062
:1058F0008E16910409F6AA2019F00E941C2008C0F7
:10590000BB2031F060E077E083E090E00E94C68742
:105910000F900F900F900F90DF91CF911F910F91EB
:10592000FF90EF90DF90CF90BF90AF909F908F90BF
:1059300040CECF93DF93E4E9F5E08491EF01219627
:10594000882321F00E942F1CFE01F7CFE6E8F5E046
:105950008491EF012196882321F00E942F1CFE01E3
:10596000F7CFEFE6F5E08491EF012196882321F04F
:105970000E942F1CFE01F7CFEFE5F5E08491EF01C7
:105980002196882321F00E942F1CFE01F7CFEEE420
:10599000F5E08491EF012196882321F00E942F1CCD
:1059A000FE01F7CFEDE3F5E08491EF012196882326
:1059B00021F00E942F1CFE01F7CFEEE2F5E084916A
:1059C000EF012196882321F00E942F1CFE01F7CFC2
:1059D000E9E1F5E08491EF012196882321F00E940E
:1059E0002F1CFE01F7CFE3E0F5E08491EF01219653
:1059F000882321F00E942F1CFE01F7CFEEEEF4E089
:105A00008491EF012196882321F00E942F1CFE0132
:105A1000F7CFE1EDF4E08491EF012196882321F0A6
:105A20000E942F1CFE01F7CFE9EBF4E08491EF0117
:105A30002196882321F00E942F1CFE01F7CFDF91D1
:105A4000CF910895CF93DF9385E40E948E1E882323
:105A500079F00E942E1F882359F0E4ECFEE0849137
:105A6000EF012196882321F00E942F1CFE01F7CF21
:105A700081E40E948E1E882379F00E942E1F8823C5
:105A800059F0E5EBF4E08491EF012196882321F0B1
:105A90000E942F1CFE01F7CFC091E30BD091E40BC5
:105AA0008991882319F00E942F1CFACF8AE0DF9198
:105AB000CF910C942F1C83E50E948E1E8823D9F071
:105AC0000E94C81EAB01BC014093390C50933A0CA4
:105AD00060933B0C70933C0C4093310C5093320C10
