:100000000C94FA1A0C949CE90C94C7E90C94F2E94C
:100010000C941DEA0C9448EA0C9473EA0C949EEA42
:100020000C94C9EA0C942B1B0C942B1B0C942B1BCB
:100030000C942B1B0C942B1B0C942B1B0C942B1B28
:100040000C942B1B0C9414900C942B1B0C942B1BBA
:100050000C942B1B0C942B1B0C94739E0C94F4EAA5
:100060000C942B1B0C942D1B0C942B1B0C942B1BF6
:100070000C942B1B0C942B1B0C942B1B0C942B1BE8
:100080000C942B1B0C942B1B0C942B1B0C942B1BD8
:100090000C942B1B0C942B1B0C942B1B0C942B1BC8
:1000A0000C942B1B0C942B1B0C942B1B0C942B1BB8
:1000B0000C942B1B0C942B1B0C942B1B0C942B1BA8
:1000C0000C942B1B0C942B1B0C942B1B0C942B1B98
:1000D0000C942B1B0C942B1B0C942B1B0C942B1B88
:1000E0000C942B1BE0A6E9A6F2A6FBA604A71FA76B
:1000F0002CA735A70DA716A776E940E948E954E9EA
:1001000061E982E98FE929EC2EEC33EC3DEC47EC18
:10011000C0EC51EC59EC61EC6BEC75EC7FEC8EECC7
:1001200098ECC0ECA2ECACECB6ECE1ECE4ECD3EC7B
:10013000D7ECDDEC1BEDE8ECECECF2ECF6ECFAECD9
:1001400000ED04ED08ED1BED0EED12ED16ED084A85
:10015000D73B3BCE016E84BCBFFDC12F3D6C7431DB
:100160009ABD56833DDA3D00C77F11BED9E4BB4C32
:100170003E916BAAAABE000000803F05A84CCDB2FC
:10018000D44EB93836A9020C50B9918688083CA6DD
:10019000AAAA2ABE000000803F00446F6E6520734B
:1001A0006176696E672066696C652E0A004D32398A
:1001B000002020506C616E6E6572427566666572D5
:1001C00042797465733A20002046726565204D655A
:1001D0006D6F72793A2000436F6D70696C65643A97
:1001E000204E6F7620203920323031370A00207CB3
:1001F00020417574686F723A2028414E5943554228
:10020000494320466F75724D61782C2056312E304F
:10021000290A00323031372D30392D323220313237
:100220003A303000204C61737420557064617465FD
:10023000643A2000312E312E350A004D61726C690E
:100240006E0020536F667477617265205265736526
:10025000740A00205761746368646F672052657385
:1002600065740A002042726F776E206F7574205299
:10027000657365740A002045787465726E616C2040
:1002800052657365740A00506F77657255700A0085
:1002900073746172740A005072696E7465722068BA
:1002A000616C7465642E206B696C6C282920636115
:1002B0006C6C6564210A00454D455247454E4349E3
:1002C000412E20004B494C4C2063617573656420BE
:1002D000627920746F6F206D75636820696E616349
:1002E000746976652074696D65202D20637572725E
:1002F000656E7420636F6D6D616E643A20004D36DB
:1003000030300020746F6F206C6F6E6720657874DA
:10031000727573696F6E2070726576656E74656450
:100320000A0020636F6C6420657874727573696F5E
:100330006E2070726576656E7465640A006F6B007E
:10034000526573656E643A20004E6F206361736579
:10035000206C696768740A004F6666736574732061
:100360006170706C696564004572723A20546F6FF9
:10037000206661722100546F6F2066617220667280
:100380006F6D207265666572656E636520706F695A
:100390006E740A0043290A0061626C656420286D4E
:1003A000696E2074656D702000436F6C6420657801
:1003B00074727564657320617265200020643A0070
:1003C00020693A0020703A00205A00205900580055
:1003D00020204D61783A2000205A00205900580012
:1003E00020204D696E3A20004F6666004F6E200057
:1003F000536F667420656E6473746F70733A200077
:1004000053657474696E672054726176656C20411F
:100410006363656C65726174696F6E3A2000536541
:100420007474696E672052657472616374204163ED
:1004300063656C65726174696F6E3A200053657410
:1004400074696E67205072696E7420416363656CD5
:1004500065726174696F6E3A200053657474696ED9
:1004600067205072696E7420616E642054726176E8
:10047000656C20416363656C65726174696F6E3A87
:1004800020004D31343520533C696E6465783E2040
:100490006F7574206F662072616E67652028302D3D
:1004A00031290A002F2F20004361703A454D4552F3
:1004B00047454E43595F5041525345523A300A0026
:1004C0004361703A434153455F4C494748545F424A
:1004D00052494748544E4553533A300A00436170DD
:1004E0003A544F47474C455F4C49474854533A307C
:1004F0000A004361703A534F4654574152455F508A
:100500004F5745523A300A004361703A4C455645C0
:100510004C494E475F444154413A300A00436170B0
:100520003A5A5F50524F42453A300A004361703A9E
:100530004155544F4C4556454C3A300A0043617082
:100540003A5052494E545F4A4F423A310A00436191
:10055000703A50524F47524553533A300A00436164
:10056000703A4155544F5245504F52545F54454D87
:10057000503A310A004361703A454550524F4D3A66
:10058000310A004649524D574152455F4E414D4553
:100590003A4D61726C696E20312E312E352028471C
:1005A00069746875622920534F555243455F434F24
:1005B00044455F55524C3A68747470733A2F2F67F4
:1005C00069746875622E636F6D2F4D61726C696E10
:1005D0004669726D776172652F4D61726C696E202C
:1005E00050524F544F434F4C5F56455253494F4E14
:1005F0003A312E30204D414348494E455F545950C1
:10060000453A344D61782045585452554445525F1F
:10061000434F554E543A3120555549443A63656429
:1006200065326132662D343161322D343734382DE4
:10063000396231322D63353563363266333637668B
:10064000660A00344D6178204F66662E004D3630C4
:100650003020486F74656E6420746F6F20636F6C18
:100660006420746F206368616E67652066696C61E1
:100670006D656E740A004261736520617175656312
:100680006964612E0020573A004171756563656E9B
:10069000646F20626173652E2E0041717565636918
:1006A00064612E0020573A004E6F7A7A6C652025DF
:1006B0007300344D61782070726F6E746F2E006F0E
:1006C0006B004D313133205300454D455247454E67
:1006D0004349412E20004543484F00494E464F00B4
:1006E0004552524F52530044525952554E00434FB7
:1006F0004D4D554E49434154494F4E006F6666007B
:10070000D606DB06E006E706EE0644454255473AC4
:10071000004E6F7A7A6C6520257300344D61782025
:1007200070726F6E746F2E00000136372603FF3C27
:100730003D380EFF2E303E12FFFF0C0809FFFF0769
:100740001A1C18FFFF08440AFF43FFFFFFFFFFFFCB
:1007500050726F7465637465642050696E0A002579
:1007600069730025696D2025697300256968202556
:10077000696D202569730025696420256968202535
:10078000696D202569730025697920256964202514
:1007900069682025696D20256973005072696E743F
:1007A0002074696D653A20004D31323500456E6424
:1007B0002066696C65206C6973740A00426567691C
:1007C0006E2066696C65206C6973740A0053656DF0
:1007D000206D6F76696D656E746F00344D617820A1
:1007E00070726F6E746F2E005265746F6D616E64FF
:1007F0006F20696D7072657373616F00412065735E
:1008000070657261206465206F7264656D00456D6E
:10081000206573706572612E2E2E0047322F47338C
:100820002062616420706172616D65746572730A23
:1008300000416374697665204578747275646572E9
:100840003A200020453A00205A3A0020593A0058F0
:100850003A002042403A0020403A00202F005761E1
:10086000726E696E673A20486F6D696E67204275D7
:100870006D702044697669736F72203C20310A00E4
:10088000020204627573793A2070617573656420A1
:10089000666F7220696E7075740A00627573793ABA
:1008A0002070617573656420666F72207573657260
:1008B0000A00627573793A2070726F6365737369A9
:1008C0006E670A0020496E76616C696420657874F1
:1008D00072756465722000534420726561642065FE
:1008E00072726F720A00446F6E65207072696E7466
:1008F000696E672066696C650A00454D455247453B
:100900004E4349412E200050415241444F2E200079
:100910005072696E7465722073746F7070656420B4
:1009200064756520746F206572726F72732E204635
:10093000697820746865206572726F7220616E64D8
:1009400020757365204D39393920746F20726573B5
:10095000746172742E202854656D706572617475AF
:1009600072652069732072657365742E20536574F7
:100970002069742061667465722072657374617297
:1009800074696E67290A004E6F204C696E65204EAF
:10099000756D626572207769746820636865636B42
:1009A00073756D2C204C617374204C696E653A2010
:1009B000004E6F20436865636B73756D20776974B3
:1009C00068206C696E65206E756D6265722C204CB6
:1009D000617374204C696E653A2000636865636BCF
:1009E00073756D206D69736D617463682C204C6143
:1009F0007374204C696E653A20004C696E65204E18
:100A0000756D626572206973206E6F74204C61731E
:100A100074204C696E65204E756D6265722B312CA9
:100A2000204C617374204C696E653A20004D313161
:100A30003000656E7175657565696E67202200FF0F
:100A4000FFFF0000A0400000A040000000400000A8
:100A50005D4300005C4300009643000080C000003E
:100A60000000000000000000594300005C4300004B
:100A70009643000080C0000000000000000000005D
:100A800048420000484200002041000000007C3C39
:100A90003E5E2B3D3F2F5B5D3B2C2A225C004D339D
:100AA00031004D383420582059205A2045004361E8
:100AB0006E6E6F7420656E74657220737562646902
:100AC000723A20006175746F25692E670065727235
:100AD0006F722077726974696E6720746F2066691F
:100AE0006C650A004E6F74205344207072696E74F6
:100AF000696E670A005344207072696E74696E678C
:100B00002062797465200044656C6574696F6E209D
:100B10006661696C65642C2046696C653A20004604
:100B2000696C652064656C657465643A006F706516
:100B30006E206661696C65642C2046696C653A209C
:100B40000057726974696E6720746F2066696C65FE
:100B50003A20006F70656E206661696C65642C20B8
:100B600046696C653A20006F70656E206661696C3D
:100B700065642C2046696C653A200046696C6520E6
:100B800073656C65637465640A002053697A653A1D
:100B9000200046696C65206F70656E65643A2000C0
:100BA0006F70656E206661696C65642C2046696CA7
:100BB000653A20002066696C653A20004E6F772008
:100BC000002220706F73002220706172656E743A8B
:100BD0002200535542524F5554494E452043414CF3
:100BE0004C207461726765743A2200454D45524746
:100BF000454E4349412E2000747279696E67207416
:100C00006F2063616C6C207375622D67636F646520
:100C10002066696C6573207769746820746F6F2033
:100C20006D616E79206C6576656C732E204D415830
:100C3000206C6576656C2069733A004D3234004D46
:100C400032332025730053442063617264206F6B3C
:100C50000A006F70656E526F6F74206661696C6513
:100C6000640A00766F6C756D652E696E6974206616
:100C700061696C65640A00534420696E697420667A
:100C800061696C0A0043616E6E6F74206F70656EEF
:100C900020737562646972200048617264636F64D6
:100CA00065642044656661756C742053657474696D
:100CB0006E6773204C6F616465640A00DC05000098
:100CC000DC050000640000001027000000009643CF
:100CD00000009643000020410000C8410000A042EF
:100CE0000000A0420000C8433333B94220286361AA
:100CF0006C63756C6174656429210A0020213D20B4
:100D000000454550524F4D20435243206D69736D4D
:100D100061746368202D202873746F7265642920C4
:100D200000290A002062797465733B206372632096
:100D3000002073746F7265642073657474696E67E4
:100D40007320726574726965766564202800204D91
:100D500061726C696E3D563430290A002845455051
:100D6000524F4D3D00454550524F4D2076657273B0
:100D7000696F6E206D69736D617463682000290A64
:100D8000002062797465733B2063726320005365B1
:100D90007474696E67732053746F726564202800E1
:100DA0004572726F722077726974696E6720746F12
:100DB00020454550524F4D210A004572726F7220F6
:100DC00077726974696E6720746F20454550524F81
:100DD0004D210A0066696C616D656E743A20007A77
:100DE0005F6D696E3A2000795F6D696E3A20007818
:100DF0005F6D696E3A20005265706F7274696E673C
:100E000020656E6473746F70207374617475730AF7
:100E10000046696D20646520637572736F202563D9
:100E200020256320256320256300205A3A0020599D
:100E30003A0020583A00656E6473746F70732068CE
:100E400069743A2000556E6B6E6F776E20636F6D1C
:100E50006D616E643A20220020746F6F206C6F6E9B
:100E60006720657874727573696F6E20707265762D
:100E7000656E7465640A0020636F6C642065787425
:100E8000727573696F6E2070726576656E746564D5
:100E90000A006563686F3A004572726F723A00200B
:100EA0005A3A0020593A0020436F756E7420583A20
:100EB000004D383420582059205A20450024F4D4BD
:100EC0003050C38E20C2A24017828B7011127A91CB
:100ED0000D816CD90AA861E108C7586607615143C2
:100EE000061E4B5D05C145A7041A411104093D9832
:100EF00003713931034036DB0265339102D430543B
:100F000002802E1D02632CEE01752AC501B028A0B7
:100F100001102781018F2564012B244B01E022342D
:100F200001AC211F018D200D01801FFC00841EEDEE
:100F300000971DDF00B81CD200E61BC600201BBCBA
:100F400000641AB200B219A8000A19A0006A189920
:100F500000D117910040178B00B516840031167E22
:100F600000B31579003A157300C7146F0058146A5E
:100F700000EE1366008813630025135E00C7125B42
:100F8000006C12570015125400C111510070114F1E
:100F90000021114B00D61049008D10470046104427
:100FA0000002104200C00F4000800F3E00420F3C84
:100FB00000060F3B00CB0E3800930E37005C0E3559
:100FC00000270E3400F30D3200C10D3100900D30BA
:100FD00000600D2E00320D2D00050D2C00D90C2BBC
:100FE00000AE0C2900850C29005C0C2700350C276D
:100FF000000E0C2600E80B2400C40B2400A00B23D9
:10100000007D0B23005A0B2100390B2100180B2007
:1010100000F80A1F00D90A1E00BB0A1E009D0A1D07
:1010200000800A1D00630A1C00470A1B002C0A1BD3
:1010300000110A1A00F7091A00DD091900C409197C
:1010400000AB091900920917007B09180063091702
:10105000004C09160036091600200916000A091569
:1010600000F5081500E0081400CC081400B80814B6
:1010700000A4081400900813007D0812006B0813E8
:101080000058081200460812003408110023081105
:10109000001208110001081100F0071000E007100D
:1010A00000D0071000C0071000B0070F00A1071004
:1010B0000091070E0083070F0074070F0065070EED
:1010C0000057070E0049070E003B070D002E070EC4
:1010D0000020070D0013070D0006070D00F9060C90
:1010E00000ED060D00E0060C00D4060C00C8060C4E
:1010F00000BC060C00B0060C00A4060B0099060C00
:10110000008D060B0082060B0077060B006C060BA9
:101110000061060A0057060B004C060A0042060A48
:101120000038060A002E060A0024060A001A060ADB
:10113000001006090007060A00FD050900F405096C
:1011400000EB050900E2050900D9050900D00509F1
:1011500000C7050900BE050900B5050800AD050872
:1011600000A50509009C050800940508008C0508E9
:1011700000840508007C050800740508006C05075C
:1011800000650508005D050700560508004E0507C7
:10119000004705070040050800380507003105072E
:1011A000002A050700230507001C05060016050791
:1011B000000F0507000805060002050700FB0406EE
:1011C00000F5040700EE040600E8040600E2040748
:1011D00000DB040600D5040600CF040600C904069F
:1011E00000C3040600BD040600B7040600B10405F0
:1011F00000AC040600A6040600A00405009B04063B
:101200000095040500900406008A04050085040585
:1012100000800406007A04050075040500700405CA
:10122000006B04050066040500610405005C04050C
:101230000057040500520405004D0405004804054C
:1012400000430405003E0404003A0405003504058B
:1012500000300404002C04050027040400230405C6
:10126000001E0404001A04040016040500110404FE
:10127000000D040400090405000404040000040433
:1012800000FC030400F8030400F4030400F003046A
:1012900000EC030400E8030400E4030400E003049A
:1012A00000DC030400D8030400D4030400D00304CA
:1012B00000CC030400C8030300C503030024F404A6
:1012C000D9201BC40C5C0E9804C4095F0265077129
:1012D00001F405F900FB04B30048048700C1036969
:1012E000005803550003034500BE023A0084023152
:1012F0000053022A002902250004022000E4011CF8
:1013000000C8011900AF01170098011400840113EF
:1013100000710110006101100051010E0043010D28
:101320000036010B002B010B0020010B00150109F9
:10133000000C01090003010800FB000800F300088D
:1013400000EB000700E4000600DE000600D80006FF
:1013500000D2000600CC000500C7000500C2000551
:1013600000BD000400B9000400B5000400B1000491
:1013700000AD000400A9000400A5000300A20003C2
:10138000009F0004009B00030098000300950002EA
:101390000093000300900003008D0002008B000307
:1013A0000088000200860002008400030081000221
:1013B000007F0002007D0002007B00020079000235
:1013C0000077000100760002007400020072000144
:1013D00000710002006F0002006D0001006C00024D
:1013E000006A000100690002006700010066000158
:1013F000006500010064000200620001006100015C
:1014000000600001005F0002005D0001005C00015F
:10141000005B0001005A0001005900010058000162
:101420000057000100560001005500010054000162
:101430000053000000530001005200010051000160
:1014400000500001004F0001004E0000004E00015E
:10145000004D0001004C0001004B0000004B00015A
:10146000004A000100490001004800000048000156
:101470000047000100460000004600010045000052
:10148000004500010044000100430000004300014A
:101490000042000000420001004100000041000144
:1014A00000400001003F0000003F0001003E00003E
:1014B000003E0001003D0000003D0001003C000036
:1014C000003C0000003C0001003B0000003B00012C
:1014D000003A0000003A0001003900000039000124
:1014E000003800000038000000380001003700001C
:1014F0000037000100360000003600000036000111
:101500000035000000350000003500010034000007
:1015100000340000003400010033000000330000FC
:1015200000330001003200000032000000320001F0
:1015300000310000003100000031000100300000E7
:101540000030000000300001002F0000002F0000DC
:10155000002F0000002F0001002E0000002E0000D0
:10156000002E0001002D0000002D0000002D0000C5
:10157000002D0001002C0000002C0000002C0000B9
:10158000002C0001002B0000002B0000002B0000AD
:10159000002B0001002A0000002A0000002A0000A1
:1015A000002A000100290000002900000029000095
:1015B0000029000000290001002800000028000088
:1015C000002800000028000000280001002700007B
:1015D000002700000027000000270000002700016E
:1015E0000026000000260000002600000026000063
:1015F0000026000100250000002500000025000055
:101600000025000000250000002500010024000046
:101610000024000000240000002400000024000139
:10162000002300000023000000230000002300002E
:10163000002300000023000000230001002200001E
:101640000022000000220000002200000022000012
:101650000022000100210000002100000021000004
:1016600000210000002100000021000000210001F5
:1016700000200000002000000020000000200000EA
:1016800000200000002000000020000000200001D9
:10169000001F0000001F0000001F0000001F0000CE
:1016A000001F0000001F0000001F0001001E0000BE
:1016B000001E0000001E0000001E000000546865AF
:1016C000726D616C2052756E617761790054484586
:1016D000524D414C2052554E4157415900454D45C0
:1016E0005247454E4349412E2000202D20496E7619
:1016F000616C6964206578747275646572206E75BA
:101700006D62657220210A0048656174696E672008
:101710006661696C6564004171756563696D656ECC
:10172000746F2066616C686F75004D494E54454D6D
:101730005020747269676765726564004572723A19
:1017400020542042617365204D696E696D610045CA
:1017500072723A2054204D696E696D61004D415896
:1017600054454D5020747269676765726564004521
:1017700072723A20542042617365204D6178696D20
:1017800061004572723A2054204D6178696D6100A4
:101790006265640A002C2073797374656D2073741C
:1017A0006F7070656421204865617465725F49449B
:1017B0003A200023646566696E65202044454641F1
:1017C000554C545F4B64200023646566696E652048
:1017D0002044454641554C545F4B692000236465C5
:1017E00066696E65202044454641554C545F4B70F8
:1017F0002000504944204175746F74756E652066F1
:10180000696E697368656421205075742074686519
:10181000206C617374204B702C204B6920616E64C6
:10182000204B6420636F6E7374616E7473206672F4
:101830006F6D2062656C6F7720696E746F20436FE7
:101840006E66696775726174696F6E2E680A005002
:101850004944204175746F74756E65206661696CCA
:101860006564212074696D656F75740A0050494480
:10187000204175746F74756E65206661696C65646E
:10188000212054656D706572617475726520746F86
:101890006F20686967680A00204B643A2000204B7B
:1018A000693A2000204B703A20000A20436C617393
:1018B00073696320504944200A002054753A20007F
:1018C000204B753A2000206D61783A2000206D6928
:1018D0006E3A200020643A200020626961733A2049
:1018E0000070012C0190012701B0012201C0011DEF
:1018F00001F00118011002130130020E016002090B
:101900000190020401C002FF000003FA004003F549
:10191000008003F000D003EB002004E6007004E137
:1019200000E004DC004005D700C005D2004006CD31
:1019300000D006C8008007C3003008BE00F008B918
:1019400000C009B400B00AAF00B00BAA00D00CA5CB
:1019500000000EA000500F9B00C010960050129186
:101960000000148C00C0158700B0178200B0197DEC
:1019700000D01B7800001E730040206E009022698A
:1019800000F024640040275F0090295A00E02B55A6
:1019900000102E500020304B0010324600E0334142
:1019A0000090353C001037370070383200A0392DD8
:1019B00000B03A2800A03B2300603C1E00103D19F7
:1019C00000903D1400103E0F00703E0A00C03E051E
:1019D00000003F0000403FFBFF803FF6FFC03FF1AB
:1019E000FF43617274616F2072656D6F7669646F19
:1019F0000043617274616F20696E73657269646F10
:101A000000746F20726573756D650057616974208D
:101A1000666F72207072696E74005052494E542085
:101A20005041555345440020204E6F7A7A6C653AF8
:101A30002000200066696C616D656E7420657874A5
:101A400072756465005761697420666F7200505248
:101A5000494E54205041555345440020204E6F7A42
:101A60007A6C653A200066696C616D656E74206CF5
:101A70006F6164005761697420666F72005052494B
:101A80004E54205041555345440020204E6F7A7AE1
:101A90006C653A2000746F20636F6E74696E7565B3
:101AA0002E2E2E00616E6420707265737320627535
:101AB00074746F6E00496E736572742066696C6130
:101AC0006D656E74005052494E5420504155534537
:101AD000440020204E6F7A7A6C653A20002000681E
:101AE000656174206E6F7A7A6C652E005072657332
:101AF0007320627574746F6E20746F005052494E7B
:101B000054205041555345440020204E6F7A7A6C42
:101B1000653A20002000506C65617365207761692B
:101B2000742E2E2E0048656174696E67206E6F7A80
:101B30007A6C65005052494E5420504155534544EB
:101B40000020204E6F7A7A6C653A2000200066698A
:101B50006C616D656E7420756E6C6F6164005761A9
:101B6000697420666F72005052494E54205041559E
:101B70005345440020204E6F7A7A6C653A2000630A
:101B800068616E6765006F66207468652066696CC1
:101B9000616D656E74005761697420666F722073A1
:101BA00074617274005052494E542050415553454F
:101BB000440045787472756465206D6F72650052DB
:101BC0006573756D65207072696E7400524553556A
:101BD0004D45204F5054494F4E533A0020204E6FF0
:101BE0007A7A6C653A200020004261636B004D698F
:101BF0006E696D756D2054656D7020697320313785
:101C0000302E004171756563696D656E746F206675
:101C1000616C686F7500022E2E004D656E75207028
:101C200072696E636970616C0046696C2E2044694C
:101C3000616D2E0046696C2E204469616D2E004551
:101C400020656D206D6D33004F6666004F6E20007D
:101C5000436F6E74726F6C6F00506173736F2F6D92
:101C60006D004A65726B00416363656C65726174F7
:101C7000696F6E0056656C6F6369747900436F6EAF
:101C800074726F6C6F004520706173736F2F6D6D90
:101C9000004520706173736F2F6D6D005A20706165
:101CA00073736F2F6D6D005A20706173736F2F6D9A
:101CB0006D005920706173736F2F6D6D0059207026
:101CC0006173736F2F6D6D005820706173736F2F88
:101CD0006D6D005820706173736F2F6D6D004D6FC7
:101CE00076696D656E746F0056652D6A65726B005E
:101CF00056652D6A65726B0056652D6A65726B00BC
:101D0000567A2D6A65726B00567A2D6A65726B0081
:101D100056792D6A65726B0056792D6A65726B0073
:101D200056792D6A65726B0056782D6A65726B0064
:101D300056782D6A65726B0056782D6A65726B0055
:101D40004D6F76696D656E746F00416D61782045E9
:101D500000416D6178204500416D6178205A004155
:101D60006D6178205A00416D6178205900416D61A4
:101D700078205900416D6178205800416D617820CC
:101D80005800412D6D6F76696D656E746F00412D41
:101D90006D6F76696D656E746F00412D726574723A
:101DA000616363616F00412D726574726163636189
:101DB0006F0041636300416363004D6F76696D6539
:101DC0006E746F005654726176206D696E005654C1
:101DD000726176206D696E005654726176206D696D
:101DE0006E00566D696E00566D696E00566D696EB7
:101DF0000020566D617820450020566D61782045A1
:101E00000020566D617820450020566D6178205A7B
:101E10000020566D6178205A0020566D6178205A56
:101E20000020566D617820590020566D6178205948
:101E30000020566D617820590020566D6178205839
:101E40000020566D617820580020566D617820582A
:101E5000004D6F76696D656E746F004775617264D1
:101E60006172206E61206D656D6F7269610008207E
:101E70004261736500082042617365000820426179
:101E800073650008204269636F0008204269636F30
:101E90000008204269636F0056656C2E2076656EDF
:101EA000746F696E68610056656C2E2076656E747D
:101EB0006F696E68610056656C2E2076656E746F72
:101EC000696E68610054656D7065726174757261E8
:101ED00000446566696E69636F6573204142530013
:101EE000446566696E69636F657320504C410050AC
:101EF00049442D44005049442D44005049442D4943
:101F0000005049442D49005049442D500050494447
:101F10002D500008204661637400082046616374F8
:101F20000008204D61780008204D61780008204DA0
:101F300061780008204D696E0008204D696E000828
:101F4000204D696E0054656D702E204175746F6D63
:101F50006174696361004F6666004F6E20005665CC
:101F60006C2E2076656E746F696E68610056656CC4
:101F70002E2076656E746F696E68610056656C2EF2
:101F80002076656E746F696E686100082042617327
:101F900065000820426173650008204269636F0094
:101FA00008204269636F00436F6E74726F6C6F003C
:101FB000496E697469616C697A6520454550524F74
:101FC0004D004D3530320A4D353030005265737456
:101FD0002E20646520656D657267656E2E00436115
:101FE000727265676172206461206D656D6F7269E0
:101FF000610047756172646172206E61206D656D6C
:102000006F7269610046696C616D656E746F004D39
:102010006F76696D656E746F0054656D7065726181
:1020200074757261004D656E75207072696E6369BA
:1020300070616C004D6F76657220457874727573AF
:102040006F72004D6F766572205A004D6F76657223
:102050002059004D6F76657220580050726570618E
:10206000726172004D6F76657220302E316D6D0099
:102070004D6F76657220316D6D004D6F7665722003
:1020800031306D6D004D6F766572206569786F0037
:102090004D6F766572204578747275736F72004D5E
:1020A0006F766572205A004D6F7665722059004D2B
:1020B0006F7665722058004D6F7665722045787492
:1020C0007275736F72004D6F766572205A004D6F96
:1020D0007665722059004D6F7665722058005072F7
:1020E000652D6171756563657220414253005072C0
:1020F000652D6171756563657220504C41004172B8
:10210000726566656365720054726F636172206602
:10211000696C616D656E746F0044657361637469A9
:10212000766172206D6F746F726573004D38340084
:1021300049722070617261206F726967656D004736
:102140003238004D6F766572206569786F004D6595
:102150006E75207072696E636970616C0050726593
:102160002D61712E20414253200842617365005059
:1021700072652D617175656365722041425320451A
:102180006E64005072652D617175656365722041E2
:102190004253005072657061726172005072652D19
:1021A00061712E20504C41200842617365005072CD
:1021B000652D6171756563657220504C4120456ED7
:1021C00064005072652D6171756563657220504CB5
:1021D000410050726570617261720054726F636188
:1021E000722066696C616D656E746F00466C7578FF
:1021F0006F00466C75786F00466C75786F00566599
:102200006C2E2076656E746F696E68610056656C21
:102210002E2076656E746F696E68610056656C2E4F
:102220002076656E746F696E686100082042617384
:1022300065000820426173650008204269636F00F1
:1022400008204269636F0056656C6F63696461645E
:10225000650056656C6F6369646164650056656C02
:102260006F636964616465004D656E7520707269A5
:102270006E636970616C004D363030204230004D25
:10228000656E75207072696E636970616C0053656C
:102290006D2063617274616F2053440053657474E0
:1022A000696E67004D656E75207072696E63697046
:1022B000616C0053656D2063617274616F205344DB
:1022C00000496D7072696D697220646F205344001B
:1022D000506172617220696D7072657373616F0015
:1022E0005265746F6D617220696D70726573736190
:1022F0006F0050617573617220696D7072657373E0
:10230000616F00526573756D652066726F6D206F29
:10231000757461676500436F6E74726F6C6F005007
:1023200072657061726172004166696E6172004D22
:102330006F6E69746F72697A617200496D7072654F
:102340007373616F2063616E63656C616461004DDE
:102350003234005072696E74207061757365640068
:102360004D313235000025753A2530327500253063
:1023700032753A2530327500257564202530327566
:102380003A25303275000920005A00590058005093
:102390006C65617365207265736574005052494EB7
:1023A0005445522048414C5445440000060900FE63
:1023B000070192032120FFFF08FF07FF000000062E
:1023C00000000107070602008080808080008003F3
:1023D0000202060105A0A00507070600005050F8FC
:1023E00050F850500507070600002078A07028F02C
:1023F00020050707060000C0C810204098180507F0
:10240000070600006090A040A89068020303060140
:1024100004C0408003070706010020408080804000
:10242000200307070601008040202020408005058A
:102430000506000120A870A820050505060001205A
:1024400020F820200203030602FFC040800501019E
:10245000060003F8020202060200C0C005050506D8
:1024600000010810204080050707060000708888DA
:102470008888887003070706010040C0404040403C
:10248000E0050707060000708808708080F80507DF
:1024900007060000F81020100808F00507070600DE
:1024A0000010305090F81010050707060000F88063
:1024B000F008088870050707060000708080F08823
:1024C0008870050707060000F80810202020200566
:1024D000070706000070888870888870050707065F
:1024E000000070888878080870020505060200C0A0
:1024F000C000C0C00206060602FFC0C000C0408087
:102500000407070600001020408040201005030348
:10251000060002F800F804070706010080402010BA
:102520002040800507070600007088081020002062
:1025300005070706000070880868A8A87005070747
:10254000060000708888F88888880507070600005C
:10255000F08888F08888F0050707060000708880FA
:1025600080808870050707060000F08888888888C2
:10257000F0050707060000F88080F08080F8050766
:1025800007060000F88080F08080800507070600BD
:1025900000708880B8888870050707060000888862
:1025A00088F888888801070706020080808080807C
:1025B0008080050707060000381010101090600595
:1025C00007070600008890A0C0A0908805070706AE
:1025D0000000808080808080F80507070600008862
:1025E000D8A8888888880507070600008888C8A8B2
:1025F0009888880507070600007088888888887092
:10260000050707060000F08888F08080800507072E
:1026100006000070888888A89068050707060000F3
:10262000F08888F0A0908805070706000078808071
:10263000700808F0050707060000F8202020202079
:1026400020050707060000888888888888700507A5
:10265000070600008888888888502005070706003C
:10266000008888888888A8500507070600008888A1
:102670005020508888050707060000888888502069
:102680002020050707060000F80810204080F80306
:102690000707060100E08080808080E005050506D0
:1026A00000018040201008030707060100E02020F9
:1026B000202020E0050303060004205088050101C6
:1026C000060000F802020206020580400505050624
:1026D000000070087888780507070600008080B041
:1026E000C88888F0050505060000708080887005A0
:1026F0000707060000080868988888780505050619
:1027000000007088F880700507070600003048E078
:10271000404040400506060600FF70888878087033
:102720000507070600008080B0C888888801070771
:10273000060200800080808080800308080601FF78
:10274000200020202020A0400407070600008080F1
:1027500090A0C0A090030707060100C04040404081
:1027600040E0050505060000D0A8A8A8A8050505B5
:10277000060000B0C8888888050505060000708836
:102780008888700506060600FFF08888F0808005BE
:1027900006060600FF788888780808050505060003
:1027A00000B0C880808005050506000070807008B4
:1027B000F00407070600004040E0404040300505B7
:1027C00005060000888888986805050506000088C9
:1027D000888850200505050600008888A8A85005AF
:1027E000050506000088502050880506060600FFF3
:1027F000888888780870050505060000F8102040D4
:10280000F8030707060100204040804040200107F0
:102810000706020080808080808080030707060111
:10282000008040402040408005020206000268907F
:102830000000000600000000000600000000000686
:10284000000000000006000000000006000000007C
:102850000006000000000006000000000006000066
:102860000000000600000000000600000000000656
:10287000000000000006000000000006000000004C
:102880000006000000000006000000000006000036
:102890000000000600000000000600000000000626
:1028A000000000000006000000000006000000001C
:1028B0000006000000000006000000000006000006
:1028C00000000006000000000006000000000006F6
:1028D00000000000000600000000000600000000EC
:1028E00000060000000000060000000000060000D6
:1028F00000000006000000000006000001070706B7
:10290000020080008080808080050707060000208C
:1029100070A8A0A87020050707060000304040E01E
:102920004050A8050505060000887050708805070E
:1029300007060000885020F820F82001070706024B
:1029400000808080008080800508080600003048F4
:10295000205050209060030101060107A0050707E1
:10296000060000F888B8B8B888F80507070600011F
:10297000700878887800F80505050600012850A041
:102980005028050303060001F808080202020602A7
:10299000064080050707060000F888A88898A8F870
:1029A000050101060006F804040406000360909087
:1029B000600507070600002020F8202000F8040525
:1029C0000506000360902040F0030505060003E0C3
:1029D00020E020E002020206020640800508080608
:1029E00000FF8888888898E880800507070600002F
:1029F00078989878181818020202060202C0C002DD
:102A000002020602FF408003050506000340C040A5
:102A100040E0050707060001708888887000F80507
:102A20000505060001A0502850A005070706000074
:102A30008890A858B808080507070600008890B8CD
:102A400048982038050808060000C040C048D8381B
:102A50000808050707060000200020408088700550
:102A600008080600004020007088F88888050808DB
:102A70000600001020007088F88888050808060005
:102A8000002050007088F888880508080600006853
:102A900090007088F88888050808060000500070CB
:102AA0008888F8888805080806000020502070886B
:102AB000F888880507070600003860A0B8E0A0B8CD
:102AC0000508080600FF708880808870206005086F
:102AD00008060000402000F880F080F8050808068D
:102AE0000000081000F880F080F8050808060000D3
:102AF000205000F880F080F805070706000050001D
:102B0000F880F080F8030808060100804000E040EB
:102B10004040E0030808060100204000E04040403B
:102B2000E003080806010040A000E0404040E00348
:102B30000707060100A000E0404040E00507070647
:102B40000000704848E8484870050808060000681A
:102B5000900088C8A89888050808060000402070E2
:102B6000888888887005080806000010207088880A
:102B70008888700508080600002050007088888842
:102B80007005080806000068900070888888700545
:102B900008080600005000708888888870050505C0
:102BA00006000188502050880508080600FF1070B4
:102BB000A8A8A8A87040050808060000402088883A
:102BC0008888887005080806000010208888888892
:102BD00088700508080600002050008888888870E2
:102BE0000508080600005000888888888870050855
:102BF0000806000010208850202020200509090622
:102C000000FFC040704848704040E00408080601DA
:102C1000FF609090A09090E08005080806000040BA
:102C20002000700878887805080806000010200049
:102C300070087888780508080600002050007008A1
:102C40007888780508080600006890007008788881
:102C50007805070706000050007008788878050896
:102C600008060000205020700878887805060606BF
:102C70000000D02878A0A8500506060600FF708046
:102C8000887020600508080600004020007088F861
:102C900080700508080600001020007088F8807019
:102CA0000508080600002050007088F880700507AD
:102CB0000706000050007088F880700308080601BD
:102CC0000080400040C04040E003080806010020AA
:102CD000400040C04040E003080806010040A0005A
:102CE00040C04040E0030707060100A00040C0408C
:102CF00040E0050707060000A040A0107888700596
:102D00000808060000689000B0C888888805080890
:102D100006000040200070888888700508080600BA
:102D200000102000708888887005080806000020C0
:102D300050007088888870050808060000689000B8
:102D40007088888870050707060000500070888822
:102D500088700505050600012000F800200507071A
:102D60000600FF1070A8A8A870400508080600001B
:102D70004020008888889868050808060000102010
:102D80000088888898680508080600002050008898
:102D9000888898680507070600005000888888988A
:102DA000680509090600FF102000888888F8087067
:102DB0000407070601FFC04060506040E0050808B6
:102DC0000600FF500088888878087000060900FE19
:102DD000000000000001090008FE000005080806C8
:102DE000000040F0C88888987810050808060000A0
:102DF000C0F88888888888F8050505060001203015
:102E0000F830200508080600002070F82020202057
:102E1000E00509090600FF2070A8A8B8888870207E
:102E20000509090600FFE080C0B0A8283028280561
:102E300009090600FFF8A88888888888A8F8050A84
:102E40000A0600FE205050505088A8A8887003033E
:102E50000306000340A04000000000000000000046
:102E60000000007FFFE00000000000000000000004
:102E700000007000E0000000000000000000000002
:102E80000061F86000000000000000000000000089
:102E900041F8200000000000000000000000004099
:102EA000F020000000000000000000000000406072
:102EB000200000000000000000000000005801A0F9
:102EC0007F80000000000000004104005C63A0FF60
:102ED000C0000000000000002082005EF7A0FFC0DC
:102EE000000000000000002082005EF7A0FFC0008C
:102EF0000000000000004104005C63A07F8000002F
:102F000000000000008208005801A07F800000003F
:102F100000000001041000406020FFC0000000001D
:102F200000000104100040F020FFC000000000007D
:102F3000000082080041F820FFC0000000000000EF
:102F40000041040061F8603F000000000000000044
:102F50000000007000E01E0000000000000001FF03
:102F6000FF807FFFE00C0000000000000001FFFF79
:102F700080000000000000000000000000000000D1
:102F80007FFFE00000000000000000000000007073
:102F900000E0000000000000000000000000630CE2
:102FA00060000000000000000000000000470E204C
:102FB0000000000000000000000000004F0F200093
:102FC00000000000000000000000005F0FA00000F3
:102FD000000000000000000000005E07A07F8000ED
:102FE000000000000000410400406020FFC000001D
:102FF000000000000020820040F020FFC000000020
:103000000000000020820040F020FFC0000000000F
:103010000000004104004060207F800000000000AC
:1030200000008208005E07A07F8000000000000012
:10303000010410005F0FA0FFC000000000000001AD
:103040000410004F0F20FFC00000000000000082AD
:103050000800470E20FFC0000000000000004104EF
:1030600000630C603F000000000000000000000052
:103070007000E01E0000000000000001FFFF807FE4
:10308000FFE00C0000000000000001FFFF800000D6
:103090000000000000000000000000000000000030
:1030A0000000000000000000000000000000000020
:1030B0000000000000000000000000000000000010
:1030C0000000000000000000000000000000000000
:1030D00000000000000000000000000000000000F0
:1030E00000000000000000000000000000000000E0
:1030F00000000000000000000000000000000000D0
:1031000000000000000000000000000000000000BF
:1031100000000000000000000000000000000000AF
:10312000000000000000000000000000000000009F
:10313000000000000000000000000000000000008F
:10314000000000000000000000000000000000007F
:10315000000000000000000000000000000000006F
:10316000000000000000000000000000000000005F
:10317000000000000000000000000000000000004F
:10318000000000000000000000000000000000003F
:10319000000000000000000000000000000000002F
:1031A000000000000000000000000000000000001F
:1031B000000000000000000000000000000000000F
:1031C00000000000000000000000000000000000FF
:1031D00000000000000000000000000000000000EF
:1031E00000000000000000000000000000000000DF
:1031F00000000000000000000000000000000000CF
:1032000000000000000000000000000000000000BE
:1032100000000000000000000000000000000000AE
:10322000000000000000000000000000000000009E
:103230000000000808E00F1E6670E09807076600AF
:103240000000000818E00E0EE771E0980F07E70194
:103250000000001C78E01C87E773E0981F87E703F5
:103260000000001CF8E09CC78371E0181CC78301B4
:1032700000000038E0E1C8E30170E0181CE701003D
:1032800000000078C0E3C0E10070E0181CE7000017
:103290000000007388E7E0E00070E0981FE700009E
:1032A000000080F318FFE0E00070E0980FE70000F6
:1032B000000080E338FE60E00070E09807E700005F
:1032C0000000C0F339FC60E00070E01818E700006F
:1032D0000000C0F939F860C081E070181CC7810097
:1032E0000000E0F93BF060C0E7E379981FC7E7030F
:1032F0000000E0803BC06080E7C339980F87E70398
:10330000000060803F806000E78019980707E700B1
:10331000000000000000000020000000000020006D
:10332000000000000000000000000000000000009D
:10333000000000000000000000000000000000008D
:10334000000000000000000000000000000000007D
:10335000000000000000000000000000000000006D
:10336000000000000000000000000000000000005D
:10337000000000000000000000000000000000004D
:10338000000000000000000000000000000000003D
:10339000000000000000000000000000000000002D
:1033A000000000000000000000000000000000001D
:1033B000000000000000000000000000000000000D
:1033C00000000000000000000000000000000000FD
:1033D00000000000000000000000000000000000ED
:1033E00000000000000000000000000000000000DD
:1033F00000000000000000000000000000000000CD
:1034000000000000000000000000000000000000BC
:1034100000000000000000000000000000000000AC
:10342000000000000000000000000000000000009C
:10343000000000000000000000000000000000008C
:10344000000000000000000000000000000000007C
:10345000000000000000000000000000000000006C
:10346000000000000000000000000000000000005C
:10347000000000000000000000000000000000004C
:10348000000000000000000000000000000000003C
:103490000000000A0B02090C0D0E080703040100CE
:1034A000000000000000000000000000000000001C
:1034B00000000000000000000000000000121110D9
:1034C00000000000000000000000000000000000FC
:1034D0000000000000000001021020200808102059
:1034E0004010204080020102010804020101020490
:1034F000081020408080402010080402018004024F
:1035000001804020100804020108040201010204A5
:1035100008102040800102040810204080050505A5
:1035200005070508080808020202020A0A0808043A
:103530000404040101010101010101030303030368
:10354000030303040707070C0C0C0C0C0C0C0C02F7
:1035500002020206060606060606060B0B0B0B0BFE
:103560000B0B0B000020002300260029002C002F4D
:1035700000320000010000030106010901000022E1
:1035800000250028002B002E00310034000201002D
:1035900000050108010B0100002100240027002A7A
:1035A000002D003000330001010000040107010A72
:1035B000014E414E494E495459494E46CDCCCC3D21
:1035C0000AD7233C17B7D13877CC2B329595E62410
:1035D0001FB14F0A000020410000C84200401C46B5
:1035E00020BCBE4CCA1B0E5AAEC59D749F4C6A8847
:1035F00012DEBD4C11241FBECFEFD1E2DEBFCDBF26
:1036000000E00CBF13E0A0E0B2E0E8EFF3EF01E070
:103610000BBF02C007900D92AC3AB107D9F724E175
:10362000ACEAB3E001C01D92A332B207E1F715E3A3
:10363000C2EFD5E300E006C022970109FE010BBFEF
:103640000E946DF2CC3ED10780E00807A9F70E94E6
:10365000E2ED0C94EBF90C9400001F920F920FB660
:103660000F9211240BB60F922F933F938F939F933A
:10367000EF93FF932091C6009FB7F894E0912C043C
:1036800081E08E0F8F7730912D04831731F0F0E0B9
:10369000E455FC4F208380932C049FBFFF91EF9152
:1036A0009F918F913F912F910F900BBE0F900FBE66
:1036B0000F901F9018959B01AC01211581EE3807E2
:1036C0004105510549F182E08093C00060E079E056
:1036D0008DE390E00E9426F2215031094109510901
:1036E000CA01B90122E030E040E050E00E9426F239
:1036F0003093C5002093C4008091C1008061809305
:10370000C1008091C10088608093C1008091C10098
:1037100080688093C10008951092C00020E130E0DD
:10372000E7CF3FB7F89420912D0480912C048217A5
:1037300059F0E22FF0E0E455FC4F808190E02F5FDC
:103740002F7720932D0402C08FEF9FEF3FBF089586
:103750002FB7F89480912C0490912D042FBF891BD2
:103760008F7708958FB7F89490912D0490932C043F
:103770008FBF08959091C00095FFFCCF8093C60045
:103780000895AF92BF92CF92DF92EF92FF920F9384
:103790001F93CF93DF93CDB7DEB7A0970FB6F89402
:1037A000DEBF0FBECDBF6115710581059105A9F181
:1037B000B12CC42ED12CE12CF12CAA24A394AB0C57
:1037C00001E010E00C0F1D1F0B0D111DB7FC1A9529
:1037D000A70196010E9404F2F8016083B901CA01B1
:1037E000611571058105910511F41B2D11C0BA2CCD
:1037F000E4CFE1E0F0E0EC0FFD1FE10FF11D17FD5C
:10380000FA9580818A3038F490E3890FB3DF115044
:103810001F3F79F714C097E3F8CF80E3A0960FB667
:10382000F894DEBF0FBECDBFDF91CF911F910F91F6
:10383000FF90EF90DF90CF90BF90AF909BCFA0967E
:103840000FB6F894DEBF0FBECDBFDF91CF911F91B1
:103850000F91FF90EF90DF90CF90BF90AF900895C1
:103860004115510511F4862F85CF8BCFAB01682F01
:1038700070E080E090E0F4CFAB01BC0180E090E02C
:10388000EFCFCF92DF92EF92FF926B017C0197FF17
:103890000AC08DE26FDFF094E094D094C094C11C14
:1038A000D11CE11CF11C4AE0C701B601FF90EF906A
:1038B000DF90CF9066CF4115510511F4862F5ACF76
:1038C0004A30510509F4DDCF5CCFAB01BC0188273C
:1038D00077FD8095982FEFCF8DE04CDF8AE04ACFBF
:1038E000AB01BC0180E090E0BBDFF6CF8F929F92EE
:1038F000AF92BF92CF92DF92EF92FF92CF936B0184
:103900007C01B42E20E030E0A9010E94CAEE87FFBE
:1039100006C08DE22FDFF7FAF094F7F8F094C0E0DC
:1039200060E070E080E09FE3CB1541F02DEC3CECD3
:103930004CEC5DE30E9408F1CF5FF6CF9B01AC0138
:10394000C701B6010E94F1ED6B017C010E943EEFC0
:103950004B015C014AE015DFCC2381F1C501B401C4
:103960000E946AEF9B01AC01C701B6010E94F0ED15
:103970006B017C018EE2FEDE20E030E040E251E4AB
:10398000C701B6010E9408F16B017C010E9439EF6A
:103990004B01AA2497FCA094BA2CC501B40171DF95
:1039A000C501B4010E946CEF9B01AC01C701B601D7
:1039B0000E94F0ED6B017C01C150F1F6CF91FF90B8
:1039C000EF90DF90CF90BF90AF909F908F90089531
:1039D0008DCF809105078130B9F40E9494965F9A4B
:1039E0001092DC068A9A1092DD069FB7F8948091B7
:1039F00008018160809308019FBF1092DE06129A31
:103A00000E94C267109205070895CF92DF92EF924D
:103A1000FF920F931F93CF93DF93EC010E943EEB35
:103A20000E811F8128853985011511052105310574
:103A300059F53C853323A9F12A8531503C8731E083
:103A4000320F3A874D85341301C01A86FE0134E0E7
:103A5000239FE00DF11D11240685178520893189EA
:103A60000A831B832C833D836B017C01C00ED11E16
:103A7000E11CF11CCE82DF82E886F9868C819D8173
:103A8000892B79F0409A0DC06B017C01C01AD10AD4
:103A9000E20AF30AF7FC05C040981E821F821886CE
:103AA0001986DF91CF911F910F91FF90EF90DF90DA
:103AB000CF9008950E943EEB60930105709302053C
:103AC00080930305909304050895CF92DF92EF92BF
:103AD000FF920F931F93CF93DF93EB01FC01608163
:103AE0007181828193812CE3C22ED12CE12CF12CA7
:103AF000A70196010E9404F2162F072FCA01B901EF
:103B0000A70196010E9404F2F62EE72ECA01B90120
:103B100028E130E040E050E00E9404F2FB01C901DE
:103B20006DE671E00E94DDF19B014F2D5E2D2115A8
:103B30003105D9F00F931F93EF92FF92FF93EF930C
:103B40009F938F933F932F9387E897E09F938F9353
:103B5000DF93CF930E94D8F68DB79EB70E960FB61F
:103B6000F8949EBF0FBE8DBF5BC00097C9F00F9346
:103B70001F93EF92FF92FF93EF939F938F9387E7AB
:103B800097E09F938F93DF93CF930E94D8F6EDB782
:103B9000FEB73C960FB6F894FEBF0FBEEDBF40C017
:103BA0003097B9F00F931F93EF92FF92FF93EF932B
:103BB0008BE697E09F938F93DF93CF930E94D8F685
:103BC0008DB79EB70A960FB6F8949EBF0FBE8DBFF5
:103BD00027C0452BA9F00F931F93EF92FF9283E626
:103BE00097E09F938F93DF93CF930E94D8F6EDB722
:103BF000FEB738960FB6F894FEBF0FBEEDBF10C0EB
:103C00000F931F938FE597E09F938F93DF93CF934D
:103C10000E94D8F60F900F900F900F900F900F907A
:103C2000DF91CF911F910F91FF90EF90DF90CF9098
:103C3000089581548A3148F5482F50E0FA0133E065
:103C4000F595E7953A95E1F7E852F44F208130E099
:103C5000877002C0359527958A95E2F720FF15C039
:103C6000FA01E254F44F2081222339F08091E30BD2
:103C70009091E40B820F911D02C080E090E0909340
:103C8000E00B8093DF0B81E0089580E00895D1DFA1
:103C9000882339F081E02091DF0B3091E00B232B5A
:103CA00009F480E008951F93CF93DF938091DF0B99
:103CB0009091E00B009701F1FC01EF011191212F90
:103CC0002F7D99F0153411F01536B9F7188260E0A0
:103CD00070E08091DF0B9091E00B0E9471F21883ED
:103CE000562F472F382F292F0BC060E070E0DF914F
:103CF000CF911F910C9471F250E040E030E020E051
:103D0000652F742F832F922FDF91CF911F910895EC
:103D10008091DF0B9091E00B009731F04AE050E08A
:103D200060E070E00C94D9F360E070E0CB0108959E
:103D30008091DF0B9091E00B009731F04AE050E06A
:103D400060E070E00C940AF560E070E0CB0108954B
:103D5000DFDF97FD0CC0DCDF6F3F7105810591054A
:103D600009F014F4D5DF01C06FEF862F089580E0CD
:103D700008958091DF0B9091E00B892B39F0E8DFFB
:103D800091E0811101C090E0892F089581E00895AC
:103D9000EF92FF920F931F93CF93DF93EC017B0180
:103DA0008A016C854D8564130AC0E881F981019010
:103DB000F081E02DCE0119950E94E79BF2CFF7012B
:103DC00020813181F801808191815B85FE0174E061
:103DD000579FE00DF11D11243E963183208393837C
:103DE00082836F5F6C8781E0850F841711F08B876A
:103DF00001C01B86DF91CF911F910F91FF90EF9033
:103E00000895AF92BF92CF92DF92FF920F931F93CC
:103E1000CF93DF9300D01F92CDB7DEB7F82E662385
:103E200051F010923C041092380410923904109210
:103E30003A0410923B040E943EEB0091380410912A
:103E4000390420913A0430913B045B016C01A01AC3
:103E5000B10AC20AD30AD7FC40C0F7FE05C004EC81
:103E600019E020E030E015C0E0913C042F2D33270D
:103E700027FD30952C5F3F4F4E2F552747FD50951E
:103E80002417350754F1EF1554F300E911E020E051
:103E900030E0DC01CB01800F911FA21FB31F809384
:103EA000380490933904A0933A04B0933B0480ED16
:103EB00097E09A8389838CE291E09C838B83AE01A7
:103EC0004F5F5F4FBE016D5F7F4F81ED94E060DF1C
:103ED00080913C048F5F80933C040F900F900F9073
:103EE0000F90DF91CF911F910F91FF90DF90CF90B6
:103EF000BF90AF900895EAE0F1E080818062808316
:103F00009FB7F894EBE0F1E080818F7D80839FBFC5
:103F1000089520E030E042E852E460911C12709174
:103F20001D1280911E1290911F120E94CDF09FB71A
:103F300018162CF4F89480910B01806204C0F89458
:103F400080910B018F7D80930B019FBF08952EEF11
:103F500036E04AEF56E066EF76E082EF96E00C94AA
:103F60009586AF92BF92CF92DF92EF92FF920F931E
:103F70001F93CF93DF9300D01F92CDB7DEB77901A7
:103F80005C01AA0CBB1CAA0CBB1CC5018E50994F2E
:103F90006C01FC01108211821282138249835A83C0
:103FA0006B837C83D4DF49815A816B817C81F601EC
:103FB0004083518362837383C090090520E030E021
:103FC000A901B801C7010E94CAEE811108C0F5011C
:103FD000E258F54FE590F5900591149104C0C801A1
:103FE000D7017C018D012EEF36E04AEF56E066EFF7
:103FF00076E082EF96E00E94AA7B0E94A990109240
:10400000B90B0F900F900F900F90DF91CF911F91F0
:104010000F91FF90EF90DF90CF90BF90AF900895F9
:104020008091D1068093D2061092D3060895909184
:10403000D106E92FF0E0E354FB4F80839F5F94307B
:1040400018F49093D10602C01092D1068091D30645
:104050008F5F8093D3060895CF93FC01C62F808194
:104060008B3399F08091D306843078F42091D10677
:1040700030E6239FC0011124BF018F5A9A4F0E943E
:10408000B4F68C2FD4DF81E001C080E0CF91089599
:104090000F931F93CF93DF93EC01DEDF8823B1F002
:1040A000E2E9FEE084918F010F5F1F4F882319F032
:1040B00061DBF801F7CFBE0182E39AE00E946E88CF
:1040C00082E258DB8AE056DB81E001C080E0DF91CC
:1040D000CF911F910F910895DF92EF92FF920F936E
:1040E0001F93CF93DF93CDB7DEB76E970FB6F894DB
:1040F000DEBF0FBECDBF60914F05709150056115B9
:10410000710559F14DE150E08E010F5F1F4FC8015D
:104110000E9443F61E8EF8017F01E01AF10AD19049
:10412000DD2019F08AE0D812F7CFF801EE0DFF1D5F
:10413000108260E0C801ACDF882379F0DD20B1F0A7
:104140008FEFE81AF80A80914F05909150058E0D77
:104150009F1D9093500580934F0581E020914F055E
:1041600030915005232B29F480E003C080E090E0DB
:10417000F0CF6E960FB6F894DEBF0FBECDBFDF91C5
:10418000CF911F910F91FF90EF90DF900895909342
:10419000500580934F05A0CF60E08FE40E941CED96
:1041A00061E08AE30E941CED8C98089552985A9A17
:1041B00008958F929F92AF92BF92CF92DF92EF922B
:1041C000FF920F931F93CF93DF93CDB7DEB728975E
:1041D0000FB6F894DEBF0FBECDBF809108078823CD
:1041E00009F482C18091D306811102C010923E046D
:1041F000992493944091840950918509609186098E
:10420000709187098091800990918109A09182091C
:10421000B0918309481759076A077B0708F4912C66
:1042200000E010E0BB24B394F0E6AF2E9091D306EB
:1042300080910307943008F0AEC09110ACC090910B
:104240003E049111A8C08111A6C08091DB08909115
:10425000DC08A091DD08B091DE088093840990937A
:104260008509A0938609B093870983ED98E00E94A1
:104270007651882E99249394C0908409D090850912
:10428000E0908609F090870940918009509181095A
:104290006091820970918309C416D506E606F70677
:1042A000C0F4912C8F3F2FEF920749F14AE0841719
:1042B00009F442C0ADE08A1709F43EC0B3E28B179F
:1042C00019F02AE382134DC020913D04211149C009
:1042D0002EC0E6EEF8E084917F014FEFE41AF40A75
:1042E000882319F047DAF701F6CF86E097E00E94BD
:1042F000B96661E086E097E00E942A6218C0E8E9AA
:10430000FEE084917F019FEFE91AF90A882319F0F2
:1043100031DAF701F6CFE7EDF8E084917F01AFEFF6
:10432000EA1AFA0A882319F025DAF701F6CFB3E280
:104330008B1202C0B0923E0410923D04011511058B
:1043400009F474CF8091D106F801A89EE00DF11D0B
:104350001124EF5AFA4F108280E069DE00E010E08D
:1043600065CF0F35110508F061CF2BE3821202C033
:10437000B0923D0420913D04211158CF9091D10677
:10438000F801A99EE00DF11D1124EF5AFA4F808328
:104390000F5F1F4F4BCF882309F4A6C0E1E5F5E07E
:1043A00021EB35E081E196E061E776E01192D901F9
:1043B0001D929D01DC011D92CD01DB011D92BD010D
:1043C000B5E0E13BFB0791F7C090090560911B0246
:1043D00070911C02882777FD8095982F0E946CEFC2
:1043E00019821A821B821C8200E010E020E830EC67
:1043F0000D831E832F8338877B018C0125EA3BE0E8
:1044000049EA5BE0BE016F5F7F4FCE0105960E94D7
:10441000AA7B65EA7BE083E090E00E94518780916F
:10442000B10B9091B20BA091B30BB091B40B8093F0
:10443000E2069093E306A093E406B093E50680912C
:10444000AD0B9091AE0BA091AF0BB091B00B8093E0
:10445000E6069093E706A093E806B093E9062AE9FA
:1044600039E949E95EE36091FA067091FB068091B3
:10447000FC069091FD060E94CDF01816BCF42DECC0
:104480003CEC4CEC5DE36091A90B7091AA0B809120
:10449000AB0B9091AC0B0E94F0ED6093FA06709319
:1044A000FB068093FC069093FD0610C08091A90B3B
:1044B0009091AA0BA091AB0BB091AC0B8093FA0634
:1044C0009093FB06A093FC06B093FD0685E595E569
:1044D000A5E0B2E480931D0290931E02A0931F02F8
:1044E000B09320021092030728960FB6F894DEBF0F
:1044F0000FBECDBFDF91CF911F910F91FF90EF9035
:10450000DF90CF90BF90AF909F908F900895FF92D3
:104510000F931F93CF93DF93EC0184E5B8DB8823DF
:1045200021F116DCF82E1816ECF4E2E9FEE0849195
:104530008F010F5F1F4F882319F01CD9F801F7CFA7
:104540008DE418D96AE070E0CE0196D96F2D7727F7
:1045500067FD709584EC98E00E9496888AE00AD9FD
:1045600081E008C08093D00404C080910905809345
:10457000D00480E0DF91CF911F910F91FF900895BB
:10458000AF92BF92CF92DF92EF92FF920F931F9361
:10459000CF93DF93EC018C01000F111F000F111F4F
:1045A000F801EC5DFA4F20E030E0A90160817181F3
:1045B000828193810E94F1EDF801E05DFA4F208144
:1045C0003181428153810E94F1ED6B017C01F80140
:1045D000E85EFA4F60837183828393830E58154F90
:1045E000F80165917591859194918E01000F111FCD
:1045F000000F111F9801245F3A4F5901A70196013E
:104600000E94F1EDF50160837183828393830A59DF
:10461000154FF8016591759185919491CC0FDD1F2F
:10462000CC0FDD1FC45FDD4FA70196010E94F1EDA5
:10463000688379838A839B83DF91CF911F910F9148
:10464000FF90EF90DF90CF90BF90AF9008954F9282
:104650005F926F927F92AF92BF92CF92DF92EF9272
:10466000FF920F931F93CF93DF93EC01FC01E15C6A
:10467000F54F6491FC01EE0FFF1FEE0FFF1FE25B91
:10468000F54F4590559065907490772767FD70952C
:10469000872F972F0E946CEF6B017C0120E030E0A8
:1046A00040EC5FE3C301B2010E9408F1A70196014B
:1046B0000E9408F1AB01BC0100E010E09801CE01BE
:1046C00050DCFE01EE0FFF1FEE0FFF1FEE5BF54FFC
:1046D0002591359145915491C701B6010E9408F189
:1046E0006B017C0120E030E0A9010E94CAEE5E016E
:1046F000AA0CBB1CAA0CBB1C882309F445C000E013
:1047000010E09801B701A6017058CE012ADCFE0125
:10471000E058F74F6491611117C0E2E9FEE084911F
:104720008F010F5F1F4F882319F024D8F801F7CFAE
:10473000EEE5F8E084918F010F5F1F4F882319F099
:1047400019D8F801F7CF6AE0F501E258F54F459026
:1047500055906590749070E080E090E00E946CEF5E
:104760009B01AC01C301B2010E94D1EE2B013C01BF
:10477000A7019601C701B6010E94F1EDAB01BC0192
:1047800093018201CE01EDDBFE01E152F94F81E0A0
:104790008083FE01E452F94F8083F501E05DFA4F1A
:1047A0001082118212821382CE01EADEF501E65AEE
:1047B000F54F6591759185919491CC0FDD1FCC0FCC
:1047C000DD1F8E010E50194FFE01E85EFA4F208169
:1047D0003181428153810E94F1EDF8016083718340
:1047E00082839383B4DBCE51D94FF80180819181CC
:1047F000A281B38188839983AA83BB83DF91CF9100
:104800001F910F91FF90EF90DF90CF90BF90AF90EE
:104810007F906F905F904F900895CF92EF92FF92AC
:104820000F931F93E0901D02F0901E0200911F0253
:1048300010912002C09009052EEF36E04AEF56E0B5
:1048400066EF76E082EF96E00E94AA7B1F910F91BF
:10485000FF90EF90CF900895CF92EF92FF920F9339
:104860001F93C09009057B018C012EEE36E04AEEC5
:1048700056E066EE76E082EE96E00E94AA7B1F91FB
:104880000F91FF90EF90CF90089580E1E2EEF6E077
:10489000A2EFB6E001900D928A95E1F7089580E1CC
:1048A000E2EFF6E0A2EEB6E001900D928A95E1F714
:1048B00008954F925F926F927F928F929F92AF92E4
:1048C000BF92CF92DF92EF92FF920F931F93CF93FD
:1048D000DF936C017B018A01E90180901D029090B9
:1048E0001E02A0901F02B0902002FA0120813181A7
:1048F000428153816091FA067091FB068091FC061B
:104900009091FD060E94CAEE87FF2CC04880598016
:104910006A807B8020E030E0A901B201C3010E94DF
:10492000CAEE811107C0E6E8FAE085919591A5915C
:10493000B49102C0C201D30180931D0290931E0264
:10494000A0931F02B0932002F80180819181A2817F
:10495000B3818093FA069093FB06A093FC06B09374
:10496000FD065BDF488059806A807B8020E030E074
:10497000A901B201C3010E94CAEE811105C055E52B
:1049800045E535E023E404C0542D452D362D272D73
:10499000852F942FA32FB22F80931D0290931E0278
:1049A000A0931F02B0932002F60180819181A28121
:1049B000B3818093F2069093F306A093F406B0932C
:1049C000F506F70180819181A281B3818093F6067B
:1049D0009093F706A093F806B093F9061EDFF8014E
:1049E00020813181428153816091FA067091FB06EA
:1049F0008091FC069091FD060E94CDF0181684F57A
:104A0000D880E980FA80CB8120E030E0A9016D2DCB
:104A10007E2D8F2D9C2F0E94CAEE811107C0E6E8E3
:104A2000FAE085919591A591B49104C08D2D9E2DAC
:104A3000AF2DBC2F80931D0290931E02A0931F02E6
:104A4000B0932002F80180819181A281B38180938B
:104A5000FA069093FB06A093FC06B093FD06DDDEFC
:104A60000E94A99080921D0290921E02A0921F02A5
:104A7000B0922002DF91CF911F910F91FF90EF90A4
:104A8000DF90CF90BF90AF909F908F907F906F906E
:104A90005F904F9008959B01AC0166EF76E082EF46
:104AA00096E007CF9A014AEF56E003CFCF92DF920C
:104AB000EF92FF920F931F93CF93DF9339E0E32E92
:104AC00033E0F32E02EE16E0C2EFD6E045E4C42E4A
:104AD00045E0D42EF70181917F01ABD88823C9F03E
:104AE000E2D8F6012081211104C02091080522237B
:104AF00029F0288139814A815B8103C020E030E0C0
:104B0000A9010E94F1EDF801608371838283938390
:104B100009C088819981AA81BB81F8018083918332
:104B2000A283B3830C5F1F4F2496FFEFCF1ADF0AD7
:104B30008DE0E81683E0F80669F686E4A8D88823B5
:104B4000B9F0B1D820E030E0A9010E94CDF01816EC
:104B50007CF4A9D820E030E040E752E40E94D1EE96
:104B600060931D0270931E0280931F029093200297
:104B7000DF91CF911F910F91FF90EF90DF90CF9039
:104B80000895CF92DF92EF92FF92CF93DF930E942E
:104B90003EEB6B017C0180910602882309F468C01A
:104BA0002091BB043091BC042115310509F460C08B
:104BB0008091B7049091B804A091B904B091BA045F
:104BC000B701A601481B590B6A0B7B0B77FD63C02D
:104BD0002330310519F13CF4213031050CF448C083
:104BE000E2E9FEE007C02430310509F041C0E2E906
:104BF000FEE02AC08491EF012196882321F00E94D3
:104C0000BA1BFE01F7CFE2EBF8E08491EF012196A9
:104C1000882371F10E94BA1BFE01F7CFE2E9FEE0A2
:104C20008491EF012196882321F00E94BA1BFE0196
:104C3000F7CFEBE9F8E08491EF0121968823C1F0EA
:104C40000E94BA1BFE01F7CF8491EF0121968823C1
:104C500021F00E94BA1BFE01F7CFE3E8F8E084914F
:104C6000EF012196882321F00E94BA1BFE01F7CFA5
:104C70002091060230E0A8EEB3E00E9448F26C0DED
:104C80007D1D8E1D9F1D6093B7047093B8048093A3
:104C9000B9049093BA04DF91CF91FF90EF90DF9029
:104CA000CF9008958C9A80910B148823D9F10E949B
:104CB00052688091A10B9091A20BA091A30BB0918F
:104CC000A40B85369105A105B1055CF00597A109F6
:104CD000B1098093A10B9093A20BA093A30BB09367
:104CE000A40B4091A10B5091A20B6091A30B70916A
:104CF000A40B4093840950938509609386097093AF
:104D0000870983ED98E00E94435281E08093030776
:104D10008093040710920B148FEF90E090930B0593
:104D200080930A05669B0BC081E08093050741E0F4
:104D300050E069EE7CE1809122020C942BE9089509
:104D40000F931F93CF93DF93CDB7DEB769970FB65D
:104D5000F894DEBF0FBECDBF8FEE94E00E94459267
:104D60006E8B7F8B888F998FBE016F5F7F4FCE01D7
:104D700046960E94651D60E0CE0101960E94EDD826
:104D8000E2E9FEE084918F010F5F1F4F882321F03D
:104D90000E94BA1BF801F6CFBE016F5F7F4F8BE90F
:104DA00097E00E946E888AE00E94BA1B69960FB64F
:104DB000F894DEBF0FBECDBFDF91CF911F910F9151
:104DC00008951F93CF93DF938091080781110E946C
:104DD000A990C091E10BD091E20B80E50E94191ED1
:104DE000882321F00E94B91E182F01C010E0809185
:104DF0000907882349F1212F41E0BE0186E097E0B1
:104E00000E947E6383E50E94471E882381F00E94F2
:104E1000881EAB01BC0140938409509385096093BF
:104E200086097093870983ED98E00E94435286E0DB
:104E300097E00E941960111107C08FEE94E0DF9196
:104E4000CF911F910C947292DF91CF911F91089591
:104E50000F931F93CF93DF9383E50E94471E882310
:104E600009F445C00E94A81E082F80E50E94471E35
:104E7000882331F00E94881E77FD39C0EB0102C003
:104E8000CDE0D0E08C2FE8E2F7E09491891731F083
:104E9000319697E0E035F907C1F716C0E8E9FEE082
:104EA0008491EF012196882321F00E94BA1BFE0114
:104EB000F7CFE0E5F7E08491EF0121968823B9F080
:104EC0000E94BA1BFE01F7CF61E08C2F0E941CEDFF
:104ED000602F8C2F0E9455ED10E0B8018C2F0E949E
:104EE00006EC299721F410930B0500930A05DF9136
:104EF000CF911F910F91089588E690E008DB811112
:104F000047C08091020783FD43C083E50E94471E8E
:104F10008823E1F10E94531E0E9439EF709315120D
:104F20006093141280E00E944A960E94531E20E073
:104F300030E04AEA52E40E94CAEE18164CF08FEEB6
:104F400094E00E940F9260E08BE197E00E94FDD810
:104F50000E94531E20911C1230911D1240911E126E
:104F600050911F120E94CDF0181684F488ED92E043
:104F70009F938F9381E197E09F938F931F920E945D
:104F800012DB0F900F900F900F900F900C943A88B7
:104F90000895EF92FF920F931F93CF93DF931F9289
:104FA000CDB7DEB78C017B0180E249830E94BA1B3A
:104FB00049814F3F11F482E401C084E50E94BA1B8D
:104FC0008AE30E94BA1BF80160817181828193811A
:104FD00042E050E00E94E81CF7014081518162816B
:104FE00073818BE598E00F90DF91CF911F910F9126
:104FF000FF90EF900C94CD880F931F93CF93DF9386
:10500000CDB7DEB728970FB6F894DEBF0FBECDBF81
:105010006091141270911512882777FD8095982F52
:105020000E946CEF69837A838B839C8380911C122E
:1050300090911D12A0911E12B0911F128D839E831C
:10504000AF83B8874EEFBE016F5F7F4FCE010596ED
:10505000A0DF6091101270911112882777FD809562
:10506000982F0E946CEF69837A838B839C83809155
:10507000181290911912A0911A12B0911B128D83DF
:105080009E83AF83B8874FEFBE016F5F7F4FCE0126
:1050900005967FDFE7E5F8E084918F010F5F1F4FF2
:1050A000882321F00E94BA1BF801F6CF8091D0042A
:1050B00090E00E9449936AE070E00E94651CE2E57E
:1050C000F8E084918F010F5F1F4F882321F00E9429
:1050D000BA1BF801F6CF8FEF9FEF0E9449936AE069
:1050E00070E00E94651C28960FB6F894DEBF0FBED4
:1050F000CDBFDF91CF911F910F910895CF92DF9295
:10510000EF92FF928091A404882379F10E943EEBF4
:10511000C090A004D090A104E090A204F090A30459
:105120006C197D098E099F0997FD1FC00E943EEBF7
:105130006B017C012091A40430E0A8EEB3E00E9452
:1051400048F2C60ED71EE81EF91EC092A004D092E7
:10515000A104E092A204F092A3044EDF8AE0FF9043
:10516000EF90DF90CF900C94BA1BFF90EF90DF9000
:10517000CF900895DF92EF92FF920F931F93CF93FA
:10518000DF9383E50E94471E882319F00E94A81E22
:1051900001C080E080930207E2E9FEE08491EF0124
:1051A0002196882321F00E94BA1BFE01F7CFEAE086
:1051B000F7E08491EF012196882321F00E94BA1B29
:1051C000FE01F7CF80910207882381F100E017E00C
:1051D000C0E0D0E020E08091020790E00C2E02C0F9
:1051E000959587950A94E2F780FF17C0DD24D39444
:1051F000D20E222319F08CE20E94BA1BF8012591ED
:105200003491F90184917901FFEFEF1AFF0A8823A5
:1052100029F00E94BA1B9701F4CFD22E21960E5F7F
:105220001F4FC530D10569F02D2DD5CFECEFF6E03D
:105230008491EF012196882321F00E94BA1BFE0180
:10524000F7CF8AE0DF91CF911F910F91FF90EF9000
:10525000DF900C94BA1BCF93DF9383E50E94471E27
:10526000882351F00E94A81E8D3308F08CE38093B0
:105270000602DF91CF910895E2E9FEE08491EF010B
:105280002196882321F00E94BA1BFE01F7CF40919E
:10529000060250E060E070E082EC96E00E9409892E
:1052A0008AE0DF91CF910C94BA1BCF93DF9383E513
:1052B0000E94471E882319F00E94881E02C060E0E9
:1052C00070E0EB01DD27C230D105B8F0E8E9FEE07F
:1052D0008491EF012196882321F00E94BA1BFE01E0
:1052E000F7CFE2E8F4E08491EF012196882309F4F6
:1052F0004EC00E94BA1BFE01F6CF88E40E94471EF2
:105300008823A9F00E94881E6A3A71053CF0653036
:1053100081E078072CF064E071E002C06AEA70E096
:10532000FE01EE0FFF1FE95FFB4E7183608386E491
:105330000E94471E882399F00E94881E6F3F7105C6
:1053400019F014F06FEF70E0FE01EE0FFF1FE15057
:10535000FC4E77FF02C060E070E07183608382E4FE
:105360000E94471E882399F00E94881E65307105AF
:1053700034F0683871052CF067E870E002C065E031
:1053800070E0CC0FDD1FCD5FDB4E79836883DF914A
:10539000CF9108957F928F929F92AF92BF92CF92BA
:1053A000DF92EF92FF920F931F93CF93DF9309E069
:1053B00013E0C3E7DCE0712CF80181918F010E94BA
:1053C000191E882309F46CC0F3E07F1263C00E94A9
:1053D000531E6B017C0120E030E040EA51E40E9462
:1053E000CAEE87FF4EC0A701960160917F0C7091B5
:1053F000800C8091810C9091820C0E94D1EE4B0127
:105400005C019B01AC0160912B0C70912C0C809184
:105410002D0C90912E0C0E9408F160932B0C709330
:105420002C0C80932D0C90932E0CA501940160916F
:105430008F0C7091900C8091910C9091920C0E9425
:1054400008F160938F0C7093900C8093910C909363
:10545000920C60915F0C7091600C8091610C909146
:10546000620C0E946AEFA50194010E9408F10E945B
:105470003EEF60935F0C7093600C8093610C90938F
:10548000620CC0927F0CD092800CE092810CF09262
:10549000820C06C00E94531E688379838A839B8393
:1054A0007394249684E0781287CFDF91CF911F9177
:1054B0000F91FF90EF90DF90CF90BF90AF909F90B3
:1054C0008F907F900C941688CF93DF93EFE4F8E0F1
:1054D0008491EF012196882321F00E94BA1BFE01DE
:1054E000F7CF6091F2067091F3068091F4069091E7
:1054F000F50642E050E00E94E81CEBE4F8E08491FD
:10550000EF012196882321F00E94BA1BFE01F7CFFC
:105510006091F6067091F7068091F8069091F90671
:1055200042E050E00E94E81CE7E4F8E08491EF01DB
:105530002196882321F00E94BA1BFE01F7CF6091CB
:10554000FA067091FB068091FC069091FD0642E000
:1055500050E00E94E81CE3E4F8E08491EF0121961A
:10556000882321F00E94BA1BFE01F7CF6091FE064E
:105570007091FF06809100079091010742E050E092
:105580000E94E81CDF91CF910C948E91EF92FF92D4
:105590000F931F93CF93DF9300D01F921F92CDB72D
:1055A000DEB78D830E94A99040911D0250911E028A
:1055B00060911F027091200240934B0550934C055F
:1055C00060934D0570934E0520911B0230911C0293
:1055D00030934A052093490524E630E030931C02BD
:1055E00020931B020E945A1D91E09093BB0B8D816A
:1055F000811118C088E50E94191EF82E89E50E94C5
:10560000191E182F8AE50E94191EF11007C01111EA
:1056100010C0E12C882391F001E018C0082F11235D
:1056200089F001C001E0102FEE24E394FF24F394ED
:105630000DC0082FE12CFF24F39407C0F12C00E0EB
:1056400011E004C0EE24E394F12C10E028D91111EC
:1056500005C0E11003C0FF2009F43EC020E030E0A7
:10566000A9016091200570912105809122059091FA
:1056700023050E94F1ED6093EA067093EB06809398
:10568000EC069093ED062091FA063091FB064091CE
:10569000FC065091FD060E94CDF0181654F41982B4
:1056A0001A821B821C82BE016F5F7F4F8AEE96E0DA
:1056B000F2D9111105C0E11003C0F11007C00CC0F0
:1056C00080E090E00E9427231123B9F381E090E06D
:1056D0000E942723111102C0002321F082E090E0F4
:1056E0000E9427230E94A71F8091BA0B8093BB0BB7
:1056F00080914B0590914C05A0914D05B0914E05C0
:1057000080931D0290931E02A0931F02B09320026B
:105710008091490590914A0590931C0280931B0249
:105720000E945A1D83E080934602CEDE0F900F90B8
:105730000F900F900F90DF91CF911F910F91FF90DD
:10574000EF9008958F929F92AF92BF92CF92DF9287
:10575000EF92FF920F931F93CF93DF9300D01F928E
:10576000CDB7DEB785E40E94471EB82E811102C076
:105770000E94A99019E0C12E13E0D12E00E3E02E83
:1057800005E0F02E02EF16E0812C912CA12CF60101
:1057900081916F010E94471E882361F1F8012081E9
:1057A00031814281538129833A834B835C830E94F8
:1057B000531EF801608371838283938329813A8128
:1057C0004B815C81F3E08F16A9F00E94F0ED9B0104
:1057D000AC01F70160817181828193810E94F1EDBA
:1057E000F7016083718382839383C4010E94C02286
:1057F000AA24A394FFEF8F1A9F0A84E0E80EF11CFD
:105800000C5F1F4FE4E08E16910409F6AA2019F0F0
:105810000E94A71F08C0BB2031F06EEF76E083E046
:1058200090E00E9451870F900F900F900F90DF91A2
:10583000CF911F910F91FF90EF90DF90CF90BF908D
:10584000AF909F908F9040CECF93DF93E3E8F5E049
:105850008491EF012196882321F00E94BA1BFE015A
:10586000F7CFE5E7F5E08491EF012196882321F059
:105870000E94BA1BFE01F7CFEEE5F5E08491EF013F
:105880002196882321F00E94BA1BFE01F7CFEEE497
:10589000F5E08491EF012196882321F00E94BA1B44
:1058A000FE01F7CFEDE3F5E08491EF012196882327
:1058B00021F00E94BA1BFE01F7CFECE2F5E08491E3
:1058C000EF012196882321F00E94BA1BFE01F7CF39
:1058D000EDE1F5E08491EF012196882321F00E940B
:1058E000BA1BFE01F7CFE8E0F5E08491EF012196C5
:1058F000882321F00E94BA1BFE01F7CFE2EFF4E00B
:105900008491EF012196882321F00E94BA1BFE01A9
:10591000F7CFEDEDF4E08491EF012196882321F09B
:105920000E94BA1BFE01F7CFE0ECF4E08491EF0196
:105930002196882321F00E94BA1BFE01F7CFE8EAE6
:10594000F4E08491EF012196882321F00E94BA1B94
:10595000FE01F7CFDF91CF910895CF93DF9385E4D8
:105960000E94191E882379F00E94B91E882359F0DD
:10597000E2E9FEE08491EF012196882321F00E9464
:10598000BA1BFE01F7CF81E40E94191E882379F02B
:105990000E94B91E882359F0E4EAF4E08491EF01F3
:1059A0002196882321F00E94BA1BFE01F7CFC091F7
:1059B000E10BD091E20B8991882319F00E94BA1B68
:1059C000FACF8AE0DF91CF910C94BA1B83E50E9455
:1059D000191E8823D9F00E94531EAB01BC014093CD
:1059E000370C5093380C6093390C70933A0C4093F9
:1059F0002F0C5093300C6093310C7093320C8AE56D
:105A000094E00E94CD888AE00E94BA1B80E50E9443
:105A1000191E882399F00E94531EAB01BC014093CC
:105A2000370C5093380C6093390C70933A0C8DE31B
:105A300094E00E94CD888AE00E94BA1B82E50E9411
:105A4000191E882399F00E94531EAB01BC0140939C
:105A5000330C5093340C6093350C7093360C8EE1FC
:105A600094E00E94CD888AE00E94BA1B84E50E94DF
:105A7000191E882399F00E94531EAB01BC0140936C
:105A80002F0C5093300C6093310C7093320C80E0EB
:105A900094E00E94CD888AE00C94BA1B089583E5B7
:105AA0000E94191E882351F00E94531E60933B0CE4
:105AB00070933C0C80933D0C90933E0C84E50E94C7
:105AC000191E882351F00E94531E60931B0C709383
:105AD0001C0C80931D0C90931E0C82E40E94191ED6
